{
  "_format": "hh-sol-artifact-1",
  "contractName": "Swirl",
  "sourceName": "contracts/Swirl.sol",
  "abi": [
    {
      "inputs": [
        {
          "internalType": "address",
          "name": "_wallet",
          "type": "address"
        },
        {
          "internalType": "string",
          "name": "_orgUsername",
          "type": "string"
        },
        {
          "internalType": "string",
          "name": "_orgname",
          "type": "string"
        },
        {
          "internalType": "string",
          "name": "_orgLogo",
          "type": "string"
        },
        {
          "internalType": "string",
          "name": "_orgdiscription",
          "type": "string"
        },
        {
          "internalType": "string",
          "name": "_orgOrigin",
          "type": "string"
        },
        {
          "internalType": "string",
          "name": "_empstrength",
          "type": "string"
        },
        {
          "internalType": "string",
          "name": "_orgFounder",
          "type": "string"
        },
        {
          "internalType": "string",
          "name": "_orgCatagory",
          "type": "string"
        }
      ],
      "name": "createAdvertiser",
      "outputs": [
        {
          "internalType": "uint256",
          "name": "",
          "type": "uint256"
        }
      ],
      "stateMutability": "nonpayable",
      "type": "function"
    },
    {
      "inputs": [
        {
          "internalType": "address",
          "name": "_advertiserAddress",
          "type": "address"
        },
        {
          "internalType": "uint256",
          "name": "_balance",
          "type": "uint256"
        },
        {
          "internalType": "string",
          "name": "_campaignName",
          "type": "string"
        },
        {
          "internalType": "string",
          "name": "_budget",
          "type": "string"
        },
        {
          "internalType": "string",
          "name": "_payclick",
          "type": "string"
        },
        {
          "internalType": "string",
          "name": "_stringCID",
          "type": "string"
        }
      ],
      "name": "createCampaign",
      "outputs": [
        {
          "internalType": "uint256",
          "name": "",
          "type": "uint256"
        }
      ],
      "stateMutability": "nonpayable",
      "type": "function"
    },
    {
      "inputs": [
        {
          "internalType": "address",
          "name": "_wallet",
          "type": "address"
        },
        {
          "internalType": "string",
          "name": "_orgUsername",
          "type": "string"
        },
        {
          "internalType": "string",
          "name": "_orgname",
          "type": "string"
        },
        {
          "internalType": "string",
          "name": "_orgLogo",
          "type": "string"
        },
        {
          "internalType": "string",
          "name": "_orgdiscription",
          "type": "string"
        },
        {
          "internalType": "string",
          "name": "_orgOrigin",
          "type": "string"
        },
        {
          "internalType": "string",
          "name": "_empstrength",
          "type": "string"
        },
        {
          "internalType": "string",
          "name": "_orgFounder",
          "type": "string"
        },
        {
          "internalType": "string",
          "name": "_orgCatagory",
          "type": "string"
        }
      ],
      "name": "createPublisher",
      "outputs": [
        {
          "internalType": "uint256",
          "name": "",
          "type": "uint256"
        }
      ],
      "stateMutability": "nonpayable",
      "type": "function"
    },
    {
      "inputs": [
        {
          "internalType": "address",
          "name": "_advertiserAddress",
          "type": "address"
        }
      ],
      "name": "deposit",
      "outputs": [],
      "stateMutability": "payable",
      "type": "function"
    },
    {
      "inputs": [
        {
          "internalType": "address",
          "name": "_wallet",
          "type": "address"
        }
      ],
      "name": "getAdvertiser",
      "outputs": [
        {
          "internalType": "uint256",
          "name": "",
          "type": "uint256"
        },
        {
          "internalType": "address",
          "name": "",
          "type": "address"
        },
        {
          "internalType": "uint256",
          "name": "",
          "type": "uint256"
        },
        {
          "internalType": "string",
          "name": "",
          "type": "string"
        },
        {
          "internalType": "string",
          "name": "",
          "type": "string"
        },
        {
          "internalType": "string",
          "name": "",
          "type": "string"
        },
        {
          "internalType": "string",
          "name": "",
          "type": "string"
        },
        {
          "internalType": "string",
          "name": "",
          "type": "string"
        },
        {
          "internalType": "string",
          "name": "",
          "type": "string"
        },
        {
          "internalType": "string",
          "name": "",
          "type": "string"
        },
        {
          "internalType": "string",
          "name": "",
          "type": "string"
        }
      ],
      "stateMutability": "view",
      "type": "function"
    },
    {
      "inputs": [
        {
          "internalType": "address",
          "name": "_wallet",
          "type": "address"
        }
      ],
      "name": "getAdvertiserBalance",
      "outputs": [
        {
          "internalType": "uint256",
          "name": "",
          "type": "uint256"
        }
      ],
      "stateMutability": "view",
      "type": "function"
    },
    {
      "inputs": [],
      "name": "getAllAdvertisers",
      "outputs": [
        {
          "components": [
            {
              "internalType": "uint256",
              "name": "id",
              "type": "uint256"
            },
            {
              "internalType": "address",
              "name": "wallet",
              "type": "address"
            },
            {
              "internalType": "uint256",
              "name": "balance",
              "type": "uint256"
            },
            {
              "internalType": "string",
              "name": "orgUsername",
              "type": "string"
            },
            {
              "internalType": "string",
              "name": "orgname",
              "type": "string"
            },
            {
              "internalType": "string",
              "name": "orgLogo",
              "type": "string"
            },
            {
              "internalType": "string",
              "name": "orgdiscription",
              "type": "string"
            },
            {
              "internalType": "string",
              "name": "orgOrigin",
              "type": "string"
            },
            {
              "internalType": "string",
              "name": "empstrength",
              "type": "string"
            },
            {
              "internalType": "string",
              "name": "orgFounder",
              "type": "string"
            },
            {
              "internalType": "string",
              "name": "orgCatagory",
              "type": "string"
            }
          ],
          "internalType": "struct Swirl.Advertiser[]",
          "name": "",
          "type": "tuple[]"
        }
      ],
      "stateMutability": "view",
      "type": "function"
    },
    {
      "inputs": [],
      "name": "getAllCampaigns",
      "outputs": [
        {
          "components": [
            {
              "internalType": "uint256",
              "name": "id",
              "type": "uint256"
            },
            {
              "internalType": "uint256",
              "name": "advertiserId",
              "type": "uint256"
            },
            {
              "internalType": "uint256",
              "name": "balance",
              "type": "uint256"
            },
            {
              "internalType": "string",
              "name": "campaignName",
              "type": "string"
            },
            {
              "internalType": "string",
              "name": "budget",
              "type": "string"
            },
            {
              "internalType": "string",
              "name": "payclick",
              "type": "string"
            },
            {
              "internalType": "string",
              "name": "stringCID",
              "type": "string"
            }
          ],
          "internalType": "struct Swirl.Campaign[]",
          "name": "",
          "type": "tuple[]"
        }
      ],
      "stateMutability": "view",
      "type": "function"
    },
    {
      "inputs": [],
      "name": "getAllPublishers",
      "outputs": [
        {
          "components": [
            {
              "internalType": "uint256",
              "name": "id",
              "type": "uint256"
            },
            {
              "internalType": "address",
              "name": "wallet",
              "type": "address"
            },
            {
              "internalType": "string",
              "name": "orgUsername",
              "type": "string"
            },
            {
              "internalType": "string",
              "name": "orgname",
              "type": "string"
            },
            {
              "internalType": "string",
              "name": "orgLogo",
              "type": "string"
            },
            {
              "internalType": "string",
              "name": "orgdiscription",
              "type": "string"
            },
            {
              "internalType": "string",
              "name": "orgOrigin",
              "type": "string"
            },
            {
              "internalType": "string",
              "name": "empstrength",
              "type": "string"
            },
            {
              "internalType": "string",
              "name": "orgFounder",
              "type": "string"
            },
            {
              "internalType": "string",
              "name": "orgCatagory",
              "type": "string"
            }
          ],
          "internalType": "struct Swirl.Publisher[]",
          "name": "",
          "type": "tuple[]"
        }
      ],
      "stateMutability": "view",
      "type": "function"
    },
    {
      "inputs": [
        {
          "internalType": "address",
          "name": "_advertiserAddress",
          "type": "address"
        }
      ],
      "name": "getCampaign",
      "outputs": [
        {
          "internalType": "uint256[]",
          "name": "ids",
          "type": "uint256[]"
        },
        {
          "internalType": "uint256[]",
          "name": "balances",
          "type": "uint256[]"
        },
        {
          "internalType": "string[]",
          "name": "campaignNames",
          "type": "string[]"
        },
        {
          "internalType": "string[]",
          "name": "budgets",
          "type": "string[]"
        },
        {
          "internalType": "string[]",
          "name": "payclicks",
          "type": "string[]"
        },
        {
          "internalType": "string[]",
          "name": "stringCIDs",
          "type": "string[]"
        }
      ],
      "stateMutability": "view",
      "type": "function"
    },
    {
      "inputs": [],
      "name": "getCurrentId",
      "outputs": [
        {
          "internalType": "uint256",
          "name": "",
          "type": "uint256"
        }
      ],
      "stateMutability": "view",
      "type": "function"
    },
    {
      "inputs": [
        {
          "internalType": "address",
          "name": "_wallet",
          "type": "address"
        }
      ],
      "name": "getOneCampaigns",
      "outputs": [
        {
          "components": [
            {
              "internalType": "uint256",
              "name": "id",
              "type": "uint256"
            },
            {
              "internalType": "uint256",
              "name": "advertiserId",
              "type": "uint256"
            },
            {
              "internalType": "uint256",
              "name": "balance",
              "type": "uint256"
            },
            {
              "internalType": "string",
              "name": "campaignName",
              "type": "string"
            },
            {
              "internalType": "string",
              "name": "budget",
              "type": "string"
            },
            {
              "internalType": "string",
              "name": "payclick",
              "type": "string"
            },
            {
              "internalType": "string",
              "name": "stringCID",
              "type": "string"
            }
          ],
          "internalType": "struct Swirl.Campaign[]",
          "name": "",
          "type": "tuple[]"
        }
      ],
      "stateMutability": "view",
      "type": "function"
    },
    {
      "inputs": [
        {
          "internalType": "address",
          "name": "_wallet",
          "type": "address"
        }
      ],
      "name": "getPublisher",
      "outputs": [
        {
          "internalType": "uint256",
          "name": "",
          "type": "uint256"
        },
        {
          "internalType": "address",
          "name": "",
          "type": "address"
        },
        {
          "internalType": "string",
          "name": "",
          "type": "string"
        },
        {
          "internalType": "string",
          "name": "",
          "type": "string"
        },
        {
          "internalType": "string",
          "name": "",
          "type": "string"
        },
        {
          "internalType": "string",
          "name": "",
          "type": "string"
        },
        {
          "internalType": "string",
          "name": "",
          "type": "string"
        },
        {
          "internalType": "string",
          "name": "",
          "type": "string"
        },
        {
          "internalType": "string",
          "name": "",
          "type": "string"
        },
        {
          "internalType": "string",
          "name": "",
          "type": "string"
        }
      ],
      "stateMutability": "view",
      "type": "function"
    },
    {
      "inputs": [
        {
          "internalType": "address",
          "name": "_wallet",
          "type": "address"
        }
      ],
      "name": "getPublisherWithdrawBalance",
      "outputs": [
        {
          "internalType": "uint256",
          "name": "",
          "type": "uint256"
        }
      ],
      "stateMutability": "view",
      "type": "function"
    },
    {
      "inputs": [
        {
          "internalType": "address",
          "name": "_publisherAddress",
          "type": "address"
        },
        {
          "internalType": "uint256",
          "name": "_ammount",
          "type": "uint256"
        }
      ],
      "name": "withdraw",
      "outputs": [],
      "stateMutability": "nonpayable",
      "type": "function"
    }
  ],
  "bytecode": "0x608060405234801561001057600080fd5b50615212806100206000396000f3fe6080604052600436106100e85760003560e01c8063731301cf1161008a5780639fd31557116100595780639fd315571461035c578063c74e775a14610399578063f340fa01146103d6578063f3fef3a3146103f2576100e8565b8063731301cf1461026c57806386cdf604146102ae5780638b043e08146102d95780639cc52aee1461031f576100e8565b806365a2db1c116100c657806365a2db1c146101925780636c143862146101cf5780636d321f7a146101fa57806372536e9014610225576100e8565b8063109fd1fb146100ed57806343da89901461012a5780634c96f28114610167575b600080fd5b3480156100f957600080fd5b50610114600480360381019061010f9190613b59565b61041b565b6040516101219190613da2565b60405180910390f35b34801561013657600080fd5b50610151600480360381019061014c9190613b59565b6107d5565b60405161015e9190613dd3565b60405180910390f35b34801561017357600080fd5b5061017c610921565b6040516101899190613fca565b60405180910390f35b34801561019e57600080fd5b506101b960048036038101906101b49190614121565b610ee5565b6040516101c69190613dd3565b60405180910390f35b3480156101db57600080fd5b506101e46110e9565b6040516101f19190613dd3565b60405180910390f35b34801561020657600080fd5b5061020f6110f3565b60405161021c91906144ad565b60405180910390f35b34801561023157600080fd5b5061024c60048036038101906102479190613b59565b6116c0565b6040516102639b9a99989796959493929190614528565b60405180910390f35b34801561027857600080fd5b50610293600480360381019061028e9190613b59565b611ce0565b6040516102a59695949392919061477c565b60405180910390f35b3480156102ba57600080fd5b506102c361231f565b6040516102d09190613da2565b60405180910390f35b3480156102e557600080fd5b5061030060048036038101906102fb9190613b59565b612658565b6040516103169a99989796959493929190614807565b60405180910390f35b34801561032b57600080fd5b5061034660048036038101906103419190614121565b612c64565b6040516103539190613dd3565b60405180910390f35b34801561036857600080fd5b50610383600480360381019061037e9190613b59565b612e57565b6040516103909190613dd3565b60405180910390f35b3480156103a557600080fd5b506103c060048036038101906103bb9190614907565b612f08565b6040516103cd9190613dd3565b60405180910390f35b6103f060048036038101906103eb9190613b59565b61315d565b005b3480156103fe57600080fd5b5061041960048036038101906104149190614a04565b613308565b005b6060600060045467ffffffffffffffff81111561043b5761043a613ff6565b5b60405190808252806020026020018201604052801561047457816020015b6104616139d1565b8152602001906001900390816104595790505b509050600080600190505b60045481116107ca578473ffffffffffffffffffffffffffffffffffffffff166000806001600085815260200190815260200160002060010154815260200190815260200160002060010160009054906101000a900473ffffffffffffffffffffffffffffffffffffffff1673ffffffffffffffffffffffffffffffffffffffff16036107a957600160008281526020019081526020016000206040518060e001604052908160008201548152602001600182015481526020016002820154815260200160038201805461055290614a73565b80601f016020809104026020016040519081016040528092919081815260200182805461057e90614a73565b80156105cb5780601f106105a0576101008083540402835291602001916105cb565b820191906000526020600020905b8154815290600101906020018083116105ae57829003601f168201915b505050505081526020016004820180546105e490614a73565b80601f016020809104026020016040519081016040528092919081815260200182805461061090614a73565b801561065d5780601f106106325761010080835404028352916020019161065d565b820191906000526020600020905b81548152906001019060200180831161064057829003601f168201915b5050505050815260200160058201805461067690614a73565b80601f01602080910402602001604051908101604052809291908181526020018280546106a290614a73565b80156106ef5780601f106106c4576101008083540402835291602001916106ef565b820191906000526020600020905b8154815290600101906020018083116106d257829003601f168201915b5050505050815260200160068201805461070890614a73565b80601f016020809104026020016040519081016040528092919081815260200182805461073490614a73565b80156107815780601f1061075657610100808354040283529160200191610781565b820191906000526020600020905b81548152906001019060200180831161076457829003601f168201915b50505050508152505083838151811061079d5761079c614aa4565b5b60200260200101819052505b81806107b490614b02565b92505080806107c290614b02565b91505061047f565b508192505050919050565b600080600080600190505b600554811161086d578473ffffffffffffffffffffffffffffffffffffffff166002600083815260200190815260200160002060010160009054906101000a900473ffffffffffffffffffffffffffffffffffffffff1673ffffffffffffffffffffffffffffffffffffffff160361085a5780925061086d565b808061086590614b02565b9150506107e0565b50600082116108b1576040517f08c379a00000000000000000000000000000000000000000000000000000000081526004016108a890614b96565b60405180910390fd5b6000600190505b60045481116109165760016000828152602001908152602001600020600101548303610903576001600082815260200190815260200160002060020154826109009190614bb6565b91505b808061090e90614b02565b9150506108b8565b508092505050919050565b6060600060055467ffffffffffffffff81111561094157610940613ff6565b5b60405190808252806020026020018201604052801561097a57816020015b610967613a0e565b81526020019060019003908161095f5790505b509050600080600190505b6005548111610edc576002600082815260200190815260200160002060405180610140016040529081600082015481526020016001820160009054906101000a900473ffffffffffffffffffffffffffffffffffffffff1673ffffffffffffffffffffffffffffffffffffffff1673ffffffffffffffffffffffffffffffffffffffff168152602001600282018054610a1d90614a73565b80601f0160208091040260200160405190810160405280929190818152602001828054610a4990614a73565b8015610a965780601f10610a6b57610100808354040283529160200191610a96565b820191906000526020600020905b815481529060010190602001808311610a7957829003601f168201915b50505050508152602001600382018054610aaf90614a73565b80601f0160208091040260200160405190810160405280929190818152602001828054610adb90614a73565b8015610b285780601f10610afd57610100808354040283529160200191610b28565b820191906000526020600020905b815481529060010190602001808311610b0b57829003601f168201915b50505050508152602001600482018054610b4190614a73565b80601f0160208091040260200160405190810160405280929190818152602001828054610b6d90614a73565b8015610bba5780601f10610b8f57610100808354040283529160200191610bba565b820191906000526020600020905b815481529060010190602001808311610b9d57829003601f168201915b50505050508152602001600582018054610bd390614a73565b80601f0160208091040260200160405190810160405280929190818152602001828054610bff90614a73565b8015610c4c5780601f10610c2157610100808354040283529160200191610c4c565b820191906000526020600020905b815481529060010190602001808311610c2f57829003601f168201915b50505050508152602001600682018054610c6590614a73565b80601f0160208091040260200160405190810160405280929190818152602001828054610c9190614a73565b8015610cde5780601f10610cb357610100808354040283529160200191610cde565b820191906000526020600020905b815481529060010190602001808311610cc157829003601f168201915b50505050508152602001600782018054610cf790614a73565b80601f0160208091040260200160405190810160405280929190818152602001828054610d2390614a73565b8015610d705780601f10610d4557610100808354040283529160200191610d70565b820191906000526020600020905b815481529060010190602001808311610d5357829003601f168201915b50505050508152602001600882018054610d8990614a73565b80601f0160208091040260200160405190810160405280929190818152602001828054610db590614a73565b8015610e025780601f10610dd757610100808354040283529160200191610e02565b820191906000526020600020905b815481529060010190602001808311610de557829003601f168201915b50505050508152602001600982018054610e1b90614a73565b80601f0160208091040260200160405190810160405280929190818152602001828054610e4790614a73565b8015610e945780601f10610e6957610100808354040283529160200191610e94565b820191906000526020600020905b815481529060010190602001808311610e7757829003601f168201915b505050505081525050838381518110610eb057610eaf614aa4565b5b60200260200101819052508180610ec690614b02565b9250508080610ed490614b02565b915050610985565b50819250505090565b6000801515610ef38b61388e565b151514610f35576040517f08c379a0000000000000000000000000000000000000000000000000000000008152600401610f2c90614c36565b60405180910390fd5b60036000815480929190610f4890614b02565b919050555060405180610160016040528060035481526020018b73ffffffffffffffffffffffffffffffffffffffff168152602001600081526020018a81526020018981526020018881526020018781526020018681526020018581526020018481526020018381525060008060035481526020019081526020016000206000820151816000015560208201518160010160006101000a81548173ffffffffffffffffffffffffffffffffffffffff021916908373ffffffffffffffffffffffffffffffffffffffff1602179055506040820151816002015560608201518160030190816110369190614e02565b50608082015181600401908161104c9190614e02565b5060a08201518160050190816110629190614e02565b5060c08201518160060190816110789190614e02565b5060e082015181600701908161108e9190614e02565b506101008201518160080190816110a59190614e02565b506101208201518160090190816110bc9190614e02565b5061014082015181600a0190816110d39190614e02565b5090505060035490509998505050505050505050565b6000600454905090565b6060600060035467ffffffffffffffff81111561111357611112613ff6565b5b60405190808252806020026020018201604052801561114c57816020015b611139613a77565b8152602001906001900390816111315790505b509050600080600190505b60035481116116b75760008082815260200190815260200160002060405180610160016040529081600082015481526020016001820160009054906101000a900473ffffffffffffffffffffffffffffffffffffffff1673ffffffffffffffffffffffffffffffffffffffff1673ffffffffffffffffffffffffffffffffffffffff168152602001600282015481526020016003820180546111f890614a73565b80601f016020809104026020016040519081016040528092919081815260200182805461122490614a73565b80156112715780601f1061124657610100808354040283529160200191611271565b820191906000526020600020905b81548152906001019060200180831161125457829003601f168201915b5050505050815260200160048201805461128a90614a73565b80601f01602080910402602001604051908101604052809291908181526020018280546112b690614a73565b80156113035780601f106112d857610100808354040283529160200191611303565b820191906000526020600020905b8154815290600101906020018083116112e657829003601f168201915b5050505050815260200160058201805461131c90614a73565b80601f016020809104026020016040519081016040528092919081815260200182805461134890614a73565b80156113955780601f1061136a57610100808354040283529160200191611395565b820191906000526020600020905b81548152906001019060200180831161137857829003601f168201915b505050505081526020016006820180546113ae90614a73565b80601f01602080910402602001604051908101604052809291908181526020018280546113da90614a73565b80156114275780601f106113fc57610100808354040283529160200191611427565b820191906000526020600020905b81548152906001019060200180831161140a57829003601f168201915b5050505050815260200160078201805461144090614a73565b80601f016020809104026020016040519081016040528092919081815260200182805461146c90614a73565b80156114b95780601f1061148e576101008083540402835291602001916114b9565b820191906000526020600020905b81548152906001019060200180831161149c57829003601f168201915b505050505081526020016008820180546114d290614a73565b80601f01602080910402602001604051908101604052809291908181526020018280546114fe90614a73565b801561154b5780601f106115205761010080835404028352916020019161154b565b820191906000526020600020905b81548152906001019060200180831161152e57829003601f168201915b5050505050815260200160098201805461156490614a73565b80601f016020809104026020016040519081016040528092919081815260200182805461159090614a73565b80156115dd5780601f106115b2576101008083540402835291602001916115dd565b820191906000526020600020905b8154815290600101906020018083116115c057829003601f168201915b50505050508152602001600a820180546115f690614a73565b80601f016020809104026020016040519081016040528092919081815260200182805461162290614a73565b801561166f5780601f106116445761010080835404028352916020019161166f565b820191906000526020600020905b81548152906001019060200180831161165257829003601f168201915b50505050508152505083838151811061168b5761168a614aa4565b5b602002602001018190525081806116a190614b02565b92505080806116af90614b02565b915050611157565b50819250505090565b60008060006060806060806060806060806000600190505b6003548111611ccf578c73ffffffffffffffffffffffffffffffffffffffff1660008083815260200190815260200160002060010160009054906101000a900473ffffffffffffffffffffffffffffffffffffffff1673ffffffffffffffffffffffffffffffffffffffff1603611cbc57600080600083815260200190815260200160002060405180610160016040529081600082015481526020016001820160009054906101000a900473ffffffffffffffffffffffffffffffffffffffff1673ffffffffffffffffffffffffffffffffffffffff1673ffffffffffffffffffffffffffffffffffffffff168152602001600282015481526020016003820180546117e390614a73565b80601f016020809104026020016040519081016040528092919081815260200182805461180f90614a73565b801561185c5780601f106118315761010080835404028352916020019161185c565b820191906000526020600020905b81548152906001019060200180831161183f57829003601f168201915b5050505050815260200160048201805461187590614a73565b80601f01602080910402602001604051908101604052809291908181526020018280546118a190614a73565b80156118ee5780601f106118c3576101008083540402835291602001916118ee565b820191906000526020600020905b8154815290600101906020018083116118d157829003601f168201915b5050505050815260200160058201805461190790614a73565b80601f016020809104026020016040519081016040528092919081815260200182805461193390614a73565b80156119805780601f1061195557610100808354040283529160200191611980565b820191906000526020600020905b81548152906001019060200180831161196357829003601f168201915b5050505050815260200160068201805461199990614a73565b80601f01602080910402602001604051908101604052809291908181526020018280546119c590614a73565b8015611a125780601f106119e757610100808354040283529160200191611a12565b820191906000526020600020905b8154815290600101906020018083116119f557829003601f168201915b50505050508152602001600782018054611a2b90614a73565b80601f0160208091040260200160405190810160405280929190818152602001828054611a5790614a73565b8015611aa45780601f10611a7957610100808354040283529160200191611aa4565b820191906000526020600020905b815481529060010190602001808311611a8757829003601f168201915b50505050508152602001600882018054611abd90614a73565b80601f0160208091040260200160405190810160405280929190818152602001828054611ae990614a73565b8015611b365780601f10611b0b57610100808354040283529160200191611b36565b820191906000526020600020905b815481529060010190602001808311611b1957829003601f168201915b50505050508152602001600982018054611b4f90614a73565b80601f0160208091040260200160405190810160405280929190818152602001828054611b7b90614a73565b8015611bc85780601f10611b9d57610100808354040283529160200191611bc8565b820191906000526020600020905b815481529060010190602001808311611bab57829003601f168201915b50505050508152602001600a82018054611be190614a73565b80601f0160208091040260200160405190810160405280929190818152602001828054611c0d90614a73565b8015611c5a5780601f10611c2f57610100808354040283529160200191611c5a565b820191906000526020600020905b815481529060010190602001808311611c3d57829003601f168201915b5050505050815250509050806000015181602001518260400151836060015184608001518560a001518660c001518760e001518861010001518961012001518a61014001519c509c509c509c509c509c509c509c509c509c509c505050611cd1565b8080611cc790614b02565b9150506116d8565b505b91939597999b90929496989a50565b60608060608060608060045467ffffffffffffffff811115611d0557611d04613ff6565b5b604051908082528060200260200182016040528015611d335781602001602082028036833780820191505090505b50955060045467ffffffffffffffff811115611d5257611d51613ff6565b5b604051908082528060200260200182016040528015611d805781602001602082028036833780820191505090505b50945060045467ffffffffffffffff811115611d9f57611d9e613ff6565b5b604051908082528060200260200182016040528015611dd257816020015b6060815260200190600190039081611dbd5790505b50935060045467ffffffffffffffff811115611df157611df0613ff6565b5b604051908082528060200260200182016040528015611e2457816020015b6060815260200190600190039081611e0f5790505b50925060045467ffffffffffffffff811115611e4357611e42613ff6565b5b604051908082528060200260200182016040528015611e7657816020015b6060815260200190600190039081611e615790505b50915060045467ffffffffffffffff811115611e9557611e94613ff6565b5b604051908082528060200260200182016040528015611ec857816020015b6060815260200190600190039081611eb35790505b5090506000600190505b6004548111612315578773ffffffffffffffffffffffffffffffffffffffff166000806001600085815260200190815260200160002060010154815260200190815260200160002060010160009054906101000a900473ffffffffffffffffffffffffffffffffffffffff1673ffffffffffffffffffffffffffffffffffffffff160361230257600160008281526020019081526020016000206000015487600183611f7e9190614ed4565b81518110611f8f57611f8e614aa4565b5b602002602001018181525050600160008281526020019081526020016000206002015486600183611fc09190614ed4565b81518110611fd157611fd0614aa4565b5b602002602001018181525050600160008281526020019081526020016000206003018054611ffe90614a73565b80601f016020809104026020016040519081016040528092919081815260200182805461202a90614a73565b80156120775780601f1061204c57610100808354040283529160200191612077565b820191906000526020600020905b81548152906001019060200180831161205a57829003601f168201915b50505050508560018361208a9190614ed4565b8151811061209b5761209a614aa4565b5b60200260200101819052506001600082815260200190815260200160002060040180546120c790614a73565b80601f01602080910402602001604051908101604052809291908181526020018280546120f390614a73565b80156121405780601f1061211557610100808354040283529160200191612140565b820191906000526020600020905b81548152906001019060200180831161212357829003601f168201915b5050505050846001836121539190614ed4565b8151811061216457612163614aa4565b5b602002602001018190525060016000828152602001908152602001600020600501805461219090614a73565b80601f01602080910402602001604051908101604052809291908181526020018280546121bc90614a73565b80156122095780601f106121de57610100808354040283529160200191612209565b820191906000526020600020905b8154815290600101906020018083116121ec57829003601f168201915b50505050508360018361221c9190614ed4565b8151811061222d5761222c614aa4565b5b602002602001018190525060016000828152602001908152602001600020600601805461225990614a73565b80601f016020809104026020016040519081016040528092919081815260200182805461228590614a73565b80156122d25780601f106122a7576101008083540402835291602001916122d2565b820191906000526020600020905b8154815290600101906020018083116122b557829003601f168201915b5050505050826001836122e59190614ed4565b815181106122f6576122f5614aa4565b5b60200260200101819052505b808061230d90614b02565b915050611ed2565b5091939550919395565b6060600060045467ffffffffffffffff81111561233f5761233e613ff6565b5b60405190808252806020026020018201604052801561237857816020015b6123656139d1565b81526020019060019003908161235d5790505b509050600080600190505b600454811161264f57600160008281526020019081526020016000206040518060e00160405290816000820154815260200160018201548152602001600282015481526020016003820180546123d890614a73565b80601f016020809104026020016040519081016040528092919081815260200182805461240490614a73565b80156124515780601f1061242657610100808354040283529160200191612451565b820191906000526020600020905b81548152906001019060200180831161243457829003601f168201915b5050505050815260200160048201805461246a90614a73565b80601f016020809104026020016040519081016040528092919081815260200182805461249690614a73565b80156124e35780601f106124b8576101008083540402835291602001916124e3565b820191906000526020600020905b8154815290600101906020018083116124c657829003601f168201915b505050505081526020016005820180546124fc90614a73565b80601f016020809104026020016040519081016040528092919081815260200182805461252890614a73565b80156125755780601f1061254a57610100808354040283529160200191612575565b820191906000526020600020905b81548152906001019060200180831161255857829003601f168201915b5050505050815260200160068201805461258e90614a73565b80601f01602080910402602001604051908101604052809291908181526020018280546125ba90614a73565b80156126075780601f106125dc57610100808354040283529160200191612607565b820191906000526020600020905b8154815290600101906020018083116125ea57829003601f168201915b50505050508152505083838151811061262357612622614aa4565b5b6020026020010181905250818061263990614b02565b925050808061264790614b02565b915050612383565b50819250505090565b6000806060806060806060806060806000600190505b6005548111612c55578b73ffffffffffffffffffffffffffffffffffffffff166002600083815260200190815260200160002060010160009054906101000a900473ffffffffffffffffffffffffffffffffffffffff1673ffffffffffffffffffffffffffffffffffffffff1603612c425760006002600083815260200190815260200160002060405180610140016040529081600082015481526020016001820160009054906101000a900473ffffffffffffffffffffffffffffffffffffffff1673ffffffffffffffffffffffffffffffffffffffff1673ffffffffffffffffffffffffffffffffffffffff16815260200160028201805461277190614a73565b80601f016020809104026020016040519081016040528092919081815260200182805461279d90614a73565b80156127ea5780601f106127bf576101008083540402835291602001916127ea565b820191906000526020600020905b8154815290600101906020018083116127cd57829003601f168201915b5050505050815260200160038201805461280390614a73565b80601f016020809104026020016040519081016040528092919081815260200182805461282f90614a73565b801561287c5780601f106128515761010080835404028352916020019161287c565b820191906000526020600020905b81548152906001019060200180831161285f57829003601f168201915b5050505050815260200160048201805461289590614a73565b80601f01602080910402602001604051908101604052809291908181526020018280546128c190614a73565b801561290e5780601f106128e35761010080835404028352916020019161290e565b820191906000526020600020905b8154815290600101906020018083116128f157829003601f168201915b5050505050815260200160058201805461292790614a73565b80601f016020809104026020016040519081016040528092919081815260200182805461295390614a73565b80156129a05780601f10612975576101008083540402835291602001916129a0565b820191906000526020600020905b81548152906001019060200180831161298357829003601f168201915b505050505081526020016006820180546129b990614a73565b80601f01602080910402602001604051908101604052809291908181526020018280546129e590614a73565b8015612a325780601f10612a0757610100808354040283529160200191612a32565b820191906000526020600020905b815481529060010190602001808311612a1557829003601f168201915b50505050508152602001600782018054612a4b90614a73565b80601f0160208091040260200160405190810160405280929190818152602001828054612a7790614a73565b8015612ac45780601f10612a9957610100808354040283529160200191612ac4565b820191906000526020600020905b815481529060010190602001808311612aa757829003601f168201915b50505050508152602001600882018054612add90614a73565b80601f0160208091040260200160405190810160405280929190818152602001828054612b0990614a73565b8015612b565780601f10612b2b57610100808354040283529160200191612b56565b820191906000526020600020905b815481529060010190602001808311612b3957829003601f168201915b50505050508152602001600982018054612b6f90614a73565b80601f0160208091040260200160405190810160405280929190818152602001828054612b9b90614a73565b8015612be85780601f10612bbd57610100808354040283529160200191612be8565b820191906000526020600020905b815481529060010190602001808311612bcb57829003601f168201915b5050505050815250509050806000015181602001518260400151836060015184608001518560a001518660c001518760e001518861010001518961012001519b509b509b509b509b509b509b509b509b509b505050612c57565b8080612c4d90614b02565b91505061266e565b505b9193959799509193959799565b6000801515612c728b61392f565b151514612cb4576040517f08c379a0000000000000000000000000000000000000000000000000000000008152600401612cab90614f54565b60405180910390fd5b60056000815480929190612cc790614b02565b919050555060405180610140016040528060055481526020018b73ffffffffffffffffffffffffffffffffffffffff1681526020018a8152602001898152602001888152602001878152602001868152602001858152602001848152602001838152506002600060055481526020019081526020016000206000820151816000015560208201518160010160006101000a81548173ffffffffffffffffffffffffffffffffffffffff021916908373ffffffffffffffffffffffffffffffffffffffff1602179055506040820151816002019081612da59190614e02565b506060820151816003019081612dbb9190614e02565b506080820151816004019081612dd19190614e02565b5060a0820151816005019081612de79190614e02565b5060c0820151816006019081612dfd9190614e02565b5060e0820151816007019081612e139190614e02565b50610100820151816008019081612e2a9190614e02565b50610120820151816009019081612e419190614e02565b5090505060055490509998505050505050505050565b600080600190505b6003548111612f01578273ffffffffffffffffffffffffffffffffffffffff1660008083815260200190815260200160002060010160009054906101000a900473ffffffffffffffffffffffffffffffffffffffff1673ffffffffffffffffffffffffffffffffffffffff1603612eee5760008082815260200190815260200160002060020154915050612f03565b8080612ef990614b02565b915050612e5f565b505b919050565b600060011515612f178861388e565b151514612f59576040517f08c379a0000000000000000000000000000000000000000000000000000000008152600401612f5090614fc0565b60405180910390fd5b600080600190505b6003548111612fed578873ffffffffffffffffffffffffffffffffffffffff1660008083815260200190815260200160002060010160009054906101000a900473ffffffffffffffffffffffffffffffffffffffff1673ffffffffffffffffffffffffffffffffffffffff1603612fda57809150612fed565b8080612fe590614b02565b915050612f61565b5086600080838152602001908152602001600020600201541015613046576040517f08c379a000000000000000000000000000000000000000000000000000000000815260040161303d90615052565b60405180910390fd5b6004600081548092919061305990614b02565b91905055506040518060e0016040528060045481526020018281526020018881526020018781526020018681526020018581526020018481525060016000600454815260200190815260200160002060008201518160000155602082015181600101556040820151816002015560608201518160030190816130db9190614e02565b5060808201518160040190816130f19190614e02565b5060a08201518160050190816131079190614e02565b5060c082015181600601908161311d9190614e02565b509050508660008083815260200190815260200160002060020160008282546131469190614ed4565b925050819055506004549150509695505050505050565b600080600190505b60035481116131f1578273ffffffffffffffffffffffffffffffffffffffff1660008083815260200190815260200160002060010160009054906101000a900473ffffffffffffffffffffffffffffffffffffffff1673ffffffffffffffffffffffffffffffffffffffff16036131de578091506131f1565b80806131e990614b02565b915050613165565b5060008111613235576040517f08c379a000000000000000000000000000000000000000000000000000000000815260040161322c90614fc0565b60405180910390fd5b3373ffffffffffffffffffffffffffffffffffffffff1660008083815260200190815260200160002060010160009054906101000a900473ffffffffffffffffffffffffffffffffffffffff1673ffffffffffffffffffffffffffffffffffffffff16146132d8576040517f08c379a00000000000000000000000000000000000000000000000000000000081526004016132cf906150e4565b60405180910390fd5b3460008083815260200190815260200160002060020160008282546132fd9190614bb6565b925050819055505050565b600080600190505b600554811161339d578373ffffffffffffffffffffffffffffffffffffffff166002600083815260200190815260200160002060010160009054906101000a900473ffffffffffffffffffffffffffffffffffffffff1673ffffffffffffffffffffffffffffffffffffffff160361338a5780915061339d565b808061339590614b02565b915050613310565b50600081116133e1576040517f08c379a00000000000000000000000000000000000000000000000000000000081526004016133d890614fc0565b60405180910390fd5b3373ffffffffffffffffffffffffffffffffffffffff166002600083815260200190815260200160002060010160009054906101000a900473ffffffffffffffffffffffffffffffffffffffff1673ffffffffffffffffffffffffffffffffffffffff1614613485576040517f08c379a000000000000000000000000000000000000000000000000000000000815260040161347c906150e4565b60405180910390fd5b6000600160008381526020019081526020016000206040518060e00160405290816000820154815260200160018201548152602001600282015481526020016003820180546134d390614a73565b80601f01602080910402602001604051908101604052809291908181526020018280546134ff90614a73565b801561354c5780601f106135215761010080835404028352916020019161354c565b820191906000526020600020905b81548152906001019060200180831161352f57829003601f168201915b5050505050815260200160048201805461356590614a73565b80601f016020809104026020016040519081016040528092919081815260200182805461359190614a73565b80156135de5780601f106135b3576101008083540402835291602001916135de565b820191906000526020600020905b8154815290600101906020018083116135c157829003601f168201915b505050505081526020016005820180546135f790614a73565b80601f016020809104026020016040519081016040528092919081815260200182805461362390614a73565b80156136705780601f1061364557610100808354040283529160200191613670565b820191906000526020600020905b81548152906001019060200180831161365357829003601f168201915b5050505050815260200160068201805461368990614a73565b80601f01602080910402602001604051908101604052809291908181526020018280546136b590614a73565b80156137025780601f106136d757610100808354040283529160200191613702565b820191906000526020600020905b8154815290600101906020018083116136e557829003601f168201915b505050505081525050905060008160400151905060008111613759576040517f08c379a000000000000000000000000000000000000000000000000000000000815260040161375090615150565b60405180910390fd5b8381101561379c576040517f08c379a0000000000000000000000000000000000000000000000000000000008152600401613793906151bc565b60405180910390fd5b83816137a89190614ed4565b6001600085815260200190815260200160002060020181905550836000806001600087815260200190815260200160002060010154815260200190815260200160002060020160008282546137fd9190614ed4565b9250508190555060006002600085815260200190815260200160002060010160009054906101000a900473ffffffffffffffffffffffffffffffffffffffff1690508073ffffffffffffffffffffffffffffffffffffffff166108fc869081150290604051600060405180830381858888f19350505050158015613885573d6000803e3d6000fd5b50505050505050565b600080600190505b6003548111613924578273ffffffffffffffffffffffffffffffffffffffff1660008083815260200190815260200160002060010160009054906101000a900473ffffffffffffffffffffffffffffffffffffffff1673ffffffffffffffffffffffffffffffffffffffff160361391157600191505061392a565b808061391c90614b02565b915050613896565b50600090505b919050565b600080600190505b60055481116139c6578273ffffffffffffffffffffffffffffffffffffffff166002600083815260200190815260200160002060010160009054906101000a900473ffffffffffffffffffffffffffffffffffffffff1673ffffffffffffffffffffffffffffffffffffffff16036139b35760019150506139cc565b80806139be90614b02565b915050613937565b50600090505b919050565b6040518060e00160405280600081526020016000815260200160008152602001606081526020016060815260200160608152602001606081525090565b60405180610140016040528060008152602001600073ffffffffffffffffffffffffffffffffffffffff16815260200160608152602001606081526020016060815260200160608152602001606081526020016060815260200160608152602001606081525090565b60405180610160016040528060008152602001600073ffffffffffffffffffffffffffffffffffffffff1681526020016000815260200160608152602001606081526020016060815260200160608152602001606081526020016060815260200160608152602001606081525090565b6000604051905090565b600080fd5b600080fd5b600073ffffffffffffffffffffffffffffffffffffffff82169050919050565b6000613b2682613afb565b9050919050565b613b3681613b1b565b8114613b4157600080fd5b50565b600081359050613b5381613b2d565b92915050565b600060208284031215613b6f57613b6e613af1565b5b6000613b7d84828501613b44565b91505092915050565b600081519050919050565b600082825260208201905092915050565b6000819050602082019050919050565b6000819050919050565b613bc581613bb2565b82525050565b600081519050919050565b600082825260208201905092915050565b60005b83811015613c05578082015181840152602081019050613bea565b60008484015250505050565b6000601f19601f8301169050919050565b6000613c2d82613bcb565b613c378185613bd6565b9350613c47818560208601613be7565b613c5081613c11565b840191505092915050565b600060e083016000830151613c736000860182613bbc565b506020830151613c866020860182613bbc565b506040830151613c996040860182613bbc565b5060608301518482036060860152613cb18282613c22565b91505060808301518482036080860152613ccb8282613c22565b91505060a083015184820360a0860152613ce58282613c22565b91505060c083015184820360c0860152613cff8282613c22565b9150508091505092915050565b6000613d188383613c5b565b905092915050565b6000602082019050919050565b6000613d3882613b86565b613d428185613b91565b935083602082028501613d5485613ba2565b8060005b85811015613d905784840389528151613d718582613d0c565b9450613d7c83613d20565b925060208a01995050600181019050613d58565b50829750879550505050505092915050565b60006020820190508181036000830152613dbc8184613d2d565b905092915050565b613dcd81613bb2565b82525050565b6000602082019050613de86000830184613dc4565b92915050565b600081519050919050565b600082825260208201905092915050565b6000819050602082019050919050565b613e2381613b1b565b82525050565b600061014083016000830151613e426000860182613bbc565b506020830151613e556020860182613e1a565b5060408301518482036040860152613e6d8282613c22565b91505060608301518482036060860152613e878282613c22565b91505060808301518482036080860152613ea18282613c22565b91505060a083015184820360a0860152613ebb8282613c22565b91505060c083015184820360c0860152613ed58282613c22565b91505060e083015184820360e0860152613eef8282613c22565b915050610100830151848203610100860152613f0b8282613c22565b915050610120830151848203610120860152613f278282613c22565b9150508091505092915050565b6000613f408383613e29565b905092915050565b6000602082019050919050565b6000613f6082613dee565b613f6a8185613df9565b935083602082028501613f7c85613e0a565b8060005b85811015613fb85784840389528151613f998582613f34565b9450613fa483613f48565b925060208a01995050600181019050613f80565b50829750879550505050505092915050565b60006020820190508181036000830152613fe48184613f55565b905092915050565b600080fd5b600080fd5b7f4e487b7100000000000000000000000000000000000000000000000000000000600052604160045260246000fd5b61402e82613c11565b810181811067ffffffffffffffff8211171561404d5761404c613ff6565b5b80604052505050565b6000614060613ae7565b905061406c8282614025565b919050565b600067ffffffffffffffff82111561408c5761408b613ff6565b5b61409582613c11565b9050602081019050919050565b82818337600083830152505050565b60006140c46140bf84614071565b614056565b9050828152602081018484840111156140e0576140df613ff1565b5b6140eb8482856140a2565b509392505050565b600082601f83011261410857614107613fec565b5b81356141188482602086016140b1565b91505092915050565b60008060008060008060008060006101208a8c03121561414457614143613af1565b5b60006141528c828d01613b44565b99505060208a013567ffffffffffffffff81111561417357614172613af6565b5b61417f8c828d016140f3565b98505060408a013567ffffffffffffffff8111156141a05761419f613af6565b5b6141ac8c828d016140f3565b97505060608a013567ffffffffffffffff8111156141cd576141cc613af6565b5b6141d98c828d016140f3565b96505060808a013567ffffffffffffffff8111156141fa576141f9613af6565b5b6142068c828d016140f3565b95505060a08a013567ffffffffffffffff81111561422757614226613af6565b5b6142338c828d016140f3565b94505060c08a013567ffffffffffffffff81111561425457614253613af6565b5b6142608c828d016140f3565b93505060e08a013567ffffffffffffffff81111561428157614280613af6565b5b61428d8c828d016140f3565b9250506101008a013567ffffffffffffffff8111156142af576142ae613af6565b5b6142bb8c828d016140f3565b9150509295985092959850929598565b600081519050919050565b600082825260208201905092915050565b6000819050602082019050919050565b6000610160830160008301516143106000860182613bbc565b5060208301516143236020860182613e1a565b5060408301516143366040860182613bbc565b506060830151848203606086015261434e8282613c22565b915050608083015184820360808601526143688282613c22565b91505060a083015184820360a08601526143828282613c22565b91505060c083015184820360c086015261439c8282613c22565b91505060e083015184820360e08601526143b68282613c22565b9150506101008301518482036101008601526143d28282613c22565b9150506101208301518482036101208601526143ee8282613c22565b91505061014083015184820361014086015261440a8282613c22565b9150508091505092915050565b600061442383836142f7565b905092915050565b6000602082019050919050565b6000614443826142cb565b61444d81856142d6565b93508360208202850161445f856142e7565b8060005b8581101561449b578484038952815161447c8582614417565b94506144878361442b565b925060208a01995050600181019050614463565b50829750879550505050505092915050565b600060208201905081810360008301526144c78184614438565b905092915050565b6144d881613b1b565b82525050565b600082825260208201905092915050565b60006144fa82613bcb565b61450481856144de565b9350614514818560208601613be7565b61451d81613c11565b840191505092915050565b60006101608201905061453e600083018e613dc4565b61454b602083018d6144cf565b614558604083018c613dc4565b818103606083015261456a818b6144ef565b9050818103608083015261457e818a6144ef565b905081810360a083015261459281896144ef565b905081810360c08301526145a681886144ef565b905081810360e08301526145ba81876144ef565b90508181036101008301526145cf81866144ef565b90508181036101208301526145e481856144ef565b90508181036101408301526145f981846144ef565b90509c9b505050505050505050505050565b600081519050919050565b600082825260208201905092915050565b6000819050602082019050919050565b60006146438383613bbc565b60208301905092915050565b6000602082019050919050565b60006146678261460b565b6146718185614616565b935061467c83614627565b8060005b838110156146ad5781516146948882614637565b975061469f8361464f565b925050600181019050614680565b5085935050505092915050565b600081519050919050565b600082825260208201905092915050565b6000819050602082019050919050565b60006146f28383613c22565b905092915050565b6000602082019050919050565b6000614712826146ba565b61471c81856146c5565b93508360208202850161472e856146d6565b8060005b8581101561476a578484038952815161474b85826146e6565b9450614756836146fa565b925060208a01995050600181019050614732565b50829750879550505050505092915050565b600060c0820190508181036000830152614796818961465c565b905081810360208301526147aa818861465c565b905081810360408301526147be8187614707565b905081810360608301526147d28186614707565b905081810360808301526147e68185614707565b905081810360a08301526147fa8184614707565b9050979650505050505050565b60006101408201905061481d600083018d613dc4565b61482a602083018c6144cf565b818103604083015261483c818b6144ef565b90508181036060830152614850818a6144ef565b9050818103608083015261486481896144ef565b905081810360a083015261487881886144ef565b905081810360c083015261488c81876144ef565b905081810360e08301526148a081866144ef565b90508181036101008301526148b581856144ef565b90508181036101208301526148ca81846144ef565b90509b9a5050505050505050505050565b6148e481613bb2565b81146148ef57600080fd5b50565b600081359050614901816148db565b92915050565b60008060008060008060c0878903121561492457614923613af1565b5b600061493289828a01613b44565b965050602061494389828a016148f2565b955050604087013567ffffffffffffffff81111561496457614963613af6565b5b61497089828a016140f3565b945050606087013567ffffffffffffffff81111561499157614990613af6565b5b61499d89828a016140f3565b935050608087013567ffffffffffffffff8111156149be576149bd613af6565b5b6149ca89828a016140f3565b92505060a087013567ffffffffffffffff8111156149eb576149ea613af6565b5b6149f789828a016140f3565b9150509295509295509295565b60008060408385031215614a1b57614a1a613af1565b5b6000614a2985828601613b44565b9250506020614a3a858286016148f2565b9150509250929050565b7f4e487b7100000000000000000000000000000000000000000000000000000000600052602260045260246000fd5b60006002820490506001821680614a8b57607f821691505b602082108103614a9e57614a9d614a44565b5b50919050565b7f4e487b7100000000000000000000000000000000000000000000000000000000600052603260045260246000fd5b7f4e487b7100000000000000000000000000000000000000000000000000000000600052601160045260246000fd5b6000614b0d82613bb2565b91507fffffffffffffffffffffffffffffffffffffffffffffffffffffffffffffffff8203614b3f57614b3e614ad3565b5b600182019050919050565b7f5075626c697368657220646f6573206e6f742065786973740000000000000000600082015250565b6000614b806018836144de565b9150614b8b82614b4a565b602082019050919050565b60006020820190508181036000830152614baf81614b73565b9050919050565b6000614bc182613bb2565b9150614bcc83613bb2565b9250828201905080821115614be457614be3614ad3565b5b92915050565b7f4164766572746973657220616c72656164792065786973747300000000000000600082015250565b6000614c206019836144de565b9150614c2b82614bea565b602082019050919050565b60006020820190508181036000830152614c4f81614c13565b9050919050565b60008190508160005260206000209050919050565b60006020601f8301049050919050565b600082821b905092915050565b600060088302614cb87fffffffffffffffffffffffffffffffffffffffffffffffffffffffffffffffff82614c7b565b614cc28683614c7b565b95508019841693508086168417925050509392505050565b6000819050919050565b6000614cff614cfa614cf584613bb2565b614cda565b613bb2565b9050919050565b6000819050919050565b614d1983614ce4565b614d2d614d2582614d06565b848454614c88565b825550505050565b600090565b614d42614d35565b614d4d818484614d10565b505050565b5b81811015614d7157614d66600082614d3a565b600181019050614d53565b5050565b601f821115614db657614d8781614c56565b614d9084614c6b565b81016020851015614d9f578190505b614db3614dab85614c6b565b830182614d52565b50505b505050565b600082821c905092915050565b6000614dd960001984600802614dbb565b1980831691505092915050565b6000614df28383614dc8565b9150826002028217905092915050565b614e0b82613bcb565b67ffffffffffffffff811115614e2457614e23613ff6565b5b614e2e8254614a73565b614e39828285614d75565b600060209050601f831160018114614e6c5760008415614e5a578287015190505b614e648582614de6565b865550614ecc565b601f198416614e7a86614c56565b60005b82811015614ea257848901518255600182019150602085019450602081019050614e7d565b86831015614ebf5784890151614ebb601f891682614dc8565b8355505b6001600288020188555050505b505050505050565b6000614edf82613bb2565b9150614eea83613bb2565b9250828203905081811115614f0257614f01614ad3565b5b92915050565b7f5075626c697368657220616c7265616479206578697374730000000000000000600082015250565b6000614f3e6018836144de565b9150614f4982614f08565b602082019050919050565b60006020820190508181036000830152614f6d81614f31565b9050919050565b7f4164766572746973657220646f6573206e6f7420657869737400000000000000600082015250565b6000614faa6019836144de565b9150614fb582614f74565b602082019050919050565b60006020820190508181036000830152614fd981614f9d565b9050919050565b7f42616c616e6365206f662061647665727469736572206973206e6f7420656e6f60008201527f7567680000000000000000000000000000000000000000000000000000000000602082015250565b600061503c6023836144de565b915061504782614fe0565b604082019050919050565b6000602082019050818103600083015261506b8161502f565b9050919050565b7f4f6e6c7920616476657274697365722063616e206465706f7369742066756e6460008201527f7300000000000000000000000000000000000000000000000000000000000000602082015250565b60006150ce6021836144de565b91506150d982615072565b604082019050919050565b600060208201905081810360008301526150fd816150c1565b9050919050565b7f43616d706169676e2062616c616e6365206973207a65726f0000000000000000600082015250565b600061513a6018836144de565b915061514582615104565b602082019050919050565b600060208201905081810360008301526151698161512d565b9050919050565b7f416d6d6f756e74206973206d6f7265207468616e2062616c616e636500000000600082015250565b60006151a6601c836144de565b91506151b182615170565b602082019050919050565b600060208201905081810360008301526151d581615199565b905091905056fea26469706673582212203ab318417c76e1ccc245c048c39ad2331a0a3da41d0f5b26cc43681ec331ded564736f6c63430008120033",
  "linkReferences": {},
  "deployedLinkReferences": {}
}