{
  "_format": "hh-sol-artifact-1",
  "contractName": "Swirl",
  "sourceName": "contracts/Swirl.sol",
  "abi": [
    {
      "inputs": [
        {
          "internalType": "address",
          "name": "_wallet",
          "type": "address"
        }
      ],
      "name": "createAdvertiser",
      "outputs": [],
      "stateMutability": "nonpayable",
      "type": "function"
    },
    {
      "inputs": [
        {
          "internalType": "uint256",
          "name": "_advertiserId",
          "type": "uint256"
        },
        {
          "internalType": "uint256",
          "name": "_balance",
          "type": "uint256"
        }
      ],
      "name": "createCampaign",
      "outputs": [],
      "stateMutability": "nonpayable",
      "type": "function"
    },
    {
      "inputs": [
        {
          "internalType": "address",
          "name": "_wallet",
          "type": "address"
        }
      ],
      "name": "createPublisher",
      "outputs": [],
      "stateMutability": "nonpayable",
      "type": "function"
    },
    {
      "inputs": [
        {
          "internalType": "uint256",
          "name": "_advertiserId",
          "type": "uint256"
        }
      ],
      "name": "deposit",
      "outputs": [],
      "stateMutability": "payable",
      "type": "function"
    },
    {
      "inputs": [
        {
          "internalType": "uint256",
          "name": "_advertiserId",
          "type": "uint256"
        }
      ],
      "name": "getAdvertiser",
      "outputs": [
        {
          "internalType": "uint256",
          "name": "",
          "type": "uint256"
        },
        {
          "internalType": "address",
          "name": "",
          "type": "address"
        },
        {
          "internalType": "uint256",
          "name": "",
          "type": "uint256"
        }
      ],
      "stateMutability": "view",
      "type": "function"
    },
    {
      "inputs": [],
      "name": "getAllAdvertisers",
      "outputs": [
        {
          "internalType": "uint256[]",
          "name": "",
          "type": "uint256[]"
        },
        {
          "internalType": "address[]",
          "name": "",
          "type": "address[]"
        }
      ],
      "stateMutability": "view",
      "type": "function"
    },
    {
      "inputs": [],
      "name": "getAllCampaigns",
      "outputs": [
        {
          "internalType": "uint256[]",
          "name": "",
          "type": "uint256[]"
        }
      ],
      "stateMutability": "view",
      "type": "function"
    },
    {
      "inputs": [],
      "name": "getAllCampaignsWithAdvertiserInfo",
      "outputs": [
        {
          "internalType": "uint256[]",
          "name": "",
          "type": "uint256[]"
        },
        {
          "internalType": "uint256[]",
          "name": "",
          "type": "uint256[]"
        },
        {
          "internalType": "address[]",
          "name": "",
          "type": "address[]"
        }
      ],
      "stateMutability": "view",
      "type": "function"
    },
    {
      "inputs": [],
      "name": "getAllPublishers",
      "outputs": [
        {
          "internalType": "uint256[]",
          "name": "",
          "type": "uint256[]"
        }
      ],
      "stateMutability": "view",
      "type": "function"
    },
    {
      "inputs": [
        {
          "internalType": "uint256",
          "name": "_campaignId",
          "type": "uint256"
        }
      ],
      "name": "getCampaign",
      "outputs": [
        {
          "internalType": "uint256",
          "name": "",
          "type": "uint256"
        },
        {
          "internalType": "uint256",
          "name": "",
          "type": "uint256"
        },
        {
          "internalType": "uint256",
          "name": "",
          "type": "uint256"
        }
      ],
      "stateMutability": "view",
      "type": "function"
    },
    {
      "inputs": [
        {
          "internalType": "uint256",
          "name": "_publisherId",
          "type": "uint256"
        }
      ],
      "name": "getPublisher",
      "outputs": [
        {
          "internalType": "uint256",
          "name": "",
          "type": "uint256"
        },
        {
          "internalType": "address",
          "name": "",
          "type": "address"
        }
      ],
      "stateMutability": "view",
      "type": "function"
    },
    {
      "inputs": [
        {
          "internalType": "uint256",
          "name": "_publisherId",
          "type": "uint256"
        },
        {
          "internalType": "uint256",
          "name": "_campaignId",
          "type": "uint256"
        }
      ],
      "name": "withdraw",
      "outputs": [],
      "stateMutability": "nonpayable",
      "type": "function"
    }
  ],
  "bytecode": "0x608060405234801561001057600080fd5b50611cbf806100206000396000f3fe6080604052600436106100a75760003560e01c80636d321f7a116100645780636d321f7a146101d057806386cdf604146101fc578063969cb7c3146102275780639d043e2914610265578063b6b55f251461028e578063e898fa4d146102aa576100a7565b80631afd3e11146100ac57806322502268146100d55780633bb9025d146100fe578063441a3e701461013d5780634c96f281146101665780635598f8cc14610191575b600080fd5b3480156100b857600080fd5b506100d360048036038101906100ce919061137d565b6102d7565b005b3480156100e157600080fd5b506100fc60048036038101906100f791906113e0565b6103e7565b005b34801561010a57600080fd5b5061012560048036038101906101209190611420565b61056a565b6040516101349392919061146b565b60405180910390f35b34801561014957600080fd5b50610164600480360381019061015f91906113e0565b61065c565b005b34801561017257600080fd5b5061017b6108ce565b6040516101889190611560565b60405180910390f35b34801561019d57600080fd5b506101b860048036038101906101b39190611420565b61098c565b6040516101c793929190611582565b60405180910390f35b3480156101dc57600080fd5b506101e5610a33565b6040516101f3929190611677565b60405180910390f35b34801561020857600080fd5b50610211610bd4565b60405161021e9190611560565b60405180910390f35b34801561023357600080fd5b5061024e60048036038101906102499190611420565b610c92565b60405161025c9291906116ae565b60405180910390f35b34801561027157600080fd5b5061028c6004803603810190610287919061137d565b610d70565b005b6102a860048036038101906102a39190611420565b610e70565b005b3480156102b657600080fd5b506102bf610f87565b6040516102ce939291906116d7565b60405180910390f35b600015156102e4826111d7565b151514610326576040517f08c379a000000000000000000000000000000000000000000000000000000000815260040161031d90611780565b60405180910390fd5b60036000815480929190610339906117cf565b9190505550604051806060016040528060035481526020018273ffffffffffffffffffffffffffffffffffffffff168152602001600081525060008060035481526020019081526020016000206000820151816000015560208201518160010160006101000a81548173ffffffffffffffffffffffffffffffffffffffff021916908373ffffffffffffffffffffffffffffffffffffffff1602179055506040820151816002015590505050565b60035482111561042c576040517f08c379a000000000000000000000000000000000000000000000000000000000815260040161042390611863565b60405180910390fd5b3373ffffffffffffffffffffffffffffffffffffffff1660008084815260200190815260200160002060010160009054906101000a900473ffffffffffffffffffffffffffffffffffffffff1673ffffffffffffffffffffffffffffffffffffffff16146104cf576040517f08c379a00000000000000000000000000000000000000000000000000000000081526004016104c6906118f5565b60405180910390fd5b600460008154809291906104e2906117cf565b9190505550604051806060016040528060045481526020018381526020018281525060016000600454815260200190815260200160002060008201518160000155602082015181600101556040820151816002015590505080600080848152602001908152602001600020600201600082825461055f9190611915565b925050819055505050565b60008060006003548411156105b4576040517f08c379a00000000000000000000000000000000000000000000000000000000081526004016105ab90611863565b60405180910390fd5b6000806000868152602001908152602001600020604051806060016040529081600082015481526020016001820160009054906101000a900473ffffffffffffffffffffffffffffffffffffffff1673ffffffffffffffffffffffffffffffffffffffff1673ffffffffffffffffffffffffffffffffffffffff1681526020016002820154815250509050806000015181602001518260400151935093509350509193909250565b6005548211156106a1576040517f08c379a000000000000000000000000000000000000000000000000000000000815260040161069890611995565b60405180910390fd5b6004548111156106e6576040517f08c379a00000000000000000000000000000000000000000000000000000000081526004016106dd90611a01565b60405180910390fd5b3373ffffffffffffffffffffffffffffffffffffffff166002600084815260200190815260200160002060010160009054906101000a900473ffffffffffffffffffffffffffffffffffffffff1673ffffffffffffffffffffffffffffffffffffffff161461078a576040517f08c379a000000000000000000000000000000000000000000000000000000000815260040161078190611a6d565b60405180910390fd5b600060016000838152602001908152602001600020600201549050600081116107e8576040517f08c379a00000000000000000000000000000000000000000000000000000000081526004016107df90611ad9565b60405180910390fd5b600060016000848152602001908152602001600020600201819055508060008060016000868152602001908152602001600020600101548152602001908152602001600020600201600082825461083f9190611af9565b9250508190555060006002600085815260200190815260200160002060010160009054906101000a900473ffffffffffffffffffffffffffffffffffffffff1690508073ffffffffffffffffffffffffffffffffffffffff166108fc839081150290604051600060405180830381858888f193505050501580156108c7573d6000803e3d6000fd5b5050505050565b6060600060055467ffffffffffffffff8111156108ee576108ed611b2d565b5b60405190808252806020026020018201604052801561091c5781602001602082028036833780820191505090505b5090506000600190505b6005548111610984576002600082815260200190815260200160002060000154826001836109549190611af9565b8151811061096557610964611b5c565b5b602002602001018181525050808061097c906117cf565b915050610926565b508091505090565b60008060006004548411156109d6576040517f08c379a00000000000000000000000000000000000000000000000000000000081526004016109cd90611a01565b60405180910390fd5b60006001600086815260200190815260200160002060405180606001604052908160008201548152602001600182015481526020016002820154815250509050806000015181602001518260400151935093509350509193909250565b606080600060035467ffffffffffffffff811115610a5457610a53611b2d565b5b604051908082528060200260200182016040528015610a825781602001602082028036833780820191505090505b509050600060035467ffffffffffffffff811115610aa357610aa2611b2d565b5b604051908082528060200260200182016040528015610ad15781602001602082028036833780820191505090505b5090506000600190505b6003548111610bc7576000808281526020019081526020016000206000015483600183610b089190611af9565b81518110610b1957610b18611b5c565b5b60200260200101818152505060008082815260200190815260200160002060010160009054906101000a900473ffffffffffffffffffffffffffffffffffffffff1682600183610b699190611af9565b81518110610b7a57610b79611b5c565b5b602002602001019073ffffffffffffffffffffffffffffffffffffffff16908173ffffffffffffffffffffffffffffffffffffffff16815250508080610bbf906117cf565b915050610adb565b5081819350935050509091565b6060600060045467ffffffffffffffff811115610bf457610bf3611b2d565b5b604051908082528060200260200182016040528015610c225781602001602082028036833780820191505090505b5090506000600190505b6004548111610c8a57600160008281526020019081526020016000206000015482600183610c5a9190611af9565b81518110610c6b57610c6a611b5c565b5b6020026020010181815250508080610c82906117cf565b915050610c2c565b508091505090565b600080600554831115610cda576040517f08c379a0000000000000000000000000000000000000000000000000000000008152600401610cd190611995565b60405180910390fd5b600060026000858152602001908152602001600020604051806040016040529081600082015481526020016001820160009054906101000a900473ffffffffffffffffffffffffffffffffffffffff1673ffffffffffffffffffffffffffffffffffffffff1673ffffffffffffffffffffffffffffffffffffffff16815250509050806000015181602001519250925050915091565b60001515610d7d82611278565b151514610dbf576040517f08c379a0000000000000000000000000000000000000000000000000000000008152600401610db690611bd7565b60405180910390fd5b60056000815480929190610dd2906117cf565b9190505550604051806040016040528060055481526020018273ffffffffffffffffffffffffffffffffffffffff168152506002600060055481526020019081526020016000206000820151816000015560208201518160010160006101000a81548173ffffffffffffffffffffffffffffffffffffffff021916908373ffffffffffffffffffffffffffffffffffffffff16021790555090505050565b600354811115610eb5576040517f08c379a0000000000000000000000000000000000000000000000000000000008152600401610eac90611863565b60405180910390fd5b3373ffffffffffffffffffffffffffffffffffffffff1660008083815260200190815260200160002060010160009054906101000a900473ffffffffffffffffffffffffffffffffffffffff1673ffffffffffffffffffffffffffffffffffffffff1614610f58576040517f08c379a0000000000000000000000000000000000000000000000000000000008152600401610f4f90611c69565b60405180910390fd5b346000808381526020019081526020016000206002016000828254610f7d9190611915565b9250508190555050565b6060806060600060045467ffffffffffffffff811115610faa57610fa9611b2d565b5b604051908082528060200260200182016040528015610fd85781602001602082028036833780820191505090505b509050600060045467ffffffffffffffff811115610ff957610ff8611b2d565b5b6040519080825280602002602001820160405280156110275781602001602082028036833780820191505090505b509050600060045467ffffffffffffffff81111561104857611047611b2d565b5b6040519080825280602002602001820160405280156110765781602001602082028036833780820191505090505b5090506000600190505b60045481116111c5576001600082815260200190815260200160002060000154846001836110ae9190611af9565b815181106110bf576110be611b5c565b5b6020026020010181815250506001600082815260200190815260200160002060010154836001836110f09190611af9565b8151811061110157611100611b5c565b5b6020026020010181815250506000806001600084815260200190815260200160002060010154815260200190815260200160002060010160009054906101000a900473ffffffffffffffffffffffffffffffffffffffff16826001836111679190611af9565b8151811061117857611177611b5c565b5b602002602001019073ffffffffffffffffffffffffffffffffffffffff16908173ffffffffffffffffffffffffffffffffffffffff168152505080806111bd906117cf565b915050611080565b50828282955095509550505050909192565b600080600190505b600354811161126d578273ffffffffffffffffffffffffffffffffffffffff1660008083815260200190815260200160002060010160009054906101000a900473ffffffffffffffffffffffffffffffffffffffff1673ffffffffffffffffffffffffffffffffffffffff160361125a576001915050611273565b8080611265906117cf565b9150506111df565b50600090505b919050565b600080600190505b600554811161130f578273ffffffffffffffffffffffffffffffffffffffff166002600083815260200190815260200160002060010160009054906101000a900473ffffffffffffffffffffffffffffffffffffffff1673ffffffffffffffffffffffffffffffffffffffff16036112fc576001915050611315565b8080611307906117cf565b915050611280565b50600090505b919050565b600080fd5b600073ffffffffffffffffffffffffffffffffffffffff82169050919050565b600061134a8261131f565b9050919050565b61135a8161133f565b811461136557600080fd5b50565b60008135905061137781611351565b92915050565b6000602082840312156113935761139261131a565b5b60006113a184828501611368565b91505092915050565b6000819050919050565b6113bd816113aa565b81146113c857600080fd5b50565b6000813590506113da816113b4565b92915050565b600080604083850312156113f7576113f661131a565b5b6000611405858286016113cb565b9250506020611416858286016113cb565b9150509250929050565b6000602082840312156114365761143561131a565b5b6000611444848285016113cb565b91505092915050565b611456816113aa565b82525050565b6114658161133f565b82525050565b6000606082019050611480600083018661144d565b61148d602083018561145c565b61149a604083018461144d565b949350505050565b600081519050919050565b600082825260208201905092915050565b6000819050602082019050919050565b6114d7816113aa565b82525050565b60006114e983836114ce565b60208301905092915050565b6000602082019050919050565b600061150d826114a2565b61151781856114ad565b9350611522836114be565b8060005b8381101561155357815161153a88826114dd565b9750611545836114f5565b925050600181019050611526565b5085935050505092915050565b6000602082019050818103600083015261157a8184611502565b905092915050565b6000606082019050611597600083018661144d565b6115a4602083018561144d565b6115b1604083018461144d565b949350505050565b600081519050919050565b600082825260208201905092915050565b6000819050602082019050919050565b6115ee8161133f565b82525050565b600061160083836115e5565b60208301905092915050565b6000602082019050919050565b6000611624826115b9565b61162e81856115c4565b9350611639836115d5565b8060005b8381101561166a57815161165188826115f4565b975061165c8361160c565b92505060018101905061163d565b5085935050505092915050565b600060408201905081810360008301526116918185611502565b905081810360208301526116a58184611619565b90509392505050565b60006040820190506116c3600083018561144d565b6116d0602083018461145c565b9392505050565b600060608201905081810360008301526116f18186611502565b905081810360208301526117058185611502565b905081810360408301526117198184611619565b9050949350505050565b600082825260208201905092915050565b7f4164766572746973657220616c72656164792065786973747300000000000000600082015250565b600061176a601983611723565b915061177582611734565b602082019050919050565b600060208201905081810360008301526117998161175d565b9050919050565b7f4e487b7100000000000000000000000000000000000000000000000000000000600052601160045260246000fd5b60006117da826113aa565b91507fffffffffffffffffffffffffffffffffffffffffffffffffffffffffffffffff820361180c5761180b6117a0565b5b600182019050919050565b7f4164766572746973657220646f6573206e6f7420657869737400000000000000600082015250565b600061184d601983611723565b915061185882611817565b602082019050919050565b6000602082019050818103600083015261187c81611840565b9050919050565b7f4f6e6c7920616476657274697365722063616e206372656174652063616d706160008201527f69676e0000000000000000000000000000000000000000000000000000000000602082015250565b60006118df602383611723565b91506118ea82611883565b604082019050919050565b6000602082019050818103600083015261190e816118d2565b9050919050565b6000611920826113aa565b915061192b836113aa565b9250828201905080821115611943576119426117a0565b5b92915050565b7f5075626c697368657220646f6573206e6f742065786973740000000000000000600082015250565b600061197f601883611723565b915061198a82611949565b602082019050919050565b600060208201905081810360008301526119ae81611972565b9050919050565b7f43616d706169676e20646f6573206e6f74206578697374000000000000000000600082015250565b60006119eb601783611723565b91506119f6826119b5565b602082019050919050565b60006020820190508181036000830152611a1a816119de565b9050919050565b7f4f6e6c79207075626c69736865722063616e2077697468647261770000000000600082015250565b6000611a57601b83611723565b9150611a6282611a21565b602082019050919050565b60006020820190508181036000830152611a8681611a4a565b9050919050565b7f43616d706169676e2062616c616e6365206973207a65726f0000000000000000600082015250565b6000611ac3601883611723565b9150611ace82611a8d565b602082019050919050565b60006020820190508181036000830152611af281611ab6565b9050919050565b6000611b04826113aa565b9150611b0f836113aa565b9250828203905081811115611b2757611b266117a0565b5b92915050565b7f4e487b7100000000000000000000000000000000000000000000000000000000600052604160045260246000fd5b7f4e487b7100000000000000000000000000000000000000000000000000000000600052603260045260246000fd5b7f5075626c697368657220616c7265616479206578697374730000000000000000600082015250565b6000611bc1601883611723565b9150611bcc82611b8b565b602082019050919050565b60006020820190508181036000830152611bf081611bb4565b9050919050565b7f4f6e6c7920616476657274697365722063616e206465706f7369742066756e6460008201527f7300000000000000000000000000000000000000000000000000000000000000602082015250565b6000611c53602183611723565b9150611c5e82611bf7565b604082019050919050565b60006020820190508181036000830152611c8281611c46565b905091905056fea2646970667358221220503d26964ab3bff4851159db87ef667691423d2e17e516c4c8bb06b5aaeabbbc64736f6c63430008120033",
  "linkReferences": {},
  "deployedLinkReferences": {}
}