{
  "_format": "hh-sol-artifact-1",
  "contractName": "Swirl",
  "sourceName": "contracts/Swirl.sol",
  "abi": [
    {
      "inputs": [
        {
          "internalType": "address",
          "name": "_wallet",
          "type": "address"
        },
        {
          "internalType": "string",
          "name": "_orgUsername",
          "type": "string"
        },
        {
          "internalType": "string",
          "name": "_orgname",
          "type": "string"
        },
        {
          "internalType": "string",
          "name": "_orgLogo",
          "type": "string"
        },
        {
          "internalType": "string",
          "name": "_orgdiscription",
          "type": "string"
        },
        {
          "internalType": "string",
          "name": "_orgOrigin",
          "type": "string"
        },
        {
          "internalType": "string",
          "name": "_empstrength",
          "type": "string"
        },
        {
          "internalType": "string",
          "name": "_orgFounder",
          "type": "string"
        },
        {
          "internalType": "string",
          "name": "_orgCatagory",
          "type": "string"
        }
      ],
      "name": "createAdvertiser",
      "outputs": [],
      "stateMutability": "nonpayable",
      "type": "function"
    },
    {
      "inputs": [
        {
          "internalType": "address",
          "name": "_advertiserAddress",
          "type": "address"
        },
        {
          "internalType": "uint256",
          "name": "_balance",
          "type": "uint256"
        },
        {
          "internalType": "string",
          "name": "_campaignName",
          "type": "string"
        },
        {
          "internalType": "string",
          "name": "_budget",
          "type": "string"
        },
        {
          "internalType": "string",
          "name": "_payclick",
          "type": "string"
        },
        {
          "internalType": "string",
          "name": "_stringCID",
          "type": "string"
        }
      ],
      "name": "createCampaign",
      "outputs": [],
      "stateMutability": "nonpayable",
      "type": "function"
    },
    {
      "inputs": [
        {
          "internalType": "address",
          "name": "_wallet",
          "type": "address"
        },
        {
          "internalType": "string",
          "name": "_orgUsername",
          "type": "string"
        },
        {
          "internalType": "string",
          "name": "_orgname",
          "type": "string"
        },
        {
          "internalType": "string",
          "name": "_orgLogo",
          "type": "string"
        },
        {
          "internalType": "string",
          "name": "_orgdiscription",
          "type": "string"
        },
        {
          "internalType": "string",
          "name": "_orgOrigin",
          "type": "string"
        },
        {
          "internalType": "string",
          "name": "_empstrength",
          "type": "string"
        },
        {
          "internalType": "string",
          "name": "_orgFounder",
          "type": "string"
        },
        {
          "internalType": "string",
          "name": "_orgCatagory",
          "type": "string"
        }
      ],
      "name": "createPublisher",
      "outputs": [],
      "stateMutability": "nonpayable",
      "type": "function"
    },
    {
      "inputs": [
        {
          "internalType": "address",
          "name": "_advertiserAddress",
          "type": "address"
        }
      ],
      "name": "deposit",
      "outputs": [],
      "stateMutability": "payable",
      "type": "function"
    },
    {
      "inputs": [
        {
          "internalType": "address",
          "name": "_wallet",
          "type": "address"
        }
      ],
      "name": "getAdvertiser",
      "outputs": [
        {
          "internalType": "uint256",
          "name": "",
          "type": "uint256"
        },
        {
          "internalType": "address",
          "name": "",
          "type": "address"
        },
        {
          "internalType": "uint256",
          "name": "",
          "type": "uint256"
        },
        {
          "internalType": "string",
          "name": "",
          "type": "string"
        },
        {
          "internalType": "string",
          "name": "",
          "type": "string"
        },
        {
          "internalType": "string",
          "name": "",
          "type": "string"
        },
        {
          "internalType": "string",
          "name": "",
          "type": "string"
        },
        {
          "internalType": "string",
          "name": "",
          "type": "string"
        },
        {
          "internalType": "string",
          "name": "",
          "type": "string"
        },
        {
          "internalType": "string",
          "name": "",
          "type": "string"
        },
        {
          "internalType": "string",
          "name": "",
          "type": "string"
        }
      ],
      "stateMutability": "view",
      "type": "function"
    },
    {
      "inputs": [
        {
          "internalType": "address",
          "name": "_wallet",
          "type": "address"
        }
      ],
      "name": "getAdvertiserBalance",
      "outputs": [
        {
          "internalType": "uint256",
          "name": "",
          "type": "uint256"
        }
      ],
      "stateMutability": "view",
      "type": "function"
    },
    {
      "inputs": [],
      "name": "getAllAdvertisers",
      "outputs": [
        {
          "components": [
            {
              "internalType": "uint256",
              "name": "id",
              "type": "uint256"
            },
            {
              "internalType": "address",
              "name": "wallet",
              "type": "address"
            },
            {
              "internalType": "uint256",
              "name": "balance",
              "type": "uint256"
            },
            {
              "internalType": "string",
              "name": "orgUsername",
              "type": "string"
            },
            {
              "internalType": "string",
              "name": "orgname",
              "type": "string"
            },
            {
              "internalType": "string",
              "name": "orgLogo",
              "type": "string"
            },
            {
              "internalType": "string",
              "name": "orgdiscription",
              "type": "string"
            },
            {
              "internalType": "string",
              "name": "orgOrigin",
              "type": "string"
            },
            {
              "internalType": "string",
              "name": "empstrength",
              "type": "string"
            },
            {
              "internalType": "string",
              "name": "orgFounder",
              "type": "string"
            },
            {
              "internalType": "string",
              "name": "orgCatagory",
              "type": "string"
            }
          ],
          "internalType": "struct Swirl.Advertiser[]",
          "name": "",
          "type": "tuple[]"
        }
      ],
      "stateMutability": "view",
      "type": "function"
    },
    {
      "inputs": [],
      "name": "getAllCampaigns",
      "outputs": [
        {
          "components": [
            {
              "internalType": "uint256",
              "name": "id",
              "type": "uint256"
            },
            {
              "internalType": "uint256",
              "name": "advertiserId",
              "type": "uint256"
            },
            {
              "internalType": "uint256",
              "name": "balance",
              "type": "uint256"
            },
            {
              "internalType": "string",
              "name": "campaignName",
              "type": "string"
            },
            {
              "internalType": "string",
              "name": "budget",
              "type": "string"
            },
            {
              "internalType": "string",
              "name": "payclick",
              "type": "string"
            },
            {
              "internalType": "string",
              "name": "stringCID",
              "type": "string"
            }
          ],
          "internalType": "struct Swirl.Campaign[]",
          "name": "",
          "type": "tuple[]"
        }
      ],
      "stateMutability": "view",
      "type": "function"
    },
    {
      "inputs": [],
      "name": "getAllPublishers",
      "outputs": [
        {
          "components": [
            {
              "internalType": "uint256",
              "name": "id",
              "type": "uint256"
            },
            {
              "internalType": "address",
              "name": "wallet",
              "type": "address"
            },
            {
              "internalType": "string",
              "name": "orgUsername",
              "type": "string"
            },
            {
              "internalType": "string",
              "name": "orgname",
              "type": "string"
            },
            {
              "internalType": "string",
              "name": "orgLogo",
              "type": "string"
            },
            {
              "internalType": "string",
              "name": "orgdiscription",
              "type": "string"
            },
            {
              "internalType": "string",
              "name": "orgOrigin",
              "type": "string"
            },
            {
              "internalType": "string",
              "name": "empstrength",
              "type": "string"
            },
            {
              "internalType": "string",
              "name": "orgFounder",
              "type": "string"
            },
            {
              "internalType": "string",
              "name": "orgCatagory",
              "type": "string"
            }
          ],
          "internalType": "struct Swirl.Publisher[]",
          "name": "",
          "type": "tuple[]"
        }
      ],
      "stateMutability": "view",
      "type": "function"
    },
    {
      "inputs": [
        {
          "internalType": "address",
          "name": "_advertiserAddress",
          "type": "address"
        }
      ],
      "name": "getCampaign",
      "outputs": [
        {
          "internalType": "uint256[]",
          "name": "ids",
          "type": "uint256[]"
        },
        {
          "internalType": "uint256[]",
          "name": "balances",
          "type": "uint256[]"
        },
        {
          "internalType": "string[]",
          "name": "campaignNames",
          "type": "string[]"
        },
        {
          "internalType": "string[]",
          "name": "budgets",
          "type": "string[]"
        },
        {
          "internalType": "string[]",
          "name": "payclicks",
          "type": "string[]"
        },
        {
          "internalType": "string[]",
          "name": "stringCIDs",
          "type": "string[]"
        }
      ],
      "stateMutability": "view",
      "type": "function"
    },
    {
      "inputs": [
        {
          "internalType": "address",
          "name": "_wallet",
          "type": "address"
        }
      ],
      "name": "getOneCampaigns",
      "outputs": [
        {
          "components": [
            {
              "internalType": "uint256",
              "name": "id",
              "type": "uint256"
            },
            {
              "internalType": "uint256",
              "name": "advertiserId",
              "type": "uint256"
            },
            {
              "internalType": "uint256",
              "name": "balance",
              "type": "uint256"
            },
            {
              "internalType": "string",
              "name": "campaignName",
              "type": "string"
            },
            {
              "internalType": "string",
              "name": "budget",
              "type": "string"
            },
            {
              "internalType": "string",
              "name": "payclick",
              "type": "string"
            },
            {
              "internalType": "string",
              "name": "stringCID",
              "type": "string"
            }
          ],
          "internalType": "struct Swirl.Campaign[]",
          "name": "",
          "type": "tuple[]"
        }
      ],
      "stateMutability": "view",
      "type": "function"
    },
    {
      "inputs": [
        {
          "internalType": "address",
          "name": "_wallet",
          "type": "address"
        }
      ],
      "name": "getPublisher",
      "outputs": [
        {
          "internalType": "uint256",
          "name": "",
          "type": "uint256"
        },
        {
          "internalType": "address",
          "name": "",
          "type": "address"
        },
        {
          "internalType": "string",
          "name": "",
          "type": "string"
        },
        {
          "internalType": "string",
          "name": "",
          "type": "string"
        },
        {
          "internalType": "string",
          "name": "",
          "type": "string"
        },
        {
          "internalType": "string",
          "name": "",
          "type": "string"
        },
        {
          "internalType": "string",
          "name": "",
          "type": "string"
        },
        {
          "internalType": "string",
          "name": "",
          "type": "string"
        },
        {
          "internalType": "string",
          "name": "",
          "type": "string"
        },
        {
          "internalType": "string",
          "name": "",
          "type": "string"
        }
      ],
      "stateMutability": "view",
      "type": "function"
    },
    {
      "inputs": [
        {
          "internalType": "uint256",
          "name": "_campaignId",
          "type": "uint256"
        }
      ],
      "name": "isPublished",
      "outputs": [
        {
          "internalType": "bool",
          "name": "",
          "type": "bool"
        }
      ],
      "stateMutability": "view",
      "type": "function"
    },
    {
      "inputs": [
        {
          "internalType": "uint256",
          "name": "_campaignId",
          "type": "uint256"
        }
      ],
      "name": "isWithdrawn",
      "outputs": [
        {
          "internalType": "bool",
          "name": "",
          "type": "bool"
        }
      ],
      "stateMutability": "view",
      "type": "function"
    },
    {
      "inputs": [
        {
          "internalType": "uint256",
          "name": "_campaignId",
          "type": "uint256"
        }
      ],
      "name": "publishCampaign",
      "outputs": [],
      "stateMutability": "nonpayable",
      "type": "function"
    },
    {
      "inputs": [
        {
          "internalType": "uint256",
          "name": "_publisherId",
          "type": "uint256"
        },
        {
          "internalType": "uint256",
          "name": "_campaignId",
          "type": "uint256"
        }
      ],
      "name": "withdraw",
      "outputs": [],
      "stateMutability": "nonpayable",
      "type": "function"
    },
    {
      "inputs": [
        {
          "internalType": "uint256",
          "name": "_campaignId",
          "type": "uint256"
        }
      ],
      "name": "withdrawCampaign",
      "outputs": [],
      "stateMutability": "nonpayable",
      "type": "function"
    }
  ],
  "bytecode": "0x608060405234801561001057600080fd5b50615acf80620000216000396000f3fe6080604052600436106100fe5760003560e01c80637b156fb5116100955780639fd31557116100645780639fd3155714610371578063c30184b7146103ae578063c74e775a146103eb578063f0a603bc14610414578063f340fa011461043d576100fe565b80637b156fb51461029a57806386cdf604146102d75780638b043e08146103025780639cc52aee14610348576100fe565b80636d321f7a116100d15780636d321f7a146101bd57806372536e90146101e8578063731301cf1461022f5780637684fc8614610271576100fe565b8063109fd1fb14610103578063441a3e70146101405780634c96f2811461016957806365a2db1c14610194575b600080fd5b34801561010f57600080fd5b5061012a60048036038101906101259190614347565b610459565b6040516101379190614590565b60405180910390f35b34801561014c57600080fd5b50610167600480360381019061016291906145de565b610813565b005b34801561017557600080fd5b5061017e610a85565b60405161018b91906147fa565b60405180910390f35b3480156101a057600080fd5b506101bb60048036038101906101b69190614951565b611049565b005b3480156101c957600080fd5b506101d2611245565b6040516101df9190614cdd565b60405180910390f35b3480156101f457600080fd5b5061020f600480360381019061020a9190614347565b611812565b6040516102269b9a99989796959493929190614d67565b60405180910390f35b34801561023b57600080fd5b5061025660048036038101906102519190614347565b611e32565b60405161026896959493929190614fbb565b60405180910390f35b34801561027d57600080fd5b5061029860048036038101906102939190615046565b612471565b005b3480156102a657600080fd5b506102c160048036038101906102bc9190615046565b612781565b6040516102ce919061508e565b60405180910390f35b3480156102e357600080fd5b506102ec612a60565b6040516102f99190614590565b60405180910390f35b34801561030e57600080fd5b5061032960048036038101906103249190614347565b612d99565b60405161033f9a999897969594939291906150a9565b60405180910390f35b34801561035457600080fd5b5061036f600480360381019061036a9190614951565b6133a5565b005b34801561037d57600080fd5b5061039860048036038101906103939190614347565b613590565b6040516103a5919061517d565b60405180910390f35b3480156103ba57600080fd5b506103d560048036038101906103d09190615046565b613641565b6040516103e2919061508e565b60405180910390f35b3480156103f757600080fd5b50610412600480360381019061040d9190615198565b613920565b005b34801561042057600080fd5b5061043b60048036038101906104369190615046565b613b6c565b005b61045760048036038101906104529190614347565b613ed1565b005b6060600060045467ffffffffffffffff81111561047957610478614826565b5b6040519080825280602002602001820160405280156104b257816020015b61049f6141bf565b8152602001906001900390816104975790505b509050600080600190505b6004548111610808578473ffffffffffffffffffffffffffffffffffffffff166000806001600085815260200190815260200160002060010154815260200190815260200160002060010160009054906101000a900473ffffffffffffffffffffffffffffffffffffffff1673ffffffffffffffffffffffffffffffffffffffff16036107e757600160008281526020019081526020016000206040518060e0016040529081600082015481526020016001820154815260200160028201548152602001600382018054610590906152c4565b80601f01602080910402602001604051908101604052809291908181526020018280546105bc906152c4565b80156106095780601f106105de57610100808354040283529160200191610609565b820191906000526020600020905b8154815290600101906020018083116105ec57829003601f168201915b50505050508152602001600482018054610622906152c4565b80601f016020809104026020016040519081016040528092919081815260200182805461064e906152c4565b801561069b5780601f106106705761010080835404028352916020019161069b565b820191906000526020600020905b81548152906001019060200180831161067e57829003601f168201915b505050505081526020016005820180546106b4906152c4565b80601f01602080910402602001604051908101604052809291908181526020018280546106e0906152c4565b801561072d5780601f106107025761010080835404028352916020019161072d565b820191906000526020600020905b81548152906001019060200180831161071057829003601f168201915b50505050508152602001600682018054610746906152c4565b80601f0160208091040260200160405190810160405280929190818152602001828054610772906152c4565b80156107bf5780601f10610794576101008083540402835291602001916107bf565b820191906000526020600020905b8154815290600101906020018083116107a257829003601f168201915b5050505050815250508383815181106107db576107da6152f5565b5b60200260200101819052505b81806107f290615353565b925050808061080090615353565b9150506104bd565b508192505050919050565b600554821115610858576040517f08c379a000000000000000000000000000000000000000000000000000000000815260040161084f906153e7565b60405180910390fd5b60045481111561089d576040517f08c379a000000000000000000000000000000000000000000000000000000000815260040161089490615453565b60405180910390fd5b3373ffffffffffffffffffffffffffffffffffffffff166002600084815260200190815260200160002060010160009054906101000a900473ffffffffffffffffffffffffffffffffffffffff1673ffffffffffffffffffffffffffffffffffffffff1614610941576040517f08c379a0000000000000000000000000000000000000000000000000000000008152600401610938906154bf565b60405180910390fd5b6000600160008381526020019081526020016000206002015490506000811161099f576040517f08c379a00000000000000000000000000000000000000000000000000000000081526004016109969061552b565b60405180910390fd5b60006001600084815260200190815260200160002060020181905550806000806001600086815260200190815260200160002060010154815260200190815260200160002060020160008282546109f6919061554b565b9250508190555060006002600085815260200190815260200160002060010160009054906101000a900473ffffffffffffffffffffffffffffffffffffffff1690508073ffffffffffffffffffffffffffffffffffffffff166108fc839081150290604051600060405180830381858888f19350505050158015610a7e573d6000803e3d6000fd5b5050505050565b6060600060055467ffffffffffffffff811115610aa557610aa4614826565b5b604051908082528060200260200182016040528015610ade57816020015b610acb6141fc565b815260200190600190039081610ac35790505b509050600080600190505b6005548111611040576002600082815260200190815260200160002060405180610140016040529081600082015481526020016001820160009054906101000a900473ffffffffffffffffffffffffffffffffffffffff1673ffffffffffffffffffffffffffffffffffffffff1673ffffffffffffffffffffffffffffffffffffffff168152602001600282018054610b81906152c4565b80601f0160208091040260200160405190810160405280929190818152602001828054610bad906152c4565b8015610bfa5780601f10610bcf57610100808354040283529160200191610bfa565b820191906000526020600020905b815481529060010190602001808311610bdd57829003601f168201915b50505050508152602001600382018054610c13906152c4565b80601f0160208091040260200160405190810160405280929190818152602001828054610c3f906152c4565b8015610c8c5780601f10610c6157610100808354040283529160200191610c8c565b820191906000526020600020905b815481529060010190602001808311610c6f57829003601f168201915b50505050508152602001600482018054610ca5906152c4565b80601f0160208091040260200160405190810160405280929190818152602001828054610cd1906152c4565b8015610d1e5780601f10610cf357610100808354040283529160200191610d1e565b820191906000526020600020905b815481529060010190602001808311610d0157829003601f168201915b50505050508152602001600582018054610d37906152c4565b80601f0160208091040260200160405190810160405280929190818152602001828054610d63906152c4565b8015610db05780601f10610d8557610100808354040283529160200191610db0565b820191906000526020600020905b815481529060010190602001808311610d9357829003601f168201915b50505050508152602001600682018054610dc9906152c4565b80601f0160208091040260200160405190810160405280929190818152602001828054610df5906152c4565b8015610e425780601f10610e1757610100808354040283529160200191610e42565b820191906000526020600020905b815481529060010190602001808311610e2557829003601f168201915b50505050508152602001600782018054610e5b906152c4565b80601f0160208091040260200160405190810160405280929190818152602001828054610e87906152c4565b8015610ed45780601f10610ea957610100808354040283529160200191610ed4565b820191906000526020600020905b815481529060010190602001808311610eb757829003601f168201915b50505050508152602001600882018054610eed906152c4565b80601f0160208091040260200160405190810160405280929190818152602001828054610f19906152c4565b8015610f665780601f10610f3b57610100808354040283529160200191610f66565b820191906000526020600020905b815481529060010190602001808311610f4957829003601f168201915b50505050508152602001600982018054610f7f906152c4565b80601f0160208091040260200160405190810160405280929190818152602001828054610fab906152c4565b8015610ff85780601f10610fcd57610100808354040283529160200191610ff8565b820191906000526020600020905b815481529060010190602001808311610fdb57829003601f168201915b505050505081525050838381518110611014576110136152f5565b5b6020026020010181905250818061102a90615353565b925050808061103890615353565b915050610ae9565b50819250505090565b600015156110568a61407c565b151514611098576040517f08c379a000000000000000000000000000000000000000000000000000000000815260040161108f906155cb565b60405180910390fd5b600360008154809291906110ab90615353565b919050555060405180610160016040528060035481526020018a73ffffffffffffffffffffffffffffffffffffffff168152602001600081526020018981526020018881526020018781526020018681526020018581526020018481526020018381526020018281525060008060035481526020019081526020016000206000820151816000015560208201518160010160006101000a81548173ffffffffffffffffffffffffffffffffffffffff021916908373ffffffffffffffffffffffffffffffffffffffff1602179055506040820151816002015560608201518160030190816111999190615797565b5060808201518160040190816111af9190615797565b5060a08201518160050190816111c59190615797565b5060c08201518160060190816111db9190615797565b5060e08201518160070190816111f19190615797565b506101008201518160080190816112089190615797565b5061012082015181600901908161121f9190615797565b5061014082015181600a0190816112369190615797565b50905050505050505050505050565b6060600060035467ffffffffffffffff81111561126557611264614826565b5b60405190808252806020026020018201604052801561129e57816020015b61128b614265565b8152602001906001900390816112835790505b509050600080600190505b60035481116118095760008082815260200190815260200160002060405180610160016040529081600082015481526020016001820160009054906101000a900473ffffffffffffffffffffffffffffffffffffffff1673ffffffffffffffffffffffffffffffffffffffff1673ffffffffffffffffffffffffffffffffffffffff1681526020016002820154815260200160038201805461134a906152c4565b80601f0160208091040260200160405190810160405280929190818152602001828054611376906152c4565b80156113c35780601f10611398576101008083540402835291602001916113c3565b820191906000526020600020905b8154815290600101906020018083116113a657829003601f168201915b505050505081526020016004820180546113dc906152c4565b80601f0160208091040260200160405190810160405280929190818152602001828054611408906152c4565b80156114555780601f1061142a57610100808354040283529160200191611455565b820191906000526020600020905b81548152906001019060200180831161143857829003601f168201915b5050505050815260200160058201805461146e906152c4565b80601f016020809104026020016040519081016040528092919081815260200182805461149a906152c4565b80156114e75780601f106114bc576101008083540402835291602001916114e7565b820191906000526020600020905b8154815290600101906020018083116114ca57829003601f168201915b50505050508152602001600682018054611500906152c4565b80601f016020809104026020016040519081016040528092919081815260200182805461152c906152c4565b80156115795780601f1061154e57610100808354040283529160200191611579565b820191906000526020600020905b81548152906001019060200180831161155c57829003601f168201915b50505050508152602001600782018054611592906152c4565b80601f01602080910402602001604051908101604052809291908181526020018280546115be906152c4565b801561160b5780601f106115e05761010080835404028352916020019161160b565b820191906000526020600020905b8154815290600101906020018083116115ee57829003601f168201915b50505050508152602001600882018054611624906152c4565b80601f0160208091040260200160405190810160405280929190818152602001828054611650906152c4565b801561169d5780601f106116725761010080835404028352916020019161169d565b820191906000526020600020905b81548152906001019060200180831161168057829003601f168201915b505050505081526020016009820180546116b6906152c4565b80601f01602080910402602001604051908101604052809291908181526020018280546116e2906152c4565b801561172f5780601f106117045761010080835404028352916020019161172f565b820191906000526020600020905b81548152906001019060200180831161171257829003601f168201915b50505050508152602001600a82018054611748906152c4565b80601f0160208091040260200160405190810160405280929190818152602001828054611774906152c4565b80156117c15780601f10611796576101008083540402835291602001916117c1565b820191906000526020600020905b8154815290600101906020018083116117a457829003601f168201915b5050505050815250508383815181106117dd576117dc6152f5565b5b602002602001018190525081806117f390615353565b925050808061180190615353565b9150506112a9565b50819250505090565b60008060006060806060806060806060806000600190505b6003548111611e21578c73ffffffffffffffffffffffffffffffffffffffff1660008083815260200190815260200160002060010160009054906101000a900473ffffffffffffffffffffffffffffffffffffffff1673ffffffffffffffffffffffffffffffffffffffff1603611e0e57600080600083815260200190815260200160002060405180610160016040529081600082015481526020016001820160009054906101000a900473ffffffffffffffffffffffffffffffffffffffff1673ffffffffffffffffffffffffffffffffffffffff1673ffffffffffffffffffffffffffffffffffffffff16815260200160028201548152602001600382018054611935906152c4565b80601f0160208091040260200160405190810160405280929190818152602001828054611961906152c4565b80156119ae5780601f10611983576101008083540402835291602001916119ae565b820191906000526020600020905b81548152906001019060200180831161199157829003601f168201915b505050505081526020016004820180546119c7906152c4565b80601f01602080910402602001604051908101604052809291908181526020018280546119f3906152c4565b8015611a405780601f10611a1557610100808354040283529160200191611a40565b820191906000526020600020905b815481529060010190602001808311611a2357829003601f168201915b50505050508152602001600582018054611a59906152c4565b80601f0160208091040260200160405190810160405280929190818152602001828054611a85906152c4565b8015611ad25780601f10611aa757610100808354040283529160200191611ad2565b820191906000526020600020905b815481529060010190602001808311611ab557829003601f168201915b50505050508152602001600682018054611aeb906152c4565b80601f0160208091040260200160405190810160405280929190818152602001828054611b17906152c4565b8015611b645780601f10611b3957610100808354040283529160200191611b64565b820191906000526020600020905b815481529060010190602001808311611b4757829003601f168201915b50505050508152602001600782018054611b7d906152c4565b80601f0160208091040260200160405190810160405280929190818152602001828054611ba9906152c4565b8015611bf65780601f10611bcb57610100808354040283529160200191611bf6565b820191906000526020600020905b815481529060010190602001808311611bd957829003601f168201915b50505050508152602001600882018054611c0f906152c4565b80601f0160208091040260200160405190810160405280929190818152602001828054611c3b906152c4565b8015611c885780601f10611c5d57610100808354040283529160200191611c88565b820191906000526020600020905b815481529060010190602001808311611c6b57829003601f168201915b50505050508152602001600982018054611ca1906152c4565b80601f0160208091040260200160405190810160405280929190818152602001828054611ccd906152c4565b8015611d1a5780601f10611cef57610100808354040283529160200191611d1a565b820191906000526020600020905b815481529060010190602001808311611cfd57829003601f168201915b50505050508152602001600a82018054611d33906152c4565b80601f0160208091040260200160405190810160405280929190818152602001828054611d5f906152c4565b8015611dac5780601f10611d8157610100808354040283529160200191611dac565b820191906000526020600020905b815481529060010190602001808311611d8f57829003601f168201915b5050505050815250509050806000015181602001518260400151836060015184608001518560a001518660c001518760e001518861010001518961012001518a61014001519c509c509c509c509c509c509c509c509c509c509c505050611e23565b8080611e1990615353565b91505061182a565b505b91939597999b90929496989a50565b60608060608060608060045467ffffffffffffffff811115611e5757611e56614826565b5b604051908082528060200260200182016040528015611e855781602001602082028036833780820191505090505b50955060045467ffffffffffffffff811115611ea457611ea3614826565b5b604051908082528060200260200182016040528015611ed25781602001602082028036833780820191505090505b50945060045467ffffffffffffffff811115611ef157611ef0614826565b5b604051908082528060200260200182016040528015611f2457816020015b6060815260200190600190039081611f0f5790505b50935060045467ffffffffffffffff811115611f4357611f42614826565b5b604051908082528060200260200182016040528015611f7657816020015b6060815260200190600190039081611f615790505b50925060045467ffffffffffffffff811115611f9557611f94614826565b5b604051908082528060200260200182016040528015611fc857816020015b6060815260200190600190039081611fb35790505b50915060045467ffffffffffffffff811115611fe757611fe6614826565b5b60405190808252806020026020018201604052801561201a57816020015b60608152602001906001900390816120055790505b5090506000600190505b6004548111612467578773ffffffffffffffffffffffffffffffffffffffff166000806001600085815260200190815260200160002060010154815260200190815260200160002060010160009054906101000a900473ffffffffffffffffffffffffffffffffffffffff1673ffffffffffffffffffffffffffffffffffffffff1603612454576001600082815260200190815260200160002060000154876001836120d0919061554b565b815181106120e1576120e06152f5565b5b602002602001018181525050600160008281526020019081526020016000206002015486600183612112919061554b565b81518110612123576121226152f5565b5b602002602001018181525050600160008281526020019081526020016000206003018054612150906152c4565b80601f016020809104026020016040519081016040528092919081815260200182805461217c906152c4565b80156121c95780601f1061219e576101008083540402835291602001916121c9565b820191906000526020600020905b8154815290600101906020018083116121ac57829003601f168201915b5050505050856001836121dc919061554b565b815181106121ed576121ec6152f5565b5b6020026020010181905250600160008281526020019081526020016000206004018054612219906152c4565b80601f0160208091040260200160405190810160405280929190818152602001828054612245906152c4565b80156122925780601f1061226757610100808354040283529160200191612292565b820191906000526020600020905b81548152906001019060200180831161227557829003601f168201915b5050505050846001836122a5919061554b565b815181106122b6576122b56152f5565b5b60200260200101819052506001600082815260200190815260200160002060050180546122e2906152c4565b80601f016020809104026020016040519081016040528092919081815260200182805461230e906152c4565b801561235b5780601f106123305761010080835404028352916020019161235b565b820191906000526020600020905b81548152906001019060200180831161233e57829003601f168201915b50505050508360018361236e919061554b565b8151811061237f5761237e6152f5565b5b60200260200101819052506001600082815260200190815260200160002060060180546123ab906152c4565b80601f01602080910402602001604051908101604052809291908181526020018280546123d7906152c4565b80156124245780601f106123f957610100808354040283529160200191612424565b820191906000526020600020905b81548152906001019060200180831161240757829003601f168201915b505050505082600183612437919061554b565b81518110612448576124476152f5565b5b60200260200101819052505b808061245f90615353565b915050612024565b5091939550919395565b6004548111156124b6576040517f08c379a00000000000000000000000000000000000000000000000000000000081526004016124ad90615453565b60405180910390fd5b6000600160008381526020019081526020016000206040518060e0016040529081600082015481526020016001820154815260200160028201548152602001600382018054612504906152c4565b80601f0160208091040260200160405190810160405280929190818152602001828054612530906152c4565b801561257d5780601f106125525761010080835404028352916020019161257d565b820191906000526020600020905b81548152906001019060200180831161256057829003601f168201915b50505050508152602001600482018054612596906152c4565b80601f01602080910402602001604051908101604052809291908181526020018280546125c2906152c4565b801561260f5780601f106125e45761010080835404028352916020019161260f565b820191906000526020600020905b8154815290600101906020018083116125f257829003601f168201915b50505050508152602001600582018054612628906152c4565b80601f0160208091040260200160405190810160405280929190818152602001828054612654906152c4565b80156126a15780601f10612676576101008083540402835291602001916126a1565b820191906000526020600020905b81548152906001019060200180831161268457829003601f168201915b505050505081526020016006820180546126ba906152c4565b80601f01602080910402602001604051908101604052809291908181526020018280546126e6906152c4565b80156127335780601f1061270857610100808354040283529160200191612733565b820191906000526020600020905b81548152906001019060200180831161271657829003601f168201915b5050505050815250509050806040015160008083602001518152602001908152602001600020600201600082825461276b9190615869565b9250508190555060008160400181815250505050565b60006004548211156127c8576040517f08c379a00000000000000000000000000000000000000000000000000000000081526004016127bf90615453565b60405180910390fd5b6000600160008481526020019081526020016000206040518060e0016040529081600082015481526020016001820154815260200160028201548152602001600382018054612816906152c4565b80601f0160208091040260200160405190810160405280929190818152602001828054612842906152c4565b801561288f5780601f106128645761010080835404028352916020019161288f565b820191906000526020600020905b81548152906001019060200180831161287257829003601f168201915b505050505081526020016004820180546128a8906152c4565b80601f01602080910402602001604051908101604052809291908181526020018280546128d4906152c4565b80156129215780601f106128f657610100808354040283529160200191612921565b820191906000526020600020905b81548152906001019060200180831161290457829003601f168201915b5050505050815260200160058201805461293a906152c4565b80601f0160208091040260200160405190810160405280929190818152602001828054612966906152c4565b80156129b35780601f10612988576101008083540402835291602001916129b3565b820191906000526020600020905b81548152906001019060200180831161299657829003601f168201915b505050505081526020016006820180546129cc906152c4565b80601f01602080910402602001604051908101604052809291908181526020018280546129f8906152c4565b8015612a455780601f10612a1a57610100808354040283529160200191612a45565b820191906000526020600020905b815481529060010190602001808311612a2857829003601f168201915b50505050508152505090506000816040015111915050919050565b6060600060045467ffffffffffffffff811115612a8057612a7f614826565b5b604051908082528060200260200182016040528015612ab957816020015b612aa66141bf565b815260200190600190039081612a9e5790505b509050600080600190505b6004548111612d9057600160008281526020019081526020016000206040518060e0016040529081600082015481526020016001820154815260200160028201548152602001600382018054612b19906152c4565b80601f0160208091040260200160405190810160405280929190818152602001828054612b45906152c4565b8015612b925780601f10612b6757610100808354040283529160200191612b92565b820191906000526020600020905b815481529060010190602001808311612b7557829003601f168201915b50505050508152602001600482018054612bab906152c4565b80601f0160208091040260200160405190810160405280929190818152602001828054612bd7906152c4565b8015612c245780601f10612bf957610100808354040283529160200191612c24565b820191906000526020600020905b815481529060010190602001808311612c0757829003601f168201915b50505050508152602001600582018054612c3d906152c4565b80601f0160208091040260200160405190810160405280929190818152602001828054612c69906152c4565b8015612cb65780601f10612c8b57610100808354040283529160200191612cb6565b820191906000526020600020905b815481529060010190602001808311612c9957829003601f168201915b50505050508152602001600682018054612ccf906152c4565b80601f0160208091040260200160405190810160405280929190818152602001828054612cfb906152c4565b8015612d485780601f10612d1d57610100808354040283529160200191612d48565b820191906000526020600020905b815481529060010190602001808311612d2b57829003601f168201915b505050505081525050838381518110612d6457612d636152f5565b5b60200260200101819052508180612d7a90615353565b9250508080612d8890615353565b915050612ac4565b50819250505090565b6000806060806060806060806060806000600190505b6005548111613396578b73ffffffffffffffffffffffffffffffffffffffff166002600083815260200190815260200160002060010160009054906101000a900473ffffffffffffffffffffffffffffffffffffffff1673ffffffffffffffffffffffffffffffffffffffff16036133835760006002600083815260200190815260200160002060405180610140016040529081600082015481526020016001820160009054906101000a900473ffffffffffffffffffffffffffffffffffffffff1673ffffffffffffffffffffffffffffffffffffffff1673ffffffffffffffffffffffffffffffffffffffff168152602001600282018054612eb2906152c4565b80601f0160208091040260200160405190810160405280929190818152602001828054612ede906152c4565b8015612f2b5780601f10612f0057610100808354040283529160200191612f2b565b820191906000526020600020905b815481529060010190602001808311612f0e57829003601f168201915b50505050508152602001600382018054612f44906152c4565b80601f0160208091040260200160405190810160405280929190818152602001828054612f70906152c4565b8015612fbd5780601f10612f9257610100808354040283529160200191612fbd565b820191906000526020600020905b815481529060010190602001808311612fa057829003601f168201915b50505050508152602001600482018054612fd6906152c4565b80601f0160208091040260200160405190810160405280929190818152602001828054613002906152c4565b801561304f5780601f106130245761010080835404028352916020019161304f565b820191906000526020600020905b81548152906001019060200180831161303257829003601f168201915b50505050508152602001600582018054613068906152c4565b80601f0160208091040260200160405190810160405280929190818152602001828054613094906152c4565b80156130e15780601f106130b6576101008083540402835291602001916130e1565b820191906000526020600020905b8154815290600101906020018083116130c457829003601f168201915b505050505081526020016006820180546130fa906152c4565b80601f0160208091040260200160405190810160405280929190818152602001828054613126906152c4565b80156131735780601f1061314857610100808354040283529160200191613173565b820191906000526020600020905b81548152906001019060200180831161315657829003601f168201915b5050505050815260200160078201805461318c906152c4565b80601f01602080910402602001604051908101604052809291908181526020018280546131b8906152c4565b80156132055780601f106131da57610100808354040283529160200191613205565b820191906000526020600020905b8154815290600101906020018083116131e857829003601f168201915b5050505050815260200160088201805461321e906152c4565b80601f016020809104026020016040519081016040528092919081815260200182805461324a906152c4565b80156132975780601f1061326c57610100808354040283529160200191613297565b820191906000526020600020905b81548152906001019060200180831161327a57829003601f168201915b505050505081526020016009820180546132b0906152c4565b80601f01602080910402602001604051908101604052809291908181526020018280546132dc906152c4565b80156133295780601f106132fe57610100808354040283529160200191613329565b820191906000526020600020905b81548152906001019060200180831161330c57829003601f168201915b5050505050815250509050806000015181602001518260400151836060015184608001518560a001518660c001518760e001518861010001518961012001519b509b509b509b509b509b509b509b509b509b505050613398565b808061338e90615353565b915050612daf565b505b9193959799509193959799565b600015156133b28a61411d565b1515146133f4576040517f08c379a00000000000000000000000000000000000000000000000000000000081526004016133eb906158e9565b60405180910390fd5b6005600081548092919061340790615353565b919050555060405180610140016040528060055481526020018a73ffffffffffffffffffffffffffffffffffffffff168152602001898152602001888152602001878152602001868152602001858152602001848152602001838152602001828152506002600060055481526020019081526020016000206000820151816000015560208201518160010160006101000a81548173ffffffffffffffffffffffffffffffffffffffff021916908373ffffffffffffffffffffffffffffffffffffffff16021790555060408201518160020190816134e59190615797565b5060608201518160030190816134fb9190615797565b5060808201518160040190816135119190615797565b5060a08201518160050190816135279190615797565b5060c082015181600601908161353d9190615797565b5060e08201518160070190816135539190615797565b5061010082015181600801908161356a9190615797565b506101208201518160090190816135819190615797565b50905050505050505050505050565b600080600190505b600354811161363a578273ffffffffffffffffffffffffffffffffffffffff1660008083815260200190815260200160002060010160009054906101000a900473ffffffffffffffffffffffffffffffffffffffff1673ffffffffffffffffffffffffffffffffffffffff1603613627576000808281526020019081526020016000206002015491505061363c565b808061363290615353565b915050613598565b505b919050565b6000600454821115613688576040517f08c379a000000000000000000000000000000000000000000000000000000000815260040161367f90615453565b60405180910390fd5b6000600160008481526020019081526020016000206040518060e00160405290816000820154815260200160018201548152602001600282015481526020016003820180546136d6906152c4565b80601f0160208091040260200160405190810160405280929190818152602001828054613702906152c4565b801561374f5780601f106137245761010080835404028352916020019161374f565b820191906000526020600020905b81548152906001019060200180831161373257829003601f168201915b50505050508152602001600482018054613768906152c4565b80601f0160208091040260200160405190810160405280929190818152602001828054613794906152c4565b80156137e15780601f106137b6576101008083540402835291602001916137e1565b820191906000526020600020905b8154815290600101906020018083116137c457829003601f168201915b505050505081526020016005820180546137fa906152c4565b80601f0160208091040260200160405190810160405280929190818152602001828054613826906152c4565b80156138735780601f1061384857610100808354040283529160200191613873565b820191906000526020600020905b81548152906001019060200180831161385657829003601f168201915b5050505050815260200160068201805461388c906152c4565b80601f01602080910402602001604051908101604052809291908181526020018280546138b8906152c4565b80156139055780601f106138da57610100808354040283529160200191613905565b820191906000526020600020905b8154815290600101906020018083116138e857829003601f168201915b50505050508152505090506000816040015114915050919050565b6001151561392d8761407c565b15151461396f576040517f08c379a000000000000000000000000000000000000000000000000000000000815260040161396690615955565b60405180910390fd5b600080600190505b6003548111613a03578773ffffffffffffffffffffffffffffffffffffffff1660008083815260200190815260200160002060010160009054906101000a900473ffffffffffffffffffffffffffffffffffffffff1673ffffffffffffffffffffffffffffffffffffffff16036139f057809150613a03565b80806139fb90615353565b915050613977565b5085600080838152602001908152602001600020600201541015613a5c576040517f08c379a0000000000000000000000000000000000000000000000000000000008152600401613a53906159e7565b60405180910390fd5b60046000815480929190613a6f90615353565b91905055506040518060e001604052806004548152602001828152602001878152602001868152602001858152602001848152602001838152506001600060045481526020019081526020016000206000820151816000015560208201518160010155604082015181600201556060820151816003019081613af19190615797565b506080820151816004019081613b079190615797565b5060a0820151816005019081613b1d9190615797565b5060c0820151816006019081613b339190615797565b50905050856000808381526020019081526020016000206002016000828254613b5c919061554b565b9250508190555050505050505050565b600454811115613bb1576040517f08c379a0000000000000000000000000000000000000000000000000000000008152600401613ba890615453565b60405180910390fd5b6000600160008381526020019081526020016000206040518060e0016040529081600082015481526020016001820154815260200160028201548152602001600382018054613bff906152c4565b80601f0160208091040260200160405190810160405280929190818152602001828054613c2b906152c4565b8015613c785780601f10613c4d57610100808354040283529160200191613c78565b820191906000526020600020905b815481529060010190602001808311613c5b57829003601f168201915b50505050508152602001600482018054613c91906152c4565b80601f0160208091040260200160405190810160405280929190818152602001828054613cbd906152c4565b8015613d0a5780601f10613cdf57610100808354040283529160200191613d0a565b820191906000526020600020905b815481529060010190602001808311613ced57829003601f168201915b50505050508152602001600582018054613d23906152c4565b80601f0160208091040260200160405190810160405280929190818152602001828054613d4f906152c4565b8015613d9c5780601f10613d7157610100808354040283529160200191613d9c565b820191906000526020600020905b815481529060010190602001808311613d7f57829003601f168201915b50505050508152602001600682018054613db5906152c4565b80601f0160208091040260200160405190810160405280929190818152602001828054613de1906152c4565b8015613e2e5780601f10613e0357610100808354040283529160200191613e2e565b820191906000526020600020905b815481529060010190602001808311613e1157829003601f168201915b5050505050815250509050806040015160008083602001518152602001908152602001600020600201541015613e99576040517f08c379a0000000000000000000000000000000000000000000000000000000008152600401613e90906159e7565b60405180910390fd5b8060400151600080836020015181526020019081526020016000206002016000828254613ec6919061554b565b925050819055505050565b600080600190505b6003548111613f65578273ffffffffffffffffffffffffffffffffffffffff1660008083815260200190815260200160002060010160009054906101000a900473ffffffffffffffffffffffffffffffffffffffff1673ffffffffffffffffffffffffffffffffffffffff1603613f5257809150613f65565b8080613f5d90615353565b915050613ed9565b5060008111613fa9576040517f08c379a0000000000000000000000000000000000000000000000000000000008152600401613fa090615955565b60405180910390fd5b3373ffffffffffffffffffffffffffffffffffffffff1660008083815260200190815260200160002060010160009054906101000a900473ffffffffffffffffffffffffffffffffffffffff1673ffffffffffffffffffffffffffffffffffffffff161461404c576040517f08c379a000000000000000000000000000000000000000000000000000000000815260040161404390615a79565b60405180910390fd5b3460008083815260200190815260200160002060020160008282546140719190615869565b925050819055505050565b600080600190505b6003548111614112578273ffffffffffffffffffffffffffffffffffffffff1660008083815260200190815260200160002060010160009054906101000a900473ffffffffffffffffffffffffffffffffffffffff1673ffffffffffffffffffffffffffffffffffffffff16036140ff576001915050614118565b808061410a90615353565b915050614084565b50600090505b919050565b600080600190505b60055481116141b4578273ffffffffffffffffffffffffffffffffffffffff166002600083815260200190815260200160002060010160009054906101000a900473ffffffffffffffffffffffffffffffffffffffff1673ffffffffffffffffffffffffffffffffffffffff16036141a15760019150506141ba565b80806141ac90615353565b915050614125565b50600090505b919050565b6040518060e00160405280600081526020016000815260200160008152602001606081526020016060815260200160608152602001606081525090565b60405180610140016040528060008152602001600073ffffffffffffffffffffffffffffffffffffffff16815260200160608152602001606081526020016060815260200160608152602001606081526020016060815260200160608152602001606081525090565b60405180610160016040528060008152602001600073ffffffffffffffffffffffffffffffffffffffff1681526020016000815260200160608152602001606081526020016060815260200160608152602001606081526020016060815260200160608152602001606081525090565b6000604051905090565b600080fd5b600080fd5b600073ffffffffffffffffffffffffffffffffffffffff82169050919050565b6000614314826142e9565b9050919050565b61432481614309565b811461432f57600080fd5b50565b6000813590506143418161431b565b92915050565b60006020828403121561435d5761435c6142df565b5b600061436b84828501614332565b91505092915050565b600081519050919050565b600082825260208201905092915050565b6000819050602082019050919050565b6000819050919050565b6143b3816143a0565b82525050565b600081519050919050565b600082825260208201905092915050565b60005b838110156143f35780820151818401526020810190506143d8565b60008484015250505050565b6000601f19601f8301169050919050565b600061441b826143b9565b61442581856143c4565b93506144358185602086016143d5565b61443e816143ff565b840191505092915050565b600060e08301600083015161446160008601826143aa565b50602083015161447460208601826143aa565b50604083015161448760408601826143aa565b506060830151848203606086015261449f8282614410565b915050608083015184820360808601526144b98282614410565b91505060a083015184820360a08601526144d38282614410565b91505060c083015184820360c08601526144ed8282614410565b9150508091505092915050565b60006145068383614449565b905092915050565b6000602082019050919050565b600061452682614374565b614530818561437f565b93508360208202850161454285614390565b8060005b8581101561457e578484038952815161455f85826144fa565b945061456a8361450e565b925060208a01995050600181019050614546565b50829750879550505050505092915050565b600060208201905081810360008301526145aa818461451b565b905092915050565b6145bb816143a0565b81146145c657600080fd5b50565b6000813590506145d8816145b2565b92915050565b600080604083850312156145f5576145f46142df565b5b6000614603858286016145c9565b9250506020614614858286016145c9565b9150509250929050565b600081519050919050565b600082825260208201905092915050565b6000819050602082019050919050565b61465381614309565b82525050565b60006101408301600083015161467260008601826143aa565b506020830151614685602086018261464a565b506040830151848203604086015261469d8282614410565b915050606083015184820360608601526146b78282614410565b915050608083015184820360808601526146d18282614410565b91505060a083015184820360a08601526146eb8282614410565b91505060c083015184820360c08601526147058282614410565b91505060e083015184820360e086015261471f8282614410565b91505061010083015184820361010086015261473b8282614410565b9150506101208301518482036101208601526147578282614410565b9150508091505092915050565b60006147708383614659565b905092915050565b6000602082019050919050565b60006147908261461e565b61479a8185614629565b9350836020820285016147ac8561463a565b8060005b858110156147e857848403895281516147c98582614764565b94506147d483614778565b925060208a019950506001810190506147b0565b50829750879550505050505092915050565b600060208201905081810360008301526148148184614785565b905092915050565b600080fd5b600080fd5b7f4e487b7100000000000000000000000000000000000000000000000000000000600052604160045260246000fd5b61485e826143ff565b810181811067ffffffffffffffff8211171561487d5761487c614826565b5b80604052505050565b60006148906142d5565b905061489c8282614855565b919050565b600067ffffffffffffffff8211156148bc576148bb614826565b5b6148c5826143ff565b9050602081019050919050565b82818337600083830152505050565b60006148f46148ef846148a1565b614886565b9050828152602081018484840111156149105761490f614821565b5b61491b8482856148d2565b509392505050565b600082601f8301126149385761493761481c565b5b81356149488482602086016148e1565b91505092915050565b60008060008060008060008060006101208a8c031215614974576149736142df565b5b60006149828c828d01614332565b99505060208a013567ffffffffffffffff8111156149a3576149a26142e4565b5b6149af8c828d01614923565b98505060408a013567ffffffffffffffff8111156149d0576149cf6142e4565b5b6149dc8c828d01614923565b97505060608a013567ffffffffffffffff8111156149fd576149fc6142e4565b5b614a098c828d01614923565b96505060808a013567ffffffffffffffff811115614a2a57614a296142e4565b5b614a368c828d01614923565b95505060a08a013567ffffffffffffffff811115614a5757614a566142e4565b5b614a638c828d01614923565b94505060c08a013567ffffffffffffffff811115614a8457614a836142e4565b5b614a908c828d01614923565b93505060e08a013567ffffffffffffffff811115614ab157614ab06142e4565b5b614abd8c828d01614923565b9250506101008a013567ffffffffffffffff811115614adf57614ade6142e4565b5b614aeb8c828d01614923565b9150509295985092959850929598565b600081519050919050565b600082825260208201905092915050565b6000819050602082019050919050565b600061016083016000830151614b4060008601826143aa565b506020830151614b53602086018261464a565b506040830151614b6660408601826143aa565b5060608301518482036060860152614b7e8282614410565b91505060808301518482036080860152614b988282614410565b91505060a083015184820360a0860152614bb28282614410565b91505060c083015184820360c0860152614bcc8282614410565b91505060e083015184820360e0860152614be68282614410565b915050610100830151848203610100860152614c028282614410565b915050610120830151848203610120860152614c1e8282614410565b915050610140830151848203610140860152614c3a8282614410565b9150508091505092915050565b6000614c538383614b27565b905092915050565b6000602082019050919050565b6000614c7382614afb565b614c7d8185614b06565b935083602082028501614c8f85614b17565b8060005b85811015614ccb5784840389528151614cac8582614c47565b9450614cb783614c5b565b925060208a01995050600181019050614c93565b50829750879550505050505092915050565b60006020820190508181036000830152614cf78184614c68565b905092915050565b614d08816143a0565b82525050565b614d1781614309565b82525050565b600082825260208201905092915050565b6000614d39826143b9565b614d438185614d1d565b9350614d538185602086016143d5565b614d5c816143ff565b840191505092915050565b600061016082019050614d7d600083018e614cff565b614d8a602083018d614d0e565b614d97604083018c614cff565b8181036060830152614da9818b614d2e565b90508181036080830152614dbd818a614d2e565b905081810360a0830152614dd18189614d2e565b905081810360c0830152614de58188614d2e565b905081810360e0830152614df98187614d2e565b9050818103610100830152614e0e8186614d2e565b9050818103610120830152614e238185614d2e565b9050818103610140830152614e388184614d2e565b90509c9b505050505050505050505050565b600081519050919050565b600082825260208201905092915050565b6000819050602082019050919050565b6000614e8283836143aa565b60208301905092915050565b6000602082019050919050565b6000614ea682614e4a565b614eb08185614e55565b9350614ebb83614e66565b8060005b83811015614eec578151614ed38882614e76565b9750614ede83614e8e565b925050600181019050614ebf565b5085935050505092915050565b600081519050919050565b600082825260208201905092915050565b6000819050602082019050919050565b6000614f318383614410565b905092915050565b6000602082019050919050565b6000614f5182614ef9565b614f5b8185614f04565b935083602082028501614f6d85614f15565b8060005b85811015614fa95784840389528151614f8a8582614f25565b9450614f9583614f39565b925060208a01995050600181019050614f71565b50829750879550505050505092915050565b600060c0820190508181036000830152614fd58189614e9b565b90508181036020830152614fe98188614e9b565b90508181036040830152614ffd8187614f46565b905081810360608301526150118186614f46565b905081810360808301526150258185614f46565b905081810360a08301526150398184614f46565b9050979650505050505050565b60006020828403121561505c5761505b6142df565b5b600061506a848285016145c9565b91505092915050565b60008115159050919050565b61508881615073565b82525050565b60006020820190506150a3600083018461507f565b92915050565b6000610140820190506150bf600083018d614cff565b6150cc602083018c614d0e565b81810360408301526150de818b614d2e565b905081810360608301526150f2818a614d2e565b905081810360808301526151068189614d2e565b905081810360a083015261511a8188614d2e565b905081810360c083015261512e8187614d2e565b905081810360e08301526151428186614d2e565b90508181036101008301526151578185614d2e565b905081810361012083015261516c8184614d2e565b90509b9a5050505050505050505050565b60006020820190506151926000830184614cff565b92915050565b60008060008060008060c087890312156151b5576151b46142df565b5b60006151c389828a01614332565b96505060206151d489828a016145c9565b955050604087013567ffffffffffffffff8111156151f5576151f46142e4565b5b61520189828a01614923565b945050606087013567ffffffffffffffff811115615222576152216142e4565b5b61522e89828a01614923565b935050608087013567ffffffffffffffff81111561524f5761524e6142e4565b5b61525b89828a01614923565b92505060a087013567ffffffffffffffff81111561527c5761527b6142e4565b5b61528889828a01614923565b9150509295509295509295565b7f4e487b7100000000000000000000000000000000000000000000000000000000600052602260045260246000fd5b600060028204905060018216806152dc57607f821691505b6020821081036152ef576152ee615295565b5b50919050565b7f4e487b7100000000000000000000000000000000000000000000000000000000600052603260045260246000fd5b7f4e487b7100000000000000000000000000000000000000000000000000000000600052601160045260246000fd5b600061535e826143a0565b91507fffffffffffffffffffffffffffffffffffffffffffffffffffffffffffffffff82036153905761538f615324565b5b600182019050919050565b7f5075626c697368657220646f6573206e6f742065786973740000000000000000600082015250565b60006153d1601883614d1d565b91506153dc8261539b565b602082019050919050565b60006020820190508181036000830152615400816153c4565b9050919050565b7f43616d706169676e20646f6573206e6f74206578697374000000000000000000600082015250565b600061543d601783614d1d565b915061544882615407565b602082019050919050565b6000602082019050818103600083015261546c81615430565b9050919050565b7f4f6e6c79207075626c69736865722063616e2077697468647261770000000000600082015250565b60006154a9601b83614d1d565b91506154b482615473565b602082019050919050565b600060208201905081810360008301526154d88161549c565b9050919050565b7f43616d706169676e2062616c616e6365206973207a65726f0000000000000000600082015250565b6000615515601883614d1d565b9150615520826154df565b602082019050919050565b6000602082019050818103600083015261554481615508565b9050919050565b6000615556826143a0565b9150615561836143a0565b925082820390508181111561557957615578615324565b5b92915050565b7f4164766572746973657220616c72656164792065786973747300000000000000600082015250565b60006155b5601983614d1d565b91506155c08261557f565b602082019050919050565b600060208201905081810360008301526155e4816155a8565b9050919050565b60008190508160005260206000209050919050565b60006020601f8301049050919050565b600082821b905092915050565b60006008830261564d7fffffffffffffffffffffffffffffffffffffffffffffffffffffffffffffffff82615610565b6156578683615610565b95508019841693508086168417925050509392505050565b6000819050919050565b600061569461568f61568a846143a0565b61566f565b6143a0565b9050919050565b6000819050919050565b6156ae83615679565b6156c26156ba8261569b565b84845461561d565b825550505050565b600090565b6156d76156ca565b6156e28184846156a5565b505050565b5b81811015615706576156fb6000826156cf565b6001810190506156e8565b5050565b601f82111561574b5761571c816155eb565b61572584615600565b81016020851015615734578190505b61574861574085615600565b8301826156e7565b50505b505050565b600082821c905092915050565b600061576e60001984600802615750565b1980831691505092915050565b6000615787838361575d565b9150826002028217905092915050565b6157a0826143b9565b67ffffffffffffffff8111156157b9576157b8614826565b5b6157c382546152c4565b6157ce82828561570a565b600060209050601f83116001811461580157600084156157ef578287015190505b6157f9858261577b565b865550615861565b601f19841661580f866155eb565b60005b8281101561583757848901518255600182019150602085019450602081019050615812565b868310156158545784890151615850601f89168261575d565b8355505b6001600288020188555050505b505050505050565b6000615874826143a0565b915061587f836143a0565b925082820190508082111561589757615896615324565b5b92915050565b7f5075626c697368657220616c7265616479206578697374730000000000000000600082015250565b60006158d3601883614d1d565b91506158de8261589d565b602082019050919050565b60006020820190508181036000830152615902816158c6565b9050919050565b7f4164766572746973657220646f6573206e6f7420657869737400000000000000600082015250565b600061593f601983614d1d565b915061594a82615909565b602082019050919050565b6000602082019050818103600083015261596e81615932565b9050919050565b7f42616c616e6365206f662061647665727469736572206973206e6f7420656e6f60008201527f7567680000000000000000000000000000000000000000000000000000000000602082015250565b60006159d1602383614d1d565b91506159dc82615975565b604082019050919050565b60006020820190508181036000830152615a00816159c4565b9050919050565b7f4f6e6c7920616476657274697365722063616e206465706f7369742066756e6460008201527f7300000000000000000000000000000000000000000000000000000000000000602082015250565b6000615a63602183614d1d565b9150615a6e82615a07565b604082019050919050565b60006020820190508181036000830152615a9281615a56565b905091905056fea2646970667358221220eb160a6654a14d2fe7d1225b0e4fa4d68d049ebe9ceffa1a086f9ddc2743f63664736f6c63430008120033",
  "linkReferences": {},
  "deployedLinkReferences": {}
}