{
  "_format": "hh-sol-artifact-1",
  "contractName": "Swirl",
  "sourceName": "contracts/Swirl.sol",
  "abi": [
    {
      "inputs": [
        {
          "internalType": "address",
          "name": "_wallet",
          "type": "address"
        },
        {
          "internalType": "string",
          "name": "_orgUsername",
          "type": "string"
        },
        {
          "internalType": "string",
          "name": "_orgname",
          "type": "string"
        },
        {
          "internalType": "string",
          "name": "_orgLogo",
          "type": "string"
        },
        {
          "internalType": "string",
          "name": "_orgdiscription",
          "type": "string"
        },
        {
          "internalType": "string",
          "name": "_orgOrigin",
          "type": "string"
        },
        {
          "internalType": "string",
          "name": "_empstrength",
          "type": "string"
        },
        {
          "internalType": "string",
          "name": "_orgFounder",
          "type": "string"
        },
        {
          "internalType": "string",
          "name": "_orgCatagory",
          "type": "string"
        }
      ],
      "name": "createAdvertiser",
      "outputs": [],
      "stateMutability": "nonpayable",
      "type": "function"
    },
    {
      "inputs": [
        {
          "internalType": "address",
          "name": "_advertiserAddress",
          "type": "address"
        },
        {
          "internalType": "uint256",
          "name": "_balance",
          "type": "uint256"
        },
        {
          "internalType": "string",
          "name": "_campaignName",
          "type": "string"
        },
        {
          "internalType": "string",
          "name": "_budget",
          "type": "string"
        },
        {
          "internalType": "string",
          "name": "_payclick",
          "type": "string"
        },
        {
          "internalType": "string",
          "name": "_stringCID",
          "type": "string"
        }
      ],
      "name": "createCampaign",
      "outputs": [],
      "stateMutability": "nonpayable",
      "type": "function"
    },
    {
      "inputs": [
        {
          "internalType": "address",
          "name": "_wallet",
          "type": "address"
        },
        {
          "internalType": "string",
          "name": "_orgUsername",
          "type": "string"
        },
        {
          "internalType": "string",
          "name": "_orgname",
          "type": "string"
        },
        {
          "internalType": "string",
          "name": "_orgLogo",
          "type": "string"
        },
        {
          "internalType": "string",
          "name": "_orgdiscription",
          "type": "string"
        },
        {
          "internalType": "string",
          "name": "_orgOrigin",
          "type": "string"
        },
        {
          "internalType": "string",
          "name": "_empstrength",
          "type": "string"
        },
        {
          "internalType": "string",
          "name": "_orgFounder",
          "type": "string"
        },
        {
          "internalType": "string",
          "name": "_orgCatagory",
          "type": "string"
        }
      ],
      "name": "createPublisher",
      "outputs": [],
      "stateMutability": "nonpayable",
      "type": "function"
    },
    {
      "inputs": [
        {
          "internalType": "address",
          "name": "_advertiserAddress",
          "type": "address"
        }
      ],
      "name": "deposit",
      "outputs": [],
      "stateMutability": "payable",
      "type": "function"
    },
    {
      "inputs": [
        {
          "internalType": "address",
          "name": "_wallet",
          "type": "address"
        }
      ],
      "name": "getAdvertiser",
      "outputs": [
        {
          "internalType": "uint256",
          "name": "",
          "type": "uint256"
        },
        {
          "internalType": "address",
          "name": "",
          "type": "address"
        },
        {
          "internalType": "uint256",
          "name": "",
          "type": "uint256"
        },
        {
          "internalType": "string",
          "name": "",
          "type": "string"
        },
        {
          "internalType": "string",
          "name": "",
          "type": "string"
        },
        {
          "internalType": "string",
          "name": "",
          "type": "string"
        },
        {
          "internalType": "string",
          "name": "",
          "type": "string"
        },
        {
          "internalType": "string",
          "name": "",
          "type": "string"
        },
        {
          "internalType": "string",
          "name": "",
          "type": "string"
        },
        {
          "internalType": "string",
          "name": "",
          "type": "string"
        },
        {
          "internalType": "string",
          "name": "",
          "type": "string"
        }
      ],
      "stateMutability": "view",
      "type": "function"
    },
    {
      "inputs": [
        {
          "internalType": "address",
          "name": "_wallet",
          "type": "address"
        }
      ],
      "name": "getAdvertiserBalance",
      "outputs": [
        {
          "internalType": "uint256",
          "name": "",
          "type": "uint256"
        }
      ],
      "stateMutability": "view",
      "type": "function"
    },
    {
      "inputs": [],
      "name": "getAllAdvertisers",
      "outputs": [
        {
          "internalType": "uint256[]",
          "name": "ids",
          "type": "uint256[]"
        },
        {
          "internalType": "address[]",
          "name": "addresses",
          "type": "address[]"
        },
        {
          "internalType": "string[]",
          "name": "orgUsernames",
          "type": "string[]"
        },
        {
          "internalType": "string[]",
          "name": "orgnames",
          "type": "string[]"
        },
        {
          "internalType": "string[]",
          "name": "orgLogos",
          "type": "string[]"
        },
        {
          "internalType": "string[]",
          "name": "orgdiscriptions",
          "type": "string[]"
        },
        {
          "internalType": "string[]",
          "name": "orgOrigins",
          "type": "string[]"
        },
        {
          "internalType": "string[]",
          "name": "empstrengths",
          "type": "string[]"
        },
        {
          "internalType": "string[]",
          "name": "orgFounders",
          "type": "string[]"
        },
        {
          "internalType": "string[]",
          "name": "orgCatagories",
          "type": "string[]"
        }
      ],
      "stateMutability": "view",
      "type": "function"
    },
    {
      "inputs": [],
      "name": "getAllCampaigns",
      "outputs": [
        {
          "internalType": "uint256[]",
          "name": "ids",
          "type": "uint256[]"
        },
        {
          "internalType": "address[]",
          "name": "advertiserIds",
          "type": "address[]"
        },
        {
          "internalType": "uint256[]",
          "name": "balances",
          "type": "uint256[]"
        },
        {
          "internalType": "string[]",
          "name": "campaignNames",
          "type": "string[]"
        },
        {
          "internalType": "string[]",
          "name": "budgets",
          "type": "string[]"
        },
        {
          "internalType": "string[]",
          "name": "payclicks",
          "type": "string[]"
        },
        {
          "internalType": "string[]",
          "name": "stringCIDs",
          "type": "string[]"
        }
      ],
      "stateMutability": "view",
      "type": "function"
    },
    {
      "inputs": [],
      "name": "getAllPublishers",
      "outputs": [
        {
          "internalType": "uint256[]",
          "name": "ids",
          "type": "uint256[]"
        },
        {
          "internalType": "address[]",
          "name": "addresses",
          "type": "address[]"
        },
        {
          "internalType": "string[]",
          "name": "orgUsernames",
          "type": "string[]"
        },
        {
          "internalType": "string[]",
          "name": "orgnames",
          "type": "string[]"
        },
        {
          "internalType": "string[]",
          "name": "orgLogos",
          "type": "string[]"
        },
        {
          "internalType": "string[]",
          "name": "orgdiscriptions",
          "type": "string[]"
        },
        {
          "internalType": "string[]",
          "name": "orgOrigins",
          "type": "string[]"
        },
        {
          "internalType": "string[]",
          "name": "empstrengths",
          "type": "string[]"
        },
        {
          "internalType": "string[]",
          "name": "orgFounders",
          "type": "string[]"
        },
        {
          "internalType": "string[]",
          "name": "orgCatagories",
          "type": "string[]"
        }
      ],
      "stateMutability": "view",
      "type": "function"
    },
    {
      "inputs": [
        {
          "internalType": "address",
          "name": "_advertiserAddress",
          "type": "address"
        }
      ],
      "name": "getCampaign",
      "outputs": [
        {
          "internalType": "uint256[]",
          "name": "ids",
          "type": "uint256[]"
        },
        {
          "internalType": "uint256[]",
          "name": "balances",
          "type": "uint256[]"
        },
        {
          "internalType": "string[]",
          "name": "campaignNames",
          "type": "string[]"
        },
        {
          "internalType": "string[]",
          "name": "budgets",
          "type": "string[]"
        },
        {
          "internalType": "string[]",
          "name": "payclicks",
          "type": "string[]"
        },
        {
          "internalType": "string[]",
          "name": "stringCIDs",
          "type": "string[]"
        }
      ],
      "stateMutability": "view",
      "type": "function"
    },
    {
      "inputs": [
        {
          "internalType": "address",
          "name": "_wallet",
          "type": "address"
        }
      ],
      "name": "getPublisher",
      "outputs": [
        {
          "internalType": "uint256",
          "name": "",
          "type": "uint256"
        },
        {
          "internalType": "address",
          "name": "",
          "type": "address"
        },
        {
          "internalType": "string",
          "name": "",
          "type": "string"
        },
        {
          "internalType": "string",
          "name": "",
          "type": "string"
        },
        {
          "internalType": "string",
          "name": "",
          "type": "string"
        },
        {
          "internalType": "string",
          "name": "",
          "type": "string"
        },
        {
          "internalType": "string",
          "name": "",
          "type": "string"
        },
        {
          "internalType": "string",
          "name": "",
          "type": "string"
        },
        {
          "internalType": "string",
          "name": "",
          "type": "string"
        },
        {
          "internalType": "string",
          "name": "",
          "type": "string"
        }
      ],
      "stateMutability": "view",
      "type": "function"
    },
    {
      "inputs": [
        {
          "internalType": "uint256",
          "name": "_publisherId",
          "type": "uint256"
        },
        {
          "internalType": "uint256",
          "name": "_campaignId",
          "type": "uint256"
        }
      ],
      "name": "withdraw",
      "outputs": [],
      "stateMutability": "nonpayable",
      "type": "function"
    }
  ],
  "bytecode": "0x608060405234801561001057600080fd5b506151b0806100206000396000f3fe6080604052600436106100a75760003560e01c806386cdf6041161006457806386cdf604146101ef5780638b043e08146102205780639cc52aee146102665780639fd315571461028f578063c74e775a146102cc578063f340fa01146102f5576100a7565b8063441a3e70146100ac5780634c96f281146100d557806365a2db1c146101095780636d321f7a1461013257806372536e9014610166578063731301cf146101ad575b600080fd5b3480156100b857600080fd5b506100d360048036038101906100ce9190613dba565b610311565b005b3480156100e157600080fd5b506100ea610583565b6040516101009a999897969594939291906140fa565b60405180910390f35b34801561011557600080fd5b50610130600480360381019061012b919061433d565b611006565b005b34801561013e57600080fd5b50610147611202565b60405161015d9a999897969594939291906140fa565b60405180910390f35b34801561017257600080fd5b5061018d600480360381019061018891906144e7565b611c7b565b6040516101a49b9a9998979695949392919061457c565b60405180910390f35b3480156101b957600080fd5b506101d460048036038101906101cf91906144e7565b61229b565b6040516101e69695949392919061465f565b60405180910390f35b3480156101fb57600080fd5b506102046128da565b60405161021797969594939291906146ea565b60405180910390f35b34801561022c57600080fd5b50610247600480360381019061024291906144e7565b612f8e565b60405161025d9a9998979695949392919061478a565b60405180910390f35b34801561027257600080fd5b5061028d6004803603810190610288919061433d565b61359a565b005b34801561029b57600080fd5b506102b660048036038101906102b191906144e7565b613785565b6040516102c3919061485e565b60405180910390f35b3480156102d857600080fd5b506102f360048036038101906102ee9190614879565b613836565b005b61030f600480360381019061030a91906144e7565b613a82565b005b600554821115610356576040517f08c379a000000000000000000000000000000000000000000000000000000000815260040161034d906149c2565b60405180910390fd5b60045481111561039b576040517f08c379a000000000000000000000000000000000000000000000000000000000815260040161039290614a2e565b60405180910390fd5b3373ffffffffffffffffffffffffffffffffffffffff166002600084815260200190815260200160002060010160009054906101000a900473ffffffffffffffffffffffffffffffffffffffff1673ffffffffffffffffffffffffffffffffffffffff161461043f576040517f08c379a000000000000000000000000000000000000000000000000000000000815260040161043690614a9a565b60405180910390fd5b6000600160008381526020019081526020016000206002015490506000811161049d576040517f08c379a000000000000000000000000000000000000000000000000000000000815260040161049490614b06565b60405180910390fd5b60006001600084815260200190815260200160002060020181905550806000806001600086815260200190815260200160002060010154815260200190815260200160002060020160008282546104f49190614b55565b9250508190555060006002600085815260200190815260200160002060010160009054906101000a900473ffffffffffffffffffffffffffffffffffffffff1690508073ffffffffffffffffffffffffffffffffffffffff166108fc839081150290604051600060405180830381858888f1935050505015801561057c573d6000803e3d6000fd5b5050505050565b60608060608060608060608060608060055467ffffffffffffffff8111156105ae576105ad614212565b5b6040519080825280602002602001820160405280156105dc5781602001602082028036833780820191505090505b50995060055467ffffffffffffffff8111156105fb576105fa614212565b5b6040519080825280602002602001820160405280156106295781602001602082028036833780820191505090505b50985060055467ffffffffffffffff81111561064857610647614212565b5b60405190808252806020026020018201604052801561067b57816020015b60608152602001906001900390816106665790505b50975060055467ffffffffffffffff81111561069a57610699614212565b5b6040519080825280602002602001820160405280156106cd57816020015b60608152602001906001900390816106b85790505b50965060055467ffffffffffffffff8111156106ec576106eb614212565b5b60405190808252806020026020018201604052801561071f57816020015b606081526020019060019003908161070a5790505b50955060055467ffffffffffffffff81111561073e5761073d614212565b5b60405190808252806020026020018201604052801561077157816020015b606081526020019060019003908161075c5790505b50945060055467ffffffffffffffff8111156107905761078f614212565b5b6040519080825280602002602001820160405280156107c357816020015b60608152602001906001900390816107ae5790505b50935060055467ffffffffffffffff8111156107e2576107e1614212565b5b60405190808252806020026020018201604052801561081557816020015b60608152602001906001900390816108005790505b50925060055467ffffffffffffffff81111561083457610833614212565b5b60405190808252806020026020018201604052801561086757816020015b60608152602001906001900390816108525790505b50915060055467ffffffffffffffff81111561088657610885614212565b5b6040519080825280602002602001820160405280156108b957816020015b60608152602001906001900390816108a45790505b5090506000600190505b6005548111610ff95760026000828152602001908152602001600020600001548b6001836108f19190614b55565b8151811061090257610901614b89565b5b6020026020010181815250506002600082815260200190815260200160002060010160009054906101000a900473ffffffffffffffffffffffffffffffffffffffff168a6001836109539190614b55565b8151811061096457610963614b89565b5b602002602001019073ffffffffffffffffffffffffffffffffffffffff16908173ffffffffffffffffffffffffffffffffffffffff16815250506002600082815260200190815260200160002060020180546109bf90614be7565b80601f01602080910402602001604051908101604052809291908181526020018280546109eb90614be7565b8015610a385780601f10610a0d57610100808354040283529160200191610a38565b820191906000526020600020905b815481529060010190602001808311610a1b57829003601f168201915b505050505089600183610a4b9190614b55565b81518110610a5c57610a5b614b89565b5b6020026020010181905250600260008281526020019081526020016000206003018054610a8890614be7565b80601f0160208091040260200160405190810160405280929190818152602001828054610ab490614be7565b8015610b015780601f10610ad657610100808354040283529160200191610b01565b820191906000526020600020905b815481529060010190602001808311610ae457829003601f168201915b505050505088600183610b149190614b55565b81518110610b2557610b24614b89565b5b6020026020010181905250600260008281526020019081526020016000206004018054610b5190614be7565b80601f0160208091040260200160405190810160405280929190818152602001828054610b7d90614be7565b8015610bca5780601f10610b9f57610100808354040283529160200191610bca565b820191906000526020600020905b815481529060010190602001808311610bad57829003601f168201915b505050505087600183610bdd9190614b55565b81518110610bee57610bed614b89565b5b6020026020010181905250600260008281526020019081526020016000206005018054610c1a90614be7565b80601f0160208091040260200160405190810160405280929190818152602001828054610c4690614be7565b8015610c935780601f10610c6857610100808354040283529160200191610c93565b820191906000526020600020905b815481529060010190602001808311610c7657829003601f168201915b505050505086600183610ca69190614b55565b81518110610cb757610cb6614b89565b5b6020026020010181905250600260008281526020019081526020016000206006018054610ce390614be7565b80601f0160208091040260200160405190810160405280929190818152602001828054610d0f90614be7565b8015610d5c5780601f10610d3157610100808354040283529160200191610d5c565b820191906000526020600020905b815481529060010190602001808311610d3f57829003601f168201915b505050505085600183610d6f9190614b55565b81518110610d8057610d7f614b89565b5b6020026020010181905250600260008281526020019081526020016000206007018054610dac90614be7565b80601f0160208091040260200160405190810160405280929190818152602001828054610dd890614be7565b8015610e255780601f10610dfa57610100808354040283529160200191610e25565b820191906000526020600020905b815481529060010190602001808311610e0857829003601f168201915b505050505084600183610e389190614b55565b81518110610e4957610e48614b89565b5b6020026020010181905250600260008281526020019081526020016000206008018054610e7590614be7565b80601f0160208091040260200160405190810160405280929190818152602001828054610ea190614be7565b8015610eee5780601f10610ec357610100808354040283529160200191610eee565b820191906000526020600020905b815481529060010190602001808311610ed157829003601f168201915b505050505083600183610f019190614b55565b81518110610f1257610f11614b89565b5b6020026020010181905250600260008281526020019081526020016000206009018054610f3e90614be7565b80601f0160208091040260200160405190810160405280929190818152602001828054610f6a90614be7565b8015610fb75780601f10610f8c57610100808354040283529160200191610fb7565b820191906000526020600020905b815481529060010190602001808311610f9a57829003601f168201915b505050505082600183610fca9190614b55565b81518110610fdb57610fda614b89565b5b60200260200101819052508080610ff190614c18565b9150506108c3565b5090919293949596979899565b600015156110138a613c2d565b151514611055576040517f08c379a000000000000000000000000000000000000000000000000000000000815260040161104c90614cac565b60405180910390fd5b6003600081548092919061106890614c18565b919050555060405180610160016040528060035481526020018a73ffffffffffffffffffffffffffffffffffffffff168152602001600081526020018981526020018881526020018781526020018681526020018581526020018481526020018381526020018281525060008060035481526020019081526020016000206000820151816000015560208201518160010160006101000a81548173ffffffffffffffffffffffffffffffffffffffff021916908373ffffffffffffffffffffffffffffffffffffffff1602179055506040820151816002015560608201518160030190816111569190614e78565b50608082015181600401908161116c9190614e78565b5060a08201518160050190816111829190614e78565b5060c08201518160060190816111989190614e78565b5060e08201518160070190816111ae9190614e78565b506101008201518160080190816111c59190614e78565b506101208201518160090190816111dc9190614e78565b5061014082015181600a0190816111f39190614e78565b50905050505050505050505050565b60608060608060608060608060608060035467ffffffffffffffff81111561122d5761122c614212565b5b60405190808252806020026020018201604052801561125b5781602001602082028036833780820191505090505b50995060035467ffffffffffffffff81111561127a57611279614212565b5b6040519080825280602002602001820160405280156112a85781602001602082028036833780820191505090505b50985060035467ffffffffffffffff8111156112c7576112c6614212565b5b6040519080825280602002602001820160405280156112fa57816020015b60608152602001906001900390816112e55790505b50975060035467ffffffffffffffff81111561131957611318614212565b5b60405190808252806020026020018201604052801561134c57816020015b60608152602001906001900390816113375790505b50965060035467ffffffffffffffff81111561136b5761136a614212565b5b60405190808252806020026020018201604052801561139e57816020015b60608152602001906001900390816113895790505b50955060035467ffffffffffffffff8111156113bd576113bc614212565b5b6040519080825280602002602001820160405280156113f057816020015b60608152602001906001900390816113db5790505b50945060035467ffffffffffffffff81111561140f5761140e614212565b5b60405190808252806020026020018201604052801561144257816020015b606081526020019060019003908161142d5790505b50935060035467ffffffffffffffff81111561146157611460614212565b5b60405190808252806020026020018201604052801561149457816020015b606081526020019060019003908161147f5790505b50925060035467ffffffffffffffff8111156114b3576114b2614212565b5b6040519080825280602002602001820160405280156114e657816020015b60608152602001906001900390816114d15790505b50915060035467ffffffffffffffff81111561150557611504614212565b5b60405190808252806020026020018201604052801561153857816020015b60608152602001906001900390816115235790505b5090506000600190505b6003548111611c6e57600080828152602001908152602001600020600001548b60018361156f9190614b55565b815181106115805761157f614b89565b5b60200260200101818152505060008082815260200190815260200160002060010160009054906101000a900473ffffffffffffffffffffffffffffffffffffffff168a6001836115d09190614b55565b815181106115e1576115e0614b89565b5b602002602001019073ffffffffffffffffffffffffffffffffffffffff16908173ffffffffffffffffffffffffffffffffffffffff1681525050600080828152602001908152602001600020600301805461163b90614be7565b80601f016020809104026020016040519081016040528092919081815260200182805461166790614be7565b80156116b45780601f10611689576101008083540402835291602001916116b4565b820191906000526020600020905b81548152906001019060200180831161169757829003601f168201915b5050505050896001836116c79190614b55565b815181106116d8576116d7614b89565b5b6020026020010181905250600080828152602001908152602001600020600401805461170390614be7565b80601f016020809104026020016040519081016040528092919081815260200182805461172f90614be7565b801561177c5780601f106117515761010080835404028352916020019161177c565b820191906000526020600020905b81548152906001019060200180831161175f57829003601f168201915b50505050508860018361178f9190614b55565b815181106117a05761179f614b89565b5b602002602001018190525060008082815260200190815260200160002060050180546117cb90614be7565b80601f01602080910402602001604051908101604052809291908181526020018280546117f790614be7565b80156118445780601f1061181957610100808354040283529160200191611844565b820191906000526020600020905b81548152906001019060200180831161182757829003601f168201915b5050505050876001836118579190614b55565b8151811061186857611867614b89565b5b6020026020010181905250600080828152602001908152602001600020600601805461189390614be7565b80601f01602080910402602001604051908101604052809291908181526020018280546118bf90614be7565b801561190c5780601f106118e15761010080835404028352916020019161190c565b820191906000526020600020905b8154815290600101906020018083116118ef57829003601f168201915b50505050508660018361191f9190614b55565b815181106119305761192f614b89565b5b6020026020010181905250600080828152602001908152602001600020600701805461195b90614be7565b80601f016020809104026020016040519081016040528092919081815260200182805461198790614be7565b80156119d45780601f106119a9576101008083540402835291602001916119d4565b820191906000526020600020905b8154815290600101906020018083116119b757829003601f168201915b5050505050856001836119e79190614b55565b815181106119f8576119f7614b89565b5b60200260200101819052506000808281526020019081526020016000206008018054611a2390614be7565b80601f0160208091040260200160405190810160405280929190818152602001828054611a4f90614be7565b8015611a9c5780601f10611a7157610100808354040283529160200191611a9c565b820191906000526020600020905b815481529060010190602001808311611a7f57829003601f168201915b505050505084600183611aaf9190614b55565b81518110611ac057611abf614b89565b5b60200260200101819052506000808281526020019081526020016000206009018054611aeb90614be7565b80601f0160208091040260200160405190810160405280929190818152602001828054611b1790614be7565b8015611b645780601f10611b3957610100808354040283529160200191611b64565b820191906000526020600020905b815481529060010190602001808311611b4757829003601f168201915b505050505083600183611b779190614b55565b81518110611b8857611b87614b89565b5b6020026020010181905250600080828152602001908152602001600020600a018054611bb390614be7565b80601f0160208091040260200160405190810160405280929190818152602001828054611bdf90614be7565b8015611c2c5780601f10611c0157610100808354040283529160200191611c2c565b820191906000526020600020905b815481529060010190602001808311611c0f57829003601f168201915b505050505082600183611c3f9190614b55565b81518110611c5057611c4f614b89565b5b60200260200101819052508080611c6690614c18565b915050611542565b5090919293949596979899565b60008060006060806060806060806060806000600190505b600354811161228a578c73ffffffffffffffffffffffffffffffffffffffff1660008083815260200190815260200160002060010160009054906101000a900473ffffffffffffffffffffffffffffffffffffffff1673ffffffffffffffffffffffffffffffffffffffff160361227757600080600083815260200190815260200160002060405180610160016040529081600082015481526020016001820160009054906101000a900473ffffffffffffffffffffffffffffffffffffffff1673ffffffffffffffffffffffffffffffffffffffff1673ffffffffffffffffffffffffffffffffffffffff16815260200160028201548152602001600382018054611d9e90614be7565b80601f0160208091040260200160405190810160405280929190818152602001828054611dca90614be7565b8015611e175780601f10611dec57610100808354040283529160200191611e17565b820191906000526020600020905b815481529060010190602001808311611dfa57829003601f168201915b50505050508152602001600482018054611e3090614be7565b80601f0160208091040260200160405190810160405280929190818152602001828054611e5c90614be7565b8015611ea95780601f10611e7e57610100808354040283529160200191611ea9565b820191906000526020600020905b815481529060010190602001808311611e8c57829003601f168201915b50505050508152602001600582018054611ec290614be7565b80601f0160208091040260200160405190810160405280929190818152602001828054611eee90614be7565b8015611f3b5780601f10611f1057610100808354040283529160200191611f3b565b820191906000526020600020905b815481529060010190602001808311611f1e57829003601f168201915b50505050508152602001600682018054611f5490614be7565b80601f0160208091040260200160405190810160405280929190818152602001828054611f8090614be7565b8015611fcd5780601f10611fa257610100808354040283529160200191611fcd565b820191906000526020600020905b815481529060010190602001808311611fb057829003601f168201915b50505050508152602001600782018054611fe690614be7565b80601f016020809104026020016040519081016040528092919081815260200182805461201290614be7565b801561205f5780601f106120345761010080835404028352916020019161205f565b820191906000526020600020905b81548152906001019060200180831161204257829003601f168201915b5050505050815260200160088201805461207890614be7565b80601f01602080910402602001604051908101604052809291908181526020018280546120a490614be7565b80156120f15780601f106120c6576101008083540402835291602001916120f1565b820191906000526020600020905b8154815290600101906020018083116120d457829003601f168201915b5050505050815260200160098201805461210a90614be7565b80601f016020809104026020016040519081016040528092919081815260200182805461213690614be7565b80156121835780601f1061215857610100808354040283529160200191612183565b820191906000526020600020905b81548152906001019060200180831161216657829003601f168201915b50505050508152602001600a8201805461219c90614be7565b80601f01602080910402602001604051908101604052809291908181526020018280546121c890614be7565b80156122155780601f106121ea57610100808354040283529160200191612215565b820191906000526020600020905b8154815290600101906020018083116121f857829003601f168201915b5050505050815250509050806000015181602001518260400151836060015184608001518560a001518660c001518760e001518861010001518961012001518a61014001519c509c509c509c509c509c509c509c509c509c509c50505061228c565b808061228290614c18565b915050611c93565b505b91939597999b90929496989a50565b60608060608060608060045467ffffffffffffffff8111156122c0576122bf614212565b5b6040519080825280602002602001820160405280156122ee5781602001602082028036833780820191505090505b50955060045467ffffffffffffffff81111561230d5761230c614212565b5b60405190808252806020026020018201604052801561233b5781602001602082028036833780820191505090505b50945060045467ffffffffffffffff81111561235a57612359614212565b5b60405190808252806020026020018201604052801561238d57816020015b60608152602001906001900390816123785790505b50935060045467ffffffffffffffff8111156123ac576123ab614212565b5b6040519080825280602002602001820160405280156123df57816020015b60608152602001906001900390816123ca5790505b50925060045467ffffffffffffffff8111156123fe576123fd614212565b5b60405190808252806020026020018201604052801561243157816020015b606081526020019060019003908161241c5790505b50915060045467ffffffffffffffff8111156124505761244f614212565b5b60405190808252806020026020018201604052801561248357816020015b606081526020019060019003908161246e5790505b5090506000600190505b60045481116128d0578773ffffffffffffffffffffffffffffffffffffffff166000806001600085815260200190815260200160002060010154815260200190815260200160002060010160009054906101000a900473ffffffffffffffffffffffffffffffffffffffff1673ffffffffffffffffffffffffffffffffffffffff16036128bd576001600082815260200190815260200160002060000154876001836125399190614b55565b8151811061254a57612549614b89565b5b60200260200101818152505060016000828152602001908152602001600020600201548660018361257b9190614b55565b8151811061258c5761258b614b89565b5b6020026020010181815250506001600082815260200190815260200160002060030180546125b990614be7565b80601f01602080910402602001604051908101604052809291908181526020018280546125e590614be7565b80156126325780601f1061260757610100808354040283529160200191612632565b820191906000526020600020905b81548152906001019060200180831161261557829003601f168201915b5050505050856001836126459190614b55565b8151811061265657612655614b89565b5b602002602001018190525060016000828152602001908152602001600020600401805461268290614be7565b80601f01602080910402602001604051908101604052809291908181526020018280546126ae90614be7565b80156126fb5780601f106126d0576101008083540402835291602001916126fb565b820191906000526020600020905b8154815290600101906020018083116126de57829003601f168201915b50505050508460018361270e9190614b55565b8151811061271f5761271e614b89565b5b602002602001018190525060016000828152602001908152602001600020600501805461274b90614be7565b80601f016020809104026020016040519081016040528092919081815260200182805461277790614be7565b80156127c45780601f10612799576101008083540402835291602001916127c4565b820191906000526020600020905b8154815290600101906020018083116127a757829003601f168201915b5050505050836001836127d79190614b55565b815181106127e8576127e7614b89565b5b602002602001018190525060016000828152602001908152602001600020600601805461281490614be7565b80601f016020809104026020016040519081016040528092919081815260200182805461284090614be7565b801561288d5780601f106128625761010080835404028352916020019161288d565b820191906000526020600020905b81548152906001019060200180831161287057829003601f168201915b5050505050826001836128a09190614b55565b815181106128b1576128b0614b89565b5b60200260200101819052505b80806128c890614c18565b91505061248d565b5091939550919395565b606080606080606080606060045467ffffffffffffffff81111561290157612900614212565b5b60405190808252806020026020018201604052801561292f5781602001602082028036833780820191505090505b50965060045467ffffffffffffffff81111561294e5761294d614212565b5b60405190808252806020026020018201604052801561297c5781602001602082028036833780820191505090505b50955060045467ffffffffffffffff81111561299b5761299a614212565b5b6040519080825280602002602001820160405280156129c95781602001602082028036833780820191505090505b50945060045467ffffffffffffffff8111156129e8576129e7614212565b5b604051908082528060200260200182016040528015612a1b57816020015b6060815260200190600190039081612a065790505b50935060045467ffffffffffffffff811115612a3a57612a39614212565b5b604051908082528060200260200182016040528015612a6d57816020015b6060815260200190600190039081612a585790505b50925060045467ffffffffffffffff811115612a8c57612a8b614212565b5b604051908082528060200260200182016040528015612abf57816020015b6060815260200190600190039081612aaa5790505b50915060045467ffffffffffffffff811115612ade57612add614212565b5b604051908082528060200260200182016040528015612b1157816020015b6060815260200190600190039081612afc5790505b5090506000600190505b6004548111612f8457600160008281526020019081526020016000206000015488600183612b499190614b55565b81518110612b5a57612b59614b89565b5b6020026020010181815250506000806001600084815260200190815260200160002060010154815260200190815260200160002060010160009054906101000a900473ffffffffffffffffffffffffffffffffffffffff1687600183612bc09190614b55565b81518110612bd157612bd0614b89565b5b602002602001019073ffffffffffffffffffffffffffffffffffffffff16908173ffffffffffffffffffffffffffffffffffffffff1681525050600160008281526020019081526020016000206002015486600183612c309190614b55565b81518110612c4157612c40614b89565b5b602002602001018181525050600160008281526020019081526020016000206003018054612c6e90614be7565b80601f0160208091040260200160405190810160405280929190818152602001828054612c9a90614be7565b8015612ce75780601f10612cbc57610100808354040283529160200191612ce7565b820191906000526020600020905b815481529060010190602001808311612cca57829003601f168201915b505050505085600183612cfa9190614b55565b81518110612d0b57612d0a614b89565b5b6020026020010181905250600160008281526020019081526020016000206004018054612d3790614be7565b80601f0160208091040260200160405190810160405280929190818152602001828054612d6390614be7565b8015612db05780601f10612d8557610100808354040283529160200191612db0565b820191906000526020600020905b815481529060010190602001808311612d9357829003601f168201915b505050505084600183612dc39190614b55565b81518110612dd457612dd3614b89565b5b6020026020010181905250600160008281526020019081526020016000206005018054612e0090614be7565b80601f0160208091040260200160405190810160405280929190818152602001828054612e2c90614be7565b8015612e795780601f10612e4e57610100808354040283529160200191612e79565b820191906000526020600020905b815481529060010190602001808311612e5c57829003601f168201915b505050505083600183612e8c9190614b55565b81518110612e9d57612e9c614b89565b5b6020026020010181905250600160008281526020019081526020016000206006018054612ec990614be7565b80601f0160208091040260200160405190810160405280929190818152602001828054612ef590614be7565b8015612f425780601f10612f1757610100808354040283529160200191612f42565b820191906000526020600020905b815481529060010190602001808311612f2557829003601f168201915b505050505082600183612f559190614b55565b81518110612f6657612f65614b89565b5b60200260200101819052508080612f7c90614c18565b915050612b1b565b5090919293949596565b6000806060806060806060806060806000600190505b600554811161358b578b73ffffffffffffffffffffffffffffffffffffffff166002600083815260200190815260200160002060010160009054906101000a900473ffffffffffffffffffffffffffffffffffffffff1673ffffffffffffffffffffffffffffffffffffffff16036135785760006002600083815260200190815260200160002060405180610140016040529081600082015481526020016001820160009054906101000a900473ffffffffffffffffffffffffffffffffffffffff1673ffffffffffffffffffffffffffffffffffffffff1673ffffffffffffffffffffffffffffffffffffffff1681526020016002820180546130a790614be7565b80601f01602080910402602001604051908101604052809291908181526020018280546130d390614be7565b80156131205780601f106130f557610100808354040283529160200191613120565b820191906000526020600020905b81548152906001019060200180831161310357829003601f168201915b5050505050815260200160038201805461313990614be7565b80601f016020809104026020016040519081016040528092919081815260200182805461316590614be7565b80156131b25780601f10613187576101008083540402835291602001916131b2565b820191906000526020600020905b81548152906001019060200180831161319557829003601f168201915b505050505081526020016004820180546131cb90614be7565b80601f01602080910402602001604051908101604052809291908181526020018280546131f790614be7565b80156132445780601f1061321957610100808354040283529160200191613244565b820191906000526020600020905b81548152906001019060200180831161322757829003601f168201915b5050505050815260200160058201805461325d90614be7565b80601f016020809104026020016040519081016040528092919081815260200182805461328990614be7565b80156132d65780601f106132ab576101008083540402835291602001916132d6565b820191906000526020600020905b8154815290600101906020018083116132b957829003601f168201915b505050505081526020016006820180546132ef90614be7565b80601f016020809104026020016040519081016040528092919081815260200182805461331b90614be7565b80156133685780601f1061333d57610100808354040283529160200191613368565b820191906000526020600020905b81548152906001019060200180831161334b57829003601f168201915b5050505050815260200160078201805461338190614be7565b80601f01602080910402602001604051908101604052809291908181526020018280546133ad90614be7565b80156133fa5780601f106133cf576101008083540402835291602001916133fa565b820191906000526020600020905b8154815290600101906020018083116133dd57829003601f168201915b5050505050815260200160088201805461341390614be7565b80601f016020809104026020016040519081016040528092919081815260200182805461343f90614be7565b801561348c5780601f106134615761010080835404028352916020019161348c565b820191906000526020600020905b81548152906001019060200180831161346f57829003601f168201915b505050505081526020016009820180546134a590614be7565b80601f01602080910402602001604051908101604052809291908181526020018280546134d190614be7565b801561351e5780601f106134f35761010080835404028352916020019161351e565b820191906000526020600020905b81548152906001019060200180831161350157829003601f168201915b5050505050815250509050806000015181602001518260400151836060015184608001518560a001518660c001518760e001518861010001518961012001519b509b509b509b509b509b509b509b509b509b50505061358d565b808061358390614c18565b915050612fa4565b505b9193959799509193959799565b600015156135a78a613cce565b1515146135e9576040517f08c379a00000000000000000000000000000000000000000000000000000000081526004016135e090614f96565b60405180910390fd5b600560008154809291906135fc90614c18565b919050555060405180610140016040528060055481526020018a73ffffffffffffffffffffffffffffffffffffffff168152602001898152602001888152602001878152602001868152602001858152602001848152602001838152602001828152506002600060055481526020019081526020016000206000820151816000015560208201518160010160006101000a81548173ffffffffffffffffffffffffffffffffffffffff021916908373ffffffffffffffffffffffffffffffffffffffff16021790555060408201518160020190816136da9190614e78565b5060608201518160030190816136f09190614e78565b5060808201518160040190816137069190614e78565b5060a082015181600501908161371c9190614e78565b5060c08201518160060190816137329190614e78565b5060e08201518160070190816137489190614e78565b5061010082015181600801908161375f9190614e78565b506101208201518160090190816137769190614e78565b50905050505050505050505050565b600080600190505b600354811161382f578273ffffffffffffffffffffffffffffffffffffffff1660008083815260200190815260200160002060010160009054906101000a900473ffffffffffffffffffffffffffffffffffffffff1673ffffffffffffffffffffffffffffffffffffffff160361381c5760008082815260200190815260200160002060020154915050613831565b808061382790614c18565b91505061378d565b505b919050565b6001151561384387613c2d565b151514613885576040517f08c379a000000000000000000000000000000000000000000000000000000000815260040161387c90615002565b60405180910390fd5b600080600190505b6003548111613919578773ffffffffffffffffffffffffffffffffffffffff1660008083815260200190815260200160002060010160009054906101000a900473ffffffffffffffffffffffffffffffffffffffff1673ffffffffffffffffffffffffffffffffffffffff160361390657809150613919565b808061391190614c18565b91505061388d565b5085600080838152602001908152602001600020600201541015613972576040517f08c379a000000000000000000000000000000000000000000000000000000000815260040161396990615094565b60405180910390fd5b6004600081548092919061398590614c18565b91905055506040518060e001604052806004548152602001828152602001878152602001868152602001858152602001848152602001838152506001600060045481526020019081526020016000206000820151816000015560208201518160010155604082015181600201556060820151816003019081613a079190614e78565b506080820151816004019081613a1d9190614e78565b5060a0820151816005019081613a339190614e78565b5060c0820151816006019081613a499190614e78565b50905050856000808381526020019081526020016000206002016000828254613a729190614b55565b9250508190555050505050505050565b600080600190505b6003548111613b16578273ffffffffffffffffffffffffffffffffffffffff1660008083815260200190815260200160002060010160009054906101000a900473ffffffffffffffffffffffffffffffffffffffff1673ffffffffffffffffffffffffffffffffffffffff1603613b0357809150613b16565b8080613b0e90614c18565b915050613a8a565b5060008111613b5a576040517f08c379a0000000000000000000000000000000000000000000000000000000008152600401613b5190615002565b60405180910390fd5b3373ffffffffffffffffffffffffffffffffffffffff1660008083815260200190815260200160002060010160009054906101000a900473ffffffffffffffffffffffffffffffffffffffff1673ffffffffffffffffffffffffffffffffffffffff1614613bfd576040517f08c379a0000000000000000000000000000000000000000000000000000000008152600401613bf490615126565b60405180910390fd5b346000808381526020019081526020016000206002016000828254613c229190615146565b925050819055505050565b600080600190505b6003548111613cc3578273ffffffffffffffffffffffffffffffffffffffff1660008083815260200190815260200160002060010160009054906101000a900473ffffffffffffffffffffffffffffffffffffffff1673ffffffffffffffffffffffffffffffffffffffff1603613cb0576001915050613cc9565b8080613cbb90614c18565b915050613c35565b50600090505b919050565b600080600190505b6005548111613d65578273ffffffffffffffffffffffffffffffffffffffff166002600083815260200190815260200160002060010160009054906101000a900473ffffffffffffffffffffffffffffffffffffffff1673ffffffffffffffffffffffffffffffffffffffff1603613d52576001915050613d6b565b8080613d5d90614c18565b915050613cd6565b50600090505b919050565b6000604051905090565b600080fd5b600080fd5b6000819050919050565b613d9781613d84565b8114613da257600080fd5b50565b600081359050613db481613d8e565b92915050565b60008060408385031215613dd157613dd0613d7a565b5b6000613ddf85828601613da5565b9250506020613df085828601613da5565b9150509250929050565b600081519050919050565b600082825260208201905092915050565b6000819050602082019050919050565b613e2f81613d84565b82525050565b6000613e418383613e26565b60208301905092915050565b6000602082019050919050565b6000613e6582613dfa565b613e6f8185613e05565b9350613e7a83613e16565b8060005b83811015613eab578151613e928882613e35565b9750613e9d83613e4d565b925050600181019050613e7e565b5085935050505092915050565b600081519050919050565b600082825260208201905092915050565b6000819050602082019050919050565b600073ffffffffffffffffffffffffffffffffffffffff82169050919050565b6000613f0f82613ee4565b9050919050565b613f1f81613f04565b82525050565b6000613f318383613f16565b60208301905092915050565b6000602082019050919050565b6000613f5582613eb8565b613f5f8185613ec3565b9350613f6a83613ed4565b8060005b83811015613f9b578151613f828882613f25565b9750613f8d83613f3d565b925050600181019050613f6e565b5085935050505092915050565b600081519050919050565b600082825260208201905092915050565b6000819050602082019050919050565b600081519050919050565b600082825260208201905092915050565b60005b8381101561400e578082015181840152602081019050613ff3565b60008484015250505050565b6000601f19601f8301169050919050565b600061403682613fd4565b6140408185613fdf565b9350614050818560208601613ff0565b6140598161401a565b840191505092915050565b6000614070838361402b565b905092915050565b6000602082019050919050565b600061409082613fa8565b61409a8185613fb3565b9350836020820285016140ac85613fc4565b8060005b858110156140e857848403895281516140c98582614064565b94506140d483614078565b925060208a019950506001810190506140b0565b50829750879550505050505092915050565b6000610140820190508181036000830152614115818d613e5a565b90508181036020830152614129818c613f4a565b9050818103604083015261413d818b614085565b90508181036060830152614151818a614085565b905081810360808301526141658189614085565b905081810360a08301526141798188614085565b905081810360c083015261418d8187614085565b905081810360e08301526141a18186614085565b90508181036101008301526141b68185614085565b90508181036101208301526141cb8184614085565b90509b9a5050505050505050505050565b6141e581613f04565b81146141f057600080fd5b50565b600081359050614202816141dc565b92915050565b600080fd5b600080fd5b7f4e487b7100000000000000000000000000000000000000000000000000000000600052604160045260246000fd5b61424a8261401a565b810181811067ffffffffffffffff8211171561426957614268614212565b5b80604052505050565b600061427c613d70565b90506142888282614241565b919050565b600067ffffffffffffffff8211156142a8576142a7614212565b5b6142b18261401a565b9050602081019050919050565b82818337600083830152505050565b60006142e06142db8461428d565b614272565b9050828152602081018484840111156142fc576142fb61420d565b5b6143078482856142be565b509392505050565b600082601f83011261432457614323614208565b5b81356143348482602086016142cd565b91505092915050565b60008060008060008060008060006101208a8c0312156143605761435f613d7a565b5b600061436e8c828d016141f3565b99505060208a013567ffffffffffffffff81111561438f5761438e613d7f565b5b61439b8c828d0161430f565b98505060408a013567ffffffffffffffff8111156143bc576143bb613d7f565b5b6143c88c828d0161430f565b97505060608a013567ffffffffffffffff8111156143e9576143e8613d7f565b5b6143f58c828d0161430f565b96505060808a013567ffffffffffffffff81111561441657614415613d7f565b5b6144228c828d0161430f565b95505060a08a013567ffffffffffffffff81111561444357614442613d7f565b5b61444f8c828d0161430f565b94505060c08a013567ffffffffffffffff8111156144705761446f613d7f565b5b61447c8c828d0161430f565b93505060e08a013567ffffffffffffffff81111561449d5761449c613d7f565b5b6144a98c828d0161430f565b9250506101008a013567ffffffffffffffff8111156144cb576144ca613d7f565b5b6144d78c828d0161430f565b9150509295985092959850929598565b6000602082840312156144fd576144fc613d7a565b5b600061450b848285016141f3565b91505092915050565b61451d81613d84565b82525050565b61452c81613f04565b82525050565b600082825260208201905092915050565b600061454e82613fd4565b6145588185614532565b9350614568818560208601613ff0565b6145718161401a565b840191505092915050565b600061016082019050614592600083018e614514565b61459f602083018d614523565b6145ac604083018c614514565b81810360608301526145be818b614543565b905081810360808301526145d2818a614543565b905081810360a08301526145e68189614543565b905081810360c08301526145fa8188614543565b905081810360e083015261460e8187614543565b90508181036101008301526146238186614543565b90508181036101208301526146388185614543565b905081810361014083015261464d8184614543565b90509c9b505050505050505050505050565b600060c08201905081810360008301526146798189613e5a565b9050818103602083015261468d8188613e5a565b905081810360408301526146a18187614085565b905081810360608301526146b58186614085565b905081810360808301526146c98185614085565b905081810360a08301526146dd8184614085565b9050979650505050505050565b600060e0820190508181036000830152614704818a613e5a565b905081810360208301526147188189613f4a565b9050818103604083015261472c8188613e5a565b905081810360608301526147408187614085565b905081810360808301526147548186614085565b905081810360a08301526147688185614085565b905081810360c083015261477c8184614085565b905098975050505050505050565b6000610140820190506147a0600083018d614514565b6147ad602083018c614523565b81810360408301526147bf818b614543565b905081810360608301526147d3818a614543565b905081810360808301526147e78189614543565b905081810360a08301526147fb8188614543565b905081810360c083015261480f8187614543565b905081810360e08301526148238186614543565b90508181036101008301526148388185614543565b905081810361012083015261484d8184614543565b90509b9a5050505050505050505050565b60006020820190506148736000830184614514565b92915050565b60008060008060008060c0878903121561489657614895613d7a565b5b60006148a489828a016141f3565b96505060206148b589828a01613da5565b955050604087013567ffffffffffffffff8111156148d6576148d5613d7f565b5b6148e289828a0161430f565b945050606087013567ffffffffffffffff81111561490357614902613d7f565b5b61490f89828a0161430f565b935050608087013567ffffffffffffffff8111156149305761492f613d7f565b5b61493c89828a0161430f565b92505060a087013567ffffffffffffffff81111561495d5761495c613d7f565b5b61496989828a0161430f565b9150509295509295509295565b7f5075626c697368657220646f6573206e6f742065786973740000000000000000600082015250565b60006149ac601883614532565b91506149b782614976565b602082019050919050565b600060208201905081810360008301526149db8161499f565b9050919050565b7f43616d706169676e20646f6573206e6f74206578697374000000000000000000600082015250565b6000614a18601783614532565b9150614a23826149e2565b602082019050919050565b60006020820190508181036000830152614a4781614a0b565b9050919050565b7f4f6e6c79207075626c69736865722063616e2077697468647261770000000000600082015250565b6000614a84601b83614532565b9150614a8f82614a4e565b602082019050919050565b60006020820190508181036000830152614ab381614a77565b9050919050565b7f43616d706169676e2062616c616e6365206973207a65726f0000000000000000600082015250565b6000614af0601883614532565b9150614afb82614aba565b602082019050919050565b60006020820190508181036000830152614b1f81614ae3565b9050919050565b7f4e487b7100000000000000000000000000000000000000000000000000000000600052601160045260246000fd5b6000614b6082613d84565b9150614b6b83613d84565b9250828203905081811115614b8357614b82614b26565b5b92915050565b7f4e487b7100000000000000000000000000000000000000000000000000000000600052603260045260246000fd5b7f4e487b7100000000000000000000000000000000000000000000000000000000600052602260045260246000fd5b60006002820490506001821680614bff57607f821691505b602082108103614c1257614c11614bb8565b5b50919050565b6000614c2382613d84565b91507fffffffffffffffffffffffffffffffffffffffffffffffffffffffffffffffff8203614c5557614c54614b26565b5b600182019050919050565b7f4164766572746973657220616c72656164792065786973747300000000000000600082015250565b6000614c96601983614532565b9150614ca182614c60565b602082019050919050565b60006020820190508181036000830152614cc581614c89565b9050919050565b60008190508160005260206000209050919050565b60006020601f8301049050919050565b600082821b905092915050565b600060088302614d2e7fffffffffffffffffffffffffffffffffffffffffffffffffffffffffffffffff82614cf1565b614d388683614cf1565b95508019841693508086168417925050509392505050565b6000819050919050565b6000614d75614d70614d6b84613d84565b614d50565b613d84565b9050919050565b6000819050919050565b614d8f83614d5a565b614da3614d9b82614d7c565b848454614cfe565b825550505050565b600090565b614db8614dab565b614dc3818484614d86565b505050565b5b81811015614de757614ddc600082614db0565b600181019050614dc9565b5050565b601f821115614e2c57614dfd81614ccc565b614e0684614ce1565b81016020851015614e15578190505b614e29614e2185614ce1565b830182614dc8565b50505b505050565b600082821c905092915050565b6000614e4f60001984600802614e31565b1980831691505092915050565b6000614e688383614e3e565b9150826002028217905092915050565b614e8182613fd4565b67ffffffffffffffff811115614e9a57614e99614212565b5b614ea48254614be7565b614eaf828285614deb565b600060209050601f831160018114614ee25760008415614ed0578287015190505b614eda8582614e5c565b865550614f42565b601f198416614ef086614ccc565b60005b82811015614f1857848901518255600182019150602085019450602081019050614ef3565b86831015614f355784890151614f31601f891682614e3e565b8355505b6001600288020188555050505b505050505050565b7f5075626c697368657220616c7265616479206578697374730000000000000000600082015250565b6000614f80601883614532565b9150614f8b82614f4a565b602082019050919050565b60006020820190508181036000830152614faf81614f73565b9050919050565b7f4164766572746973657220646f6573206e6f7420657869737400000000000000600082015250565b6000614fec601983614532565b9150614ff782614fb6565b602082019050919050565b6000602082019050818103600083015261501b81614fdf565b9050919050565b7f42616c616e6365206f662061647665727469736572206973206e6f7420656e6f60008201527f7567680000000000000000000000000000000000000000000000000000000000602082015250565b600061507e602383614532565b915061508982615022565b604082019050919050565b600060208201905081810360008301526150ad81615071565b9050919050565b7f4f6e6c7920616476657274697365722063616e206465706f7369742066756e6460008201527f7300000000000000000000000000000000000000000000000000000000000000602082015250565b6000615110602183614532565b915061511b826150b4565b604082019050919050565b6000602082019050818103600083015261513f81615103565b9050919050565b600061515182613d84565b915061515c83613d84565b925082820190508082111561517457615173614b26565b5b9291505056fea26469706673582212207ef065d69cb5c838463b91646add1871a172e22f2ec136040a3f94864cb49f8964736f6c63430008120033",
  "linkReferences": {},
  "deployedLinkReferences": {}
}