{
  "_format": "hh-sol-artifact-1",
  "contractName": "Swirl",
  "sourceName": "contracts/Swirl.sol",
  "abi": [
    {
      "inputs": [],
      "stateMutability": "nonpayable",
      "type": "constructor"
    },
    {
      "inputs": [
        {
          "internalType": "address",
          "name": "_wallet",
          "type": "address"
        },
        {
          "internalType": "string",
          "name": "_orgUsername",
          "type": "string"
        },
        {
          "internalType": "string",
          "name": "_orgname",
          "type": "string"
        },
        {
          "internalType": "string",
          "name": "_orgLogo",
          "type": "string"
        },
        {
          "internalType": "string",
          "name": "_orgdiscription",
          "type": "string"
        },
        {
          "internalType": "string",
          "name": "_orgOrigin",
          "type": "string"
        },
        {
          "internalType": "string",
          "name": "_empstrength",
          "type": "string"
        },
        {
          "internalType": "string",
          "name": "_orgFounder",
          "type": "string"
        },
        {
          "internalType": "string",
          "name": "_orgCatagory",
          "type": "string"
        }
      ],
      "name": "createAdvertiser",
      "outputs": [
        {
          "internalType": "uint256",
          "name": "",
          "type": "uint256"
        }
      ],
      "stateMutability": "nonpayable",
      "type": "function"
    },
    {
      "inputs": [
        {
          "internalType": "address",
          "name": "_advertiserAddress",
          "type": "address"
        },
        {
          "internalType": "uint256",
          "name": "_balance",
          "type": "uint256"
        },
        {
          "internalType": "string",
          "name": "_campaignName",
          "type": "string"
        },
        {
          "internalType": "string",
          "name": "_budget",
          "type": "string"
        },
        {
          "internalType": "string",
          "name": "_payclick",
          "type": "string"
        },
        {
          "internalType": "string",
          "name": "_stringCID",
          "type": "string"
        }
      ],
      "name": "createCampaign",
      "outputs": [
        {
          "internalType": "uint256",
          "name": "",
          "type": "uint256"
        }
      ],
      "stateMutability": "nonpayable",
      "type": "function"
    },
    {
      "inputs": [
        {
          "internalType": "address",
          "name": "_wallet",
          "type": "address"
        },
        {
          "internalType": "string",
          "name": "_orgUsername",
          "type": "string"
        },
        {
          "internalType": "string",
          "name": "_orgname",
          "type": "string"
        },
        {
          "internalType": "string",
          "name": "_orgLogo",
          "type": "string"
        },
        {
          "internalType": "string",
          "name": "_orgdiscription",
          "type": "string"
        },
        {
          "internalType": "string",
          "name": "_orgOrigin",
          "type": "string"
        },
        {
          "internalType": "string",
          "name": "_empstrength",
          "type": "string"
        },
        {
          "internalType": "string",
          "name": "_orgFounder",
          "type": "string"
        },
        {
          "internalType": "string",
          "name": "_orgCatagory",
          "type": "string"
        }
      ],
      "name": "createPublisher",
      "outputs": [
        {
          "internalType": "uint256",
          "name": "",
          "type": "uint256"
        }
      ],
      "stateMutability": "nonpayable",
      "type": "function"
    },
    {
      "inputs": [
        {
          "internalType": "address",
          "name": "_advertiserAddress",
          "type": "address"
        }
      ],
      "name": "deposit",
      "outputs": [],
      "stateMutability": "payable",
      "type": "function"
    },
    {
      "inputs": [
        {
          "internalType": "address",
          "name": "_wallet",
          "type": "address"
        }
      ],
      "name": "getAdvertiser",
      "outputs": [
        {
          "components": [
            {
              "internalType": "uint256",
              "name": "id",
              "type": "uint256"
            },
            {
              "internalType": "address",
              "name": "wallet",
              "type": "address"
            },
            {
              "internalType": "uint256",
              "name": "balance",
              "type": "uint256"
            },
            {
              "internalType": "uint256",
              "name": "currentBalance",
              "type": "uint256"
            },
            {
              "internalType": "string",
              "name": "orgUsername",
              "type": "string"
            },
            {
              "internalType": "string",
              "name": "orgname",
              "type": "string"
            },
            {
              "internalType": "string",
              "name": "orgLogo",
              "type": "string"
            },
            {
              "internalType": "string",
              "name": "orgdiscription",
              "type": "string"
            },
            {
              "internalType": "string",
              "name": "orgOrigin",
              "type": "string"
            },
            {
              "internalType": "string",
              "name": "empstrength",
              "type": "string"
            },
            {
              "internalType": "string",
              "name": "orgFounder",
              "type": "string"
            },
            {
              "internalType": "string",
              "name": "orgCatagory",
              "type": "string"
            }
          ],
          "internalType": "struct Swirl.Advertiser",
          "name": "",
          "type": "tuple"
        }
      ],
      "stateMutability": "view",
      "type": "function"
    },
    {
      "inputs": [
        {
          "internalType": "address",
          "name": "_wallet",
          "type": "address"
        }
      ],
      "name": "getAdvertiserBalance",
      "outputs": [
        {
          "internalType": "uint256",
          "name": "",
          "type": "uint256"
        }
      ],
      "stateMutability": "view",
      "type": "function"
    },
    {
      "inputs": [],
      "name": "getAllAdvertisers",
      "outputs": [
        {
          "components": [
            {
              "internalType": "uint256",
              "name": "id",
              "type": "uint256"
            },
            {
              "internalType": "address",
              "name": "wallet",
              "type": "address"
            },
            {
              "internalType": "uint256",
              "name": "balance",
              "type": "uint256"
            },
            {
              "internalType": "uint256",
              "name": "currentBalance",
              "type": "uint256"
            },
            {
              "internalType": "string",
              "name": "orgUsername",
              "type": "string"
            },
            {
              "internalType": "string",
              "name": "orgname",
              "type": "string"
            },
            {
              "internalType": "string",
              "name": "orgLogo",
              "type": "string"
            },
            {
              "internalType": "string",
              "name": "orgdiscription",
              "type": "string"
            },
            {
              "internalType": "string",
              "name": "orgOrigin",
              "type": "string"
            },
            {
              "internalType": "string",
              "name": "empstrength",
              "type": "string"
            },
            {
              "internalType": "string",
              "name": "orgFounder",
              "type": "string"
            },
            {
              "internalType": "string",
              "name": "orgCatagory",
              "type": "string"
            }
          ],
          "internalType": "struct Swirl.Advertiser[]",
          "name": "",
          "type": "tuple[]"
        }
      ],
      "stateMutability": "view",
      "type": "function"
    },
    {
      "inputs": [],
      "name": "getAllCampaigns",
      "outputs": [
        {
          "components": [
            {
              "internalType": "uint256",
              "name": "id",
              "type": "uint256"
            },
            {
              "internalType": "uint256",
              "name": "advertiserId",
              "type": "uint256"
            },
            {
              "internalType": "uint256",
              "name": "balance",
              "type": "uint256"
            },
            {
              "internalType": "uint256",
              "name": "platformFee",
              "type": "uint256"
            },
            {
              "internalType": "string",
              "name": "campaignName",
              "type": "string"
            },
            {
              "internalType": "string",
              "name": "budget",
              "type": "string"
            },
            {
              "internalType": "string",
              "name": "payclick",
              "type": "string"
            },
            {
              "internalType": "string",
              "name": "stringCID",
              "type": "string"
            }
          ],
          "internalType": "struct Swirl.Campaign[]",
          "name": "",
          "type": "tuple[]"
        }
      ],
      "stateMutability": "view",
      "type": "function"
    },
    {
      "inputs": [],
      "name": "getAllPublishers",
      "outputs": [
        {
          "components": [
            {
              "internalType": "uint256",
              "name": "id",
              "type": "uint256"
            },
            {
              "internalType": "address",
              "name": "wallet",
              "type": "address"
            },
            {
              "internalType": "string",
              "name": "orgUsername",
              "type": "string"
            },
            {
              "internalType": "string",
              "name": "orgname",
              "type": "string"
            },
            {
              "internalType": "string",
              "name": "orgLogo",
              "type": "string"
            },
            {
              "internalType": "string",
              "name": "orgdiscription",
              "type": "string"
            },
            {
              "internalType": "string",
              "name": "orgOrigin",
              "type": "string"
            },
            {
              "internalType": "string",
              "name": "empstrength",
              "type": "string"
            },
            {
              "internalType": "string",
              "name": "orgFounder",
              "type": "string"
            },
            {
              "internalType": "string",
              "name": "orgCatagory",
              "type": "string"
            }
          ],
          "internalType": "struct Swirl.Publisher[]",
          "name": "",
          "type": "tuple[]"
        }
      ],
      "stateMutability": "view",
      "type": "function"
    },
    {
      "inputs": [
        {
          "internalType": "address",
          "name": "_advertiserAddress",
          "type": "address"
        }
      ],
      "name": "getCampaign",
      "outputs": [
        {
          "internalType": "uint256[]",
          "name": "ids",
          "type": "uint256[]"
        },
        {
          "internalType": "uint256[]",
          "name": "balances",
          "type": "uint256[]"
        },
        {
          "internalType": "string[]",
          "name": "campaignNames",
          "type": "string[]"
        },
        {
          "internalType": "string[]",
          "name": "budgets",
          "type": "string[]"
        },
        {
          "internalType": "string[]",
          "name": "payclicks",
          "type": "string[]"
        },
        {
          "internalType": "string[]",
          "name": "stringCIDs",
          "type": "string[]"
        }
      ],
      "stateMutability": "view",
      "type": "function"
    },
    {
      "inputs": [],
      "name": "getCurrentId",
      "outputs": [
        {
          "internalType": "uint256",
          "name": "",
          "type": "uint256"
        }
      ],
      "stateMutability": "view",
      "type": "function"
    },
    {
      "inputs": [
        {
          "internalType": "address",
          "name": "_wallet",
          "type": "address"
        }
      ],
      "name": "getOneCampaigns",
      "outputs": [
        {
          "components": [
            {
              "internalType": "uint256",
              "name": "id",
              "type": "uint256"
            },
            {
              "internalType": "uint256",
              "name": "advertiserId",
              "type": "uint256"
            },
            {
              "internalType": "uint256",
              "name": "balance",
              "type": "uint256"
            },
            {
              "internalType": "uint256",
              "name": "platformFee",
              "type": "uint256"
            },
            {
              "internalType": "string",
              "name": "campaignName",
              "type": "string"
            },
            {
              "internalType": "string",
              "name": "budget",
              "type": "string"
            },
            {
              "internalType": "string",
              "name": "payclick",
              "type": "string"
            },
            {
              "internalType": "string",
              "name": "stringCID",
              "type": "string"
            }
          ],
          "internalType": "struct Swirl.Campaign[]",
          "name": "",
          "type": "tuple[]"
        }
      ],
      "stateMutability": "view",
      "type": "function"
    },
    {
      "inputs": [
        {
          "internalType": "address",
          "name": "_wallet",
          "type": "address"
        }
      ],
      "name": "getPublisher",
      "outputs": [
        {
          "components": [
            {
              "internalType": "uint256",
              "name": "id",
              "type": "uint256"
            },
            {
              "internalType": "address",
              "name": "wallet",
              "type": "address"
            },
            {
              "internalType": "string",
              "name": "orgUsername",
              "type": "string"
            },
            {
              "internalType": "string",
              "name": "orgname",
              "type": "string"
            },
            {
              "internalType": "string",
              "name": "orgLogo",
              "type": "string"
            },
            {
              "internalType": "string",
              "name": "orgdiscription",
              "type": "string"
            },
            {
              "internalType": "string",
              "name": "orgOrigin",
              "type": "string"
            },
            {
              "internalType": "string",
              "name": "empstrength",
              "type": "string"
            },
            {
              "internalType": "string",
              "name": "orgFounder",
              "type": "string"
            },
            {
              "internalType": "string",
              "name": "orgCatagory",
              "type": "string"
            }
          ],
          "internalType": "struct Swirl.Publisher",
          "name": "",
          "type": "tuple"
        }
      ],
      "stateMutability": "view",
      "type": "function"
    },
    {
      "inputs": [
        {
          "internalType": "address",
          "name": "_wallet",
          "type": "address"
        }
      ],
      "name": "getPublisherWithdrawBalance",
      "outputs": [
        {
          "internalType": "uint256",
          "name": "",
          "type": "uint256"
        }
      ],
      "stateMutability": "view",
      "type": "function"
    },
    {
      "inputs": [
        {
          "internalType": "address",
          "name": "_publisherAddress",
          "type": "address"
        },
        {
          "internalType": "uint256",
          "name": "_ammount",
          "type": "uint256"
        }
      ],
      "name": "withdraw",
      "outputs": [],
      "stateMutability": "nonpayable",
      "type": "function"
    },
    {
      "inputs": [],
      "name": "withdrawPlatformFees",
      "outputs": [],
      "stateMutability": "nonpayable",
      "type": "function"
    }
  ],
  "bytecode": "0x608060405234801561001057600080fd5b5033600660006101000a81548173ffffffffffffffffffffffffffffffffffffffff021916908373ffffffffffffffffffffffffffffffffffffffff16021790555061564780620000626000396000f3fe6080604052600436106100f35760003560e01c806386cdf6041161008a578063c74e775a11610059578063c74e775a14610391578063d0b7830b146103ce578063f340fa01146103e5578063f3fef3a314610401576100f3565b806386cdf604146102af5780638b043e08146102da5780639cc52aee146103175780639fd3155714610354576100f3565b80636c143862116100c65780636c143862146101da5780636d321f7a1461020557806372536e9014610230578063731301cf1461026d576100f3565b8063109fd1fb146100f857806343da8990146101355780634c96f2811461017257806365a2db1c1461019d575b600080fd5b34801561010457600080fd5b5061011f600480360381019061011a9190613d1a565b61042a565b60405161012c9190613f77565b60405180910390f35b34801561014157600080fd5b5061015c60048036038101906101579190613d1a565b6107ef565b6040516101699190613fa8565b60405180910390f35b34801561017e57600080fd5b5061018761093b565b604051610194919061419f565b60405180910390f35b3480156101a957600080fd5b506101c460048036038101906101bf91906142f6565b610eff565b6040516101d19190613fa8565b60405180910390f35b3480156101e657600080fd5b506101ef611115565b6040516101fc9190613fa8565b60405180910390f35b34801561021157600080fd5b5061021a61111f565b6040516102279190614697565b60405180910390f35b34801561023c57600080fd5b5061025760048036038101906102529190613d1a565b6116f6565b60405161026491906147ee565b60405180910390f35b34801561027957600080fd5b50610294600480360381019061028f9190613d1a565b611cc0565b6040516102a696959493929190614981565b60405180910390f35b3480156102bb57600080fd5b506102c46122ff565b6040516102d19190613f77565b60405180910390f35b3480156102e657600080fd5b5061030160048036038101906102fc9190613d1a565b612643565b60405161030e9190614b17565b60405180910390f35b34801561032357600080fd5b5061033e600480360381019061033991906142f6565b612bfb565b60405161034b9190613fa8565b60405180910390f35b34801561036057600080fd5b5061037b60048036038101906103769190613d1a565b612dee565b6040516103889190613fa8565b60405180910390f35b34801561039d57600080fd5b506103b860048036038101906103b39190614b65565b612e9f565b6040516103c59190613fa8565b60405180910390f35b3480156103da57600080fd5b506103e3613134565b005b6103ff60048036038101906103fa9190613d1a565b6132d8565b005b34801561040d57600080fd5b5061042860048036038101906104239190614c62565b6134af565b005b6060600060045467ffffffffffffffff81111561044a576104496141cb565b5b60405190808252806020026020018201604052801561048357816020015b610470613b83565b8152602001906001900390816104685790505b509050600080600190505b60045481116107e4578473ffffffffffffffffffffffffffffffffffffffff166000806001600085815260200190815260200160002060010154815260200190815260200160002060010160009054906101000a900473ffffffffffffffffffffffffffffffffffffffff1673ffffffffffffffffffffffffffffffffffffffff16036107c35760016000828152602001908152602001600020604051806101000160405290816000820154815260200160018201548152602001600282015481526020016003820154815260200160048201805461056c90614cd1565b80601f016020809104026020016040519081016040528092919081815260200182805461059890614cd1565b80156105e55780601f106105ba576101008083540402835291602001916105e5565b820191906000526020600020905b8154815290600101906020018083116105c857829003601f168201915b505050505081526020016005820180546105fe90614cd1565b80601f016020809104026020016040519081016040528092919081815260200182805461062a90614cd1565b80156106775780601f1061064c57610100808354040283529160200191610677565b820191906000526020600020905b81548152906001019060200180831161065a57829003601f168201915b5050505050815260200160068201805461069090614cd1565b80601f01602080910402602001604051908101604052809291908181526020018280546106bc90614cd1565b80156107095780601f106106de57610100808354040283529160200191610709565b820191906000526020600020905b8154815290600101906020018083116106ec57829003601f168201915b5050505050815260200160078201805461072290614cd1565b80601f016020809104026020016040519081016040528092919081815260200182805461074e90614cd1565b801561079b5780601f106107705761010080835404028352916020019161079b565b820191906000526020600020905b81548152906001019060200180831161077e57829003601f168201915b5050505050815250508383815181106107b7576107b6614d02565b5b60200260200101819052505b81806107ce90614d60565b92505080806107dc90614d60565b91505061048e565b508192505050919050565b600080600080600190505b6005548111610887578473ffffffffffffffffffffffffffffffffffffffff166002600083815260200190815260200160002060010160009054906101000a900473ffffffffffffffffffffffffffffffffffffffff1673ffffffffffffffffffffffffffffffffffffffff160361087457809250610887565b808061087f90614d60565b9150506107fa565b50600082116108cb576040517f08c379a00000000000000000000000000000000000000000000000000000000081526004016108c290614e05565b60405180910390fd5b6000600190505b6004548111610930576001600082815260200190815260200160002060010154830361091d5760016000828152602001908152602001600020600201548261091a9190614e25565b91505b808061092890614d60565b9150506108d2565b508092505050919050565b6060600060055467ffffffffffffffff81111561095b5761095a6141cb565b5b60405190808252806020026020018201604052801561099457816020015b610981613bc8565b8152602001906001900390816109795790505b509050600080600190505b6005548111610ef6576002600082815260200190815260200160002060405180610140016040529081600082015481526020016001820160009054906101000a900473ffffffffffffffffffffffffffffffffffffffff1673ffffffffffffffffffffffffffffffffffffffff1673ffffffffffffffffffffffffffffffffffffffff168152602001600282018054610a3790614cd1565b80601f0160208091040260200160405190810160405280929190818152602001828054610a6390614cd1565b8015610ab05780601f10610a8557610100808354040283529160200191610ab0565b820191906000526020600020905b815481529060010190602001808311610a9357829003601f168201915b50505050508152602001600382018054610ac990614cd1565b80601f0160208091040260200160405190810160405280929190818152602001828054610af590614cd1565b8015610b425780601f10610b1757610100808354040283529160200191610b42565b820191906000526020600020905b815481529060010190602001808311610b2557829003601f168201915b50505050508152602001600482018054610b5b90614cd1565b80601f0160208091040260200160405190810160405280929190818152602001828054610b8790614cd1565b8015610bd45780601f10610ba957610100808354040283529160200191610bd4565b820191906000526020600020905b815481529060010190602001808311610bb757829003601f168201915b50505050508152602001600582018054610bed90614cd1565b80601f0160208091040260200160405190810160405280929190818152602001828054610c1990614cd1565b8015610c665780601f10610c3b57610100808354040283529160200191610c66565b820191906000526020600020905b815481529060010190602001808311610c4957829003601f168201915b50505050508152602001600682018054610c7f90614cd1565b80601f0160208091040260200160405190810160405280929190818152602001828054610cab90614cd1565b8015610cf85780601f10610ccd57610100808354040283529160200191610cf8565b820191906000526020600020905b815481529060010190602001808311610cdb57829003601f168201915b50505050508152602001600782018054610d1190614cd1565b80601f0160208091040260200160405190810160405280929190818152602001828054610d3d90614cd1565b8015610d8a5780601f10610d5f57610100808354040283529160200191610d8a565b820191906000526020600020905b815481529060010190602001808311610d6d57829003601f168201915b50505050508152602001600882018054610da390614cd1565b80601f0160208091040260200160405190810160405280929190818152602001828054610dcf90614cd1565b8015610e1c5780601f10610df157610100808354040283529160200191610e1c565b820191906000526020600020905b815481529060010190602001808311610dff57829003601f168201915b50505050508152602001600982018054610e3590614cd1565b80601f0160208091040260200160405190810160405280929190818152602001828054610e6190614cd1565b8015610eae5780601f10610e8357610100808354040283529160200191610eae565b820191906000526020600020905b815481529060010190602001808311610e9157829003601f168201915b505050505081525050838381518110610eca57610ec9614d02565b5b60200260200101819052508180610ee090614d60565b9250508080610eee90614d60565b91505061099f565b50819250505090565b6000801515610f0d8b613a40565b151514610f4f576040517f08c379a0000000000000000000000000000000000000000000000000000000008152600401610f4690614ea5565b60405180910390fd5b60036000815480929190610f6290614d60565b919050555060405180610180016040528060035481526020018b73ffffffffffffffffffffffffffffffffffffffff16815260200160008152602001600081526020018a81526020018981526020018881526020018781526020018681526020018581526020018481526020018381525060008060035481526020019081526020016000206000820151816000015560208201518160010160006101000a81548173ffffffffffffffffffffffffffffffffffffffff021916908373ffffffffffffffffffffffffffffffffffffffff160217905550604082015181600201556060820151816003015560808201518160040190816110619190615071565b5060a08201518160050190816110779190615071565b5060c082015181600601908161108d9190615071565b5060e08201518160070190816110a39190615071565b506101008201518160080190816110ba9190615071565b506101208201518160090190816110d19190615071565b5061014082015181600a0190816110e89190615071565b5061016082015181600b0190816110ff9190615071565b5090505060035490509998505050505050505050565b6000600454905090565b6060600060035467ffffffffffffffff81111561113f5761113e6141cb565b5b60405190808252806020026020018201604052801561117857816020015b611165613c31565b81526020019060019003908161115d5790505b509050600080600190505b60035481116116ed5760008082815260200190815260200160002060405180610180016040529081600082015481526020016001820160009054906101000a900473ffffffffffffffffffffffffffffffffffffffff1673ffffffffffffffffffffffffffffffffffffffff1673ffffffffffffffffffffffffffffffffffffffff168152602001600282015481526020016003820154815260200160048201805461122e90614cd1565b80601f016020809104026020016040519081016040528092919081815260200182805461125a90614cd1565b80156112a75780601f1061127c576101008083540402835291602001916112a7565b820191906000526020600020905b81548152906001019060200180831161128a57829003601f168201915b505050505081526020016005820180546112c090614cd1565b80601f01602080910402602001604051908101604052809291908181526020018280546112ec90614cd1565b80156113395780601f1061130e57610100808354040283529160200191611339565b820191906000526020600020905b81548152906001019060200180831161131c57829003601f168201915b5050505050815260200160068201805461135290614cd1565b80601f016020809104026020016040519081016040528092919081815260200182805461137e90614cd1565b80156113cb5780601f106113a0576101008083540402835291602001916113cb565b820191906000526020600020905b8154815290600101906020018083116113ae57829003601f168201915b505050505081526020016007820180546113e490614cd1565b80601f016020809104026020016040519081016040528092919081815260200182805461141090614cd1565b801561145d5780601f106114325761010080835404028352916020019161145d565b820191906000526020600020905b81548152906001019060200180831161144057829003601f168201915b5050505050815260200160088201805461147690614cd1565b80601f01602080910402602001604051908101604052809291908181526020018280546114a290614cd1565b80156114ef5780601f106114c4576101008083540402835291602001916114ef565b820191906000526020600020905b8154815290600101906020018083116114d257829003601f168201915b5050505050815260200160098201805461150890614cd1565b80601f016020809104026020016040519081016040528092919081815260200182805461153490614cd1565b80156115815780601f1061155657610100808354040283529160200191611581565b820191906000526020600020905b81548152906001019060200180831161156457829003601f168201915b50505050508152602001600a8201805461159a90614cd1565b80601f01602080910402602001604051908101604052809291908181526020018280546115c690614cd1565b80156116135780601f106115e857610100808354040283529160200191611613565b820191906000526020600020905b8154815290600101906020018083116115f657829003601f168201915b50505050508152602001600b8201805461162c90614cd1565b80601f016020809104026020016040519081016040528092919081815260200182805461165890614cd1565b80156116a55780601f1061167a576101008083540402835291602001916116a5565b820191906000526020600020905b81548152906001019060200180831161168857829003601f168201915b5050505050815250508383815181106116c1576116c0614d02565b5b602002602001018190525081806116d790614d60565b92505080806116e590614d60565b915050611183565b50819250505090565b6116fe613c31565b6000600190505b6003548111611cb9578273ffffffffffffffffffffffffffffffffffffffff1660008083815260200190815260200160002060010160009054906101000a900473ffffffffffffffffffffffffffffffffffffffff1673ffffffffffffffffffffffffffffffffffffffff1603611ca657600080600083815260200190815260200160002060405180610180016040529081600082015481526020016001820160009054906101000a900473ffffffffffffffffffffffffffffffffffffffff1673ffffffffffffffffffffffffffffffffffffffff1673ffffffffffffffffffffffffffffffffffffffff168152602001600282015481526020016003820154815260200160048201805461181a90614cd1565b80601f016020809104026020016040519081016040528092919081815260200182805461184690614cd1565b80156118935780601f1061186857610100808354040283529160200191611893565b820191906000526020600020905b81548152906001019060200180831161187657829003601f168201915b505050505081526020016005820180546118ac90614cd1565b80601f01602080910402602001604051908101604052809291908181526020018280546118d890614cd1565b80156119255780601f106118fa57610100808354040283529160200191611925565b820191906000526020600020905b81548152906001019060200180831161190857829003601f168201915b5050505050815260200160068201805461193e90614cd1565b80601f016020809104026020016040519081016040528092919081815260200182805461196a90614cd1565b80156119b75780601f1061198c576101008083540402835291602001916119b7565b820191906000526020600020905b81548152906001019060200180831161199a57829003601f168201915b505050505081526020016007820180546119d090614cd1565b80601f01602080910402602001604051908101604052809291908181526020018280546119fc90614cd1565b8015611a495780601f10611a1e57610100808354040283529160200191611a49565b820191906000526020600020905b815481529060010190602001808311611a2c57829003601f168201915b50505050508152602001600882018054611a6290614cd1565b80601f0160208091040260200160405190810160405280929190818152602001828054611a8e90614cd1565b8015611adb5780601f10611ab057610100808354040283529160200191611adb565b820191906000526020600020905b815481529060010190602001808311611abe57829003601f168201915b50505050508152602001600982018054611af490614cd1565b80601f0160208091040260200160405190810160405280929190818152602001828054611b2090614cd1565b8015611b6d5780601f10611b4257610100808354040283529160200191611b6d565b820191906000526020600020905b815481529060010190602001808311611b5057829003601f168201915b50505050508152602001600a82018054611b8690614cd1565b80601f0160208091040260200160405190810160405280929190818152602001828054611bb290614cd1565b8015611bff5780601f10611bd457610100808354040283529160200191611bff565b820191906000526020600020905b815481529060010190602001808311611be257829003601f168201915b50505050508152602001600b82018054611c1890614cd1565b80601f0160208091040260200160405190810160405280929190818152602001828054611c4490614cd1565b8015611c915780601f10611c6657610100808354040283529160200191611c91565b820191906000526020600020905b815481529060010190602001808311611c7457829003601f168201915b50505050508152505090508092505050611cbb565b8080611cb190614d60565b915050611705565b505b919050565b60608060608060608060045467ffffffffffffffff811115611ce557611ce46141cb565b5b604051908082528060200260200182016040528015611d135781602001602082028036833780820191505090505b50955060045467ffffffffffffffff811115611d3257611d316141cb565b5b604051908082528060200260200182016040528015611d605781602001602082028036833780820191505090505b50945060045467ffffffffffffffff811115611d7f57611d7e6141cb565b5b604051908082528060200260200182016040528015611db257816020015b6060815260200190600190039081611d9d5790505b50935060045467ffffffffffffffff811115611dd157611dd06141cb565b5b604051908082528060200260200182016040528015611e0457816020015b6060815260200190600190039081611def5790505b50925060045467ffffffffffffffff811115611e2357611e226141cb565b5b604051908082528060200260200182016040528015611e5657816020015b6060815260200190600190039081611e415790505b50915060045467ffffffffffffffff811115611e7557611e746141cb565b5b604051908082528060200260200182016040528015611ea857816020015b6060815260200190600190039081611e935790505b5090506000600190505b60045481116122f5578773ffffffffffffffffffffffffffffffffffffffff166000806001600085815260200190815260200160002060010154815260200190815260200160002060010160009054906101000a900473ffffffffffffffffffffffffffffffffffffffff1673ffffffffffffffffffffffffffffffffffffffff16036122e257600160008281526020019081526020016000206000015487600183611f5e9190615143565b81518110611f6f57611f6e614d02565b5b602002602001018181525050600160008281526020019081526020016000206002015486600183611fa09190615143565b81518110611fb157611fb0614d02565b5b602002602001018181525050600160008281526020019081526020016000206004018054611fde90614cd1565b80601f016020809104026020016040519081016040528092919081815260200182805461200a90614cd1565b80156120575780601f1061202c57610100808354040283529160200191612057565b820191906000526020600020905b81548152906001019060200180831161203a57829003601f168201915b50505050508560018361206a9190615143565b8151811061207b5761207a614d02565b5b60200260200101819052506001600082815260200190815260200160002060050180546120a790614cd1565b80601f01602080910402602001604051908101604052809291908181526020018280546120d390614cd1565b80156121205780601f106120f557610100808354040283529160200191612120565b820191906000526020600020905b81548152906001019060200180831161210357829003601f168201915b5050505050846001836121339190615143565b8151811061214457612143614d02565b5b602002602001018190525060016000828152602001908152602001600020600601805461217090614cd1565b80601f016020809104026020016040519081016040528092919081815260200182805461219c90614cd1565b80156121e95780601f106121be576101008083540402835291602001916121e9565b820191906000526020600020905b8154815290600101906020018083116121cc57829003601f168201915b5050505050836001836121fc9190615143565b8151811061220d5761220c614d02565b5b602002602001018190525060016000828152602001908152602001600020600701805461223990614cd1565b80601f016020809104026020016040519081016040528092919081815260200182805461226590614cd1565b80156122b25780601f10612287576101008083540402835291602001916122b2565b820191906000526020600020905b81548152906001019060200180831161229557829003601f168201915b5050505050826001836122c59190615143565b815181106122d6576122d5614d02565b5b60200260200101819052505b80806122ed90614d60565b915050611eb2565b5091939550919395565b6060600060045467ffffffffffffffff81111561231f5761231e6141cb565b5b60405190808252806020026020018201604052801561235857816020015b612345613b83565b81526020019060019003908161233d5790505b509050600080600190505b600454811161263a576001600082815260200190815260200160002060405180610100016040529081600082015481526020016001820154815260200160028201548152602001600382015481526020016004820180546123c390614cd1565b80601f01602080910402602001604051908101604052809291908181526020018280546123ef90614cd1565b801561243c5780601f106124115761010080835404028352916020019161243c565b820191906000526020600020905b81548152906001019060200180831161241f57829003601f168201915b5050505050815260200160058201805461245590614cd1565b80601f016020809104026020016040519081016040528092919081815260200182805461248190614cd1565b80156124ce5780601f106124a3576101008083540402835291602001916124ce565b820191906000526020600020905b8154815290600101906020018083116124b157829003601f168201915b505050505081526020016006820180546124e790614cd1565b80601f016020809104026020016040519081016040528092919081815260200182805461251390614cd1565b80156125605780601f1061253557610100808354040283529160200191612560565b820191906000526020600020905b81548152906001019060200180831161254357829003601f168201915b5050505050815260200160078201805461257990614cd1565b80601f01602080910402602001604051908101604052809291908181526020018280546125a590614cd1565b80156125f25780601f106125c7576101008083540402835291602001916125f2565b820191906000526020600020905b8154815290600101906020018083116125d557829003601f168201915b50505050508152505083838151811061260e5761260d614d02565b5b6020026020010181905250818061262490614d60565b925050808061263290614d60565b915050612363565b50819250505090565b61264b613bc8565b6000600190505b6005548111612bf4578273ffffffffffffffffffffffffffffffffffffffff166002600083815260200190815260200160002060010160009054906101000a900473ffffffffffffffffffffffffffffffffffffffff1673ffffffffffffffffffffffffffffffffffffffff1603612be15760006002600083815260200190815260200160002060405180610140016040529081600082015481526020016001820160009054906101000a900473ffffffffffffffffffffffffffffffffffffffff1673ffffffffffffffffffffffffffffffffffffffff1673ffffffffffffffffffffffffffffffffffffffff16815260200160028201805461275590614cd1565b80601f016020809104026020016040519081016040528092919081815260200182805461278190614cd1565b80156127ce5780601f106127a3576101008083540402835291602001916127ce565b820191906000526020600020905b8154815290600101906020018083116127b157829003601f168201915b505050505081526020016003820180546127e790614cd1565b80601f016020809104026020016040519081016040528092919081815260200182805461281390614cd1565b80156128605780601f1061283557610100808354040283529160200191612860565b820191906000526020600020905b81548152906001019060200180831161284357829003601f168201915b5050505050815260200160048201805461287990614cd1565b80601f01602080910402602001604051908101604052809291908181526020018280546128a590614cd1565b80156128f25780601f106128c7576101008083540402835291602001916128f2565b820191906000526020600020905b8154815290600101906020018083116128d557829003601f168201915b5050505050815260200160058201805461290b90614cd1565b80601f016020809104026020016040519081016040528092919081815260200182805461293790614cd1565b80156129845780601f1061295957610100808354040283529160200191612984565b820191906000526020600020905b81548152906001019060200180831161296757829003601f168201915b5050505050815260200160068201805461299d90614cd1565b80601f01602080910402602001604051908101604052809291908181526020018280546129c990614cd1565b8015612a165780601f106129eb57610100808354040283529160200191612a16565b820191906000526020600020905b8154815290600101906020018083116129f957829003601f168201915b50505050508152602001600782018054612a2f90614cd1565b80601f0160208091040260200160405190810160405280929190818152602001828054612a5b90614cd1565b8015612aa85780601f10612a7d57610100808354040283529160200191612aa8565b820191906000526020600020905b815481529060010190602001808311612a8b57829003601f168201915b50505050508152602001600882018054612ac190614cd1565b80601f0160208091040260200160405190810160405280929190818152602001828054612aed90614cd1565b8015612b3a5780601f10612b0f57610100808354040283529160200191612b3a565b820191906000526020600020905b815481529060010190602001808311612b1d57829003601f168201915b50505050508152602001600982018054612b5390614cd1565b80601f0160208091040260200160405190810160405280929190818152602001828054612b7f90614cd1565b8015612bcc5780601f10612ba157610100808354040283529160200191612bcc565b820191906000526020600020905b815481529060010190602001808311612baf57829003601f168201915b50505050508152505090508092505050612bf6565b8080612bec90614d60565b915050612652565b505b919050565b6000801515612c098b613ae1565b151514612c4b576040517f08c379a0000000000000000000000000000000000000000000000000000000008152600401612c42906151c3565b60405180910390fd5b60056000815480929190612c5e90614d60565b919050555060405180610140016040528060055481526020018b73ffffffffffffffffffffffffffffffffffffffff1681526020018a8152602001898152602001888152602001878152602001868152602001858152602001848152602001838152506002600060055481526020019081526020016000206000820151816000015560208201518160010160006101000a81548173ffffffffffffffffffffffffffffffffffffffff021916908373ffffffffffffffffffffffffffffffffffffffff1602179055506040820151816002019081612d3c9190615071565b506060820151816003019081612d529190615071565b506080820151816004019081612d689190615071565b5060a0820151816005019081612d7e9190615071565b5060c0820151816006019081612d949190615071565b5060e0820151816007019081612daa9190615071565b50610100820151816008019081612dc19190615071565b50610120820151816009019081612dd89190615071565b5090505060055490509998505050505050505050565b600080600190505b6003548111612e98578273ffffffffffffffffffffffffffffffffffffffff1660008083815260200190815260200160002060010160009054906101000a900473ffffffffffffffffffffffffffffffffffffffff1673ffffffffffffffffffffffffffffffffffffffff1603612e855760008082815260200190815260200160002060020154915050612e9a565b8080612e9090614d60565b915050612df6565b505b919050565b600060011515612eae88613a40565b151514612ef0576040517f08c379a0000000000000000000000000000000000000000000000000000000008152600401612ee79061522f565b60405180910390fd5b600080600190505b6003548111612f84578873ffffffffffffffffffffffffffffffffffffffff1660008083815260200190815260200160002060010160009054906101000a900473ffffffffffffffffffffffffffffffffffffffff1673ffffffffffffffffffffffffffffffffffffffff1603612f7157809150612f84565b8080612f7c90614d60565b915050612ef8565b5086600080838152602001908152602001600020600301541015612fdd576040517f08c379a0000000000000000000000000000000000000000000000000000000008152600401612fd4906152c1565b60405180910390fd5b60046000815480929190612ff090614d60565b919050555060006064600a8961300691906152e1565b6130109190615352565b9050600081896130209190615143565b90506040518061010001604052806004548152602001848152602001828152602001838152602001898152602001888152602001878152602001868152506001600060045481526020019081526020016000206000820151816000015560208201518160010155604082015181600201556060820151816003015560808201518160040190816130b09190615071565b5060a08201518160050190816130c69190615071565b5060c08201518160060190816130dc9190615071565b5060e08201518160070190816130f29190615071565b5090505088600080858152602001908152602001600020600201600082825461311b9190615143565b9250508190555060045493505050509695505050505050565b600660009054906101000a900473ffffffffffffffffffffffffffffffffffffffff1673ffffffffffffffffffffffffffffffffffffffff163373ffffffffffffffffffffffffffffffffffffffff16146131c4576040517f08c379a00000000000000000000000000000000000000000000000000000000081526004016131bb906153f5565b60405180910390fd5b600080600190505b6004548111613228576001600082815260200190815260200160002060030154826131f79190614e25565b915060006001600083815260200190815260200160002060030181905550808061322090614d60565b9150506131cc565b506000811161326c576040517f08c379a000000000000000000000000000000000000000000000000000000000815260040161326390615487565b60405180910390fd5b600660009054906101000a900473ffffffffffffffffffffffffffffffffffffffff1673ffffffffffffffffffffffffffffffffffffffff166108fc829081150290604051600060405180830381858888f193505050501580156132d4573d6000803e3d6000fd5b5050565b600080600190505b600354811161336c578273ffffffffffffffffffffffffffffffffffffffff1660008083815260200190815260200160002060010160009054906101000a900473ffffffffffffffffffffffffffffffffffffffff1673ffffffffffffffffffffffffffffffffffffffff16036133595780915061336c565b808061336490614d60565b9150506132e0565b50600081116133b0576040517f08c379a00000000000000000000000000000000000000000000000000000000081526004016133a79061522f565b60405180910390fd5b3373ffffffffffffffffffffffffffffffffffffffff1660008083815260200190815260200160002060010160009054906101000a900473ffffffffffffffffffffffffffffffffffffffff1673ffffffffffffffffffffffffffffffffffffffff1614613453576040517f08c379a000000000000000000000000000000000000000000000000000000000815260040161344a90615519565b60405180910390fd5b3460008083815260200190815260200160002060020160008282546134789190614e25565b925050819055503460008083815260200190815260200160002060030160008282546134a49190614e25565b925050819055505050565b600080600190505b6005548111613544578373ffffffffffffffffffffffffffffffffffffffff166002600083815260200190815260200160002060010160009054906101000a900473ffffffffffffffffffffffffffffffffffffffff1673ffffffffffffffffffffffffffffffffffffffff160361353157809150613544565b808061353c90614d60565b9150506134b7565b5060008111613588576040517f08c379a000000000000000000000000000000000000000000000000000000000815260040161357f9061522f565b60405180910390fd5b3373ffffffffffffffffffffffffffffffffffffffff166002600083815260200190815260200160002060010160009054906101000a900473ffffffffffffffffffffffffffffffffffffffff1673ffffffffffffffffffffffffffffffffffffffff161461362c576040517f08c379a000000000000000000000000000000000000000000000000000000000815260040161362390615519565b60405180910390fd5b600060016000838152602001908152602001600020604051806101000160405290816000820154815260200160018201548152602001600282015481526020016003820154815260200160048201805461368590614cd1565b80601f01602080910402602001604051908101604052809291908181526020018280546136b190614cd1565b80156136fe5780601f106136d3576101008083540402835291602001916136fe565b820191906000526020600020905b8154815290600101906020018083116136e157829003601f168201915b5050505050815260200160058201805461371790614cd1565b80601f016020809104026020016040519081016040528092919081815260200182805461374390614cd1565b80156137905780601f1061376557610100808354040283529160200191613790565b820191906000526020600020905b81548152906001019060200180831161377357829003601f168201915b505050505081526020016006820180546137a990614cd1565b80601f01602080910402602001604051908101604052809291908181526020018280546137d590614cd1565b80156138225780601f106137f757610100808354040283529160200191613822565b820191906000526020600020905b81548152906001019060200180831161380557829003601f168201915b5050505050815260200160078201805461383b90614cd1565b80601f016020809104026020016040519081016040528092919081815260200182805461386790614cd1565b80156138b45780601f10613889576101008083540402835291602001916138b4565b820191906000526020600020905b81548152906001019060200180831161389757829003601f168201915b50505050508152505090506000816040015190506000811161390b576040517f08c379a000000000000000000000000000000000000000000000000000000000815260040161390290615585565b60405180910390fd5b8381101561394e576040517f08c379a0000000000000000000000000000000000000000000000000000000008152600401613945906155f1565b60405180910390fd5b838161395a9190615143565b6001600085815260200190815260200160002060020181905550836000806001600087815260200190815260200160002060010154815260200190815260200160002060020160008282546139af9190615143565b9250508190555060006002600085815260200190815260200160002060010160009054906101000a900473ffffffffffffffffffffffffffffffffffffffff1690508073ffffffffffffffffffffffffffffffffffffffff166108fc869081150290604051600060405180830381858888f19350505050158015613a37573d6000803e3d6000fd5b50505050505050565b600080600190505b6003548111613ad6578273ffffffffffffffffffffffffffffffffffffffff1660008083815260200190815260200160002060010160009054906101000a900473ffffffffffffffffffffffffffffffffffffffff1673ffffffffffffffffffffffffffffffffffffffff1603613ac3576001915050613adc565b8080613ace90614d60565b915050613a48565b50600090505b919050565b600080600190505b6005548111613b78578273ffffffffffffffffffffffffffffffffffffffff166002600083815260200190815260200160002060010160009054906101000a900473ffffffffffffffffffffffffffffffffffffffff1673ffffffffffffffffffffffffffffffffffffffff1603613b65576001915050613b7e565b8080613b7090614d60565b915050613ae9565b50600090505b919050565b60405180610100016040528060008152602001600081526020016000815260200160008152602001606081526020016060815260200160608152602001606081525090565b60405180610140016040528060008152602001600073ffffffffffffffffffffffffffffffffffffffff16815260200160608152602001606081526020016060815260200160608152602001606081526020016060815260200160608152602001606081525090565b60405180610180016040528060008152602001600073ffffffffffffffffffffffffffffffffffffffff168152602001600081526020016000815260200160608152602001606081526020016060815260200160608152602001606081526020016060815260200160608152602001606081525090565b6000604051905090565b600080fd5b600080fd5b600073ffffffffffffffffffffffffffffffffffffffff82169050919050565b6000613ce782613cbc565b9050919050565b613cf781613cdc565b8114613d0257600080fd5b50565b600081359050613d1481613cee565b92915050565b600060208284031215613d3057613d2f613cb2565b5b6000613d3e84828501613d05565b91505092915050565b600081519050919050565b600082825260208201905092915050565b6000819050602082019050919050565b6000819050919050565b613d8681613d73565b82525050565b600081519050919050565b600082825260208201905092915050565b60005b83811015613dc6578082015181840152602081019050613dab565b60008484015250505050565b6000601f19601f8301169050919050565b6000613dee82613d8c565b613df88185613d97565b9350613e08818560208601613da8565b613e1181613dd2565b840191505092915050565b600061010083016000830151613e356000860182613d7d565b506020830151613e486020860182613d7d565b506040830151613e5b6040860182613d7d565b506060830151613e6e6060860182613d7d565b5060808301518482036080860152613e868282613de3565b91505060a083015184820360a0860152613ea08282613de3565b91505060c083015184820360c0860152613eba8282613de3565b91505060e083015184820360e0860152613ed48282613de3565b9150508091505092915050565b6000613eed8383613e1c565b905092915050565b6000602082019050919050565b6000613f0d82613d47565b613f178185613d52565b935083602082028501613f2985613d63565b8060005b85811015613f655784840389528151613f468582613ee1565b9450613f5183613ef5565b925060208a01995050600181019050613f2d565b50829750879550505050505092915050565b60006020820190508181036000830152613f918184613f02565b905092915050565b613fa281613d73565b82525050565b6000602082019050613fbd6000830184613f99565b92915050565b600081519050919050565b600082825260208201905092915050565b6000819050602082019050919050565b613ff881613cdc565b82525050565b6000610140830160008301516140176000860182613d7d565b50602083015161402a6020860182613fef565b50604083015184820360408601526140428282613de3565b9150506060830151848203606086015261405c8282613de3565b915050608083015184820360808601526140768282613de3565b91505060a083015184820360a08601526140908282613de3565b91505060c083015184820360c08601526140aa8282613de3565b91505060e083015184820360e08601526140c48282613de3565b9150506101008301518482036101008601526140e08282613de3565b9150506101208301518482036101208601526140fc8282613de3565b9150508091505092915050565b60006141158383613ffe565b905092915050565b6000602082019050919050565b600061413582613fc3565b61413f8185613fce565b93508360208202850161415185613fdf565b8060005b8581101561418d578484038952815161416e8582614109565b94506141798361411d565b925060208a01995050600181019050614155565b50829750879550505050505092915050565b600060208201905081810360008301526141b9818461412a565b905092915050565b600080fd5b600080fd5b7f4e487b7100000000000000000000000000000000000000000000000000000000600052604160045260246000fd5b61420382613dd2565b810181811067ffffffffffffffff82111715614222576142216141cb565b5b80604052505050565b6000614235613ca8565b905061424182826141fa565b919050565b600067ffffffffffffffff821115614261576142606141cb565b5b61426a82613dd2565b9050602081019050919050565b82818337600083830152505050565b600061429961429484614246565b61422b565b9050828152602081018484840111156142b5576142b46141c6565b5b6142c0848285614277565b509392505050565b600082601f8301126142dd576142dc6141c1565b5b81356142ed848260208601614286565b91505092915050565b60008060008060008060008060006101208a8c03121561431957614318613cb2565b5b60006143278c828d01613d05565b99505060208a013567ffffffffffffffff81111561434857614347613cb7565b5b6143548c828d016142c8565b98505060408a013567ffffffffffffffff81111561437557614374613cb7565b5b6143818c828d016142c8565b97505060608a013567ffffffffffffffff8111156143a2576143a1613cb7565b5b6143ae8c828d016142c8565b96505060808a013567ffffffffffffffff8111156143cf576143ce613cb7565b5b6143db8c828d016142c8565b95505060a08a013567ffffffffffffffff8111156143fc576143fb613cb7565b5b6144088c828d016142c8565b94505060c08a013567ffffffffffffffff81111561442957614428613cb7565b5b6144358c828d016142c8565b93505060e08a013567ffffffffffffffff81111561445657614455613cb7565b5b6144628c828d016142c8565b9250506101008a013567ffffffffffffffff81111561448457614483613cb7565b5b6144908c828d016142c8565b9150509295985092959850929598565b600081519050919050565b600082825260208201905092915050565b6000819050602082019050919050565b6000610180830160008301516144e56000860182613d7d565b5060208301516144f86020860182613fef565b50604083015161450b6040860182613d7d565b50606083015161451e6060860182613d7d565b50608083015184820360808601526145368282613de3565b91505060a083015184820360a08601526145508282613de3565b91505060c083015184820360c086015261456a8282613de3565b91505060e083015184820360e08601526145848282613de3565b9150506101008301518482036101008601526145a08282613de3565b9150506101208301518482036101208601526145bc8282613de3565b9150506101408301518482036101408601526145d88282613de3565b9150506101608301518482036101608601526145f48282613de3565b9150508091505092915050565b600061460d83836144cc565b905092915050565b6000602082019050919050565b600061462d826144a0565b61463781856144ab565b935083602082028501614649856144bc565b8060005b8581101561468557848403895281516146668582614601565b945061467183614615565b925060208a0199505060018101905061464d565b50829750879550505050505092915050565b600060208201905081810360008301526146b18184614622565b905092915050565b6000610180830160008301516146d26000860182613d7d565b5060208301516146e56020860182613fef565b5060408301516146f86040860182613d7d565b50606083015161470b6060860182613d7d565b50608083015184820360808601526147238282613de3565b91505060a083015184820360a086015261473d8282613de3565b91505060c083015184820360c08601526147578282613de3565b91505060e083015184820360e08601526147718282613de3565b91505061010083015184820361010086015261478d8282613de3565b9150506101208301518482036101208601526147a98282613de3565b9150506101408301518482036101408601526147c58282613de3565b9150506101608301518482036101608601526147e18282613de3565b9150508091505092915050565b6000602082019050818103600083015261480881846146b9565b905092915050565b600081519050919050565b600082825260208201905092915050565b6000819050602082019050919050565b60006148488383613d7d565b60208301905092915050565b6000602082019050919050565b600061486c82614810565b614876818561481b565b93506148818361482c565b8060005b838110156148b2578151614899888261483c565b97506148a483614854565b925050600181019050614885565b5085935050505092915050565b600081519050919050565b600082825260208201905092915050565b6000819050602082019050919050565b60006148f78383613de3565b905092915050565b6000602082019050919050565b6000614917826148bf565b61492181856148ca565b935083602082028501614933856148db565b8060005b8581101561496f578484038952815161495085826148eb565b945061495b836148ff565b925060208a01995050600181019050614937565b50829750879550505050505092915050565b600060c082019050818103600083015261499b8189614861565b905081810360208301526149af8188614861565b905081810360408301526149c3818761490c565b905081810360608301526149d7818661490c565b905081810360808301526149eb818561490c565b905081810360a08301526149ff818461490c565b9050979650505050505050565b600061014083016000830151614a256000860182613d7d565b506020830151614a386020860182613fef565b5060408301518482036040860152614a508282613de3565b91505060608301518482036060860152614a6a8282613de3565b91505060808301518482036080860152614a848282613de3565b91505060a083015184820360a0860152614a9e8282613de3565b91505060c083015184820360c0860152614ab88282613de3565b91505060e083015184820360e0860152614ad28282613de3565b915050610100830151848203610100860152614aee8282613de3565b915050610120830151848203610120860152614b0a8282613de3565b9150508091505092915050565b60006020820190508181036000830152614b318184614a0c565b905092915050565b614b4281613d73565b8114614b4d57600080fd5b50565b600081359050614b5f81614b39565b92915050565b60008060008060008060c08789031215614b8257614b81613cb2565b5b6000614b9089828a01613d05565b9650506020614ba189828a01614b50565b955050604087013567ffffffffffffffff811115614bc257614bc1613cb7565b5b614bce89828a016142c8565b945050606087013567ffffffffffffffff811115614bef57614bee613cb7565b5b614bfb89828a016142c8565b935050608087013567ffffffffffffffff811115614c1c57614c1b613cb7565b5b614c2889828a016142c8565b92505060a087013567ffffffffffffffff811115614c4957614c48613cb7565b5b614c5589828a016142c8565b9150509295509295509295565b60008060408385031215614c7957614c78613cb2565b5b6000614c8785828601613d05565b9250506020614c9885828601614b50565b9150509250929050565b7f4e487b7100000000000000000000000000000000000000000000000000000000600052602260045260246000fd5b60006002820490506001821680614ce957607f821691505b602082108103614cfc57614cfb614ca2565b5b50919050565b7f4e487b7100000000000000000000000000000000000000000000000000000000600052603260045260246000fd5b7f4e487b7100000000000000000000000000000000000000000000000000000000600052601160045260246000fd5b6000614d6b82613d73565b91507fffffffffffffffffffffffffffffffffffffffffffffffffffffffffffffffff8203614d9d57614d9c614d31565b5b600182019050919050565b600082825260208201905092915050565b7f5075626c697368657220646f6573206e6f742065786973740000000000000000600082015250565b6000614def601883614da8565b9150614dfa82614db9565b602082019050919050565b60006020820190508181036000830152614e1e81614de2565b9050919050565b6000614e3082613d73565b9150614e3b83613d73565b9250828201905080821115614e5357614e52614d31565b5b92915050565b7f4164766572746973657220616c72656164792065786973747300000000000000600082015250565b6000614e8f601983614da8565b9150614e9a82614e59565b602082019050919050565b60006020820190508181036000830152614ebe81614e82565b9050919050565b60008190508160005260206000209050919050565b60006020601f8301049050919050565b600082821b905092915050565b600060088302614f277fffffffffffffffffffffffffffffffffffffffffffffffffffffffffffffffff82614eea565b614f318683614eea565b95508019841693508086168417925050509392505050565b6000819050919050565b6000614f6e614f69614f6484613d73565b614f49565b613d73565b9050919050565b6000819050919050565b614f8883614f53565b614f9c614f9482614f75565b848454614ef7565b825550505050565b600090565b614fb1614fa4565b614fbc818484614f7f565b505050565b5b81811015614fe057614fd5600082614fa9565b600181019050614fc2565b5050565b601f82111561502557614ff681614ec5565b614fff84614eda565b8101602085101561500e578190505b61502261501a85614eda565b830182614fc1565b50505b505050565b600082821c905092915050565b60006150486000198460080261502a565b1980831691505092915050565b60006150618383615037565b9150826002028217905092915050565b61507a82613d8c565b67ffffffffffffffff811115615093576150926141cb565b5b61509d8254614cd1565b6150a8828285614fe4565b600060209050601f8311600181146150db57600084156150c9578287015190505b6150d38582615055565b86555061513b565b601f1984166150e986614ec5565b60005b82811015615111578489015182556001820191506020850194506020810190506150ec565b8683101561512e578489015161512a601f891682615037565b8355505b6001600288020188555050505b505050505050565b600061514e82613d73565b915061515983613d73565b925082820390508181111561517157615170614d31565b5b92915050565b7f5075626c697368657220616c7265616479206578697374730000000000000000600082015250565b60006151ad601883614da8565b91506151b882615177565b602082019050919050565b600060208201905081810360008301526151dc816151a0565b9050919050565b7f4164766572746973657220646f6573206e6f7420657869737400000000000000600082015250565b6000615219601983614da8565b9150615224826151e3565b602082019050919050565b600060208201905081810360008301526152488161520c565b9050919050565b7f42616c616e6365206f662061647665727469736572206973206e6f7420656e6f60008201527f7567680000000000000000000000000000000000000000000000000000000000602082015250565b60006152ab602383614da8565b91506152b68261524f565b604082019050919050565b600060208201905081810360008301526152da8161529e565b9050919050565b60006152ec82613d73565b91506152f783613d73565b925082820261530581613d73565b9150828204841483151761531c5761531b614d31565b5b5092915050565b7f4e487b7100000000000000000000000000000000000000000000000000000000600052601260045260246000fd5b600061535d82613d73565b915061536883613d73565b92508261537857615377615323565b5b828204905092915050565b7f4f6e6c7920636f6e7472616374206f776e65722063616e2063616c6c2074686960008201527f732066756e6374696f6e00000000000000000000000000000000000000000000602082015250565b60006153df602a83614da8565b91506153ea82615383565b604082019050919050565b6000602082019050818103600083015261540e816153d2565b9050919050565b7f4e6f20706c6174666f726d206665657320617661696c61626c6520666f72207760008201527f69746864726177616c0000000000000000000000000000000000000000000000602082015250565b6000615471602983614da8565b915061547c82615415565b604082019050919050565b600060208201905081810360008301526154a081615464565b9050919050565b7f4f6e6c7920616476657274697365722063616e206465706f7369742066756e6460008201527f7300000000000000000000000000000000000000000000000000000000000000602082015250565b6000615503602183614da8565b915061550e826154a7565b604082019050919050565b60006020820190508181036000830152615532816154f6565b9050919050565b7f43616d706169676e2062616c616e6365206973207a65726f0000000000000000600082015250565b600061556f601883614da8565b915061557a82615539565b602082019050919050565b6000602082019050818103600083015261559e81615562565b9050919050565b7f416d6d6f756e74206973206d6f7265207468616e2062616c616e636500000000600082015250565b60006155db601c83614da8565b91506155e6826155a5565b602082019050919050565b6000602082019050818103600083015261560a816155ce565b905091905056fea264697066735822122012c063f8f2a3be184a21906fe1c19a781fd7db1913d9c25e3f74d3f9c06306ca64736f6c63430008120033",
  "linkReferences": {},
  "deployedLinkReferences": {}
}