{
  "_format": "hh-sol-artifact-1",
  "contractName": "Swirl",
  "sourceName": "contracts/Swirl.sol",
  "abi": [
    {
      "inputs": [
        {
          "internalType": "address",
          "name": "_wallet",
          "type": "address"
        },
        {
          "internalType": "string",
          "name": "_orgUsername",
          "type": "string"
        },
        {
          "internalType": "string",
          "name": "_orgname",
          "type": "string"
        },
        {
          "internalType": "string",
          "name": "_orgLogo",
          "type": "string"
        },
        {
          "internalType": "string",
          "name": "_orgdiscription",
          "type": "string"
        },
        {
          "internalType": "string",
          "name": "_orgOrigin",
          "type": "string"
        },
        {
          "internalType": "string",
          "name": "_empstrength",
          "type": "string"
        },
        {
          "internalType": "string",
          "name": "_orgFounder",
          "type": "string"
        },
        {
          "internalType": "string",
          "name": "_orgCatagory",
          "type": "string"
        }
      ],
      "name": "createAdvertiser",
      "outputs": [
        {
          "internalType": "uint256",
          "name": "",
          "type": "uint256"
        }
      ],
      "stateMutability": "nonpayable",
      "type": "function"
    },
    {
      "inputs": [
        {
          "internalType": "address",
          "name": "_advertiserAddress",
          "type": "address"
        },
        {
          "internalType": "uint256",
          "name": "_balance",
          "type": "uint256"
        },
        {
          "internalType": "string",
          "name": "_campaignName",
          "type": "string"
        },
        {
          "internalType": "string",
          "name": "_budget",
          "type": "string"
        },
        {
          "internalType": "string",
          "name": "_payclick",
          "type": "string"
        },
        {
          "internalType": "string",
          "name": "_stringCID",
          "type": "string"
        }
      ],
      "name": "createCampaign",
      "outputs": [
        {
          "internalType": "uint256",
          "name": "",
          "type": "uint256"
        }
      ],
      "stateMutability": "nonpayable",
      "type": "function"
    },
    {
      "inputs": [
        {
          "internalType": "address",
          "name": "_wallet",
          "type": "address"
        },
        {
          "internalType": "string",
          "name": "_orgUsername",
          "type": "string"
        },
        {
          "internalType": "string",
          "name": "_orgname",
          "type": "string"
        },
        {
          "internalType": "string",
          "name": "_orgLogo",
          "type": "string"
        },
        {
          "internalType": "string",
          "name": "_orgdiscription",
          "type": "string"
        },
        {
          "internalType": "string",
          "name": "_orgOrigin",
          "type": "string"
        },
        {
          "internalType": "string",
          "name": "_empstrength",
          "type": "string"
        },
        {
          "internalType": "string",
          "name": "_orgFounder",
          "type": "string"
        },
        {
          "internalType": "string",
          "name": "_orgCatagory",
          "type": "string"
        }
      ],
      "name": "createPublisher",
      "outputs": [
        {
          "internalType": "uint256",
          "name": "",
          "type": "uint256"
        }
      ],
      "stateMutability": "nonpayable",
      "type": "function"
    },
    {
      "inputs": [
        {
          "internalType": "address",
          "name": "_advertiserAddress",
          "type": "address"
        }
      ],
      "name": "deposit",
      "outputs": [],
      "stateMutability": "payable",
      "type": "function"
    },
    {
      "inputs": [
        {
          "internalType": "address",
          "name": "_wallet",
          "type": "address"
        }
      ],
      "name": "getAdvertiser",
      "outputs": [
        {
          "components": [
            {
              "internalType": "uint256",
              "name": "id",
              "type": "uint256"
            },
            {
              "internalType": "address",
              "name": "wallet",
              "type": "address"
            },
            {
              "internalType": "uint256",
              "name": "balance",
              "type": "uint256"
            },
            {
              "internalType": "uint256",
              "name": "currentBalance",
              "type": "uint256"
            },
            {
              "internalType": "string",
              "name": "orgUsername",
              "type": "string"
            },
            {
              "internalType": "string",
              "name": "orgname",
              "type": "string"
            },
            {
              "internalType": "string",
              "name": "orgLogo",
              "type": "string"
            },
            {
              "internalType": "string",
              "name": "orgdiscription",
              "type": "string"
            },
            {
              "internalType": "string",
              "name": "orgOrigin",
              "type": "string"
            },
            {
              "internalType": "string",
              "name": "empstrength",
              "type": "string"
            },
            {
              "internalType": "string",
              "name": "orgFounder",
              "type": "string"
            },
            {
              "internalType": "string",
              "name": "orgCatagory",
              "type": "string"
            }
          ],
          "internalType": "struct Swirl.Advertiser",
          "name": "",
          "type": "tuple"
        }
      ],
      "stateMutability": "view",
      "type": "function"
    },
    {
      "inputs": [
        {
          "internalType": "address",
          "name": "_wallet",
          "type": "address"
        }
      ],
      "name": "getAdvertiserBalance",
      "outputs": [
        {
          "internalType": "uint256",
          "name": "",
          "type": "uint256"
        }
      ],
      "stateMutability": "view",
      "type": "function"
    },
    {
      "inputs": [],
      "name": "getAllAdvertisers",
      "outputs": [
        {
          "components": [
            {
              "internalType": "uint256",
              "name": "id",
              "type": "uint256"
            },
            {
              "internalType": "address",
              "name": "wallet",
              "type": "address"
            },
            {
              "internalType": "uint256",
              "name": "balance",
              "type": "uint256"
            },
            {
              "internalType": "uint256",
              "name": "currentBalance",
              "type": "uint256"
            },
            {
              "internalType": "string",
              "name": "orgUsername",
              "type": "string"
            },
            {
              "internalType": "string",
              "name": "orgname",
              "type": "string"
            },
            {
              "internalType": "string",
              "name": "orgLogo",
              "type": "string"
            },
            {
              "internalType": "string",
              "name": "orgdiscription",
              "type": "string"
            },
            {
              "internalType": "string",
              "name": "orgOrigin",
              "type": "string"
            },
            {
              "internalType": "string",
              "name": "empstrength",
              "type": "string"
            },
            {
              "internalType": "string",
              "name": "orgFounder",
              "type": "string"
            },
            {
              "internalType": "string",
              "name": "orgCatagory",
              "type": "string"
            }
          ],
          "internalType": "struct Swirl.Advertiser[]",
          "name": "",
          "type": "tuple[]"
        }
      ],
      "stateMutability": "view",
      "type": "function"
    },
    {
      "inputs": [],
      "name": "getAllCampaigns",
      "outputs": [
        {
          "components": [
            {
              "internalType": "uint256",
              "name": "id",
              "type": "uint256"
            },
            {
              "internalType": "uint256",
              "name": "advertiserId",
              "type": "uint256"
            },
            {
              "internalType": "uint256",
              "name": "balance",
              "type": "uint256"
            },
            {
              "internalType": "string",
              "name": "campaignName",
              "type": "string"
            },
            {
              "internalType": "string",
              "name": "budget",
              "type": "string"
            },
            {
              "internalType": "string",
              "name": "payclick",
              "type": "string"
            },
            {
              "internalType": "string",
              "name": "stringCID",
              "type": "string"
            }
          ],
          "internalType": "struct Swirl.Campaign[]",
          "name": "",
          "type": "tuple[]"
        }
      ],
      "stateMutability": "view",
      "type": "function"
    },
    {
      "inputs": [],
      "name": "getAllPublishers",
      "outputs": [
        {
          "components": [
            {
              "internalType": "uint256",
              "name": "id",
              "type": "uint256"
            },
            {
              "internalType": "address",
              "name": "wallet",
              "type": "address"
            },
            {
              "internalType": "string",
              "name": "orgUsername",
              "type": "string"
            },
            {
              "internalType": "string",
              "name": "orgname",
              "type": "string"
            },
            {
              "internalType": "string",
              "name": "orgLogo",
              "type": "string"
            },
            {
              "internalType": "string",
              "name": "orgdiscription",
              "type": "string"
            },
            {
              "internalType": "string",
              "name": "orgOrigin",
              "type": "string"
            },
            {
              "internalType": "string",
              "name": "empstrength",
              "type": "string"
            },
            {
              "internalType": "string",
              "name": "orgFounder",
              "type": "string"
            },
            {
              "internalType": "string",
              "name": "orgCatagory",
              "type": "string"
            }
          ],
          "internalType": "struct Swirl.Publisher[]",
          "name": "",
          "type": "tuple[]"
        }
      ],
      "stateMutability": "view",
      "type": "function"
    },
    {
      "inputs": [
        {
          "internalType": "address",
          "name": "_advertiserAddress",
          "type": "address"
        }
      ],
      "name": "getCampaign",
      "outputs": [
        {
          "internalType": "uint256[]",
          "name": "ids",
          "type": "uint256[]"
        },
        {
          "internalType": "uint256[]",
          "name": "balances",
          "type": "uint256[]"
        },
        {
          "internalType": "string[]",
          "name": "campaignNames",
          "type": "string[]"
        },
        {
          "internalType": "string[]",
          "name": "budgets",
          "type": "string[]"
        },
        {
          "internalType": "string[]",
          "name": "payclicks",
          "type": "string[]"
        },
        {
          "internalType": "string[]",
          "name": "stringCIDs",
          "type": "string[]"
        }
      ],
      "stateMutability": "view",
      "type": "function"
    },
    {
      "inputs": [],
      "name": "getCurrentId",
      "outputs": [
        {
          "internalType": "uint256",
          "name": "",
          "type": "uint256"
        }
      ],
      "stateMutability": "view",
      "type": "function"
    },
    {
      "inputs": [
        {
          "internalType": "address",
          "name": "_wallet",
          "type": "address"
        }
      ],
      "name": "getOneCampaigns",
      "outputs": [
        {
          "components": [
            {
              "internalType": "uint256",
              "name": "id",
              "type": "uint256"
            },
            {
              "internalType": "uint256",
              "name": "advertiserId",
              "type": "uint256"
            },
            {
              "internalType": "uint256",
              "name": "balance",
              "type": "uint256"
            },
            {
              "internalType": "string",
              "name": "campaignName",
              "type": "string"
            },
            {
              "internalType": "string",
              "name": "budget",
              "type": "string"
            },
            {
              "internalType": "string",
              "name": "payclick",
              "type": "string"
            },
            {
              "internalType": "string",
              "name": "stringCID",
              "type": "string"
            }
          ],
          "internalType": "struct Swirl.Campaign[]",
          "name": "",
          "type": "tuple[]"
        }
      ],
      "stateMutability": "view",
      "type": "function"
    },
    {
      "inputs": [
        {
          "internalType": "address",
          "name": "_wallet",
          "type": "address"
        }
      ],
      "name": "getPublisher",
      "outputs": [
        {
          "components": [
            {
              "internalType": "uint256",
              "name": "id",
              "type": "uint256"
            },
            {
              "internalType": "address",
              "name": "wallet",
              "type": "address"
            },
            {
              "internalType": "string",
              "name": "orgUsername",
              "type": "string"
            },
            {
              "internalType": "string",
              "name": "orgname",
              "type": "string"
            },
            {
              "internalType": "string",
              "name": "orgLogo",
              "type": "string"
            },
            {
              "internalType": "string",
              "name": "orgdiscription",
              "type": "string"
            },
            {
              "internalType": "string",
              "name": "orgOrigin",
              "type": "string"
            },
            {
              "internalType": "string",
              "name": "empstrength",
              "type": "string"
            },
            {
              "internalType": "string",
              "name": "orgFounder",
              "type": "string"
            },
            {
              "internalType": "string",
              "name": "orgCatagory",
              "type": "string"
            }
          ],
          "internalType": "struct Swirl.Publisher",
          "name": "",
          "type": "tuple"
        }
      ],
      "stateMutability": "view",
      "type": "function"
    },
    {
      "inputs": [
        {
          "internalType": "address",
          "name": "_wallet",
          "type": "address"
        }
      ],
      "name": "getPublisherWithdrawBalance",
      "outputs": [
        {
          "internalType": "uint256",
          "name": "",
          "type": "uint256"
        }
      ],
      "stateMutability": "view",
      "type": "function"
    },
    {
      "inputs": [
        {
          "internalType": "address",
          "name": "_publisherAddress",
          "type": "address"
        },
        {
          "internalType": "uint256",
          "name": "_ammount",
          "type": "uint256"
        }
      ],
      "name": "withdraw",
      "outputs": [],
      "stateMutability": "nonpayable",
      "type": "function"
    }
  ],
  "bytecode": "0x608060405234801561001057600080fd5b5061523e806100206000396000f3fe6080604052600436106100e85760003560e01c8063731301cf1161008a5780639fd31557116100595780639fd3155714610349578063c74e775a14610386578063f340fa01146103c3578063f3fef3a3146103df576100e8565b8063731301cf1461026257806386cdf604146102a45780638b043e08146102cf5780639cc52aee1461030c576100e8565b806365a2db1c116100c657806365a2db1c146101925780636c143862146101cf5780636d321f7a146101fa57806372536e9014610225576100e8565b8063109fd1fb146100ed57806343da89901461012a5780634c96f28114610167575b600080fd5b3480156100f957600080fd5b50610114600480360381019061010f9190613aeb565b610408565b6040516101219190613d34565b60405180910390f35b34801561013657600080fd5b50610151600480360381019061014c9190613aeb565b6107c2565b60405161015e9190613d65565b60405180910390f35b34801561017357600080fd5b5061017c61090e565b6040516101899190613f5c565b60405180910390f35b34801561019e57600080fd5b506101b960048036038101906101b491906140b3565b610ed2565b6040516101c69190613d65565b60405180910390f35b3480156101db57600080fd5b506101e46110e8565b6040516101f19190613d65565b60405180910390f35b34801561020657600080fd5b5061020f6110f2565b60405161021c9190614454565b60405180910390f35b34801561023157600080fd5b5061024c60048036038101906102479190613aeb565b6116c9565b60405161025991906145ab565b60405180910390f35b34801561026e57600080fd5b5061028960048036038101906102849190613aeb565b611c93565b60405161029b9695949392919061473e565b60405180910390f35b3480156102b057600080fd5b506102b96122d2565b6040516102c69190613d34565b60405180910390f35b3480156102db57600080fd5b506102f660048036038101906102f19190613aeb565b61260b565b60405161030391906148d4565b60405180910390f35b34801561031857600080fd5b50610333600480360381019061032e91906140b3565b612bc3565b6040516103409190613d65565b60405180910390f35b34801561035557600080fd5b50610370600480360381019061036b9190613aeb565b612db6565b60405161037d9190613d65565b60405180910390f35b34801561039257600080fd5b506103ad60048036038101906103a89190614922565b612e67565b6040516103ba9190613d65565b60405180910390f35b6103dd60048036038101906103d89190613aeb565b6130bc565b005b3480156103eb57600080fd5b5061040660048036038101906104019190614a1f565b613293565b005b6060600060045467ffffffffffffffff81111561042857610427613f88565b5b60405190808252806020026020018201604052801561046157816020015b61044e61395c565b8152602001906001900390816104465790505b509050600080600190505b60045481116107b7578473ffffffffffffffffffffffffffffffffffffffff166000806001600085815260200190815260200160002060010154815260200190815260200160002060010160009054906101000a900473ffffffffffffffffffffffffffffffffffffffff1673ffffffffffffffffffffffffffffffffffffffff160361079657600160008281526020019081526020016000206040518060e001604052908160008201548152602001600182015481526020016002820154815260200160038201805461053f90614a8e565b80601f016020809104026020016040519081016040528092919081815260200182805461056b90614a8e565b80156105b85780601f1061058d576101008083540402835291602001916105b8565b820191906000526020600020905b81548152906001019060200180831161059b57829003601f168201915b505050505081526020016004820180546105d190614a8e565b80601f01602080910402602001604051908101604052809291908181526020018280546105fd90614a8e565b801561064a5780601f1061061f5761010080835404028352916020019161064a565b820191906000526020600020905b81548152906001019060200180831161062d57829003601f168201915b5050505050815260200160058201805461066390614a8e565b80601f016020809104026020016040519081016040528092919081815260200182805461068f90614a8e565b80156106dc5780601f106106b1576101008083540402835291602001916106dc565b820191906000526020600020905b8154815290600101906020018083116106bf57829003601f168201915b505050505081526020016006820180546106f590614a8e565b80601f016020809104026020016040519081016040528092919081815260200182805461072190614a8e565b801561076e5780601f106107435761010080835404028352916020019161076e565b820191906000526020600020905b81548152906001019060200180831161075157829003601f168201915b50505050508152505083838151811061078a57610789614abf565b5b60200260200101819052505b81806107a190614b1d565b92505080806107af90614b1d565b91505061046c565b508192505050919050565b600080600080600190505b600554811161085a578473ffffffffffffffffffffffffffffffffffffffff166002600083815260200190815260200160002060010160009054906101000a900473ffffffffffffffffffffffffffffffffffffffff1673ffffffffffffffffffffffffffffffffffffffff16036108475780925061085a565b808061085290614b1d565b9150506107cd565b506000821161089e576040517f08c379a000000000000000000000000000000000000000000000000000000000815260040161089590614bc2565b60405180910390fd5b6000600190505b600454811161090357600160008281526020019081526020016000206001015483036108f0576001600082815260200190815260200160002060020154826108ed9190614be2565b91505b80806108fb90614b1d565b9150506108a5565b508092505050919050565b6060600060055467ffffffffffffffff81111561092e5761092d613f88565b5b60405190808252806020026020018201604052801561096757816020015b610954613999565b81526020019060019003908161094c5790505b509050600080600190505b6005548111610ec9576002600082815260200190815260200160002060405180610140016040529081600082015481526020016001820160009054906101000a900473ffffffffffffffffffffffffffffffffffffffff1673ffffffffffffffffffffffffffffffffffffffff1673ffffffffffffffffffffffffffffffffffffffff168152602001600282018054610a0a90614a8e565b80601f0160208091040260200160405190810160405280929190818152602001828054610a3690614a8e565b8015610a835780601f10610a5857610100808354040283529160200191610a83565b820191906000526020600020905b815481529060010190602001808311610a6657829003601f168201915b50505050508152602001600382018054610a9c90614a8e565b80601f0160208091040260200160405190810160405280929190818152602001828054610ac890614a8e565b8015610b155780601f10610aea57610100808354040283529160200191610b15565b820191906000526020600020905b815481529060010190602001808311610af857829003601f168201915b50505050508152602001600482018054610b2e90614a8e565b80601f0160208091040260200160405190810160405280929190818152602001828054610b5a90614a8e565b8015610ba75780601f10610b7c57610100808354040283529160200191610ba7565b820191906000526020600020905b815481529060010190602001808311610b8a57829003601f168201915b50505050508152602001600582018054610bc090614a8e565b80601f0160208091040260200160405190810160405280929190818152602001828054610bec90614a8e565b8015610c395780601f10610c0e57610100808354040283529160200191610c39565b820191906000526020600020905b815481529060010190602001808311610c1c57829003601f168201915b50505050508152602001600682018054610c5290614a8e565b80601f0160208091040260200160405190810160405280929190818152602001828054610c7e90614a8e565b8015610ccb5780601f10610ca057610100808354040283529160200191610ccb565b820191906000526020600020905b815481529060010190602001808311610cae57829003601f168201915b50505050508152602001600782018054610ce490614a8e565b80601f0160208091040260200160405190810160405280929190818152602001828054610d1090614a8e565b8015610d5d5780601f10610d3257610100808354040283529160200191610d5d565b820191906000526020600020905b815481529060010190602001808311610d4057829003601f168201915b50505050508152602001600882018054610d7690614a8e565b80601f0160208091040260200160405190810160405280929190818152602001828054610da290614a8e565b8015610def5780601f10610dc457610100808354040283529160200191610def565b820191906000526020600020905b815481529060010190602001808311610dd257829003601f168201915b50505050508152602001600982018054610e0890614a8e565b80601f0160208091040260200160405190810160405280929190818152602001828054610e3490614a8e565b8015610e815780601f10610e5657610100808354040283529160200191610e81565b820191906000526020600020905b815481529060010190602001808311610e6457829003601f168201915b505050505081525050838381518110610e9d57610e9c614abf565b5b60200260200101819052508180610eb390614b1d565b9250508080610ec190614b1d565b915050610972565b50819250505090565b6000801515610ee08b613819565b151514610f22576040517f08c379a0000000000000000000000000000000000000000000000000000000008152600401610f1990614c62565b60405180910390fd5b60036000815480929190610f3590614b1d565b919050555060405180610180016040528060035481526020018b73ffffffffffffffffffffffffffffffffffffffff16815260200160008152602001600081526020018a81526020018981526020018881526020018781526020018681526020018581526020018481526020018381525060008060035481526020019081526020016000206000820151816000015560208201518160010160006101000a81548173ffffffffffffffffffffffffffffffffffffffff021916908373ffffffffffffffffffffffffffffffffffffffff160217905550604082015181600201556060820151816003015560808201518160040190816110349190614e2e565b5060a082015181600501908161104a9190614e2e565b5060c08201518160060190816110609190614e2e565b5060e08201518160070190816110769190614e2e565b5061010082015181600801908161108d9190614e2e565b506101208201518160090190816110a49190614e2e565b5061014082015181600a0190816110bb9190614e2e565b5061016082015181600b0190816110d29190614e2e565b5090505060035490509998505050505050505050565b6000600454905090565b6060600060035467ffffffffffffffff81111561111257611111613f88565b5b60405190808252806020026020018201604052801561114b57816020015b611138613a02565b8152602001906001900390816111305790505b509050600080600190505b60035481116116c05760008082815260200190815260200160002060405180610180016040529081600082015481526020016001820160009054906101000a900473ffffffffffffffffffffffffffffffffffffffff1673ffffffffffffffffffffffffffffffffffffffff1673ffffffffffffffffffffffffffffffffffffffff168152602001600282015481526020016003820154815260200160048201805461120190614a8e565b80601f016020809104026020016040519081016040528092919081815260200182805461122d90614a8e565b801561127a5780601f1061124f5761010080835404028352916020019161127a565b820191906000526020600020905b81548152906001019060200180831161125d57829003601f168201915b5050505050815260200160058201805461129390614a8e565b80601f01602080910402602001604051908101604052809291908181526020018280546112bf90614a8e565b801561130c5780601f106112e15761010080835404028352916020019161130c565b820191906000526020600020905b8154815290600101906020018083116112ef57829003601f168201915b5050505050815260200160068201805461132590614a8e565b80601f016020809104026020016040519081016040528092919081815260200182805461135190614a8e565b801561139e5780601f106113735761010080835404028352916020019161139e565b820191906000526020600020905b81548152906001019060200180831161138157829003601f168201915b505050505081526020016007820180546113b790614a8e565b80601f01602080910402602001604051908101604052809291908181526020018280546113e390614a8e565b80156114305780601f1061140557610100808354040283529160200191611430565b820191906000526020600020905b81548152906001019060200180831161141357829003601f168201915b5050505050815260200160088201805461144990614a8e565b80601f016020809104026020016040519081016040528092919081815260200182805461147590614a8e565b80156114c25780601f10611497576101008083540402835291602001916114c2565b820191906000526020600020905b8154815290600101906020018083116114a557829003601f168201915b505050505081526020016009820180546114db90614a8e565b80601f016020809104026020016040519081016040528092919081815260200182805461150790614a8e565b80156115545780601f1061152957610100808354040283529160200191611554565b820191906000526020600020905b81548152906001019060200180831161153757829003601f168201915b50505050508152602001600a8201805461156d90614a8e565b80601f016020809104026020016040519081016040528092919081815260200182805461159990614a8e565b80156115e65780601f106115bb576101008083540402835291602001916115e6565b820191906000526020600020905b8154815290600101906020018083116115c957829003601f168201915b50505050508152602001600b820180546115ff90614a8e565b80601f016020809104026020016040519081016040528092919081815260200182805461162b90614a8e565b80156116785780601f1061164d57610100808354040283529160200191611678565b820191906000526020600020905b81548152906001019060200180831161165b57829003601f168201915b50505050508152505083838151811061169457611693614abf565b5b602002602001018190525081806116aa90614b1d565b92505080806116b890614b1d565b915050611156565b50819250505090565b6116d1613a02565b6000600190505b6003548111611c8c578273ffffffffffffffffffffffffffffffffffffffff1660008083815260200190815260200160002060010160009054906101000a900473ffffffffffffffffffffffffffffffffffffffff1673ffffffffffffffffffffffffffffffffffffffff1603611c7957600080600083815260200190815260200160002060405180610180016040529081600082015481526020016001820160009054906101000a900473ffffffffffffffffffffffffffffffffffffffff1673ffffffffffffffffffffffffffffffffffffffff1673ffffffffffffffffffffffffffffffffffffffff16815260200160028201548152602001600382015481526020016004820180546117ed90614a8e565b80601f016020809104026020016040519081016040528092919081815260200182805461181990614a8e565b80156118665780601f1061183b57610100808354040283529160200191611866565b820191906000526020600020905b81548152906001019060200180831161184957829003601f168201915b5050505050815260200160058201805461187f90614a8e565b80601f01602080910402602001604051908101604052809291908181526020018280546118ab90614a8e565b80156118f85780601f106118cd576101008083540402835291602001916118f8565b820191906000526020600020905b8154815290600101906020018083116118db57829003601f168201915b5050505050815260200160068201805461191190614a8e565b80601f016020809104026020016040519081016040528092919081815260200182805461193d90614a8e565b801561198a5780601f1061195f5761010080835404028352916020019161198a565b820191906000526020600020905b81548152906001019060200180831161196d57829003601f168201915b505050505081526020016007820180546119a390614a8e565b80601f01602080910402602001604051908101604052809291908181526020018280546119cf90614a8e565b8015611a1c5780601f106119f157610100808354040283529160200191611a1c565b820191906000526020600020905b8154815290600101906020018083116119ff57829003601f168201915b50505050508152602001600882018054611a3590614a8e565b80601f0160208091040260200160405190810160405280929190818152602001828054611a6190614a8e565b8015611aae5780601f10611a8357610100808354040283529160200191611aae565b820191906000526020600020905b815481529060010190602001808311611a9157829003601f168201915b50505050508152602001600982018054611ac790614a8e565b80601f0160208091040260200160405190810160405280929190818152602001828054611af390614a8e565b8015611b405780601f10611b1557610100808354040283529160200191611b40565b820191906000526020600020905b815481529060010190602001808311611b2357829003601f168201915b50505050508152602001600a82018054611b5990614a8e565b80601f0160208091040260200160405190810160405280929190818152602001828054611b8590614a8e565b8015611bd25780601f10611ba757610100808354040283529160200191611bd2565b820191906000526020600020905b815481529060010190602001808311611bb557829003601f168201915b50505050508152602001600b82018054611beb90614a8e565b80601f0160208091040260200160405190810160405280929190818152602001828054611c1790614a8e565b8015611c645780601f10611c3957610100808354040283529160200191611c64565b820191906000526020600020905b815481529060010190602001808311611c4757829003601f168201915b50505050508152505090508092505050611c8e565b8080611c8490614b1d565b9150506116d8565b505b919050565b60608060608060608060045467ffffffffffffffff811115611cb857611cb7613f88565b5b604051908082528060200260200182016040528015611ce65781602001602082028036833780820191505090505b50955060045467ffffffffffffffff811115611d0557611d04613f88565b5b604051908082528060200260200182016040528015611d335781602001602082028036833780820191505090505b50945060045467ffffffffffffffff811115611d5257611d51613f88565b5b604051908082528060200260200182016040528015611d8557816020015b6060815260200190600190039081611d705790505b50935060045467ffffffffffffffff811115611da457611da3613f88565b5b604051908082528060200260200182016040528015611dd757816020015b6060815260200190600190039081611dc25790505b50925060045467ffffffffffffffff811115611df657611df5613f88565b5b604051908082528060200260200182016040528015611e2957816020015b6060815260200190600190039081611e145790505b50915060045467ffffffffffffffff811115611e4857611e47613f88565b5b604051908082528060200260200182016040528015611e7b57816020015b6060815260200190600190039081611e665790505b5090506000600190505b60045481116122c8578773ffffffffffffffffffffffffffffffffffffffff166000806001600085815260200190815260200160002060010154815260200190815260200160002060010160009054906101000a900473ffffffffffffffffffffffffffffffffffffffff1673ffffffffffffffffffffffffffffffffffffffff16036122b557600160008281526020019081526020016000206000015487600183611f319190614f00565b81518110611f4257611f41614abf565b5b602002602001018181525050600160008281526020019081526020016000206002015486600183611f739190614f00565b81518110611f8457611f83614abf565b5b602002602001018181525050600160008281526020019081526020016000206003018054611fb190614a8e565b80601f0160208091040260200160405190810160405280929190818152602001828054611fdd90614a8e565b801561202a5780601f10611fff5761010080835404028352916020019161202a565b820191906000526020600020905b81548152906001019060200180831161200d57829003601f168201915b50505050508560018361203d9190614f00565b8151811061204e5761204d614abf565b5b602002602001018190525060016000828152602001908152602001600020600401805461207a90614a8e565b80601f01602080910402602001604051908101604052809291908181526020018280546120a690614a8e565b80156120f35780601f106120c8576101008083540402835291602001916120f3565b820191906000526020600020905b8154815290600101906020018083116120d657829003601f168201915b5050505050846001836121069190614f00565b8151811061211757612116614abf565b5b602002602001018190525060016000828152602001908152602001600020600501805461214390614a8e565b80601f016020809104026020016040519081016040528092919081815260200182805461216f90614a8e565b80156121bc5780601f10612191576101008083540402835291602001916121bc565b820191906000526020600020905b81548152906001019060200180831161219f57829003601f168201915b5050505050836001836121cf9190614f00565b815181106121e0576121df614abf565b5b602002602001018190525060016000828152602001908152602001600020600601805461220c90614a8e565b80601f016020809104026020016040519081016040528092919081815260200182805461223890614a8e565b80156122855780601f1061225a57610100808354040283529160200191612285565b820191906000526020600020905b81548152906001019060200180831161226857829003601f168201915b5050505050826001836122989190614f00565b815181106122a9576122a8614abf565b5b60200260200101819052505b80806122c090614b1d565b915050611e85565b5091939550919395565b6060600060045467ffffffffffffffff8111156122f2576122f1613f88565b5b60405190808252806020026020018201604052801561232b57816020015b61231861395c565b8152602001906001900390816123105790505b509050600080600190505b600454811161260257600160008281526020019081526020016000206040518060e001604052908160008201548152602001600182015481526020016002820154815260200160038201805461238b90614a8e565b80601f01602080910402602001604051908101604052809291908181526020018280546123b790614a8e565b80156124045780601f106123d957610100808354040283529160200191612404565b820191906000526020600020905b8154815290600101906020018083116123e757829003601f168201915b5050505050815260200160048201805461241d90614a8e565b80601f016020809104026020016040519081016040528092919081815260200182805461244990614a8e565b80156124965780601f1061246b57610100808354040283529160200191612496565b820191906000526020600020905b81548152906001019060200180831161247957829003601f168201915b505050505081526020016005820180546124af90614a8e565b80601f01602080910402602001604051908101604052809291908181526020018280546124db90614a8e565b80156125285780601f106124fd57610100808354040283529160200191612528565b820191906000526020600020905b81548152906001019060200180831161250b57829003601f168201915b5050505050815260200160068201805461254190614a8e565b80601f016020809104026020016040519081016040528092919081815260200182805461256d90614a8e565b80156125ba5780601f1061258f576101008083540402835291602001916125ba565b820191906000526020600020905b81548152906001019060200180831161259d57829003601f168201915b5050505050815250508383815181106125d6576125d5614abf565b5b602002602001018190525081806125ec90614b1d565b92505080806125fa90614b1d565b915050612336565b50819250505090565b612613613999565b6000600190505b6005548111612bbc578273ffffffffffffffffffffffffffffffffffffffff166002600083815260200190815260200160002060010160009054906101000a900473ffffffffffffffffffffffffffffffffffffffff1673ffffffffffffffffffffffffffffffffffffffff1603612ba95760006002600083815260200190815260200160002060405180610140016040529081600082015481526020016001820160009054906101000a900473ffffffffffffffffffffffffffffffffffffffff1673ffffffffffffffffffffffffffffffffffffffff1673ffffffffffffffffffffffffffffffffffffffff16815260200160028201805461271d90614a8e565b80601f016020809104026020016040519081016040528092919081815260200182805461274990614a8e565b80156127965780601f1061276b57610100808354040283529160200191612796565b820191906000526020600020905b81548152906001019060200180831161277957829003601f168201915b505050505081526020016003820180546127af90614a8e565b80601f01602080910402602001604051908101604052809291908181526020018280546127db90614a8e565b80156128285780601f106127fd57610100808354040283529160200191612828565b820191906000526020600020905b81548152906001019060200180831161280b57829003601f168201915b5050505050815260200160048201805461284190614a8e565b80601f016020809104026020016040519081016040528092919081815260200182805461286d90614a8e565b80156128ba5780601f1061288f576101008083540402835291602001916128ba565b820191906000526020600020905b81548152906001019060200180831161289d57829003601f168201915b505050505081526020016005820180546128d390614a8e565b80601f01602080910402602001604051908101604052809291908181526020018280546128ff90614a8e565b801561294c5780601f106129215761010080835404028352916020019161294c565b820191906000526020600020905b81548152906001019060200180831161292f57829003601f168201915b5050505050815260200160068201805461296590614a8e565b80601f016020809104026020016040519081016040528092919081815260200182805461299190614a8e565b80156129de5780601f106129b3576101008083540402835291602001916129de565b820191906000526020600020905b8154815290600101906020018083116129c157829003601f168201915b505050505081526020016007820180546129f790614a8e565b80601f0160208091040260200160405190810160405280929190818152602001828054612a2390614a8e565b8015612a705780601f10612a4557610100808354040283529160200191612a70565b820191906000526020600020905b815481529060010190602001808311612a5357829003601f168201915b50505050508152602001600882018054612a8990614a8e565b80601f0160208091040260200160405190810160405280929190818152602001828054612ab590614a8e565b8015612b025780601f10612ad757610100808354040283529160200191612b02565b820191906000526020600020905b815481529060010190602001808311612ae557829003601f168201915b50505050508152602001600982018054612b1b90614a8e565b80601f0160208091040260200160405190810160405280929190818152602001828054612b4790614a8e565b8015612b945780601f10612b6957610100808354040283529160200191612b94565b820191906000526020600020905b815481529060010190602001808311612b7757829003601f168201915b50505050508152505090508092505050612bbe565b8080612bb490614b1d565b91505061261a565b505b919050565b6000801515612bd18b6138ba565b151514612c13576040517f08c379a0000000000000000000000000000000000000000000000000000000008152600401612c0a90614f80565b60405180910390fd5b60056000815480929190612c2690614b1d565b919050555060405180610140016040528060055481526020018b73ffffffffffffffffffffffffffffffffffffffff1681526020018a8152602001898152602001888152602001878152602001868152602001858152602001848152602001838152506002600060055481526020019081526020016000206000820151816000015560208201518160010160006101000a81548173ffffffffffffffffffffffffffffffffffffffff021916908373ffffffffffffffffffffffffffffffffffffffff1602179055506040820151816002019081612d049190614e2e565b506060820151816003019081612d1a9190614e2e565b506080820151816004019081612d309190614e2e565b5060a0820151816005019081612d469190614e2e565b5060c0820151816006019081612d5c9190614e2e565b5060e0820151816007019081612d729190614e2e565b50610100820151816008019081612d899190614e2e565b50610120820151816009019081612da09190614e2e565b5090505060055490509998505050505050505050565b600080600190505b6003548111612e60578273ffffffffffffffffffffffffffffffffffffffff1660008083815260200190815260200160002060010160009054906101000a900473ffffffffffffffffffffffffffffffffffffffff1673ffffffffffffffffffffffffffffffffffffffff1603612e4d5760008082815260200190815260200160002060020154915050612e62565b8080612e5890614b1d565b915050612dbe565b505b919050565b600060011515612e7688613819565b151514612eb8576040517f08c379a0000000000000000000000000000000000000000000000000000000008152600401612eaf90614fec565b60405180910390fd5b600080600190505b6003548111612f4c578873ffffffffffffffffffffffffffffffffffffffff1660008083815260200190815260200160002060010160009054906101000a900473ffffffffffffffffffffffffffffffffffffffff1673ffffffffffffffffffffffffffffffffffffffff1603612f3957809150612f4c565b8080612f4490614b1d565b915050612ec0565b5086600080838152602001908152602001600020600301541015612fa5576040517f08c379a0000000000000000000000000000000000000000000000000000000008152600401612f9c9061507e565b60405180910390fd5b60046000815480929190612fb890614b1d565b91905055506040518060e00160405280600454815260200182815260200188815260200187815260200186815260200185815260200184815250600160006004548152602001908152602001600020600082015181600001556020820151816001015560408201518160020155606082015181600301908161303a9190614e2e565b5060808201518160040190816130509190614e2e565b5060a08201518160050190816130669190614e2e565b5060c082015181600601908161307c9190614e2e565b509050508660008083815260200190815260200160002060020160008282546130a59190614f00565b925050819055506004549150509695505050505050565b600080600190505b6003548111613150578273ffffffffffffffffffffffffffffffffffffffff1660008083815260200190815260200160002060010160009054906101000a900473ffffffffffffffffffffffffffffffffffffffff1673ffffffffffffffffffffffffffffffffffffffff160361313d57809150613150565b808061314890614b1d565b9150506130c4565b5060008111613194576040517f08c379a000000000000000000000000000000000000000000000000000000000815260040161318b90614fec565b60405180910390fd5b3373ffffffffffffffffffffffffffffffffffffffff1660008083815260200190815260200160002060010160009054906101000a900473ffffffffffffffffffffffffffffffffffffffff1673ffffffffffffffffffffffffffffffffffffffff1614613237576040517f08c379a000000000000000000000000000000000000000000000000000000000815260040161322e90615110565b60405180910390fd5b34600080838152602001908152602001600020600201600082825461325c9190614be2565b925050819055503460008083815260200190815260200160002060030160008282546132889190614be2565b925050819055505050565b600080600190505b6005548111613328578373ffffffffffffffffffffffffffffffffffffffff166002600083815260200190815260200160002060010160009054906101000a900473ffffffffffffffffffffffffffffffffffffffff1673ffffffffffffffffffffffffffffffffffffffff160361331557809150613328565b808061332090614b1d565b91505061329b565b506000811161336c576040517f08c379a000000000000000000000000000000000000000000000000000000000815260040161336390614fec565b60405180910390fd5b3373ffffffffffffffffffffffffffffffffffffffff166002600083815260200190815260200160002060010160009054906101000a900473ffffffffffffffffffffffffffffffffffffffff1673ffffffffffffffffffffffffffffffffffffffff1614613410576040517f08c379a000000000000000000000000000000000000000000000000000000000815260040161340790615110565b60405180910390fd5b6000600160008381526020019081526020016000206040518060e001604052908160008201548152602001600182015481526020016002820154815260200160038201805461345e90614a8e565b80601f016020809104026020016040519081016040528092919081815260200182805461348a90614a8e565b80156134d75780601f106134ac576101008083540402835291602001916134d7565b820191906000526020600020905b8154815290600101906020018083116134ba57829003601f168201915b505050505081526020016004820180546134f090614a8e565b80601f016020809104026020016040519081016040528092919081815260200182805461351c90614a8e565b80156135695780601f1061353e57610100808354040283529160200191613569565b820191906000526020600020905b81548152906001019060200180831161354c57829003601f168201915b5050505050815260200160058201805461358290614a8e565b80601f01602080910402602001604051908101604052809291908181526020018280546135ae90614a8e565b80156135fb5780601f106135d0576101008083540402835291602001916135fb565b820191906000526020600020905b8154815290600101906020018083116135de57829003601f168201915b5050505050815260200160068201805461361490614a8e565b80601f016020809104026020016040519081016040528092919081815260200182805461364090614a8e565b801561368d5780601f106136625761010080835404028352916020019161368d565b820191906000526020600020905b81548152906001019060200180831161367057829003601f168201915b5050505050815250509050600081604001519050600081116136e4576040517f08c379a00000000000000000000000000000000000000000000000000000000081526004016136db9061517c565b60405180910390fd5b83811015613727576040517f08c379a000000000000000000000000000000000000000000000000000000000815260040161371e906151e8565b60405180910390fd5b83816137339190614f00565b6001600085815260200190815260200160002060020181905550836000806001600087815260200190815260200160002060010154815260200190815260200160002060020160008282546137889190614f00565b9250508190555060006002600085815260200190815260200160002060010160009054906101000a900473ffffffffffffffffffffffffffffffffffffffff1690508073ffffffffffffffffffffffffffffffffffffffff166108fc869081150290604051600060405180830381858888f19350505050158015613810573d6000803e3d6000fd5b50505050505050565b600080600190505b60035481116138af578273ffffffffffffffffffffffffffffffffffffffff1660008083815260200190815260200160002060010160009054906101000a900473ffffffffffffffffffffffffffffffffffffffff1673ffffffffffffffffffffffffffffffffffffffff160361389c5760019150506138b5565b80806138a790614b1d565b915050613821565b50600090505b919050565b600080600190505b6005548111613951578273ffffffffffffffffffffffffffffffffffffffff166002600083815260200190815260200160002060010160009054906101000a900473ffffffffffffffffffffffffffffffffffffffff1673ffffffffffffffffffffffffffffffffffffffff160361393e576001915050613957565b808061394990614b1d565b9150506138c2565b50600090505b919050565b6040518060e00160405280600081526020016000815260200160008152602001606081526020016060815260200160608152602001606081525090565b60405180610140016040528060008152602001600073ffffffffffffffffffffffffffffffffffffffff16815260200160608152602001606081526020016060815260200160608152602001606081526020016060815260200160608152602001606081525090565b60405180610180016040528060008152602001600073ffffffffffffffffffffffffffffffffffffffff168152602001600081526020016000815260200160608152602001606081526020016060815260200160608152602001606081526020016060815260200160608152602001606081525090565b6000604051905090565b600080fd5b600080fd5b600073ffffffffffffffffffffffffffffffffffffffff82169050919050565b6000613ab882613a8d565b9050919050565b613ac881613aad565b8114613ad357600080fd5b50565b600081359050613ae581613abf565b92915050565b600060208284031215613b0157613b00613a83565b5b6000613b0f84828501613ad6565b91505092915050565b600081519050919050565b600082825260208201905092915050565b6000819050602082019050919050565b6000819050919050565b613b5781613b44565b82525050565b600081519050919050565b600082825260208201905092915050565b60005b83811015613b97578082015181840152602081019050613b7c565b60008484015250505050565b6000601f19601f8301169050919050565b6000613bbf82613b5d565b613bc98185613b68565b9350613bd9818560208601613b79565b613be281613ba3565b840191505092915050565b600060e083016000830151613c056000860182613b4e565b506020830151613c186020860182613b4e565b506040830151613c2b6040860182613b4e565b5060608301518482036060860152613c438282613bb4565b91505060808301518482036080860152613c5d8282613bb4565b91505060a083015184820360a0860152613c778282613bb4565b91505060c083015184820360c0860152613c918282613bb4565b9150508091505092915050565b6000613caa8383613bed565b905092915050565b6000602082019050919050565b6000613cca82613b18565b613cd48185613b23565b935083602082028501613ce685613b34565b8060005b85811015613d225784840389528151613d038582613c9e565b9450613d0e83613cb2565b925060208a01995050600181019050613cea565b50829750879550505050505092915050565b60006020820190508181036000830152613d4e8184613cbf565b905092915050565b613d5f81613b44565b82525050565b6000602082019050613d7a6000830184613d56565b92915050565b600081519050919050565b600082825260208201905092915050565b6000819050602082019050919050565b613db581613aad565b82525050565b600061014083016000830151613dd46000860182613b4e565b506020830151613de76020860182613dac565b5060408301518482036040860152613dff8282613bb4565b91505060608301518482036060860152613e198282613bb4565b91505060808301518482036080860152613e338282613bb4565b91505060a083015184820360a0860152613e4d8282613bb4565b91505060c083015184820360c0860152613e678282613bb4565b91505060e083015184820360e0860152613e818282613bb4565b915050610100830151848203610100860152613e9d8282613bb4565b915050610120830151848203610120860152613eb98282613bb4565b9150508091505092915050565b6000613ed28383613dbb565b905092915050565b6000602082019050919050565b6000613ef282613d80565b613efc8185613d8b565b935083602082028501613f0e85613d9c565b8060005b85811015613f4a5784840389528151613f2b8582613ec6565b9450613f3683613eda565b925060208a01995050600181019050613f12565b50829750879550505050505092915050565b60006020820190508181036000830152613f768184613ee7565b905092915050565b600080fd5b600080fd5b7f4e487b7100000000000000000000000000000000000000000000000000000000600052604160045260246000fd5b613fc082613ba3565b810181811067ffffffffffffffff82111715613fdf57613fde613f88565b5b80604052505050565b6000613ff2613a79565b9050613ffe8282613fb7565b919050565b600067ffffffffffffffff82111561401e5761401d613f88565b5b61402782613ba3565b9050602081019050919050565b82818337600083830152505050565b600061405661405184614003565b613fe8565b90508281526020810184848401111561407257614071613f83565b5b61407d848285614034565b509392505050565b600082601f83011261409a57614099613f7e565b5b81356140aa848260208601614043565b91505092915050565b60008060008060008060008060006101208a8c0312156140d6576140d5613a83565b5b60006140e48c828d01613ad6565b99505060208a013567ffffffffffffffff81111561410557614104613a88565b5b6141118c828d01614085565b98505060408a013567ffffffffffffffff81111561413257614131613a88565b5b61413e8c828d01614085565b97505060608a013567ffffffffffffffff81111561415f5761415e613a88565b5b61416b8c828d01614085565b96505060808a013567ffffffffffffffff81111561418c5761418b613a88565b5b6141988c828d01614085565b95505060a08a013567ffffffffffffffff8111156141b9576141b8613a88565b5b6141c58c828d01614085565b94505060c08a013567ffffffffffffffff8111156141e6576141e5613a88565b5b6141f28c828d01614085565b93505060e08a013567ffffffffffffffff81111561421357614212613a88565b5b61421f8c828d01614085565b9250506101008a013567ffffffffffffffff81111561424157614240613a88565b5b61424d8c828d01614085565b9150509295985092959850929598565b600081519050919050565b600082825260208201905092915050565b6000819050602082019050919050565b6000610180830160008301516142a26000860182613b4e565b5060208301516142b56020860182613dac565b5060408301516142c86040860182613b4e565b5060608301516142db6060860182613b4e565b50608083015184820360808601526142f38282613bb4565b91505060a083015184820360a086015261430d8282613bb4565b91505060c083015184820360c08601526143278282613bb4565b91505060e083015184820360e08601526143418282613bb4565b91505061010083015184820361010086015261435d8282613bb4565b9150506101208301518482036101208601526143798282613bb4565b9150506101408301518482036101408601526143958282613bb4565b9150506101608301518482036101608601526143b18282613bb4565b9150508091505092915050565b60006143ca8383614289565b905092915050565b6000602082019050919050565b60006143ea8261425d565b6143f48185614268565b93508360208202850161440685614279565b8060005b85811015614442578484038952815161442385826143be565b945061442e836143d2565b925060208a0199505060018101905061440a565b50829750879550505050505092915050565b6000602082019050818103600083015261446e81846143df565b905092915050565b60006101808301600083015161448f6000860182613b4e565b5060208301516144a26020860182613dac565b5060408301516144b56040860182613b4e565b5060608301516144c86060860182613b4e565b50608083015184820360808601526144e08282613bb4565b91505060a083015184820360a08601526144fa8282613bb4565b91505060c083015184820360c08601526145148282613bb4565b91505060e083015184820360e086015261452e8282613bb4565b91505061010083015184820361010086015261454a8282613bb4565b9150506101208301518482036101208601526145668282613bb4565b9150506101408301518482036101408601526145828282613bb4565b91505061016083015184820361016086015261459e8282613bb4565b9150508091505092915050565b600060208201905081810360008301526145c58184614476565b905092915050565b600081519050919050565b600082825260208201905092915050565b6000819050602082019050919050565b60006146058383613b4e565b60208301905092915050565b6000602082019050919050565b6000614629826145cd565b61463381856145d8565b935061463e836145e9565b8060005b8381101561466f57815161465688826145f9565b975061466183614611565b925050600181019050614642565b5085935050505092915050565b600081519050919050565b600082825260208201905092915050565b6000819050602082019050919050565b60006146b48383613bb4565b905092915050565b6000602082019050919050565b60006146d48261467c565b6146de8185614687565b9350836020820285016146f085614698565b8060005b8581101561472c578484038952815161470d85826146a8565b9450614718836146bc565b925060208a019950506001810190506146f4565b50829750879550505050505092915050565b600060c0820190508181036000830152614758818961461e565b9050818103602083015261476c818861461e565b9050818103604083015261478081876146c9565b9050818103606083015261479481866146c9565b905081810360808301526147a881856146c9565b905081810360a08301526147bc81846146c9565b9050979650505050505050565b6000610140830160008301516147e26000860182613b4e565b5060208301516147f56020860182613dac565b506040830151848203604086015261480d8282613bb4565b915050606083015184820360608601526148278282613bb4565b915050608083015184820360808601526148418282613bb4565b91505060a083015184820360a086015261485b8282613bb4565b91505060c083015184820360c08601526148758282613bb4565b91505060e083015184820360e086015261488f8282613bb4565b9150506101008301518482036101008601526148ab8282613bb4565b9150506101208301518482036101208601526148c78282613bb4565b9150508091505092915050565b600060208201905081810360008301526148ee81846147c9565b905092915050565b6148ff81613b44565b811461490a57600080fd5b50565b60008135905061491c816148f6565b92915050565b60008060008060008060c0878903121561493f5761493e613a83565b5b600061494d89828a01613ad6565b965050602061495e89828a0161490d565b955050604087013567ffffffffffffffff81111561497f5761497e613a88565b5b61498b89828a01614085565b945050606087013567ffffffffffffffff8111156149ac576149ab613a88565b5b6149b889828a01614085565b935050608087013567ffffffffffffffff8111156149d9576149d8613a88565b5b6149e589828a01614085565b92505060a087013567ffffffffffffffff811115614a0657614a05613a88565b5b614a1289828a01614085565b9150509295509295509295565b60008060408385031215614a3657614a35613a83565b5b6000614a4485828601613ad6565b9250506020614a558582860161490d565b9150509250929050565b7f4e487b7100000000000000000000000000000000000000000000000000000000600052602260045260246000fd5b60006002820490506001821680614aa657607f821691505b602082108103614ab957614ab8614a5f565b5b50919050565b7f4e487b7100000000000000000000000000000000000000000000000000000000600052603260045260246000fd5b7f4e487b7100000000000000000000000000000000000000000000000000000000600052601160045260246000fd5b6000614b2882613b44565b91507fffffffffffffffffffffffffffffffffffffffffffffffffffffffffffffffff8203614b5a57614b59614aee565b5b600182019050919050565b600082825260208201905092915050565b7f5075626c697368657220646f6573206e6f742065786973740000000000000000600082015250565b6000614bac601883614b65565b9150614bb782614b76565b602082019050919050565b60006020820190508181036000830152614bdb81614b9f565b9050919050565b6000614bed82613b44565b9150614bf883613b44565b9250828201905080821115614c1057614c0f614aee565b5b92915050565b7f4164766572746973657220616c72656164792065786973747300000000000000600082015250565b6000614c4c601983614b65565b9150614c5782614c16565b602082019050919050565b60006020820190508181036000830152614c7b81614c3f565b9050919050565b60008190508160005260206000209050919050565b60006020601f8301049050919050565b600082821b905092915050565b600060088302614ce47fffffffffffffffffffffffffffffffffffffffffffffffffffffffffffffffff82614ca7565b614cee8683614ca7565b95508019841693508086168417925050509392505050565b6000819050919050565b6000614d2b614d26614d2184613b44565b614d06565b613b44565b9050919050565b6000819050919050565b614d4583614d10565b614d59614d5182614d32565b848454614cb4565b825550505050565b600090565b614d6e614d61565b614d79818484614d3c565b505050565b5b81811015614d9d57614d92600082614d66565b600181019050614d7f565b5050565b601f821115614de257614db381614c82565b614dbc84614c97565b81016020851015614dcb578190505b614ddf614dd785614c97565b830182614d7e565b50505b505050565b600082821c905092915050565b6000614e0560001984600802614de7565b1980831691505092915050565b6000614e1e8383614df4565b9150826002028217905092915050565b614e3782613b5d565b67ffffffffffffffff811115614e5057614e4f613f88565b5b614e5a8254614a8e565b614e65828285614da1565b600060209050601f831160018114614e985760008415614e86578287015190505b614e908582614e12565b865550614ef8565b601f198416614ea686614c82565b60005b82811015614ece57848901518255600182019150602085019450602081019050614ea9565b86831015614eeb5784890151614ee7601f891682614df4565b8355505b6001600288020188555050505b505050505050565b6000614f0b82613b44565b9150614f1683613b44565b9250828203905081811115614f2e57614f2d614aee565b5b92915050565b7f5075626c697368657220616c7265616479206578697374730000000000000000600082015250565b6000614f6a601883614b65565b9150614f7582614f34565b602082019050919050565b60006020820190508181036000830152614f9981614f5d565b9050919050565b7f4164766572746973657220646f6573206e6f7420657869737400000000000000600082015250565b6000614fd6601983614b65565b9150614fe182614fa0565b602082019050919050565b6000602082019050818103600083015261500581614fc9565b9050919050565b7f42616c616e6365206f662061647665727469736572206973206e6f7420656e6f60008201527f7567680000000000000000000000000000000000000000000000000000000000602082015250565b6000615068602383614b65565b91506150738261500c565b604082019050919050565b600060208201905081810360008301526150978161505b565b9050919050565b7f4f6e6c7920616476657274697365722063616e206465706f7369742066756e6460008201527f7300000000000000000000000000000000000000000000000000000000000000602082015250565b60006150fa602183614b65565b91506151058261509e565b604082019050919050565b60006020820190508181036000830152615129816150ed565b9050919050565b7f43616d706169676e2062616c616e6365206973207a65726f0000000000000000600082015250565b6000615166601883614b65565b915061517182615130565b602082019050919050565b6000602082019050818103600083015261519581615159565b9050919050565b7f416d6d6f756e74206973206d6f7265207468616e2062616c616e636500000000600082015250565b60006151d2601c83614b65565b91506151dd8261519c565b602082019050919050565b60006020820190508181036000830152615201816151c5565b905091905056fea26469706673582212206cb98901dcec3e781caf090e775d167dc90431ffa4a92499e7765bb59626db7e64736f6c63430008120033",
  "linkReferences": {},
  "deployedLinkReferences": {}
}