{
  "_format": "hh-sol-artifact-1",
  "contractName": "Swirl",
  "sourceName": "contracts/Swirl.sol",
  "abi": [
    {
      "inputs": [
        {
          "internalType": "address",
          "name": "_wallet",
          "type": "address"
        },
        {
          "internalType": "string",
          "name": "_orgUsername",
          "type": "string"
        },
        {
          "internalType": "string",
          "name": "_orgname",
          "type": "string"
        },
        {
          "internalType": "string",
          "name": "_orgLogo",
          "type": "string"
        },
        {
          "internalType": "string",
          "name": "_orgdiscription",
          "type": "string"
        },
        {
          "internalType": "string",
          "name": "_orgOrigin",
          "type": "string"
        },
        {
          "internalType": "string",
          "name": "_empstrength",
          "type": "string"
        },
        {
          "internalType": "string",
          "name": "_orgFounder",
          "type": "string"
        },
        {
          "internalType": "string",
          "name": "_orgCatagory",
          "type": "string"
        }
      ],
      "name": "createAdvertiser",
      "outputs": [],
      "stateMutability": "nonpayable",
      "type": "function"
    },
    {
      "inputs": [
        {
          "internalType": "address",
          "name": "_advertiserAddress",
          "type": "address"
        },
        {
          "internalType": "uint256",
          "name": "_balance",
          "type": "uint256"
        },
        {
          "internalType": "string",
          "name": "_campaignName",
          "type": "string"
        },
        {
          "internalType": "string",
          "name": "_budget",
          "type": "string"
        },
        {
          "internalType": "string",
          "name": "_payclick",
          "type": "string"
        },
        {
          "internalType": "string",
          "name": "_stringCID",
          "type": "string"
        }
      ],
      "name": "createCampaign",
      "outputs": [],
      "stateMutability": "nonpayable",
      "type": "function"
    },
    {
      "inputs": [
        {
          "internalType": "address",
          "name": "_wallet",
          "type": "address"
        },
        {
          "internalType": "string",
          "name": "_orgUsername",
          "type": "string"
        },
        {
          "internalType": "string",
          "name": "_orgname",
          "type": "string"
        },
        {
          "internalType": "string",
          "name": "_orgLogo",
          "type": "string"
        },
        {
          "internalType": "string",
          "name": "_orgdiscription",
          "type": "string"
        },
        {
          "internalType": "string",
          "name": "_orgOrigin",
          "type": "string"
        },
        {
          "internalType": "string",
          "name": "_empstrength",
          "type": "string"
        },
        {
          "internalType": "string",
          "name": "_orgFounder",
          "type": "string"
        },
        {
          "internalType": "string",
          "name": "_orgCatagory",
          "type": "string"
        }
      ],
      "name": "createPublisher",
      "outputs": [],
      "stateMutability": "nonpayable",
      "type": "function"
    },
    {
      "inputs": [
        {
          "internalType": "address",
          "name": "_advertiserAddress",
          "type": "address"
        }
      ],
      "name": "deposit",
      "outputs": [],
      "stateMutability": "payable",
      "type": "function"
    },
    {
      "inputs": [
        {
          "internalType": "address",
          "name": "_wallet",
          "type": "address"
        }
      ],
      "name": "getAdvertiser",
      "outputs": [
        {
          "internalType": "uint256",
          "name": "",
          "type": "uint256"
        },
        {
          "internalType": "address",
          "name": "",
          "type": "address"
        },
        {
          "internalType": "uint256",
          "name": "",
          "type": "uint256"
        },
        {
          "internalType": "string",
          "name": "",
          "type": "string"
        },
        {
          "internalType": "string",
          "name": "",
          "type": "string"
        },
        {
          "internalType": "string",
          "name": "",
          "type": "string"
        },
        {
          "internalType": "string",
          "name": "",
          "type": "string"
        },
        {
          "internalType": "string",
          "name": "",
          "type": "string"
        },
        {
          "internalType": "string",
          "name": "",
          "type": "string"
        },
        {
          "internalType": "string",
          "name": "",
          "type": "string"
        },
        {
          "internalType": "string",
          "name": "",
          "type": "string"
        }
      ],
      "stateMutability": "view",
      "type": "function"
    },
    {
      "inputs": [],
      "name": "getAllAdvertisers",
      "outputs": [
        {
          "internalType": "uint256[]",
          "name": "ids",
          "type": "uint256[]"
        },
        {
          "internalType": "address[]",
          "name": "addresses",
          "type": "address[]"
        },
        {
          "internalType": "string[]",
          "name": "orgUsernames",
          "type": "string[]"
        },
        {
          "internalType": "string[]",
          "name": "orgnames",
          "type": "string[]"
        },
        {
          "internalType": "string[]",
          "name": "orgLogos",
          "type": "string[]"
        },
        {
          "internalType": "string[]",
          "name": "orgdiscriptions",
          "type": "string[]"
        },
        {
          "internalType": "string[]",
          "name": "orgOrigins",
          "type": "string[]"
        },
        {
          "internalType": "string[]",
          "name": "empstrengths",
          "type": "string[]"
        },
        {
          "internalType": "string[]",
          "name": "orgFounders",
          "type": "string[]"
        },
        {
          "internalType": "string[]",
          "name": "orgCatagories",
          "type": "string[]"
        }
      ],
      "stateMutability": "view",
      "type": "function"
    },
    {
      "inputs": [],
      "name": "getAllCampaigns",
      "outputs": [
        {
          "internalType": "uint256[]",
          "name": "ids",
          "type": "uint256[]"
        },
        {
          "internalType": "address[]",
          "name": "advertiserIds",
          "type": "address[]"
        },
        {
          "internalType": "uint256[]",
          "name": "balances",
          "type": "uint256[]"
        },
        {
          "internalType": "string[]",
          "name": "campaignNames",
          "type": "string[]"
        },
        {
          "internalType": "string[]",
          "name": "budgets",
          "type": "string[]"
        },
        {
          "internalType": "string[]",
          "name": "payclicks",
          "type": "string[]"
        },
        {
          "internalType": "string[]",
          "name": "stringCIDs",
          "type": "string[]"
        }
      ],
      "stateMutability": "view",
      "type": "function"
    },
    {
      "inputs": [],
      "name": "getAllPublishers",
      "outputs": [
        {
          "internalType": "uint256[]",
          "name": "ids",
          "type": "uint256[]"
        },
        {
          "internalType": "address[]",
          "name": "addresses",
          "type": "address[]"
        },
        {
          "internalType": "string[]",
          "name": "orgUsernames",
          "type": "string[]"
        },
        {
          "internalType": "string[]",
          "name": "orgnames",
          "type": "string[]"
        },
        {
          "internalType": "string[]",
          "name": "orgLogos",
          "type": "string[]"
        },
        {
          "internalType": "string[]",
          "name": "orgdiscriptions",
          "type": "string[]"
        },
        {
          "internalType": "string[]",
          "name": "orgOrigins",
          "type": "string[]"
        },
        {
          "internalType": "string[]",
          "name": "empstrengths",
          "type": "string[]"
        },
        {
          "internalType": "string[]",
          "name": "orgFounders",
          "type": "string[]"
        },
        {
          "internalType": "string[]",
          "name": "orgCatagories",
          "type": "string[]"
        }
      ],
      "stateMutability": "view",
      "type": "function"
    },
    {
      "inputs": [
        {
          "internalType": "address",
          "name": "_advertiserAddress",
          "type": "address"
        }
      ],
      "name": "getCampaign",
      "outputs": [
        {
          "internalType": "uint256[]",
          "name": "ids",
          "type": "uint256[]"
        },
        {
          "internalType": "uint256[]",
          "name": "balances",
          "type": "uint256[]"
        },
        {
          "internalType": "string[]",
          "name": "campaignNames",
          "type": "string[]"
        },
        {
          "internalType": "string[]",
          "name": "budgets",
          "type": "string[]"
        },
        {
          "internalType": "string[]",
          "name": "payclicks",
          "type": "string[]"
        },
        {
          "internalType": "string[]",
          "name": "stringCIDs",
          "type": "string[]"
        }
      ],
      "stateMutability": "view",
      "type": "function"
    },
    {
      "inputs": [
        {
          "internalType": "address",
          "name": "_wallet",
          "type": "address"
        }
      ],
      "name": "getPublisher",
      "outputs": [
        {
          "internalType": "uint256",
          "name": "",
          "type": "uint256"
        },
        {
          "internalType": "address",
          "name": "",
          "type": "address"
        },
        {
          "internalType": "string",
          "name": "",
          "type": "string"
        },
        {
          "internalType": "string",
          "name": "",
          "type": "string"
        },
        {
          "internalType": "string",
          "name": "",
          "type": "string"
        },
        {
          "internalType": "string",
          "name": "",
          "type": "string"
        },
        {
          "internalType": "string",
          "name": "",
          "type": "string"
        },
        {
          "internalType": "string",
          "name": "",
          "type": "string"
        },
        {
          "internalType": "string",
          "name": "",
          "type": "string"
        },
        {
          "internalType": "string",
          "name": "",
          "type": "string"
        }
      ],
      "stateMutability": "view",
      "type": "function"
    },
    {
      "inputs": [
        {
          "internalType": "uint256",
          "name": "_publisherId",
          "type": "uint256"
        },
        {
          "internalType": "uint256",
          "name": "_campaignId",
          "type": "uint256"
        }
      ],
      "name": "withdraw",
      "outputs": [],
      "stateMutability": "nonpayable",
      "type": "function"
    }
  ],
  "bytecode": "0x608060405234801561001057600080fd5b50614fb2806100206000396000f3fe60806040526004361061009c5760003560e01c8063731301cf11610064578063731301cf146101a257806386cdf604146101e45780638b043e08146102155780639cc52aee1461025b578063c74e775a14610284578063f340fa01146102ad5761009c565b8063441a3e70146100a15780634c96f281146100ca57806365a2db1c146100fe5780636d321f7a1461012757806372536e901461015b575b600080fd5b3480156100ad57600080fd5b506100c860048036038101906100c39190613c69565b6102c9565b005b3480156100d657600080fd5b506100df61053b565b6040516100f59a99989796959493929190613fa9565b60405180910390f35b34801561010a57600080fd5b50610125600480360381019061012091906141ec565b610fbe565b005b34801561013357600080fd5b5061013c6111ba565b6040516101529a99989796959493929190613fa9565b60405180910390f35b34801561016757600080fd5b50610182600480360381019061017d9190614396565b611c33565b6040516101999b9a9998979695949392919061442b565b60405180910390f35b3480156101ae57600080fd5b506101c960048036038101906101c49190614396565b612253565b6040516101db9695949392919061450e565b60405180910390f35b3480156101f057600080fd5b506101f9612892565b60405161020c9796959493929190614599565b60405180910390f35b34801561022157600080fd5b5061023c60048036038101906102379190614396565b612f46565b6040516102529a99989796959493929190614639565b60405180910390f35b34801561026757600080fd5b50610282600480360381019061027d91906141ec565b613552565b005b34801561029057600080fd5b506102ab60048036038101906102a6919061470d565b61373d565b005b6102c760048036038101906102c29190614396565b613931565b005b60055482111561030e576040517f08c379a000000000000000000000000000000000000000000000000000000000815260040161030590614856565b60405180910390fd5b600454811115610353576040517f08c379a000000000000000000000000000000000000000000000000000000000815260040161034a906148c2565b60405180910390fd5b3373ffffffffffffffffffffffffffffffffffffffff166002600084815260200190815260200160002060010160009054906101000a900473ffffffffffffffffffffffffffffffffffffffff1673ffffffffffffffffffffffffffffffffffffffff16146103f7576040517f08c379a00000000000000000000000000000000000000000000000000000000081526004016103ee9061492e565b60405180910390fd5b60006001600083815260200190815260200160002060020154905060008111610455576040517f08c379a000000000000000000000000000000000000000000000000000000000815260040161044c9061499a565b60405180910390fd5b60006001600084815260200190815260200160002060020181905550806000806001600086815260200190815260200160002060010154815260200190815260200160002060020160008282546104ac91906149e9565b9250508190555060006002600085815260200190815260200160002060010160009054906101000a900473ffffffffffffffffffffffffffffffffffffffff1690508073ffffffffffffffffffffffffffffffffffffffff166108fc839081150290604051600060405180830381858888f19350505050158015610534573d6000803e3d6000fd5b5050505050565b60608060608060608060608060608060055467ffffffffffffffff811115610566576105656140c1565b5b6040519080825280602002602001820160405280156105945781602001602082028036833780820191505090505b50995060055467ffffffffffffffff8111156105b3576105b26140c1565b5b6040519080825280602002602001820160405280156105e15781602001602082028036833780820191505090505b50985060055467ffffffffffffffff811115610600576105ff6140c1565b5b60405190808252806020026020018201604052801561063357816020015b606081526020019060019003908161061e5790505b50975060055467ffffffffffffffff811115610652576106516140c1565b5b60405190808252806020026020018201604052801561068557816020015b60608152602001906001900390816106705790505b50965060055467ffffffffffffffff8111156106a4576106a36140c1565b5b6040519080825280602002602001820160405280156106d757816020015b60608152602001906001900390816106c25790505b50955060055467ffffffffffffffff8111156106f6576106f56140c1565b5b60405190808252806020026020018201604052801561072957816020015b60608152602001906001900390816107145790505b50945060055467ffffffffffffffff811115610748576107476140c1565b5b60405190808252806020026020018201604052801561077b57816020015b60608152602001906001900390816107665790505b50935060055467ffffffffffffffff81111561079a576107996140c1565b5b6040519080825280602002602001820160405280156107cd57816020015b60608152602001906001900390816107b85790505b50925060055467ffffffffffffffff8111156107ec576107eb6140c1565b5b60405190808252806020026020018201604052801561081f57816020015b606081526020019060019003908161080a5790505b50915060055467ffffffffffffffff81111561083e5761083d6140c1565b5b60405190808252806020026020018201604052801561087157816020015b606081526020019060019003908161085c5790505b5090506000600190505b6005548111610fb15760026000828152602001908152602001600020600001548b6001836108a991906149e9565b815181106108ba576108b9614a1d565b5b6020026020010181815250506002600082815260200190815260200160002060010160009054906101000a900473ffffffffffffffffffffffffffffffffffffffff168a60018361090b91906149e9565b8151811061091c5761091b614a1d565b5b602002602001019073ffffffffffffffffffffffffffffffffffffffff16908173ffffffffffffffffffffffffffffffffffffffff168152505060026000828152602001908152602001600020600201805461097790614a7b565b80601f01602080910402602001604051908101604052809291908181526020018280546109a390614a7b565b80156109f05780601f106109c5576101008083540402835291602001916109f0565b820191906000526020600020905b8154815290600101906020018083116109d357829003601f168201915b505050505089600183610a0391906149e9565b81518110610a1457610a13614a1d565b5b6020026020010181905250600260008281526020019081526020016000206003018054610a4090614a7b565b80601f0160208091040260200160405190810160405280929190818152602001828054610a6c90614a7b565b8015610ab95780601f10610a8e57610100808354040283529160200191610ab9565b820191906000526020600020905b815481529060010190602001808311610a9c57829003601f168201915b505050505088600183610acc91906149e9565b81518110610add57610adc614a1d565b5b6020026020010181905250600260008281526020019081526020016000206004018054610b0990614a7b565b80601f0160208091040260200160405190810160405280929190818152602001828054610b3590614a7b565b8015610b825780601f10610b5757610100808354040283529160200191610b82565b820191906000526020600020905b815481529060010190602001808311610b6557829003601f168201915b505050505087600183610b9591906149e9565b81518110610ba657610ba5614a1d565b5b6020026020010181905250600260008281526020019081526020016000206005018054610bd290614a7b565b80601f0160208091040260200160405190810160405280929190818152602001828054610bfe90614a7b565b8015610c4b5780601f10610c2057610100808354040283529160200191610c4b565b820191906000526020600020905b815481529060010190602001808311610c2e57829003601f168201915b505050505086600183610c5e91906149e9565b81518110610c6f57610c6e614a1d565b5b6020026020010181905250600260008281526020019081526020016000206006018054610c9b90614a7b565b80601f0160208091040260200160405190810160405280929190818152602001828054610cc790614a7b565b8015610d145780601f10610ce957610100808354040283529160200191610d14565b820191906000526020600020905b815481529060010190602001808311610cf757829003601f168201915b505050505085600183610d2791906149e9565b81518110610d3857610d37614a1d565b5b6020026020010181905250600260008281526020019081526020016000206007018054610d6490614a7b565b80601f0160208091040260200160405190810160405280929190818152602001828054610d9090614a7b565b8015610ddd5780601f10610db257610100808354040283529160200191610ddd565b820191906000526020600020905b815481529060010190602001808311610dc057829003601f168201915b505050505084600183610df091906149e9565b81518110610e0157610e00614a1d565b5b6020026020010181905250600260008281526020019081526020016000206008018054610e2d90614a7b565b80601f0160208091040260200160405190810160405280929190818152602001828054610e5990614a7b565b8015610ea65780601f10610e7b57610100808354040283529160200191610ea6565b820191906000526020600020905b815481529060010190602001808311610e8957829003601f168201915b505050505083600183610eb991906149e9565b81518110610eca57610ec9614a1d565b5b6020026020010181905250600260008281526020019081526020016000206009018054610ef690614a7b565b80601f0160208091040260200160405190810160405280929190818152602001828054610f2290614a7b565b8015610f6f5780601f10610f4457610100808354040283529160200191610f6f565b820191906000526020600020905b815481529060010190602001808311610f5257829003601f168201915b505050505082600183610f8291906149e9565b81518110610f9357610f92614a1d565b5b60200260200101819052508080610fa990614aac565b91505061087b565b5090919293949596979899565b60001515610fcb8a613adc565b15151461100d576040517f08c379a000000000000000000000000000000000000000000000000000000000815260040161100490614b40565b60405180910390fd5b6003600081548092919061102090614aac565b919050555060405180610160016040528060035481526020018a73ffffffffffffffffffffffffffffffffffffffff168152602001600081526020018981526020018881526020018781526020018681526020018581526020018481526020018381526020018281525060008060035481526020019081526020016000206000820151816000015560208201518160010160006101000a81548173ffffffffffffffffffffffffffffffffffffffff021916908373ffffffffffffffffffffffffffffffffffffffff16021790555060408201518160020155606082015181600301908161110e9190614d0c565b5060808201518160040190816111249190614d0c565b5060a082015181600501908161113a9190614d0c565b5060c08201518160060190816111509190614d0c565b5060e08201518160070190816111669190614d0c565b5061010082015181600801908161117d9190614d0c565b506101208201518160090190816111949190614d0c565b5061014082015181600a0190816111ab9190614d0c565b50905050505050505050505050565b60608060608060608060608060608060035467ffffffffffffffff8111156111e5576111e46140c1565b5b6040519080825280602002602001820160405280156112135781602001602082028036833780820191505090505b50995060035467ffffffffffffffff811115611232576112316140c1565b5b6040519080825280602002602001820160405280156112605781602001602082028036833780820191505090505b50985060035467ffffffffffffffff81111561127f5761127e6140c1565b5b6040519080825280602002602001820160405280156112b257816020015b606081526020019060019003908161129d5790505b50975060035467ffffffffffffffff8111156112d1576112d06140c1565b5b60405190808252806020026020018201604052801561130457816020015b60608152602001906001900390816112ef5790505b50965060035467ffffffffffffffff811115611323576113226140c1565b5b60405190808252806020026020018201604052801561135657816020015b60608152602001906001900390816113415790505b50955060035467ffffffffffffffff811115611375576113746140c1565b5b6040519080825280602002602001820160405280156113a857816020015b60608152602001906001900390816113935790505b50945060035467ffffffffffffffff8111156113c7576113c66140c1565b5b6040519080825280602002602001820160405280156113fa57816020015b60608152602001906001900390816113e55790505b50935060035467ffffffffffffffff811115611419576114186140c1565b5b60405190808252806020026020018201604052801561144c57816020015b60608152602001906001900390816114375790505b50925060035467ffffffffffffffff81111561146b5761146a6140c1565b5b60405190808252806020026020018201604052801561149e57816020015b60608152602001906001900390816114895790505b50915060035467ffffffffffffffff8111156114bd576114bc6140c1565b5b6040519080825280602002602001820160405280156114f057816020015b60608152602001906001900390816114db5790505b5090506000600190505b6003548111611c2657600080828152602001908152602001600020600001548b60018361152791906149e9565b8151811061153857611537614a1d565b5b60200260200101818152505060008082815260200190815260200160002060010160009054906101000a900473ffffffffffffffffffffffffffffffffffffffff168a60018361158891906149e9565b8151811061159957611598614a1d565b5b602002602001019073ffffffffffffffffffffffffffffffffffffffff16908173ffffffffffffffffffffffffffffffffffffffff168152505060008082815260200190815260200160002060030180546115f390614a7b565b80601f016020809104026020016040519081016040528092919081815260200182805461161f90614a7b565b801561166c5780601f106116415761010080835404028352916020019161166c565b820191906000526020600020905b81548152906001019060200180831161164f57829003601f168201915b50505050508960018361167f91906149e9565b815181106116905761168f614a1d565b5b602002602001018190525060008082815260200190815260200160002060040180546116bb90614a7b565b80601f01602080910402602001604051908101604052809291908181526020018280546116e790614a7b565b80156117345780601f1061170957610100808354040283529160200191611734565b820191906000526020600020905b81548152906001019060200180831161171757829003601f168201915b50505050508860018361174791906149e9565b8151811061175857611757614a1d565b5b6020026020010181905250600080828152602001908152602001600020600501805461178390614a7b565b80601f01602080910402602001604051908101604052809291908181526020018280546117af90614a7b565b80156117fc5780601f106117d1576101008083540402835291602001916117fc565b820191906000526020600020905b8154815290600101906020018083116117df57829003601f168201915b50505050508760018361180f91906149e9565b815181106118205761181f614a1d565b5b6020026020010181905250600080828152602001908152602001600020600601805461184b90614a7b565b80601f016020809104026020016040519081016040528092919081815260200182805461187790614a7b565b80156118c45780601f10611899576101008083540402835291602001916118c4565b820191906000526020600020905b8154815290600101906020018083116118a757829003601f168201915b5050505050866001836118d791906149e9565b815181106118e8576118e7614a1d565b5b6020026020010181905250600080828152602001908152602001600020600701805461191390614a7b565b80601f016020809104026020016040519081016040528092919081815260200182805461193f90614a7b565b801561198c5780601f106119615761010080835404028352916020019161198c565b820191906000526020600020905b81548152906001019060200180831161196f57829003601f168201915b50505050508560018361199f91906149e9565b815181106119b0576119af614a1d565b5b602002602001018190525060008082815260200190815260200160002060080180546119db90614a7b565b80601f0160208091040260200160405190810160405280929190818152602001828054611a0790614a7b565b8015611a545780601f10611a2957610100808354040283529160200191611a54565b820191906000526020600020905b815481529060010190602001808311611a3757829003601f168201915b505050505084600183611a6791906149e9565b81518110611a7857611a77614a1d565b5b60200260200101819052506000808281526020019081526020016000206009018054611aa390614a7b565b80601f0160208091040260200160405190810160405280929190818152602001828054611acf90614a7b565b8015611b1c5780601f10611af157610100808354040283529160200191611b1c565b820191906000526020600020905b815481529060010190602001808311611aff57829003601f168201915b505050505083600183611b2f91906149e9565b81518110611b4057611b3f614a1d565b5b6020026020010181905250600080828152602001908152602001600020600a018054611b6b90614a7b565b80601f0160208091040260200160405190810160405280929190818152602001828054611b9790614a7b565b8015611be45780601f10611bb957610100808354040283529160200191611be4565b820191906000526020600020905b815481529060010190602001808311611bc757829003601f168201915b505050505082600183611bf791906149e9565b81518110611c0857611c07614a1d565b5b60200260200101819052508080611c1e90614aac565b9150506114fa565b5090919293949596979899565b60008060006060806060806060806060806000600190505b6003548111612242578c73ffffffffffffffffffffffffffffffffffffffff1660008083815260200190815260200160002060010160009054906101000a900473ffffffffffffffffffffffffffffffffffffffff1673ffffffffffffffffffffffffffffffffffffffff160361222f57600080600083815260200190815260200160002060405180610160016040529081600082015481526020016001820160009054906101000a900473ffffffffffffffffffffffffffffffffffffffff1673ffffffffffffffffffffffffffffffffffffffff1673ffffffffffffffffffffffffffffffffffffffff16815260200160028201548152602001600382018054611d5690614a7b565b80601f0160208091040260200160405190810160405280929190818152602001828054611d8290614a7b565b8015611dcf5780601f10611da457610100808354040283529160200191611dcf565b820191906000526020600020905b815481529060010190602001808311611db257829003601f168201915b50505050508152602001600482018054611de890614a7b565b80601f0160208091040260200160405190810160405280929190818152602001828054611e1490614a7b565b8015611e615780601f10611e3657610100808354040283529160200191611e61565b820191906000526020600020905b815481529060010190602001808311611e4457829003601f168201915b50505050508152602001600582018054611e7a90614a7b565b80601f0160208091040260200160405190810160405280929190818152602001828054611ea690614a7b565b8015611ef35780601f10611ec857610100808354040283529160200191611ef3565b820191906000526020600020905b815481529060010190602001808311611ed657829003601f168201915b50505050508152602001600682018054611f0c90614a7b565b80601f0160208091040260200160405190810160405280929190818152602001828054611f3890614a7b565b8015611f855780601f10611f5a57610100808354040283529160200191611f85565b820191906000526020600020905b815481529060010190602001808311611f6857829003601f168201915b50505050508152602001600782018054611f9e90614a7b565b80601f0160208091040260200160405190810160405280929190818152602001828054611fca90614a7b565b80156120175780601f10611fec57610100808354040283529160200191612017565b820191906000526020600020905b815481529060010190602001808311611ffa57829003601f168201915b5050505050815260200160088201805461203090614a7b565b80601f016020809104026020016040519081016040528092919081815260200182805461205c90614a7b565b80156120a95780601f1061207e576101008083540402835291602001916120a9565b820191906000526020600020905b81548152906001019060200180831161208c57829003601f168201915b505050505081526020016009820180546120c290614a7b565b80601f01602080910402602001604051908101604052809291908181526020018280546120ee90614a7b565b801561213b5780601f106121105761010080835404028352916020019161213b565b820191906000526020600020905b81548152906001019060200180831161211e57829003601f168201915b50505050508152602001600a8201805461215490614a7b565b80601f016020809104026020016040519081016040528092919081815260200182805461218090614a7b565b80156121cd5780601f106121a2576101008083540402835291602001916121cd565b820191906000526020600020905b8154815290600101906020018083116121b057829003601f168201915b5050505050815250509050806000015181602001518260400151836060015184608001518560a001518660c001518760e001518861010001518961012001518a61014001519c509c509c509c509c509c509c509c509c509c509c505050612244565b808061223a90614aac565b915050611c4b565b505b91939597999b90929496989a50565b60608060608060608060045467ffffffffffffffff811115612278576122776140c1565b5b6040519080825280602002602001820160405280156122a65781602001602082028036833780820191505090505b50955060045467ffffffffffffffff8111156122c5576122c46140c1565b5b6040519080825280602002602001820160405280156122f35781602001602082028036833780820191505090505b50945060045467ffffffffffffffff811115612312576123116140c1565b5b60405190808252806020026020018201604052801561234557816020015b60608152602001906001900390816123305790505b50935060045467ffffffffffffffff811115612364576123636140c1565b5b60405190808252806020026020018201604052801561239757816020015b60608152602001906001900390816123825790505b50925060045467ffffffffffffffff8111156123b6576123b56140c1565b5b6040519080825280602002602001820160405280156123e957816020015b60608152602001906001900390816123d45790505b50915060045467ffffffffffffffff811115612408576124076140c1565b5b60405190808252806020026020018201604052801561243b57816020015b60608152602001906001900390816124265790505b5090506000600190505b6004548111612888578773ffffffffffffffffffffffffffffffffffffffff166000806001600085815260200190815260200160002060010154815260200190815260200160002060010160009054906101000a900473ffffffffffffffffffffffffffffffffffffffff1673ffffffffffffffffffffffffffffffffffffffff1603612875576001600082815260200190815260200160002060000154876001836124f191906149e9565b8151811061250257612501614a1d565b5b60200260200101818152505060016000828152602001908152602001600020600201548660018361253391906149e9565b8151811061254457612543614a1d565b5b60200260200101818152505060016000828152602001908152602001600020600301805461257190614a7b565b80601f016020809104026020016040519081016040528092919081815260200182805461259d90614a7b565b80156125ea5780601f106125bf576101008083540402835291602001916125ea565b820191906000526020600020905b8154815290600101906020018083116125cd57829003601f168201915b5050505050856001836125fd91906149e9565b8151811061260e5761260d614a1d565b5b602002602001018190525060016000828152602001908152602001600020600401805461263a90614a7b565b80601f016020809104026020016040519081016040528092919081815260200182805461266690614a7b565b80156126b35780601f10612688576101008083540402835291602001916126b3565b820191906000526020600020905b81548152906001019060200180831161269657829003601f168201915b5050505050846001836126c691906149e9565b815181106126d7576126d6614a1d565b5b602002602001018190525060016000828152602001908152602001600020600501805461270390614a7b565b80601f016020809104026020016040519081016040528092919081815260200182805461272f90614a7b565b801561277c5780601f106127515761010080835404028352916020019161277c565b820191906000526020600020905b81548152906001019060200180831161275f57829003601f168201915b50505050508360018361278f91906149e9565b815181106127a05761279f614a1d565b5b60200260200101819052506001600082815260200190815260200160002060060180546127cc90614a7b565b80601f01602080910402602001604051908101604052809291908181526020018280546127f890614a7b565b80156128455780601f1061281a57610100808354040283529160200191612845565b820191906000526020600020905b81548152906001019060200180831161282857829003601f168201915b50505050508260018361285891906149e9565b8151811061286957612868614a1d565b5b60200260200101819052505b808061288090614aac565b915050612445565b5091939550919395565b606080606080606080606060045467ffffffffffffffff8111156128b9576128b86140c1565b5b6040519080825280602002602001820160405280156128e75781602001602082028036833780820191505090505b50965060045467ffffffffffffffff811115612906576129056140c1565b5b6040519080825280602002602001820160405280156129345781602001602082028036833780820191505090505b50955060045467ffffffffffffffff811115612953576129526140c1565b5b6040519080825280602002602001820160405280156129815781602001602082028036833780820191505090505b50945060045467ffffffffffffffff8111156129a05761299f6140c1565b5b6040519080825280602002602001820160405280156129d357816020015b60608152602001906001900390816129be5790505b50935060045467ffffffffffffffff8111156129f2576129f16140c1565b5b604051908082528060200260200182016040528015612a2557816020015b6060815260200190600190039081612a105790505b50925060045467ffffffffffffffff811115612a4457612a436140c1565b5b604051908082528060200260200182016040528015612a7757816020015b6060815260200190600190039081612a625790505b50915060045467ffffffffffffffff811115612a9657612a956140c1565b5b604051908082528060200260200182016040528015612ac957816020015b6060815260200190600190039081612ab45790505b5090506000600190505b6004548111612f3c57600160008281526020019081526020016000206000015488600183612b0191906149e9565b81518110612b1257612b11614a1d565b5b6020026020010181815250506000806001600084815260200190815260200160002060010154815260200190815260200160002060010160009054906101000a900473ffffffffffffffffffffffffffffffffffffffff1687600183612b7891906149e9565b81518110612b8957612b88614a1d565b5b602002602001019073ffffffffffffffffffffffffffffffffffffffff16908173ffffffffffffffffffffffffffffffffffffffff1681525050600160008281526020019081526020016000206002015486600183612be891906149e9565b81518110612bf957612bf8614a1d565b5b602002602001018181525050600160008281526020019081526020016000206003018054612c2690614a7b565b80601f0160208091040260200160405190810160405280929190818152602001828054612c5290614a7b565b8015612c9f5780601f10612c7457610100808354040283529160200191612c9f565b820191906000526020600020905b815481529060010190602001808311612c8257829003601f168201915b505050505085600183612cb291906149e9565b81518110612cc357612cc2614a1d565b5b6020026020010181905250600160008281526020019081526020016000206004018054612cef90614a7b565b80601f0160208091040260200160405190810160405280929190818152602001828054612d1b90614a7b565b8015612d685780601f10612d3d57610100808354040283529160200191612d68565b820191906000526020600020905b815481529060010190602001808311612d4b57829003601f168201915b505050505084600183612d7b91906149e9565b81518110612d8c57612d8b614a1d565b5b6020026020010181905250600160008281526020019081526020016000206005018054612db890614a7b565b80601f0160208091040260200160405190810160405280929190818152602001828054612de490614a7b565b8015612e315780601f10612e0657610100808354040283529160200191612e31565b820191906000526020600020905b815481529060010190602001808311612e1457829003601f168201915b505050505083600183612e4491906149e9565b81518110612e5557612e54614a1d565b5b6020026020010181905250600160008281526020019081526020016000206006018054612e8190614a7b565b80601f0160208091040260200160405190810160405280929190818152602001828054612ead90614a7b565b8015612efa5780601f10612ecf57610100808354040283529160200191612efa565b820191906000526020600020905b815481529060010190602001808311612edd57829003601f168201915b505050505082600183612f0d91906149e9565b81518110612f1e57612f1d614a1d565b5b60200260200101819052508080612f3490614aac565b915050612ad3565b5090919293949596565b6000806060806060806060806060806000600190505b6005548111613543578b73ffffffffffffffffffffffffffffffffffffffff166002600083815260200190815260200160002060010160009054906101000a900473ffffffffffffffffffffffffffffffffffffffff1673ffffffffffffffffffffffffffffffffffffffff16036135305760006002600083815260200190815260200160002060405180610140016040529081600082015481526020016001820160009054906101000a900473ffffffffffffffffffffffffffffffffffffffff1673ffffffffffffffffffffffffffffffffffffffff1673ffffffffffffffffffffffffffffffffffffffff16815260200160028201805461305f90614a7b565b80601f016020809104026020016040519081016040528092919081815260200182805461308b90614a7b565b80156130d85780601f106130ad576101008083540402835291602001916130d8565b820191906000526020600020905b8154815290600101906020018083116130bb57829003601f168201915b505050505081526020016003820180546130f190614a7b565b80601f016020809104026020016040519081016040528092919081815260200182805461311d90614a7b565b801561316a5780601f1061313f5761010080835404028352916020019161316a565b820191906000526020600020905b81548152906001019060200180831161314d57829003601f168201915b5050505050815260200160048201805461318390614a7b565b80601f01602080910402602001604051908101604052809291908181526020018280546131af90614a7b565b80156131fc5780601f106131d1576101008083540402835291602001916131fc565b820191906000526020600020905b8154815290600101906020018083116131df57829003601f168201915b5050505050815260200160058201805461321590614a7b565b80601f016020809104026020016040519081016040528092919081815260200182805461324190614a7b565b801561328e5780601f106132635761010080835404028352916020019161328e565b820191906000526020600020905b81548152906001019060200180831161327157829003601f168201915b505050505081526020016006820180546132a790614a7b565b80601f01602080910402602001604051908101604052809291908181526020018280546132d390614a7b565b80156133205780601f106132f557610100808354040283529160200191613320565b820191906000526020600020905b81548152906001019060200180831161330357829003601f168201915b5050505050815260200160078201805461333990614a7b565b80601f016020809104026020016040519081016040528092919081815260200182805461336590614a7b565b80156133b25780601f10613387576101008083540402835291602001916133b2565b820191906000526020600020905b81548152906001019060200180831161339557829003601f168201915b505050505081526020016008820180546133cb90614a7b565b80601f01602080910402602001604051908101604052809291908181526020018280546133f790614a7b565b80156134445780601f1061341957610100808354040283529160200191613444565b820191906000526020600020905b81548152906001019060200180831161342757829003601f168201915b5050505050815260200160098201805461345d90614a7b565b80601f016020809104026020016040519081016040528092919081815260200182805461348990614a7b565b80156134d65780601f106134ab576101008083540402835291602001916134d6565b820191906000526020600020905b8154815290600101906020018083116134b957829003601f168201915b5050505050815250509050806000015181602001518260400151836060015184608001518560a001518660c001518760e001518861010001518961012001519b509b509b509b509b509b509b509b509b509b505050613545565b808061353b90614aac565b915050612f5c565b505b9193959799509193959799565b6000151561355f8a613b7d565b1515146135a1576040517f08c379a000000000000000000000000000000000000000000000000000000000815260040161359890614e2a565b60405180910390fd5b600560008154809291906135b490614aac565b919050555060405180610140016040528060055481526020018a73ffffffffffffffffffffffffffffffffffffffff168152602001898152602001888152602001878152602001868152602001858152602001848152602001838152602001828152506002600060055481526020019081526020016000206000820151816000015560208201518160010160006101000a81548173ffffffffffffffffffffffffffffffffffffffff021916908373ffffffffffffffffffffffffffffffffffffffff16021790555060408201518160020190816136929190614d0c565b5060608201518160030190816136a89190614d0c565b5060808201518160040190816136be9190614d0c565b5060a08201518160050190816136d49190614d0c565b5060c08201518160060190816136ea9190614d0c565b5060e08201518160070190816137009190614d0c565b506101008201518160080190816137179190614d0c565b5061012082015181600901908161372e9190614d0c565b50905050505050505050505050565b6001151561374a87613adc565b15151461378c576040517f08c379a000000000000000000000000000000000000000000000000000000000815260040161378390614e96565b60405180910390fd5b600080600190505b6003548111613820578773ffffffffffffffffffffffffffffffffffffffff1660008083815260200190815260200160002060010160009054906101000a900473ffffffffffffffffffffffffffffffffffffffff1673ffffffffffffffffffffffffffffffffffffffff160361380d57809150613820565b808061381890614aac565b915050613794565b506004600081548092919061383490614aac565b91905055506040518060e0016040528060045481526020018281526020018781526020018681526020018581526020018481526020018381525060016000600454815260200190815260200160002060008201518160000155602082015181600101556040820151816002015560608201518160030190816138b69190614d0c565b5060808201518160040190816138cc9190614d0c565b5060a08201518160050190816138e29190614d0c565b5060c08201518160060190816138f89190614d0c565b509050508560008083815260200190815260200160002060020160008282546139219190614eb6565b9250508190555050505050505050565b600080600190505b60035481116139c5578273ffffffffffffffffffffffffffffffffffffffff1660008083815260200190815260200160002060010160009054906101000a900473ffffffffffffffffffffffffffffffffffffffff1673ffffffffffffffffffffffffffffffffffffffff16036139b2578091506139c5565b80806139bd90614aac565b915050613939565b5060008111613a09576040517f08c379a0000000000000000000000000000000000000000000000000000000008152600401613a0090614e96565b60405180910390fd5b3373ffffffffffffffffffffffffffffffffffffffff1660008083815260200190815260200160002060010160009054906101000a900473ffffffffffffffffffffffffffffffffffffffff1673ffffffffffffffffffffffffffffffffffffffff1614613aac576040517f08c379a0000000000000000000000000000000000000000000000000000000008152600401613aa390614f5c565b60405180910390fd5b346000808381526020019081526020016000206002016000828254613ad19190614eb6565b925050819055505050565b600080600190505b6003548111613b72578273ffffffffffffffffffffffffffffffffffffffff1660008083815260200190815260200160002060010160009054906101000a900473ffffffffffffffffffffffffffffffffffffffff1673ffffffffffffffffffffffffffffffffffffffff1603613b5f576001915050613b78565b8080613b6a90614aac565b915050613ae4565b50600090505b919050565b600080600190505b6005548111613c14578273ffffffffffffffffffffffffffffffffffffffff166002600083815260200190815260200160002060010160009054906101000a900473ffffffffffffffffffffffffffffffffffffffff1673ffffffffffffffffffffffffffffffffffffffff1603613c01576001915050613c1a565b8080613c0c90614aac565b915050613b85565b50600090505b919050565b6000604051905090565b600080fd5b600080fd5b6000819050919050565b613c4681613c33565b8114613c5157600080fd5b50565b600081359050613c6381613c3d565b92915050565b60008060408385031215613c8057613c7f613c29565b5b6000613c8e85828601613c54565b9250506020613c9f85828601613c54565b9150509250929050565b600081519050919050565b600082825260208201905092915050565b6000819050602082019050919050565b613cde81613c33565b82525050565b6000613cf08383613cd5565b60208301905092915050565b6000602082019050919050565b6000613d1482613ca9565b613d1e8185613cb4565b9350613d2983613cc5565b8060005b83811015613d5a578151613d418882613ce4565b9750613d4c83613cfc565b925050600181019050613d2d565b5085935050505092915050565b600081519050919050565b600082825260208201905092915050565b6000819050602082019050919050565b600073ffffffffffffffffffffffffffffffffffffffff82169050919050565b6000613dbe82613d93565b9050919050565b613dce81613db3565b82525050565b6000613de08383613dc5565b60208301905092915050565b6000602082019050919050565b6000613e0482613d67565b613e0e8185613d72565b9350613e1983613d83565b8060005b83811015613e4a578151613e318882613dd4565b9750613e3c83613dec565b925050600181019050613e1d565b5085935050505092915050565b600081519050919050565b600082825260208201905092915050565b6000819050602082019050919050565b600081519050919050565b600082825260208201905092915050565b60005b83811015613ebd578082015181840152602081019050613ea2565b60008484015250505050565b6000601f19601f8301169050919050565b6000613ee582613e83565b613eef8185613e8e565b9350613eff818560208601613e9f565b613f0881613ec9565b840191505092915050565b6000613f1f8383613eda565b905092915050565b6000602082019050919050565b6000613f3f82613e57565b613f498185613e62565b935083602082028501613f5b85613e73565b8060005b85811015613f975784840389528151613f788582613f13565b9450613f8383613f27565b925060208a01995050600181019050613f5f565b50829750879550505050505092915050565b6000610140820190508181036000830152613fc4818d613d09565b90508181036020830152613fd8818c613df9565b90508181036040830152613fec818b613f34565b90508181036060830152614000818a613f34565b905081810360808301526140148189613f34565b905081810360a08301526140288188613f34565b905081810360c083015261403c8187613f34565b905081810360e08301526140508186613f34565b90508181036101008301526140658185613f34565b905081810361012083015261407a8184613f34565b90509b9a5050505050505050505050565b61409481613db3565b811461409f57600080fd5b50565b6000813590506140b18161408b565b92915050565b600080fd5b600080fd5b7f4e487b7100000000000000000000000000000000000000000000000000000000600052604160045260246000fd5b6140f982613ec9565b810181811067ffffffffffffffff82111715614118576141176140c1565b5b80604052505050565b600061412b613c1f565b905061413782826140f0565b919050565b600067ffffffffffffffff821115614157576141566140c1565b5b61416082613ec9565b9050602081019050919050565b82818337600083830152505050565b600061418f61418a8461413c565b614121565b9050828152602081018484840111156141ab576141aa6140bc565b5b6141b684828561416d565b509392505050565b600082601f8301126141d3576141d26140b7565b5b81356141e384826020860161417c565b91505092915050565b60008060008060008060008060006101208a8c03121561420f5761420e613c29565b5b600061421d8c828d016140a2565b99505060208a013567ffffffffffffffff81111561423e5761423d613c2e565b5b61424a8c828d016141be565b98505060408a013567ffffffffffffffff81111561426b5761426a613c2e565b5b6142778c828d016141be565b97505060608a013567ffffffffffffffff81111561429857614297613c2e565b5b6142a48c828d016141be565b96505060808a013567ffffffffffffffff8111156142c5576142c4613c2e565b5b6142d18c828d016141be565b95505060a08a013567ffffffffffffffff8111156142f2576142f1613c2e565b5b6142fe8c828d016141be565b94505060c08a013567ffffffffffffffff81111561431f5761431e613c2e565b5b61432b8c828d016141be565b93505060e08a013567ffffffffffffffff81111561434c5761434b613c2e565b5b6143588c828d016141be565b9250506101008a013567ffffffffffffffff81111561437a57614379613c2e565b5b6143868c828d016141be565b9150509295985092959850929598565b6000602082840312156143ac576143ab613c29565b5b60006143ba848285016140a2565b91505092915050565b6143cc81613c33565b82525050565b6143db81613db3565b82525050565b600082825260208201905092915050565b60006143fd82613e83565b61440781856143e1565b9350614417818560208601613e9f565b61442081613ec9565b840191505092915050565b600061016082019050614441600083018e6143c3565b61444e602083018d6143d2565b61445b604083018c6143c3565b818103606083015261446d818b6143f2565b90508181036080830152614481818a6143f2565b905081810360a083015261449581896143f2565b905081810360c08301526144a981886143f2565b905081810360e08301526144bd81876143f2565b90508181036101008301526144d281866143f2565b90508181036101208301526144e781856143f2565b90508181036101408301526144fc81846143f2565b90509c9b505050505050505050505050565b600060c08201905081810360008301526145288189613d09565b9050818103602083015261453c8188613d09565b905081810360408301526145508187613f34565b905081810360608301526145648186613f34565b905081810360808301526145788185613f34565b905081810360a083015261458c8184613f34565b9050979650505050505050565b600060e08201905081810360008301526145b3818a613d09565b905081810360208301526145c78189613df9565b905081810360408301526145db8188613d09565b905081810360608301526145ef8187613f34565b905081810360808301526146038186613f34565b905081810360a08301526146178185613f34565b905081810360c083015261462b8184613f34565b905098975050505050505050565b60006101408201905061464f600083018d6143c3565b61465c602083018c6143d2565b818103604083015261466e818b6143f2565b90508181036060830152614682818a6143f2565b9050818103608083015261469681896143f2565b905081810360a08301526146aa81886143f2565b905081810360c08301526146be81876143f2565b905081810360e08301526146d281866143f2565b90508181036101008301526146e781856143f2565b90508181036101208301526146fc81846143f2565b90509b9a5050505050505050505050565b60008060008060008060c0878903121561472a57614729613c29565b5b600061473889828a016140a2565b965050602061474989828a01613c54565b955050604087013567ffffffffffffffff81111561476a57614769613c2e565b5b61477689828a016141be565b945050606087013567ffffffffffffffff81111561479757614796613c2e565b5b6147a389828a016141be565b935050608087013567ffffffffffffffff8111156147c4576147c3613c2e565b5b6147d089828a016141be565b92505060a087013567ffffffffffffffff8111156147f1576147f0613c2e565b5b6147fd89828a016141be565b9150509295509295509295565b7f5075626c697368657220646f6573206e6f742065786973740000000000000000600082015250565b60006148406018836143e1565b915061484b8261480a565b602082019050919050565b6000602082019050818103600083015261486f81614833565b9050919050565b7f43616d706169676e20646f6573206e6f74206578697374000000000000000000600082015250565b60006148ac6017836143e1565b91506148b782614876565b602082019050919050565b600060208201905081810360008301526148db8161489f565b9050919050565b7f4f6e6c79207075626c69736865722063616e2077697468647261770000000000600082015250565b6000614918601b836143e1565b9150614923826148e2565b602082019050919050565b600060208201905081810360008301526149478161490b565b9050919050565b7f43616d706169676e2062616c616e6365206973207a65726f0000000000000000600082015250565b60006149846018836143e1565b915061498f8261494e565b602082019050919050565b600060208201905081810360008301526149b381614977565b9050919050565b7f4e487b7100000000000000000000000000000000000000000000000000000000600052601160045260246000fd5b60006149f482613c33565b91506149ff83613c33565b9250828203905081811115614a1757614a166149ba565b5b92915050565b7f4e487b7100000000000000000000000000000000000000000000000000000000600052603260045260246000fd5b7f4e487b7100000000000000000000000000000000000000000000000000000000600052602260045260246000fd5b60006002820490506001821680614a9357607f821691505b602082108103614aa657614aa5614a4c565b5b50919050565b6000614ab782613c33565b91507fffffffffffffffffffffffffffffffffffffffffffffffffffffffffffffffff8203614ae957614ae86149ba565b5b600182019050919050565b7f4164766572746973657220616c72656164792065786973747300000000000000600082015250565b6000614b2a6019836143e1565b9150614b3582614af4565b602082019050919050565b60006020820190508181036000830152614b5981614b1d565b9050919050565b60008190508160005260206000209050919050565b60006020601f8301049050919050565b600082821b905092915050565b600060088302614bc27fffffffffffffffffffffffffffffffffffffffffffffffffffffffffffffffff82614b85565b614bcc8683614b85565b95508019841693508086168417925050509392505050565b6000819050919050565b6000614c09614c04614bff84613c33565b614be4565b613c33565b9050919050565b6000819050919050565b614c2383614bee565b614c37614c2f82614c10565b848454614b92565b825550505050565b600090565b614c4c614c3f565b614c57818484614c1a565b505050565b5b81811015614c7b57614c70600082614c44565b600181019050614c5d565b5050565b601f821115614cc057614c9181614b60565b614c9a84614b75565b81016020851015614ca9578190505b614cbd614cb585614b75565b830182614c5c565b50505b505050565b600082821c905092915050565b6000614ce360001984600802614cc5565b1980831691505092915050565b6000614cfc8383614cd2565b9150826002028217905092915050565b614d1582613e83565b67ffffffffffffffff811115614d2e57614d2d6140c1565b5b614d388254614a7b565b614d43828285614c7f565b600060209050601f831160018114614d765760008415614d64578287015190505b614d6e8582614cf0565b865550614dd6565b601f198416614d8486614b60565b60005b82811015614dac57848901518255600182019150602085019450602081019050614d87565b86831015614dc95784890151614dc5601f891682614cd2565b8355505b6001600288020188555050505b505050505050565b7f5075626c697368657220616c7265616479206578697374730000000000000000600082015250565b6000614e146018836143e1565b9150614e1f82614dde565b602082019050919050565b60006020820190508181036000830152614e4381614e07565b9050919050565b7f4164766572746973657220646f6573206e6f7420657869737400000000000000600082015250565b6000614e806019836143e1565b9150614e8b82614e4a565b602082019050919050565b60006020820190508181036000830152614eaf81614e73565b9050919050565b6000614ec182613c33565b9150614ecc83613c33565b9250828201905080821115614ee457614ee36149ba565b5b92915050565b7f4f6e6c7920616476657274697365722063616e206465706f7369742066756e6460008201527f7300000000000000000000000000000000000000000000000000000000000000602082015250565b6000614f466021836143e1565b9150614f5182614eea565b604082019050919050565b60006020820190508181036000830152614f7581614f39565b905091905056fea2646970667358221220b0ec63b6d82a4aec17d64f1996d2a108bd9facaf66b485f4e3f6d000648417cb64736f6c63430008120033",
  "linkReferences": {},
  "deployedLinkReferences": {}
}