{
  "_format": "hh-sol-artifact-1",
  "contractName": "Swirl",
  "sourceName": "contracts/Swirl.sol",
  "abi": [
    {
      "inputs": [
        {
          "internalType": "address",
          "name": "_wallet",
          "type": "address"
        },
        {
          "internalType": "string",
          "name": "_orgUsername",
          "type": "string"
        },
        {
          "internalType": "string",
          "name": "_orgname",
          "type": "string"
        },
        {
          "internalType": "string",
          "name": "_orgLogo",
          "type": "string"
        },
        {
          "internalType": "string",
          "name": "_orgdiscription",
          "type": "string"
        },
        {
          "internalType": "string",
          "name": "_orgOrigin",
          "type": "string"
        },
        {
          "internalType": "string",
          "name": "_empstrength",
          "type": "string"
        },
        {
          "internalType": "string",
          "name": "_orgFounder",
          "type": "string"
        },
        {
          "internalType": "string",
          "name": "_orgCatagory",
          "type": "string"
        }
      ],
      "name": "createAdvertiser",
      "outputs": [],
      "stateMutability": "nonpayable",
      "type": "function"
    },
    {
      "inputs": [
        {
          "internalType": "address",
          "name": "_advertiserAddress",
          "type": "address"
        },
        {
          "internalType": "uint256",
          "name": "_balance",
          "type": "uint256"
        },
        {
          "internalType": "string",
          "name": "_campaignName",
          "type": "string"
        },
        {
          "internalType": "string",
          "name": "_budget",
          "type": "string"
        },
        {
          "internalType": "string",
          "name": "_payclick",
          "type": "string"
        },
        {
          "internalType": "string",
          "name": "_stringCID",
          "type": "string"
        }
      ],
      "name": "createCampaign",
      "outputs": [],
      "stateMutability": "nonpayable",
      "type": "function"
    },
    {
      "inputs": [
        {
          "internalType": "address",
          "name": "_wallet",
          "type": "address"
        },
        {
          "internalType": "string",
          "name": "_orgUsername",
          "type": "string"
        },
        {
          "internalType": "string",
          "name": "_orgname",
          "type": "string"
        },
        {
          "internalType": "string",
          "name": "_orgLogo",
          "type": "string"
        },
        {
          "internalType": "string",
          "name": "_orgdiscription",
          "type": "string"
        },
        {
          "internalType": "string",
          "name": "_orgOrigin",
          "type": "string"
        },
        {
          "internalType": "string",
          "name": "_empstrength",
          "type": "string"
        },
        {
          "internalType": "string",
          "name": "_orgFounder",
          "type": "string"
        },
        {
          "internalType": "string",
          "name": "_orgCatagory",
          "type": "string"
        }
      ],
      "name": "createPublisher",
      "outputs": [],
      "stateMutability": "nonpayable",
      "type": "function"
    },
    {
      "inputs": [
        {
          "internalType": "address",
          "name": "_advertiserAddress",
          "type": "address"
        }
      ],
      "name": "deposit",
      "outputs": [],
      "stateMutability": "payable",
      "type": "function"
    },
    {
      "inputs": [
        {
          "internalType": "address",
          "name": "_wallet",
          "type": "address"
        }
      ],
      "name": "getAdvertiser",
      "outputs": [
        {
          "internalType": "uint256",
          "name": "",
          "type": "uint256"
        },
        {
          "internalType": "address",
          "name": "",
          "type": "address"
        },
        {
          "internalType": "uint256",
          "name": "",
          "type": "uint256"
        },
        {
          "internalType": "string",
          "name": "",
          "type": "string"
        },
        {
          "internalType": "string",
          "name": "",
          "type": "string"
        },
        {
          "internalType": "string",
          "name": "",
          "type": "string"
        },
        {
          "internalType": "string",
          "name": "",
          "type": "string"
        },
        {
          "internalType": "string",
          "name": "",
          "type": "string"
        },
        {
          "internalType": "string",
          "name": "",
          "type": "string"
        },
        {
          "internalType": "string",
          "name": "",
          "type": "string"
        },
        {
          "internalType": "string",
          "name": "",
          "type": "string"
        }
      ],
      "stateMutability": "view",
      "type": "function"
    },
    {
      "inputs": [
        {
          "internalType": "address",
          "name": "_wallet",
          "type": "address"
        }
      ],
      "name": "getAdvertiserBalance",
      "outputs": [
        {
          "internalType": "uint256",
          "name": "",
          "type": "uint256"
        }
      ],
      "stateMutability": "view",
      "type": "function"
    },
    {
      "inputs": [],
      "name": "getAllAdvertisers",
      "outputs": [
        {
          "internalType": "uint256[]",
          "name": "ids",
          "type": "uint256[]"
        },
        {
          "internalType": "address[]",
          "name": "addresses",
          "type": "address[]"
        },
        {
          "internalType": "string[]",
          "name": "orgUsernames",
          "type": "string[]"
        },
        {
          "internalType": "string[]",
          "name": "orgnames",
          "type": "string[]"
        },
        {
          "internalType": "string[]",
          "name": "orgLogos",
          "type": "string[]"
        },
        {
          "internalType": "string[]",
          "name": "orgdiscriptions",
          "type": "string[]"
        },
        {
          "internalType": "string[]",
          "name": "orgOrigins",
          "type": "string[]"
        },
        {
          "internalType": "string[]",
          "name": "empstrengths",
          "type": "string[]"
        },
        {
          "internalType": "string[]",
          "name": "orgFounders",
          "type": "string[]"
        },
        {
          "internalType": "string[]",
          "name": "orgCatagories",
          "type": "string[]"
        }
      ],
      "stateMutability": "view",
      "type": "function"
    },
    {
      "inputs": [],
      "name": "getAllCampaigns",
      "outputs": [
        {
          "internalType": "uint256[]",
          "name": "ids",
          "type": "uint256[]"
        },
        {
          "internalType": "address[]",
          "name": "advertiserIds",
          "type": "address[]"
        },
        {
          "internalType": "uint256[]",
          "name": "balances",
          "type": "uint256[]"
        },
        {
          "internalType": "string[]",
          "name": "campaignNames",
          "type": "string[]"
        },
        {
          "internalType": "string[]",
          "name": "budgets",
          "type": "string[]"
        },
        {
          "internalType": "string[]",
          "name": "payclicks",
          "type": "string[]"
        },
        {
          "internalType": "string[]",
          "name": "stringCIDs",
          "type": "string[]"
        }
      ],
      "stateMutability": "view",
      "type": "function"
    },
    {
      "inputs": [],
      "name": "getAllPublishers",
      "outputs": [
        {
          "internalType": "uint256[]",
          "name": "ids",
          "type": "uint256[]"
        },
        {
          "internalType": "address[]",
          "name": "addresses",
          "type": "address[]"
        },
        {
          "internalType": "string[]",
          "name": "orgUsernames",
          "type": "string[]"
        },
        {
          "internalType": "string[]",
          "name": "orgnames",
          "type": "string[]"
        },
        {
          "internalType": "string[]",
          "name": "orgLogos",
          "type": "string[]"
        },
        {
          "internalType": "string[]",
          "name": "orgdiscriptions",
          "type": "string[]"
        },
        {
          "internalType": "string[]",
          "name": "orgOrigins",
          "type": "string[]"
        },
        {
          "internalType": "string[]",
          "name": "empstrengths",
          "type": "string[]"
        },
        {
          "internalType": "string[]",
          "name": "orgFounders",
          "type": "string[]"
        },
        {
          "internalType": "string[]",
          "name": "orgCatagories",
          "type": "string[]"
        }
      ],
      "stateMutability": "view",
      "type": "function"
    },
    {
      "inputs": [
        {
          "internalType": "address",
          "name": "_advertiserAddress",
          "type": "address"
        }
      ],
      "name": "getCampaign",
      "outputs": [
        {
          "internalType": "uint256[]",
          "name": "ids",
          "type": "uint256[]"
        },
        {
          "internalType": "uint256[]",
          "name": "balances",
          "type": "uint256[]"
        },
        {
          "internalType": "string[]",
          "name": "campaignNames",
          "type": "string[]"
        },
        {
          "internalType": "string[]",
          "name": "budgets",
          "type": "string[]"
        },
        {
          "internalType": "string[]",
          "name": "payclicks",
          "type": "string[]"
        },
        {
          "internalType": "string[]",
          "name": "stringCIDs",
          "type": "string[]"
        }
      ],
      "stateMutability": "view",
      "type": "function"
    },
    {
      "inputs": [
        {
          "internalType": "address",
          "name": "_wallet",
          "type": "address"
        }
      ],
      "name": "getPublisher",
      "outputs": [
        {
          "internalType": "uint256",
          "name": "",
          "type": "uint256"
        },
        {
          "internalType": "address",
          "name": "",
          "type": "address"
        },
        {
          "internalType": "string",
          "name": "",
          "type": "string"
        },
        {
          "internalType": "string",
          "name": "",
          "type": "string"
        },
        {
          "internalType": "string",
          "name": "",
          "type": "string"
        },
        {
          "internalType": "string",
          "name": "",
          "type": "string"
        },
        {
          "internalType": "string",
          "name": "",
          "type": "string"
        },
        {
          "internalType": "string",
          "name": "",
          "type": "string"
        },
        {
          "internalType": "string",
          "name": "",
          "type": "string"
        },
        {
          "internalType": "string",
          "name": "",
          "type": "string"
        }
      ],
      "stateMutability": "view",
      "type": "function"
    },
    {
      "inputs": [
        {
          "internalType": "uint256",
          "name": "_campaignId",
          "type": "uint256"
        }
      ],
      "name": "isPublished",
      "outputs": [
        {
          "internalType": "bool",
          "name": "",
          "type": "bool"
        }
      ],
      "stateMutability": "view",
      "type": "function"
    },
    {
      "inputs": [
        {
          "internalType": "uint256",
          "name": "_campaignId",
          "type": "uint256"
        }
      ],
      "name": "isWithdrawn",
      "outputs": [
        {
          "internalType": "bool",
          "name": "",
          "type": "bool"
        }
      ],
      "stateMutability": "view",
      "type": "function"
    },
    {
      "inputs": [
        {
          "internalType": "uint256",
          "name": "_campaignId",
          "type": "uint256"
        }
      ],
      "name": "publishCampaign",
      "outputs": [],
      "stateMutability": "nonpayable",
      "type": "function"
    },
    {
      "inputs": [
        {
          "internalType": "uint256",
          "name": "_publisherId",
          "type": "uint256"
        },
        {
          "internalType": "uint256",
          "name": "_campaignId",
          "type": "uint256"
        }
      ],
      "name": "withdraw",
      "outputs": [],
      "stateMutability": "nonpayable",
      "type": "function"
    },
    {
      "inputs": [
        {
          "internalType": "uint256",
          "name": "_campaignId",
          "type": "uint256"
        }
      ],
      "name": "withdrawCampaign",
      "outputs": [],
      "stateMutability": "nonpayable",
      "type": "function"
    }
  ],
  "bytecode": "0x608060405234801561001057600080fd5b50615f5e80620000216000396000f3fe6080604052600436106100f35760003560e01c806386cdf6041161008a578063c30184b711610059578063c30184b71461037e578063c74e775a146103bb578063f0a603bc146103e4578063f340fa011461040d576100f3565b806386cdf604146102a15780638b043e08146102d25780639cc52aee146103185780639fd3155714610341576100f3565b806372536e90116100c657806372536e90146101b2578063731301cf146101f95780637684fc861461023b5780637b156fb514610264576100f3565b8063441a3e70146100f85780634c96f2811461012157806365a2db1c146101555780636d321f7a1461017e575b600080fd5b34801561010457600080fd5b5061011f600480360381019061011a9190614b05565b610429565b005b34801561012d57600080fd5b5061013661069b565b60405161014c9a99989796959493929190614e45565b60405180910390f35b34801561016157600080fd5b5061017c60048036038101906101779190615088565b61111e565b005b34801561018a57600080fd5b5061019361131a565b6040516101a99a99989796959493929190614e45565b60405180910390f35b3480156101be57600080fd5b506101d960048036038101906101d49190615232565b611d93565b6040516101f09b9a999897969594939291906152c7565b60405180910390f35b34801561020557600080fd5b50610220600480360381019061021b9190615232565b6123b3565b604051610232969594939291906153aa565b60405180910390f35b34801561024757600080fd5b50610262600480360381019061025d9190615435565b6129f2565b005b34801561027057600080fd5b5061028b60048036038101906102869190615435565b612d02565b604051610298919061547d565b60405180910390f35b3480156102ad57600080fd5b506102b6612fe1565b6040516102c99796959493929190615498565b60405180910390f35b3480156102de57600080fd5b506102f960048036038101906102f49190615232565b613695565b60405161030f9a99989796959493929190615538565b60405180910390f35b34801561032457600080fd5b5061033f600480360381019061033a9190615088565b613ca1565b005b34801561034d57600080fd5b5061036860048036038101906103639190615232565b613e8c565b604051610375919061560c565b60405180910390f35b34801561038a57600080fd5b506103a560048036038101906103a09190615435565b613f3d565b6040516103b2919061547d565b60405180910390f35b3480156103c757600080fd5b506103e260048036038101906103dd9190615627565b61421c565b005b3480156103f057600080fd5b5061040b60048036038101906104069190615435565b614468565b005b61042760048036038101906104229190615232565b6147cd565b005b60055482111561046e576040517f08c379a000000000000000000000000000000000000000000000000000000000815260040161046590615770565b60405180910390fd5b6004548111156104b3576040517f08c379a00000000000000000000000000000000000000000000000000000000081526004016104aa906157dc565b60405180910390fd5b3373ffffffffffffffffffffffffffffffffffffffff166002600084815260200190815260200160002060010160009054906101000a900473ffffffffffffffffffffffffffffffffffffffff1673ffffffffffffffffffffffffffffffffffffffff1614610557576040517f08c379a000000000000000000000000000000000000000000000000000000000815260040161054e90615848565b60405180910390fd5b600060016000838152602001908152602001600020600201549050600081116105b5576040517f08c379a00000000000000000000000000000000000000000000000000000000081526004016105ac906158b4565b60405180910390fd5b600060016000848152602001908152602001600020600201819055508060008060016000868152602001908152602001600020600101548152602001908152602001600020600201600082825461060c9190615903565b9250508190555060006002600085815260200190815260200160002060010160009054906101000a900473ffffffffffffffffffffffffffffffffffffffff1690508073ffffffffffffffffffffffffffffffffffffffff166108fc839081150290604051600060405180830381858888f19350505050158015610694573d6000803e3d6000fd5b5050505050565b60608060608060608060608060608060055467ffffffffffffffff8111156106c6576106c5614f5d565b5b6040519080825280602002602001820160405280156106f45781602001602082028036833780820191505090505b50995060055467ffffffffffffffff81111561071357610712614f5d565b5b6040519080825280602002602001820160405280156107415781602001602082028036833780820191505090505b50985060055467ffffffffffffffff8111156107605761075f614f5d565b5b60405190808252806020026020018201604052801561079357816020015b606081526020019060019003908161077e5790505b50975060055467ffffffffffffffff8111156107b2576107b1614f5d565b5b6040519080825280602002602001820160405280156107e557816020015b60608152602001906001900390816107d05790505b50965060055467ffffffffffffffff81111561080457610803614f5d565b5b60405190808252806020026020018201604052801561083757816020015b60608152602001906001900390816108225790505b50955060055467ffffffffffffffff81111561085657610855614f5d565b5b60405190808252806020026020018201604052801561088957816020015b60608152602001906001900390816108745790505b50945060055467ffffffffffffffff8111156108a8576108a7614f5d565b5b6040519080825280602002602001820160405280156108db57816020015b60608152602001906001900390816108c65790505b50935060055467ffffffffffffffff8111156108fa576108f9614f5d565b5b60405190808252806020026020018201604052801561092d57816020015b60608152602001906001900390816109185790505b50925060055467ffffffffffffffff81111561094c5761094b614f5d565b5b60405190808252806020026020018201604052801561097f57816020015b606081526020019060019003908161096a5790505b50915060055467ffffffffffffffff81111561099e5761099d614f5d565b5b6040519080825280602002602001820160405280156109d157816020015b60608152602001906001900390816109bc5790505b5090506000600190505b60055481116111115760026000828152602001908152602001600020600001548b600183610a099190615903565b81518110610a1a57610a19615937565b5b6020026020010181815250506002600082815260200190815260200160002060010160009054906101000a900473ffffffffffffffffffffffffffffffffffffffff168a600183610a6b9190615903565b81518110610a7c57610a7b615937565b5b602002602001019073ffffffffffffffffffffffffffffffffffffffff16908173ffffffffffffffffffffffffffffffffffffffff1681525050600260008281526020019081526020016000206002018054610ad790615995565b80601f0160208091040260200160405190810160405280929190818152602001828054610b0390615995565b8015610b505780601f10610b2557610100808354040283529160200191610b50565b820191906000526020600020905b815481529060010190602001808311610b3357829003601f168201915b505050505089600183610b639190615903565b81518110610b7457610b73615937565b5b6020026020010181905250600260008281526020019081526020016000206003018054610ba090615995565b80601f0160208091040260200160405190810160405280929190818152602001828054610bcc90615995565b8015610c195780601f10610bee57610100808354040283529160200191610c19565b820191906000526020600020905b815481529060010190602001808311610bfc57829003601f168201915b505050505088600183610c2c9190615903565b81518110610c3d57610c3c615937565b5b6020026020010181905250600260008281526020019081526020016000206004018054610c6990615995565b80601f0160208091040260200160405190810160405280929190818152602001828054610c9590615995565b8015610ce25780601f10610cb757610100808354040283529160200191610ce2565b820191906000526020600020905b815481529060010190602001808311610cc557829003601f168201915b505050505087600183610cf59190615903565b81518110610d0657610d05615937565b5b6020026020010181905250600260008281526020019081526020016000206005018054610d3290615995565b80601f0160208091040260200160405190810160405280929190818152602001828054610d5e90615995565b8015610dab5780601f10610d8057610100808354040283529160200191610dab565b820191906000526020600020905b815481529060010190602001808311610d8e57829003601f168201915b505050505086600183610dbe9190615903565b81518110610dcf57610dce615937565b5b6020026020010181905250600260008281526020019081526020016000206006018054610dfb90615995565b80601f0160208091040260200160405190810160405280929190818152602001828054610e2790615995565b8015610e745780601f10610e4957610100808354040283529160200191610e74565b820191906000526020600020905b815481529060010190602001808311610e5757829003601f168201915b505050505085600183610e879190615903565b81518110610e9857610e97615937565b5b6020026020010181905250600260008281526020019081526020016000206007018054610ec490615995565b80601f0160208091040260200160405190810160405280929190818152602001828054610ef090615995565b8015610f3d5780601f10610f1257610100808354040283529160200191610f3d565b820191906000526020600020905b815481529060010190602001808311610f2057829003601f168201915b505050505084600183610f509190615903565b81518110610f6157610f60615937565b5b6020026020010181905250600260008281526020019081526020016000206008018054610f8d90615995565b80601f0160208091040260200160405190810160405280929190818152602001828054610fb990615995565b80156110065780601f10610fdb57610100808354040283529160200191611006565b820191906000526020600020905b815481529060010190602001808311610fe957829003601f168201915b5050505050836001836110199190615903565b8151811061102a57611029615937565b5b602002602001018190525060026000828152602001908152602001600020600901805461105690615995565b80601f016020809104026020016040519081016040528092919081815260200182805461108290615995565b80156110cf5780601f106110a4576101008083540402835291602001916110cf565b820191906000526020600020905b8154815290600101906020018083116110b257829003601f168201915b5050505050826001836110e29190615903565b815181106110f3576110f2615937565b5b60200260200101819052508080611109906159c6565b9150506109db565b5090919293949596979899565b6000151561112b8a614978565b15151461116d576040517f08c379a000000000000000000000000000000000000000000000000000000000815260040161116490615a5a565b60405180910390fd5b60036000815480929190611180906159c6565b919050555060405180610160016040528060035481526020018a73ffffffffffffffffffffffffffffffffffffffff168152602001600081526020018981526020018881526020018781526020018681526020018581526020018481526020018381526020018281525060008060035481526020019081526020016000206000820151816000015560208201518160010160006101000a81548173ffffffffffffffffffffffffffffffffffffffff021916908373ffffffffffffffffffffffffffffffffffffffff16021790555060408201518160020155606082015181600301908161126e9190615c26565b5060808201518160040190816112849190615c26565b5060a082015181600501908161129a9190615c26565b5060c08201518160060190816112b09190615c26565b5060e08201518160070190816112c69190615c26565b506101008201518160080190816112dd9190615c26565b506101208201518160090190816112f49190615c26565b5061014082015181600a01908161130b9190615c26565b50905050505050505050505050565b60608060608060608060608060608060035467ffffffffffffffff81111561134557611344614f5d565b5b6040519080825280602002602001820160405280156113735781602001602082028036833780820191505090505b50995060035467ffffffffffffffff81111561139257611391614f5d565b5b6040519080825280602002602001820160405280156113c05781602001602082028036833780820191505090505b50985060035467ffffffffffffffff8111156113df576113de614f5d565b5b60405190808252806020026020018201604052801561141257816020015b60608152602001906001900390816113fd5790505b50975060035467ffffffffffffffff81111561143157611430614f5d565b5b60405190808252806020026020018201604052801561146457816020015b606081526020019060019003908161144f5790505b50965060035467ffffffffffffffff81111561148357611482614f5d565b5b6040519080825280602002602001820160405280156114b657816020015b60608152602001906001900390816114a15790505b50955060035467ffffffffffffffff8111156114d5576114d4614f5d565b5b60405190808252806020026020018201604052801561150857816020015b60608152602001906001900390816114f35790505b50945060035467ffffffffffffffff81111561152757611526614f5d565b5b60405190808252806020026020018201604052801561155a57816020015b60608152602001906001900390816115455790505b50935060035467ffffffffffffffff81111561157957611578614f5d565b5b6040519080825280602002602001820160405280156115ac57816020015b60608152602001906001900390816115975790505b50925060035467ffffffffffffffff8111156115cb576115ca614f5d565b5b6040519080825280602002602001820160405280156115fe57816020015b60608152602001906001900390816115e95790505b50915060035467ffffffffffffffff81111561161d5761161c614f5d565b5b60405190808252806020026020018201604052801561165057816020015b606081526020019060019003908161163b5790505b5090506000600190505b6003548111611d8657600080828152602001908152602001600020600001548b6001836116879190615903565b8151811061169857611697615937565b5b60200260200101818152505060008082815260200190815260200160002060010160009054906101000a900473ffffffffffffffffffffffffffffffffffffffff168a6001836116e89190615903565b815181106116f9576116f8615937565b5b602002602001019073ffffffffffffffffffffffffffffffffffffffff16908173ffffffffffffffffffffffffffffffffffffffff1681525050600080828152602001908152602001600020600301805461175390615995565b80601f016020809104026020016040519081016040528092919081815260200182805461177f90615995565b80156117cc5780601f106117a1576101008083540402835291602001916117cc565b820191906000526020600020905b8154815290600101906020018083116117af57829003601f168201915b5050505050896001836117df9190615903565b815181106117f0576117ef615937565b5b6020026020010181905250600080828152602001908152602001600020600401805461181b90615995565b80601f016020809104026020016040519081016040528092919081815260200182805461184790615995565b80156118945780601f1061186957610100808354040283529160200191611894565b820191906000526020600020905b81548152906001019060200180831161187757829003601f168201915b5050505050886001836118a79190615903565b815181106118b8576118b7615937565b5b602002602001018190525060008082815260200190815260200160002060050180546118e390615995565b80601f016020809104026020016040519081016040528092919081815260200182805461190f90615995565b801561195c5780601f106119315761010080835404028352916020019161195c565b820191906000526020600020905b81548152906001019060200180831161193f57829003601f168201915b50505050508760018361196f9190615903565b815181106119805761197f615937565b5b602002602001018190525060008082815260200190815260200160002060060180546119ab90615995565b80601f01602080910402602001604051908101604052809291908181526020018280546119d790615995565b8015611a245780601f106119f957610100808354040283529160200191611a24565b820191906000526020600020905b815481529060010190602001808311611a0757829003601f168201915b505050505086600183611a379190615903565b81518110611a4857611a47615937565b5b60200260200101819052506000808281526020019081526020016000206007018054611a7390615995565b80601f0160208091040260200160405190810160405280929190818152602001828054611a9f90615995565b8015611aec5780601f10611ac157610100808354040283529160200191611aec565b820191906000526020600020905b815481529060010190602001808311611acf57829003601f168201915b505050505085600183611aff9190615903565b81518110611b1057611b0f615937565b5b60200260200101819052506000808281526020019081526020016000206008018054611b3b90615995565b80601f0160208091040260200160405190810160405280929190818152602001828054611b6790615995565b8015611bb45780601f10611b8957610100808354040283529160200191611bb4565b820191906000526020600020905b815481529060010190602001808311611b9757829003601f168201915b505050505084600183611bc79190615903565b81518110611bd857611bd7615937565b5b60200260200101819052506000808281526020019081526020016000206009018054611c0390615995565b80601f0160208091040260200160405190810160405280929190818152602001828054611c2f90615995565b8015611c7c5780601f10611c5157610100808354040283529160200191611c7c565b820191906000526020600020905b815481529060010190602001808311611c5f57829003601f168201915b505050505083600183611c8f9190615903565b81518110611ca057611c9f615937565b5b6020026020010181905250600080828152602001908152602001600020600a018054611ccb90615995565b80601f0160208091040260200160405190810160405280929190818152602001828054611cf790615995565b8015611d445780601f10611d1957610100808354040283529160200191611d44565b820191906000526020600020905b815481529060010190602001808311611d2757829003601f168201915b505050505082600183611d579190615903565b81518110611d6857611d67615937565b5b60200260200101819052508080611d7e906159c6565b91505061165a565b5090919293949596979899565b60008060006060806060806060806060806000600190505b60035481116123a2578c73ffffffffffffffffffffffffffffffffffffffff1660008083815260200190815260200160002060010160009054906101000a900473ffffffffffffffffffffffffffffffffffffffff1673ffffffffffffffffffffffffffffffffffffffff160361238f57600080600083815260200190815260200160002060405180610160016040529081600082015481526020016001820160009054906101000a900473ffffffffffffffffffffffffffffffffffffffff1673ffffffffffffffffffffffffffffffffffffffff1673ffffffffffffffffffffffffffffffffffffffff16815260200160028201548152602001600382018054611eb690615995565b80601f0160208091040260200160405190810160405280929190818152602001828054611ee290615995565b8015611f2f5780601f10611f0457610100808354040283529160200191611f2f565b820191906000526020600020905b815481529060010190602001808311611f1257829003601f168201915b50505050508152602001600482018054611f4890615995565b80601f0160208091040260200160405190810160405280929190818152602001828054611f7490615995565b8015611fc15780601f10611f9657610100808354040283529160200191611fc1565b820191906000526020600020905b815481529060010190602001808311611fa457829003601f168201915b50505050508152602001600582018054611fda90615995565b80601f016020809104026020016040519081016040528092919081815260200182805461200690615995565b80156120535780601f1061202857610100808354040283529160200191612053565b820191906000526020600020905b81548152906001019060200180831161203657829003601f168201915b5050505050815260200160068201805461206c90615995565b80601f016020809104026020016040519081016040528092919081815260200182805461209890615995565b80156120e55780601f106120ba576101008083540402835291602001916120e5565b820191906000526020600020905b8154815290600101906020018083116120c857829003601f168201915b505050505081526020016007820180546120fe90615995565b80601f016020809104026020016040519081016040528092919081815260200182805461212a90615995565b80156121775780601f1061214c57610100808354040283529160200191612177565b820191906000526020600020905b81548152906001019060200180831161215a57829003601f168201915b5050505050815260200160088201805461219090615995565b80601f01602080910402602001604051908101604052809291908181526020018280546121bc90615995565b80156122095780601f106121de57610100808354040283529160200191612209565b820191906000526020600020905b8154815290600101906020018083116121ec57829003601f168201915b5050505050815260200160098201805461222290615995565b80601f016020809104026020016040519081016040528092919081815260200182805461224e90615995565b801561229b5780601f106122705761010080835404028352916020019161229b565b820191906000526020600020905b81548152906001019060200180831161227e57829003601f168201915b50505050508152602001600a820180546122b490615995565b80601f01602080910402602001604051908101604052809291908181526020018280546122e090615995565b801561232d5780601f106123025761010080835404028352916020019161232d565b820191906000526020600020905b81548152906001019060200180831161231057829003601f168201915b5050505050815250509050806000015181602001518260400151836060015184608001518560a001518660c001518760e001518861010001518961012001518a61014001519c509c509c509c509c509c509c509c509c509c509c5050506123a4565b808061239a906159c6565b915050611dab565b505b91939597999b90929496989a50565b60608060608060608060045467ffffffffffffffff8111156123d8576123d7614f5d565b5b6040519080825280602002602001820160405280156124065781602001602082028036833780820191505090505b50955060045467ffffffffffffffff81111561242557612424614f5d565b5b6040519080825280602002602001820160405280156124535781602001602082028036833780820191505090505b50945060045467ffffffffffffffff81111561247257612471614f5d565b5b6040519080825280602002602001820160405280156124a557816020015b60608152602001906001900390816124905790505b50935060045467ffffffffffffffff8111156124c4576124c3614f5d565b5b6040519080825280602002602001820160405280156124f757816020015b60608152602001906001900390816124e25790505b50925060045467ffffffffffffffff81111561251657612515614f5d565b5b60405190808252806020026020018201604052801561254957816020015b60608152602001906001900390816125345790505b50915060045467ffffffffffffffff81111561256857612567614f5d565b5b60405190808252806020026020018201604052801561259b57816020015b60608152602001906001900390816125865790505b5090506000600190505b60045481116129e8578773ffffffffffffffffffffffffffffffffffffffff166000806001600085815260200190815260200160002060010154815260200190815260200160002060010160009054906101000a900473ffffffffffffffffffffffffffffffffffffffff1673ffffffffffffffffffffffffffffffffffffffff16036129d5576001600082815260200190815260200160002060000154876001836126519190615903565b8151811061266257612661615937565b5b6020026020010181815250506001600082815260200190815260200160002060020154866001836126939190615903565b815181106126a4576126a3615937565b5b6020026020010181815250506001600082815260200190815260200160002060030180546126d190615995565b80601f01602080910402602001604051908101604052809291908181526020018280546126fd90615995565b801561274a5780601f1061271f5761010080835404028352916020019161274a565b820191906000526020600020905b81548152906001019060200180831161272d57829003601f168201915b50505050508560018361275d9190615903565b8151811061276e5761276d615937565b5b602002602001018190525060016000828152602001908152602001600020600401805461279a90615995565b80601f01602080910402602001604051908101604052809291908181526020018280546127c690615995565b80156128135780601f106127e857610100808354040283529160200191612813565b820191906000526020600020905b8154815290600101906020018083116127f657829003601f168201915b5050505050846001836128269190615903565b8151811061283757612836615937565b5b602002602001018190525060016000828152602001908152602001600020600501805461286390615995565b80601f016020809104026020016040519081016040528092919081815260200182805461288f90615995565b80156128dc5780601f106128b1576101008083540402835291602001916128dc565b820191906000526020600020905b8154815290600101906020018083116128bf57829003601f168201915b5050505050836001836128ef9190615903565b81518110612900576128ff615937565b5b602002602001018190525060016000828152602001908152602001600020600601805461292c90615995565b80601f016020809104026020016040519081016040528092919081815260200182805461295890615995565b80156129a55780601f1061297a576101008083540402835291602001916129a5565b820191906000526020600020905b81548152906001019060200180831161298857829003601f168201915b5050505050826001836129b89190615903565b815181106129c9576129c8615937565b5b60200260200101819052505b80806129e0906159c6565b9150506125a5565b5091939550919395565b600454811115612a37576040517f08c379a0000000000000000000000000000000000000000000000000000000008152600401612a2e906157dc565b60405180910390fd5b6000600160008381526020019081526020016000206040518060e0016040529081600082015481526020016001820154815260200160028201548152602001600382018054612a8590615995565b80601f0160208091040260200160405190810160405280929190818152602001828054612ab190615995565b8015612afe5780601f10612ad357610100808354040283529160200191612afe565b820191906000526020600020905b815481529060010190602001808311612ae157829003601f168201915b50505050508152602001600482018054612b1790615995565b80601f0160208091040260200160405190810160405280929190818152602001828054612b4390615995565b8015612b905780601f10612b6557610100808354040283529160200191612b90565b820191906000526020600020905b815481529060010190602001808311612b7357829003601f168201915b50505050508152602001600582018054612ba990615995565b80601f0160208091040260200160405190810160405280929190818152602001828054612bd590615995565b8015612c225780601f10612bf757610100808354040283529160200191612c22565b820191906000526020600020905b815481529060010190602001808311612c0557829003601f168201915b50505050508152602001600682018054612c3b90615995565b80601f0160208091040260200160405190810160405280929190818152602001828054612c6790615995565b8015612cb45780601f10612c8957610100808354040283529160200191612cb4565b820191906000526020600020905b815481529060010190602001808311612c9757829003601f168201915b50505050508152505090508060400151600080836020015181526020019081526020016000206002016000828254612cec9190615cf8565b9250508190555060008160400181815250505050565b6000600454821115612d49576040517f08c379a0000000000000000000000000000000000000000000000000000000008152600401612d40906157dc565b60405180910390fd5b6000600160008481526020019081526020016000206040518060e0016040529081600082015481526020016001820154815260200160028201548152602001600382018054612d9790615995565b80601f0160208091040260200160405190810160405280929190818152602001828054612dc390615995565b8015612e105780601f10612de557610100808354040283529160200191612e10565b820191906000526020600020905b815481529060010190602001808311612df357829003601f168201915b50505050508152602001600482018054612e2990615995565b80601f0160208091040260200160405190810160405280929190818152602001828054612e5590615995565b8015612ea25780601f10612e7757610100808354040283529160200191612ea2565b820191906000526020600020905b815481529060010190602001808311612e8557829003601f168201915b50505050508152602001600582018054612ebb90615995565b80601f0160208091040260200160405190810160405280929190818152602001828054612ee790615995565b8015612f345780601f10612f0957610100808354040283529160200191612f34565b820191906000526020600020905b815481529060010190602001808311612f1757829003601f168201915b50505050508152602001600682018054612f4d90615995565b80601f0160208091040260200160405190810160405280929190818152602001828054612f7990615995565b8015612fc65780601f10612f9b57610100808354040283529160200191612fc6565b820191906000526020600020905b815481529060010190602001808311612fa957829003601f168201915b50505050508152505090506000816040015111915050919050565b606080606080606080606060045467ffffffffffffffff81111561300857613007614f5d565b5b6040519080825280602002602001820160405280156130365781602001602082028036833780820191505090505b50965060045467ffffffffffffffff81111561305557613054614f5d565b5b6040519080825280602002602001820160405280156130835781602001602082028036833780820191505090505b50955060045467ffffffffffffffff8111156130a2576130a1614f5d565b5b6040519080825280602002602001820160405280156130d05781602001602082028036833780820191505090505b50945060045467ffffffffffffffff8111156130ef576130ee614f5d565b5b60405190808252806020026020018201604052801561312257816020015b606081526020019060019003908161310d5790505b50935060045467ffffffffffffffff81111561314157613140614f5d565b5b60405190808252806020026020018201604052801561317457816020015b606081526020019060019003908161315f5790505b50925060045467ffffffffffffffff81111561319357613192614f5d565b5b6040519080825280602002602001820160405280156131c657816020015b60608152602001906001900390816131b15790505b50915060045467ffffffffffffffff8111156131e5576131e4614f5d565b5b60405190808252806020026020018201604052801561321857816020015b60608152602001906001900390816132035790505b5090506000600190505b600454811161368b576001600082815260200190815260200160002060000154886001836132509190615903565b8151811061326157613260615937565b5b6020026020010181815250506000806001600084815260200190815260200160002060010154815260200190815260200160002060010160009054906101000a900473ffffffffffffffffffffffffffffffffffffffff16876001836132c79190615903565b815181106132d8576132d7615937565b5b602002602001019073ffffffffffffffffffffffffffffffffffffffff16908173ffffffffffffffffffffffffffffffffffffffff16815250506001600082815260200190815260200160002060020154866001836133379190615903565b8151811061334857613347615937565b5b60200260200101818152505060016000828152602001908152602001600020600301805461337590615995565b80601f01602080910402602001604051908101604052809291908181526020018280546133a190615995565b80156133ee5780601f106133c3576101008083540402835291602001916133ee565b820191906000526020600020905b8154815290600101906020018083116133d157829003601f168201915b5050505050856001836134019190615903565b8151811061341257613411615937565b5b602002602001018190525060016000828152602001908152602001600020600401805461343e90615995565b80601f016020809104026020016040519081016040528092919081815260200182805461346a90615995565b80156134b75780601f1061348c576101008083540402835291602001916134b7565b820191906000526020600020905b81548152906001019060200180831161349a57829003601f168201915b5050505050846001836134ca9190615903565b815181106134db576134da615937565b5b602002602001018190525060016000828152602001908152602001600020600501805461350790615995565b80601f016020809104026020016040519081016040528092919081815260200182805461353390615995565b80156135805780601f1061355557610100808354040283529160200191613580565b820191906000526020600020905b81548152906001019060200180831161356357829003601f168201915b5050505050836001836135939190615903565b815181106135a4576135a3615937565b5b60200260200101819052506001600082815260200190815260200160002060060180546135d090615995565b80601f01602080910402602001604051908101604052809291908181526020018280546135fc90615995565b80156136495780601f1061361e57610100808354040283529160200191613649565b820191906000526020600020905b81548152906001019060200180831161362c57829003601f168201915b50505050508260018361365c9190615903565b8151811061366d5761366c615937565b5b60200260200101819052508080613683906159c6565b915050613222565b5090919293949596565b6000806060806060806060806060806000600190505b6005548111613c92578b73ffffffffffffffffffffffffffffffffffffffff166002600083815260200190815260200160002060010160009054906101000a900473ffffffffffffffffffffffffffffffffffffffff1673ffffffffffffffffffffffffffffffffffffffff1603613c7f5760006002600083815260200190815260200160002060405180610140016040529081600082015481526020016001820160009054906101000a900473ffffffffffffffffffffffffffffffffffffffff1673ffffffffffffffffffffffffffffffffffffffff1673ffffffffffffffffffffffffffffffffffffffff1681526020016002820180546137ae90615995565b80601f01602080910402602001604051908101604052809291908181526020018280546137da90615995565b80156138275780601f106137fc57610100808354040283529160200191613827565b820191906000526020600020905b81548152906001019060200180831161380a57829003601f168201915b5050505050815260200160038201805461384090615995565b80601f016020809104026020016040519081016040528092919081815260200182805461386c90615995565b80156138b95780601f1061388e576101008083540402835291602001916138b9565b820191906000526020600020905b81548152906001019060200180831161389c57829003601f168201915b505050505081526020016004820180546138d290615995565b80601f01602080910402602001604051908101604052809291908181526020018280546138fe90615995565b801561394b5780601f106139205761010080835404028352916020019161394b565b820191906000526020600020905b81548152906001019060200180831161392e57829003601f168201915b5050505050815260200160058201805461396490615995565b80601f016020809104026020016040519081016040528092919081815260200182805461399090615995565b80156139dd5780601f106139b2576101008083540402835291602001916139dd565b820191906000526020600020905b8154815290600101906020018083116139c057829003601f168201915b505050505081526020016006820180546139f690615995565b80601f0160208091040260200160405190810160405280929190818152602001828054613a2290615995565b8015613a6f5780601f10613a4457610100808354040283529160200191613a6f565b820191906000526020600020905b815481529060010190602001808311613a5257829003601f168201915b50505050508152602001600782018054613a8890615995565b80601f0160208091040260200160405190810160405280929190818152602001828054613ab490615995565b8015613b015780601f10613ad657610100808354040283529160200191613b01565b820191906000526020600020905b815481529060010190602001808311613ae457829003601f168201915b50505050508152602001600882018054613b1a90615995565b80601f0160208091040260200160405190810160405280929190818152602001828054613b4690615995565b8015613b935780601f10613b6857610100808354040283529160200191613b93565b820191906000526020600020905b815481529060010190602001808311613b7657829003601f168201915b50505050508152602001600982018054613bac90615995565b80601f0160208091040260200160405190810160405280929190818152602001828054613bd890615995565b8015613c255780601f10613bfa57610100808354040283529160200191613c25565b820191906000526020600020905b815481529060010190602001808311613c0857829003601f168201915b5050505050815250509050806000015181602001518260400151836060015184608001518560a001518660c001518760e001518861010001518961012001519b509b509b509b509b509b509b509b509b509b505050613c94565b8080613c8a906159c6565b9150506136ab565b505b9193959799509193959799565b60001515613cae8a614a19565b151514613cf0576040517f08c379a0000000000000000000000000000000000000000000000000000000008152600401613ce790615d78565b60405180910390fd5b60056000815480929190613d03906159c6565b919050555060405180610140016040528060055481526020018a73ffffffffffffffffffffffffffffffffffffffff168152602001898152602001888152602001878152602001868152602001858152602001848152602001838152602001828152506002600060055481526020019081526020016000206000820151816000015560208201518160010160006101000a81548173ffffffffffffffffffffffffffffffffffffffff021916908373ffffffffffffffffffffffffffffffffffffffff1602179055506040820151816002019081613de19190615c26565b506060820151816003019081613df79190615c26565b506080820151816004019081613e0d9190615c26565b5060a0820151816005019081613e239190615c26565b5060c0820151816006019081613e399190615c26565b5060e0820151816007019081613e4f9190615c26565b50610100820151816008019081613e669190615c26565b50610120820151816009019081613e7d9190615c26565b50905050505050505050505050565b600080600190505b6003548111613f36578273ffffffffffffffffffffffffffffffffffffffff1660008083815260200190815260200160002060010160009054906101000a900473ffffffffffffffffffffffffffffffffffffffff1673ffffffffffffffffffffffffffffffffffffffff1603613f235760008082815260200190815260200160002060020154915050613f38565b8080613f2e906159c6565b915050613e94565b505b919050565b6000600454821115613f84576040517f08c379a0000000000000000000000000000000000000000000000000000000008152600401613f7b906157dc565b60405180910390fd5b6000600160008481526020019081526020016000206040518060e0016040529081600082015481526020016001820154815260200160028201548152602001600382018054613fd290615995565b80601f0160208091040260200160405190810160405280929190818152602001828054613ffe90615995565b801561404b5780601f106140205761010080835404028352916020019161404b565b820191906000526020600020905b81548152906001019060200180831161402e57829003601f168201915b5050505050815260200160048201805461406490615995565b80601f016020809104026020016040519081016040528092919081815260200182805461409090615995565b80156140dd5780601f106140b2576101008083540402835291602001916140dd565b820191906000526020600020905b8154815290600101906020018083116140c057829003601f168201915b505050505081526020016005820180546140f690615995565b80601f016020809104026020016040519081016040528092919081815260200182805461412290615995565b801561416f5780601f106141445761010080835404028352916020019161416f565b820191906000526020600020905b81548152906001019060200180831161415257829003601f168201915b5050505050815260200160068201805461418890615995565b80601f01602080910402602001604051908101604052809291908181526020018280546141b490615995565b80156142015780601f106141d657610100808354040283529160200191614201565b820191906000526020600020905b8154815290600101906020018083116141e457829003601f168201915b50505050508152505090506000816040015114915050919050565b6001151561422987614978565b15151461426b576040517f08c379a000000000000000000000000000000000000000000000000000000000815260040161426290615de4565b60405180910390fd5b600080600190505b60035481116142ff578773ffffffffffffffffffffffffffffffffffffffff1660008083815260200190815260200160002060010160009054906101000a900473ffffffffffffffffffffffffffffffffffffffff1673ffffffffffffffffffffffffffffffffffffffff16036142ec578091506142ff565b80806142f7906159c6565b915050614273565b5085600080838152602001908152602001600020600201541015614358576040517f08c379a000000000000000000000000000000000000000000000000000000000815260040161434f90615e76565b60405180910390fd5b6004600081548092919061436b906159c6565b91905055506040518060e0016040528060045481526020018281526020018781526020018681526020018581526020018481526020018381525060016000600454815260200190815260200160002060008201518160000155602082015181600101556040820151816002015560608201518160030190816143ed9190615c26565b5060808201518160040190816144039190615c26565b5060a08201518160050190816144199190615c26565b5060c082015181600601908161442f9190615c26565b509050508560008083815260200190815260200160002060020160008282546144589190615903565b9250508190555050505050505050565b6004548111156144ad576040517f08c379a00000000000000000000000000000000000000000000000000000000081526004016144a4906157dc565b60405180910390fd5b6000600160008381526020019081526020016000206040518060e00160405290816000820154815260200160018201548152602001600282015481526020016003820180546144fb90615995565b80601f016020809104026020016040519081016040528092919081815260200182805461452790615995565b80156145745780601f1061454957610100808354040283529160200191614574565b820191906000526020600020905b81548152906001019060200180831161455757829003601f168201915b5050505050815260200160048201805461458d90615995565b80601f01602080910402602001604051908101604052809291908181526020018280546145b990615995565b80156146065780601f106145db57610100808354040283529160200191614606565b820191906000526020600020905b8154815290600101906020018083116145e957829003601f168201915b5050505050815260200160058201805461461f90615995565b80601f016020809104026020016040519081016040528092919081815260200182805461464b90615995565b80156146985780601f1061466d57610100808354040283529160200191614698565b820191906000526020600020905b81548152906001019060200180831161467b57829003601f168201915b505050505081526020016006820180546146b190615995565b80601f01602080910402602001604051908101604052809291908181526020018280546146dd90615995565b801561472a5780601f106146ff5761010080835404028352916020019161472a565b820191906000526020600020905b81548152906001019060200180831161470d57829003601f168201915b5050505050815250509050806040015160008083602001518152602001908152602001600020600201541015614795576040517f08c379a000000000000000000000000000000000000000000000000000000000815260040161478c90615e76565b60405180910390fd5b80604001516000808360200151815260200190815260200160002060020160008282546147c29190615903565b925050819055505050565b600080600190505b6003548111614861578273ffffffffffffffffffffffffffffffffffffffff1660008083815260200190815260200160002060010160009054906101000a900473ffffffffffffffffffffffffffffffffffffffff1673ffffffffffffffffffffffffffffffffffffffff160361484e57809150614861565b8080614859906159c6565b9150506147d5565b50600081116148a5576040517f08c379a000000000000000000000000000000000000000000000000000000000815260040161489c90615de4565b60405180910390fd5b3373ffffffffffffffffffffffffffffffffffffffff1660008083815260200190815260200160002060010160009054906101000a900473ffffffffffffffffffffffffffffffffffffffff1673ffffffffffffffffffffffffffffffffffffffff1614614948576040517f08c379a000000000000000000000000000000000000000000000000000000000815260040161493f90615f08565b60405180910390fd5b34600080838152602001908152602001600020600201600082825461496d9190615cf8565b925050819055505050565b600080600190505b6003548111614a0e578273ffffffffffffffffffffffffffffffffffffffff1660008083815260200190815260200160002060010160009054906101000a900473ffffffffffffffffffffffffffffffffffffffff1673ffffffffffffffffffffffffffffffffffffffff16036149fb576001915050614a14565b8080614a06906159c6565b915050614980565b50600090505b919050565b600080600190505b6005548111614ab0578273ffffffffffffffffffffffffffffffffffffffff166002600083815260200190815260200160002060010160009054906101000a900473ffffffffffffffffffffffffffffffffffffffff1673ffffffffffffffffffffffffffffffffffffffff1603614a9d576001915050614ab6565b8080614aa8906159c6565b915050614a21565b50600090505b919050565b6000604051905090565b600080fd5b600080fd5b6000819050919050565b614ae281614acf565b8114614aed57600080fd5b50565b600081359050614aff81614ad9565b92915050565b60008060408385031215614b1c57614b1b614ac5565b5b6000614b2a85828601614af0565b9250506020614b3b85828601614af0565b9150509250929050565b600081519050919050565b600082825260208201905092915050565b6000819050602082019050919050565b614b7a81614acf565b82525050565b6000614b8c8383614b71565b60208301905092915050565b6000602082019050919050565b6000614bb082614b45565b614bba8185614b50565b9350614bc583614b61565b8060005b83811015614bf6578151614bdd8882614b80565b9750614be883614b98565b925050600181019050614bc9565b5085935050505092915050565b600081519050919050565b600082825260208201905092915050565b6000819050602082019050919050565b600073ffffffffffffffffffffffffffffffffffffffff82169050919050565b6000614c5a82614c2f565b9050919050565b614c6a81614c4f565b82525050565b6000614c7c8383614c61565b60208301905092915050565b6000602082019050919050565b6000614ca082614c03565b614caa8185614c0e565b9350614cb583614c1f565b8060005b83811015614ce6578151614ccd8882614c70565b9750614cd883614c88565b925050600181019050614cb9565b5085935050505092915050565b600081519050919050565b600082825260208201905092915050565b6000819050602082019050919050565b600081519050919050565b600082825260208201905092915050565b60005b83811015614d59578082015181840152602081019050614d3e565b60008484015250505050565b6000601f19601f8301169050919050565b6000614d8182614d1f565b614d8b8185614d2a565b9350614d9b818560208601614d3b565b614da481614d65565b840191505092915050565b6000614dbb8383614d76565b905092915050565b6000602082019050919050565b6000614ddb82614cf3565b614de58185614cfe565b935083602082028501614df785614d0f565b8060005b85811015614e335784840389528151614e148582614daf565b9450614e1f83614dc3565b925060208a01995050600181019050614dfb565b50829750879550505050505092915050565b6000610140820190508181036000830152614e60818d614ba5565b90508181036020830152614e74818c614c95565b90508181036040830152614e88818b614dd0565b90508181036060830152614e9c818a614dd0565b90508181036080830152614eb08189614dd0565b905081810360a0830152614ec48188614dd0565b905081810360c0830152614ed88187614dd0565b905081810360e0830152614eec8186614dd0565b9050818103610100830152614f018185614dd0565b9050818103610120830152614f168184614dd0565b90509b9a5050505050505050505050565b614f3081614c4f565b8114614f3b57600080fd5b50565b600081359050614f4d81614f27565b92915050565b600080fd5b600080fd5b7f4e487b7100000000000000000000000000000000000000000000000000000000600052604160045260246000fd5b614f9582614d65565b810181811067ffffffffffffffff82111715614fb457614fb3614f5d565b5b80604052505050565b6000614fc7614abb565b9050614fd38282614f8c565b919050565b600067ffffffffffffffff821115614ff357614ff2614f5d565b5b614ffc82614d65565b9050602081019050919050565b82818337600083830152505050565b600061502b61502684614fd8565b614fbd565b90508281526020810184848401111561504757615046614f58565b5b615052848285615009565b509392505050565b600082601f83011261506f5761506e614f53565b5b813561507f848260208601615018565b91505092915050565b60008060008060008060008060006101208a8c0312156150ab576150aa614ac5565b5b60006150b98c828d01614f3e565b99505060208a013567ffffffffffffffff8111156150da576150d9614aca565b5b6150e68c828d0161505a565b98505060408a013567ffffffffffffffff81111561510757615106614aca565b5b6151138c828d0161505a565b97505060608a013567ffffffffffffffff81111561513457615133614aca565b5b6151408c828d0161505a565b96505060808a013567ffffffffffffffff81111561516157615160614aca565b5b61516d8c828d0161505a565b95505060a08a013567ffffffffffffffff81111561518e5761518d614aca565b5b61519a8c828d0161505a565b94505060c08a013567ffffffffffffffff8111156151bb576151ba614aca565b5b6151c78c828d0161505a565b93505060e08a013567ffffffffffffffff8111156151e8576151e7614aca565b5b6151f48c828d0161505a565b9250506101008a013567ffffffffffffffff81111561521657615215614aca565b5b6152228c828d0161505a565b9150509295985092959850929598565b60006020828403121561524857615247614ac5565b5b600061525684828501614f3e565b91505092915050565b61526881614acf565b82525050565b61527781614c4f565b82525050565b600082825260208201905092915050565b600061529982614d1f565b6152a3818561527d565b93506152b3818560208601614d3b565b6152bc81614d65565b840191505092915050565b6000610160820190506152dd600083018e61525f565b6152ea602083018d61526e565b6152f7604083018c61525f565b8181036060830152615309818b61528e565b9050818103608083015261531d818a61528e565b905081810360a0830152615331818961528e565b905081810360c0830152615345818861528e565b905081810360e0830152615359818761528e565b905081810361010083015261536e818661528e565b9050818103610120830152615383818561528e565b9050818103610140830152615398818461528e565b90509c9b505050505050505050505050565b600060c08201905081810360008301526153c48189614ba5565b905081810360208301526153d88188614ba5565b905081810360408301526153ec8187614dd0565b905081810360608301526154008186614dd0565b905081810360808301526154148185614dd0565b905081810360a08301526154288184614dd0565b9050979650505050505050565b60006020828403121561544b5761544a614ac5565b5b600061545984828501614af0565b91505092915050565b60008115159050919050565b61547781615462565b82525050565b6000602082019050615492600083018461546e565b92915050565b600060e08201905081810360008301526154b2818a614ba5565b905081810360208301526154c68189614c95565b905081810360408301526154da8188614ba5565b905081810360608301526154ee8187614dd0565b905081810360808301526155028186614dd0565b905081810360a08301526155168185614dd0565b905081810360c083015261552a8184614dd0565b905098975050505050505050565b60006101408201905061554e600083018d61525f565b61555b602083018c61526e565b818103604083015261556d818b61528e565b90508181036060830152615581818a61528e565b90508181036080830152615595818961528e565b905081810360a08301526155a9818861528e565b905081810360c08301526155bd818761528e565b905081810360e08301526155d1818661528e565b90508181036101008301526155e6818561528e565b90508181036101208301526155fb818461528e565b90509b9a5050505050505050505050565b6000602082019050615621600083018461525f565b92915050565b60008060008060008060c0878903121561564457615643614ac5565b5b600061565289828a01614f3e565b965050602061566389828a01614af0565b955050604087013567ffffffffffffffff81111561568457615683614aca565b5b61569089828a0161505a565b945050606087013567ffffffffffffffff8111156156b1576156b0614aca565b5b6156bd89828a0161505a565b935050608087013567ffffffffffffffff8111156156de576156dd614aca565b5b6156ea89828a0161505a565b92505060a087013567ffffffffffffffff81111561570b5761570a614aca565b5b61571789828a0161505a565b9150509295509295509295565b7f5075626c697368657220646f6573206e6f742065786973740000000000000000600082015250565b600061575a60188361527d565b915061576582615724565b602082019050919050565b600060208201905081810360008301526157898161574d565b9050919050565b7f43616d706169676e20646f6573206e6f74206578697374000000000000000000600082015250565b60006157c660178361527d565b91506157d182615790565b602082019050919050565b600060208201905081810360008301526157f5816157b9565b9050919050565b7f4f6e6c79207075626c69736865722063616e2077697468647261770000000000600082015250565b6000615832601b8361527d565b915061583d826157fc565b602082019050919050565b6000602082019050818103600083015261586181615825565b9050919050565b7f43616d706169676e2062616c616e6365206973207a65726f0000000000000000600082015250565b600061589e60188361527d565b91506158a982615868565b602082019050919050565b600060208201905081810360008301526158cd81615891565b9050919050565b7f4e487b7100000000000000000000000000000000000000000000000000000000600052601160045260246000fd5b600061590e82614acf565b915061591983614acf565b9250828203905081811115615931576159306158d4565b5b92915050565b7f4e487b7100000000000000000000000000000000000000000000000000000000600052603260045260246000fd5b7f4e487b7100000000000000000000000000000000000000000000000000000000600052602260045260246000fd5b600060028204905060018216806159ad57607f821691505b6020821081036159c0576159bf615966565b5b50919050565b60006159d182614acf565b91507fffffffffffffffffffffffffffffffffffffffffffffffffffffffffffffffff8203615a0357615a026158d4565b5b600182019050919050565b7f4164766572746973657220616c72656164792065786973747300000000000000600082015250565b6000615a4460198361527d565b9150615a4f82615a0e565b602082019050919050565b60006020820190508181036000830152615a7381615a37565b9050919050565b60008190508160005260206000209050919050565b60006020601f8301049050919050565b600082821b905092915050565b600060088302615adc7fffffffffffffffffffffffffffffffffffffffffffffffffffffffffffffffff82615a9f565b615ae68683615a9f565b95508019841693508086168417925050509392505050565b6000819050919050565b6000615b23615b1e615b1984614acf565b615afe565b614acf565b9050919050565b6000819050919050565b615b3d83615b08565b615b51615b4982615b2a565b848454615aac565b825550505050565b600090565b615b66615b59565b615b71818484615b34565b505050565b5b81811015615b9557615b8a600082615b5e565b600181019050615b77565b5050565b601f821115615bda57615bab81615a7a565b615bb484615a8f565b81016020851015615bc3578190505b615bd7615bcf85615a8f565b830182615b76565b50505b505050565b600082821c905092915050565b6000615bfd60001984600802615bdf565b1980831691505092915050565b6000615c168383615bec565b9150826002028217905092915050565b615c2f82614d1f565b67ffffffffffffffff811115615c4857615c47614f5d565b5b615c528254615995565b615c5d828285615b99565b600060209050601f831160018114615c905760008415615c7e578287015190505b615c888582615c0a565b865550615cf0565b601f198416615c9e86615a7a565b60005b82811015615cc657848901518255600182019150602085019450602081019050615ca1565b86831015615ce35784890151615cdf601f891682615bec565b8355505b6001600288020188555050505b505050505050565b6000615d0382614acf565b9150615d0e83614acf565b9250828201905080821115615d2657615d256158d4565b5b92915050565b7f5075626c697368657220616c7265616479206578697374730000000000000000600082015250565b6000615d6260188361527d565b9150615d6d82615d2c565b602082019050919050565b60006020820190508181036000830152615d9181615d55565b9050919050565b7f4164766572746973657220646f6573206e6f7420657869737400000000000000600082015250565b6000615dce60198361527d565b9150615dd982615d98565b602082019050919050565b60006020820190508181036000830152615dfd81615dc1565b9050919050565b7f42616c616e6365206f662061647665727469736572206973206e6f7420656e6f60008201527f7567680000000000000000000000000000000000000000000000000000000000602082015250565b6000615e6060238361527d565b9150615e6b82615e04565b604082019050919050565b60006020820190508181036000830152615e8f81615e53565b9050919050565b7f4f6e6c7920616476657274697365722063616e206465706f7369742066756e6460008201527f7300000000000000000000000000000000000000000000000000000000000000602082015250565b6000615ef260218361527d565b9150615efd82615e96565b604082019050919050565b60006020820190508181036000830152615f2181615ee5565b905091905056fea2646970667358221220402d5afb587b0ce1aba27495206105301e757a2a2f2600418851101ebba1b13864736f6c63430008120033",
  "linkReferences": {},
  "deployedLinkReferences": {}
}