{
  "_format": "hh-sol-artifact-1",
  "contractName": "Swirl",
  "sourceName": "contracts/Swirl.sol",
  "abi": [
    {
      "inputs": [
        {
          "internalType": "address",
          "name": "_wallet",
          "type": "address"
        },
        {
          "internalType": "string",
          "name": "_orgUsername",
          "type": "string"
        },
        {
          "internalType": "string",
          "name": "_orgname",
          "type": "string"
        },
        {
          "internalType": "string",
          "name": "_orgLogo",
          "type": "string"
        },
        {
          "internalType": "string",
          "name": "_orgdiscription",
          "type": "string"
        },
        {
          "internalType": "string",
          "name": "_orgOrigin",
          "type": "string"
        },
        {
          "internalType": "string",
          "name": "_empstrength",
          "type": "string"
        },
        {
          "internalType": "string",
          "name": "_orgFounder",
          "type": "string"
        },
        {
          "internalType": "string",
          "name": "_orgCatagory",
          "type": "string"
        }
      ],
      "name": "createAdvertiser",
      "outputs": [],
      "stateMutability": "nonpayable",
      "type": "function"
    },
    {
      "inputs": [
        {
          "internalType": "address",
          "name": "_advertiserAddress",
          "type": "address"
        },
        {
          "internalType": "uint256",
          "name": "_balance",
          "type": "uint256"
        }
      ],
      "name": "createCampaign",
      "outputs": [],
      "stateMutability": "nonpayable",
      "type": "function"
    },
    {
      "inputs": [
        {
          "internalType": "address",
          "name": "_wallet",
          "type": "address"
        },
        {
          "internalType": "string",
          "name": "_orgUsername",
          "type": "string"
        },
        {
          "internalType": "string",
          "name": "_orgname",
          "type": "string"
        },
        {
          "internalType": "string",
          "name": "_orgLogo",
          "type": "string"
        },
        {
          "internalType": "string",
          "name": "_orgdiscription",
          "type": "string"
        },
        {
          "internalType": "string",
          "name": "_orgOrigin",
          "type": "string"
        },
        {
          "internalType": "string",
          "name": "_empstrength",
          "type": "string"
        },
        {
          "internalType": "string",
          "name": "_orgFounder",
          "type": "string"
        },
        {
          "internalType": "string",
          "name": "_orgCatagory",
          "type": "string"
        }
      ],
      "name": "createPublisher",
      "outputs": [],
      "stateMutability": "nonpayable",
      "type": "function"
    },
    {
      "inputs": [
        {
          "internalType": "uint256",
          "name": "_advertiserId",
          "type": "uint256"
        }
      ],
      "name": "deposit",
      "outputs": [],
      "stateMutability": "payable",
      "type": "function"
    },
    {
      "inputs": [
        {
          "internalType": "address",
          "name": "_wallet",
          "type": "address"
        }
      ],
      "name": "getAdvertiser",
      "outputs": [
        {
          "internalType": "uint256",
          "name": "",
          "type": "uint256"
        },
        {
          "internalType": "address",
          "name": "",
          "type": "address"
        },
        {
          "internalType": "uint256",
          "name": "",
          "type": "uint256"
        },
        {
          "internalType": "string",
          "name": "",
          "type": "string"
        },
        {
          "internalType": "string",
          "name": "",
          "type": "string"
        },
        {
          "internalType": "string",
          "name": "",
          "type": "string"
        },
        {
          "internalType": "string",
          "name": "",
          "type": "string"
        },
        {
          "internalType": "string",
          "name": "",
          "type": "string"
        },
        {
          "internalType": "string",
          "name": "",
          "type": "string"
        },
        {
          "internalType": "string",
          "name": "",
          "type": "string"
        },
        {
          "internalType": "string",
          "name": "",
          "type": "string"
        }
      ],
      "stateMutability": "view",
      "type": "function"
    },
    {
      "inputs": [],
      "name": "getAllAdvertisers",
      "outputs": [
        {
          "internalType": "uint256[]",
          "name": "ids",
          "type": "uint256[]"
        },
        {
          "internalType": "address[]",
          "name": "addresses",
          "type": "address[]"
        },
        {
          "internalType": "string[]",
          "name": "orgUsernames",
          "type": "string[]"
        },
        {
          "internalType": "string[]",
          "name": "orgnames",
          "type": "string[]"
        },
        {
          "internalType": "string[]",
          "name": "orgLogos",
          "type": "string[]"
        },
        {
          "internalType": "string[]",
          "name": "orgdiscriptions",
          "type": "string[]"
        },
        {
          "internalType": "string[]",
          "name": "orgOrigins",
          "type": "string[]"
        },
        {
          "internalType": "string[]",
          "name": "empstrengths",
          "type": "string[]"
        },
        {
          "internalType": "string[]",
          "name": "orgFounders",
          "type": "string[]"
        },
        {
          "internalType": "string[]",
          "name": "orgCatagories",
          "type": "string[]"
        }
      ],
      "stateMutability": "view",
      "type": "function"
    },
    {
      "inputs": [],
      "name": "getAllCampaigns",
      "outputs": [
        {
          "internalType": "uint256[]",
          "name": "",
          "type": "uint256[]"
        },
        {
          "internalType": "address[]",
          "name": "",
          "type": "address[]"
        },
        {
          "internalType": "uint256[]",
          "name": "",
          "type": "uint256[]"
        }
      ],
      "stateMutability": "view",
      "type": "function"
    },
    {
      "inputs": [],
      "name": "getAllPublishers",
      "outputs": [
        {
          "internalType": "uint256[]",
          "name": "ids",
          "type": "uint256[]"
        },
        {
          "internalType": "address[]",
          "name": "addresses",
          "type": "address[]"
        },
        {
          "internalType": "string[]",
          "name": "orgUsernames",
          "type": "string[]"
        },
        {
          "internalType": "string[]",
          "name": "orgnames",
          "type": "string[]"
        },
        {
          "internalType": "string[]",
          "name": "orgLogos",
          "type": "string[]"
        },
        {
          "internalType": "string[]",
          "name": "orgdiscriptions",
          "type": "string[]"
        },
        {
          "internalType": "string[]",
          "name": "orgOrigins",
          "type": "string[]"
        },
        {
          "internalType": "string[]",
          "name": "empstrengths",
          "type": "string[]"
        },
        {
          "internalType": "string[]",
          "name": "orgFounders",
          "type": "string[]"
        },
        {
          "internalType": "string[]",
          "name": "orgCatagories",
          "type": "string[]"
        }
      ],
      "stateMutability": "view",
      "type": "function"
    },
    {
      "inputs": [
        {
          "internalType": "uint256",
          "name": "_campaignId",
          "type": "uint256"
        }
      ],
      "name": "getCampaign",
      "outputs": [
        {
          "internalType": "uint256",
          "name": "",
          "type": "uint256"
        },
        {
          "internalType": "address",
          "name": "",
          "type": "address"
        },
        {
          "internalType": "uint256",
          "name": "",
          "type": "uint256"
        }
      ],
      "stateMutability": "view",
      "type": "function"
    },
    {
      "inputs": [
        {
          "internalType": "address",
          "name": "_wallet",
          "type": "address"
        }
      ],
      "name": "getPublisher",
      "outputs": [
        {
          "internalType": "uint256",
          "name": "",
          "type": "uint256"
        },
        {
          "internalType": "address",
          "name": "",
          "type": "address"
        },
        {
          "internalType": "string",
          "name": "",
          "type": "string"
        },
        {
          "internalType": "string",
          "name": "",
          "type": "string"
        },
        {
          "internalType": "string",
          "name": "",
          "type": "string"
        },
        {
          "internalType": "string",
          "name": "",
          "type": "string"
        },
        {
          "internalType": "string",
          "name": "",
          "type": "string"
        },
        {
          "internalType": "string",
          "name": "",
          "type": "string"
        },
        {
          "internalType": "string",
          "name": "",
          "type": "string"
        },
        {
          "internalType": "string",
          "name": "",
          "type": "string"
        }
      ],
      "stateMutability": "view",
      "type": "function"
    },
    {
      "inputs": [
        {
          "internalType": "uint256",
          "name": "_publisherId",
          "type": "uint256"
        },
        {
          "internalType": "uint256",
          "name": "_campaignId",
          "type": "uint256"
        }
      ],
      "name": "withdraw",
      "outputs": [],
      "stateMutability": "nonpayable",
      "type": "function"
    }
  ],
  "bytecode": "0x608060405234801561001057600080fd5b506143a4806100206000396000f3fe60806040526004361061009c5760003560e01c80636d321f7a116100645780636d321f7a1461018f57806372536e90146101c357806386cdf6041461020a5780638b043e08146102375780639cc52aee1461027d578063b6b55f25146102a65761009c565b8063064e1faf146100a1578063441a3e70146100ca5780634c96f281146100f35780635598f8cc1461012757806365a2db1c14610166575b600080fd5b3480156100ad57600080fd5b506100c860048036038101906100c391906131f1565b6102c2565b005b3480156100d657600080fd5b506100f160048036038101906100ec9190613231565b610442565b005b3480156100ff57600080fd5b506101086106b4565b60405161011e9a9998979695949392919061353f565b60405180910390f35b34801561013357600080fd5b5061014e60048036038101906101499190613621565b611137565b60405161015d9392919061366c565b60405180910390f35b34801561017257600080fd5b5061018d600480360381019061018891906137d8565b611213565b005b34801561019b57600080fd5b506101a461140f565b6040516101ba9a9998979695949392919061353f565b60405180910390f35b3480156101cf57600080fd5b506101ea60048036038101906101e59190613982565b611e88565b6040516102019b9a999897969594939291906139f9565b60405180910390f35b34801561021657600080fd5b5061021f6124a8565b60405161022e93929190613adc565b60405180910390f35b34801561024357600080fd5b5061025e60048036038101906102599190613982565b6126f8565b6040516102749a99989796959493929190613b28565b60405180910390f35b34801561028957600080fd5b506102a4600480360381019061029f91906137d8565b612d04565b005b6102c060048036038101906102bb9190613621565b612eef565b005b600115156102cf83613006565b151514610311576040517f08c379a000000000000000000000000000000000000000000000000000000000815260040161030890613c48565b60405180910390fd5b600080600190505b60035481116103a5578373ffffffffffffffffffffffffffffffffffffffff1660008083815260200190815260200160002060010160009054906101000a900473ffffffffffffffffffffffffffffffffffffffff1673ffffffffffffffffffffffffffffffffffffffff1603610392578091506103a5565b808061039d90613c97565b915050610319565b50600460008154809291906103b990613c97565b919050555060405180606001604052806004548152602001828152602001838152506001600060045481526020019081526020016000206000820151816000015560208201518160010155604082015181600201559050508160008083815260200190815260200160002060020160008282546104369190613cdf565b92505081905550505050565b600554821115610487576040517f08c379a000000000000000000000000000000000000000000000000000000000815260040161047e90613d5f565b60405180910390fd5b6004548111156104cc576040517f08c379a00000000000000000000000000000000000000000000000000000000081526004016104c390613dcb565b60405180910390fd5b3373ffffffffffffffffffffffffffffffffffffffff166002600084815260200190815260200160002060010160009054906101000a900473ffffffffffffffffffffffffffffffffffffffff1673ffffffffffffffffffffffffffffffffffffffff1614610570576040517f08c379a000000000000000000000000000000000000000000000000000000000815260040161056790613e37565b60405180910390fd5b600060016000838152602001908152602001600020600201549050600081116105ce576040517f08c379a00000000000000000000000000000000000000000000000000000000081526004016105c590613ea3565b60405180910390fd5b60006001600084815260200190815260200160002060020181905550806000806001600086815260200190815260200160002060010154815260200190815260200160002060020160008282546106259190613ec3565b9250508190555060006002600085815260200190815260200160002060010160009054906101000a900473ffffffffffffffffffffffffffffffffffffffff1690508073ffffffffffffffffffffffffffffffffffffffff166108fc839081150290604051600060405180830381858888f193505050501580156106ad573d6000803e3d6000fd5b5050505050565b60608060608060608060608060608060055467ffffffffffffffff8111156106df576106de6136ad565b5b60405190808252806020026020018201604052801561070d5781602001602082028036833780820191505090505b50995060055467ffffffffffffffff81111561072c5761072b6136ad565b5b60405190808252806020026020018201604052801561075a5781602001602082028036833780820191505090505b50985060055467ffffffffffffffff811115610779576107786136ad565b5b6040519080825280602002602001820160405280156107ac57816020015b60608152602001906001900390816107975790505b50975060055467ffffffffffffffff8111156107cb576107ca6136ad565b5b6040519080825280602002602001820160405280156107fe57816020015b60608152602001906001900390816107e95790505b50965060055467ffffffffffffffff81111561081d5761081c6136ad565b5b60405190808252806020026020018201604052801561085057816020015b606081526020019060019003908161083b5790505b50955060055467ffffffffffffffff81111561086f5761086e6136ad565b5b6040519080825280602002602001820160405280156108a257816020015b606081526020019060019003908161088d5790505b50945060055467ffffffffffffffff8111156108c1576108c06136ad565b5b6040519080825280602002602001820160405280156108f457816020015b60608152602001906001900390816108df5790505b50935060055467ffffffffffffffff811115610913576109126136ad565b5b60405190808252806020026020018201604052801561094657816020015b60608152602001906001900390816109315790505b50925060055467ffffffffffffffff811115610965576109646136ad565b5b60405190808252806020026020018201604052801561099857816020015b60608152602001906001900390816109835790505b50915060055467ffffffffffffffff8111156109b7576109b66136ad565b5b6040519080825280602002602001820160405280156109ea57816020015b60608152602001906001900390816109d55790505b5090506000600190505b600554811161112a5760026000828152602001908152602001600020600001548b600183610a229190613ec3565b81518110610a3357610a32613ef7565b5b6020026020010181815250506002600082815260200190815260200160002060010160009054906101000a900473ffffffffffffffffffffffffffffffffffffffff168a600183610a849190613ec3565b81518110610a9557610a94613ef7565b5b602002602001019073ffffffffffffffffffffffffffffffffffffffff16908173ffffffffffffffffffffffffffffffffffffffff1681525050600260008281526020019081526020016000206002018054610af090613f55565b80601f0160208091040260200160405190810160405280929190818152602001828054610b1c90613f55565b8015610b695780601f10610b3e57610100808354040283529160200191610b69565b820191906000526020600020905b815481529060010190602001808311610b4c57829003601f168201915b505050505089600183610b7c9190613ec3565b81518110610b8d57610b8c613ef7565b5b6020026020010181905250600260008281526020019081526020016000206003018054610bb990613f55565b80601f0160208091040260200160405190810160405280929190818152602001828054610be590613f55565b8015610c325780601f10610c0757610100808354040283529160200191610c32565b820191906000526020600020905b815481529060010190602001808311610c1557829003601f168201915b505050505088600183610c459190613ec3565b81518110610c5657610c55613ef7565b5b6020026020010181905250600260008281526020019081526020016000206004018054610c8290613f55565b80601f0160208091040260200160405190810160405280929190818152602001828054610cae90613f55565b8015610cfb5780601f10610cd057610100808354040283529160200191610cfb565b820191906000526020600020905b815481529060010190602001808311610cde57829003601f168201915b505050505087600183610d0e9190613ec3565b81518110610d1f57610d1e613ef7565b5b6020026020010181905250600260008281526020019081526020016000206005018054610d4b90613f55565b80601f0160208091040260200160405190810160405280929190818152602001828054610d7790613f55565b8015610dc45780601f10610d9957610100808354040283529160200191610dc4565b820191906000526020600020905b815481529060010190602001808311610da757829003601f168201915b505050505086600183610dd79190613ec3565b81518110610de857610de7613ef7565b5b6020026020010181905250600260008281526020019081526020016000206006018054610e1490613f55565b80601f0160208091040260200160405190810160405280929190818152602001828054610e4090613f55565b8015610e8d5780601f10610e6257610100808354040283529160200191610e8d565b820191906000526020600020905b815481529060010190602001808311610e7057829003601f168201915b505050505085600183610ea09190613ec3565b81518110610eb157610eb0613ef7565b5b6020026020010181905250600260008281526020019081526020016000206007018054610edd90613f55565b80601f0160208091040260200160405190810160405280929190818152602001828054610f0990613f55565b8015610f565780601f10610f2b57610100808354040283529160200191610f56565b820191906000526020600020905b815481529060010190602001808311610f3957829003601f168201915b505050505084600183610f699190613ec3565b81518110610f7a57610f79613ef7565b5b6020026020010181905250600260008281526020019081526020016000206008018054610fa690613f55565b80601f0160208091040260200160405190810160405280929190818152602001828054610fd290613f55565b801561101f5780601f10610ff45761010080835404028352916020019161101f565b820191906000526020600020905b81548152906001019060200180831161100257829003601f168201915b5050505050836001836110329190613ec3565b8151811061104357611042613ef7565b5b602002602001018190525060026000828152602001908152602001600020600901805461106f90613f55565b80601f016020809104026020016040519081016040528092919081815260200182805461109b90613f55565b80156110e85780601f106110bd576101008083540402835291602001916110e8565b820191906000526020600020905b8154815290600101906020018083116110cb57829003601f168201915b5050505050826001836110fb9190613ec3565b8151811061110c5761110b613ef7565b5b6020026020010181905250808061112290613c97565b9150506109f4565b5090919293949596979899565b6000806000600454841115611181576040517f08c379a000000000000000000000000000000000000000000000000000000000815260040161117890613dcb565b60405180910390fd5b6000600160008681526020019081526020016000206040518060600160405290816000820154815260200160018201548152602001600282015481525050905080600001516000808360200151815260200190815260200160002060010160009054906101000a900473ffffffffffffffffffffffffffffffffffffffff168260400151935093509350509193909250565b600015156112208a613006565b151514611262576040517f08c379a000000000000000000000000000000000000000000000000000000000815260040161125990613fd2565b60405180910390fd5b6003600081548092919061127590613c97565b919050555060405180610160016040528060035481526020018a73ffffffffffffffffffffffffffffffffffffffff168152602001600081526020018981526020018881526020018781526020018681526020018581526020018481526020018381526020018281525060008060035481526020019081526020016000206000820151816000015560208201518160010160006101000a81548173ffffffffffffffffffffffffffffffffffffffff021916908373ffffffffffffffffffffffffffffffffffffffff160217905550604082015181600201556060820151816003019081611363919061419e565b506080820151816004019081611379919061419e565b5060a082015181600501908161138f919061419e565b5060c08201518160060190816113a5919061419e565b5060e08201518160070190816113bb919061419e565b506101008201518160080190816113d2919061419e565b506101208201518160090190816113e9919061419e565b5061014082015181600a019081611400919061419e565b50905050505050505050505050565b60608060608060608060608060608060035467ffffffffffffffff81111561143a576114396136ad565b5b6040519080825280602002602001820160405280156114685781602001602082028036833780820191505090505b50995060035467ffffffffffffffff811115611487576114866136ad565b5b6040519080825280602002602001820160405280156114b55781602001602082028036833780820191505090505b50985060035467ffffffffffffffff8111156114d4576114d36136ad565b5b60405190808252806020026020018201604052801561150757816020015b60608152602001906001900390816114f25790505b50975060035467ffffffffffffffff811115611526576115256136ad565b5b60405190808252806020026020018201604052801561155957816020015b60608152602001906001900390816115445790505b50965060035467ffffffffffffffff811115611578576115776136ad565b5b6040519080825280602002602001820160405280156115ab57816020015b60608152602001906001900390816115965790505b50955060035467ffffffffffffffff8111156115ca576115c96136ad565b5b6040519080825280602002602001820160405280156115fd57816020015b60608152602001906001900390816115e85790505b50945060035467ffffffffffffffff81111561161c5761161b6136ad565b5b60405190808252806020026020018201604052801561164f57816020015b606081526020019060019003908161163a5790505b50935060035467ffffffffffffffff81111561166e5761166d6136ad565b5b6040519080825280602002602001820160405280156116a157816020015b606081526020019060019003908161168c5790505b50925060035467ffffffffffffffff8111156116c0576116bf6136ad565b5b6040519080825280602002602001820160405280156116f357816020015b60608152602001906001900390816116de5790505b50915060035467ffffffffffffffff811115611712576117116136ad565b5b60405190808252806020026020018201604052801561174557816020015b60608152602001906001900390816117305790505b5090506000600190505b6003548111611e7b57600080828152602001908152602001600020600001548b60018361177c9190613ec3565b8151811061178d5761178c613ef7565b5b60200260200101818152505060008082815260200190815260200160002060010160009054906101000a900473ffffffffffffffffffffffffffffffffffffffff168a6001836117dd9190613ec3565b815181106117ee576117ed613ef7565b5b602002602001019073ffffffffffffffffffffffffffffffffffffffff16908173ffffffffffffffffffffffffffffffffffffffff1681525050600080828152602001908152602001600020600301805461184890613f55565b80601f016020809104026020016040519081016040528092919081815260200182805461187490613f55565b80156118c15780601f10611896576101008083540402835291602001916118c1565b820191906000526020600020905b8154815290600101906020018083116118a457829003601f168201915b5050505050896001836118d49190613ec3565b815181106118e5576118e4613ef7565b5b6020026020010181905250600080828152602001908152602001600020600401805461191090613f55565b80601f016020809104026020016040519081016040528092919081815260200182805461193c90613f55565b80156119895780601f1061195e57610100808354040283529160200191611989565b820191906000526020600020905b81548152906001019060200180831161196c57829003601f168201915b50505050508860018361199c9190613ec3565b815181106119ad576119ac613ef7565b5b602002602001018190525060008082815260200190815260200160002060050180546119d890613f55565b80601f0160208091040260200160405190810160405280929190818152602001828054611a0490613f55565b8015611a515780601f10611a2657610100808354040283529160200191611a51565b820191906000526020600020905b815481529060010190602001808311611a3457829003601f168201915b505050505087600183611a649190613ec3565b81518110611a7557611a74613ef7565b5b60200260200101819052506000808281526020019081526020016000206006018054611aa090613f55565b80601f0160208091040260200160405190810160405280929190818152602001828054611acc90613f55565b8015611b195780601f10611aee57610100808354040283529160200191611b19565b820191906000526020600020905b815481529060010190602001808311611afc57829003601f168201915b505050505086600183611b2c9190613ec3565b81518110611b3d57611b3c613ef7565b5b60200260200101819052506000808281526020019081526020016000206007018054611b6890613f55565b80601f0160208091040260200160405190810160405280929190818152602001828054611b9490613f55565b8015611be15780601f10611bb657610100808354040283529160200191611be1565b820191906000526020600020905b815481529060010190602001808311611bc457829003601f168201915b505050505085600183611bf49190613ec3565b81518110611c0557611c04613ef7565b5b60200260200101819052506000808281526020019081526020016000206008018054611c3090613f55565b80601f0160208091040260200160405190810160405280929190818152602001828054611c5c90613f55565b8015611ca95780601f10611c7e57610100808354040283529160200191611ca9565b820191906000526020600020905b815481529060010190602001808311611c8c57829003601f168201915b505050505084600183611cbc9190613ec3565b81518110611ccd57611ccc613ef7565b5b60200260200101819052506000808281526020019081526020016000206009018054611cf890613f55565b80601f0160208091040260200160405190810160405280929190818152602001828054611d2490613f55565b8015611d715780601f10611d4657610100808354040283529160200191611d71565b820191906000526020600020905b815481529060010190602001808311611d5457829003601f168201915b505050505083600183611d849190613ec3565b81518110611d9557611d94613ef7565b5b6020026020010181905250600080828152602001908152602001600020600a018054611dc090613f55565b80601f0160208091040260200160405190810160405280929190818152602001828054611dec90613f55565b8015611e395780601f10611e0e57610100808354040283529160200191611e39565b820191906000526020600020905b815481529060010190602001808311611e1c57829003601f168201915b505050505082600183611e4c9190613ec3565b81518110611e5d57611e5c613ef7565b5b60200260200101819052508080611e7390613c97565b91505061174f565b5090919293949596979899565b60008060006060806060806060806060806000600190505b6003548111612497578c73ffffffffffffffffffffffffffffffffffffffff1660008083815260200190815260200160002060010160009054906101000a900473ffffffffffffffffffffffffffffffffffffffff1673ffffffffffffffffffffffffffffffffffffffff160361248457600080600083815260200190815260200160002060405180610160016040529081600082015481526020016001820160009054906101000a900473ffffffffffffffffffffffffffffffffffffffff1673ffffffffffffffffffffffffffffffffffffffff1673ffffffffffffffffffffffffffffffffffffffff16815260200160028201548152602001600382018054611fab90613f55565b80601f0160208091040260200160405190810160405280929190818152602001828054611fd790613f55565b80156120245780601f10611ff957610100808354040283529160200191612024565b820191906000526020600020905b81548152906001019060200180831161200757829003601f168201915b5050505050815260200160048201805461203d90613f55565b80601f016020809104026020016040519081016040528092919081815260200182805461206990613f55565b80156120b65780601f1061208b576101008083540402835291602001916120b6565b820191906000526020600020905b81548152906001019060200180831161209957829003601f168201915b505050505081526020016005820180546120cf90613f55565b80601f01602080910402602001604051908101604052809291908181526020018280546120fb90613f55565b80156121485780601f1061211d57610100808354040283529160200191612148565b820191906000526020600020905b81548152906001019060200180831161212b57829003601f168201915b5050505050815260200160068201805461216190613f55565b80601f016020809104026020016040519081016040528092919081815260200182805461218d90613f55565b80156121da5780601f106121af576101008083540402835291602001916121da565b820191906000526020600020905b8154815290600101906020018083116121bd57829003601f168201915b505050505081526020016007820180546121f390613f55565b80601f016020809104026020016040519081016040528092919081815260200182805461221f90613f55565b801561226c5780601f106122415761010080835404028352916020019161226c565b820191906000526020600020905b81548152906001019060200180831161224f57829003601f168201915b5050505050815260200160088201805461228590613f55565b80601f01602080910402602001604051908101604052809291908181526020018280546122b190613f55565b80156122fe5780601f106122d3576101008083540402835291602001916122fe565b820191906000526020600020905b8154815290600101906020018083116122e157829003601f168201915b5050505050815260200160098201805461231790613f55565b80601f016020809104026020016040519081016040528092919081815260200182805461234390613f55565b80156123905780601f1061236557610100808354040283529160200191612390565b820191906000526020600020905b81548152906001019060200180831161237357829003601f168201915b50505050508152602001600a820180546123a990613f55565b80601f01602080910402602001604051908101604052809291908181526020018280546123d590613f55565b80156124225780601f106123f757610100808354040283529160200191612422565b820191906000526020600020905b81548152906001019060200180831161240557829003601f168201915b5050505050815250509050806000015181602001518260400151836060015184608001518560a001518660c001518760e001518861010001518961012001518a61014001519c509c509c509c509c509c509c509c509c509c509c505050612499565b808061248f90613c97565b915050611ea0565b505b91939597999b90929496989a50565b6060806060600060045467ffffffffffffffff8111156124cb576124ca6136ad565b5b6040519080825280602002602001820160405280156124f95781602001602082028036833780820191505090505b509050600060045467ffffffffffffffff81111561251a576125196136ad565b5b6040519080825280602002602001820160405280156125485781602001602082028036833780820191505090505b509050600060045467ffffffffffffffff811115612569576125686136ad565b5b6040519080825280602002602001820160405280156125975781602001602082028036833780820191505090505b5090506000600190505b60045481116126e6576001600082815260200190815260200160002060000154846001836125cf9190613ec3565b815181106125e0576125df613ef7565b5b6020026020010181815250506000806001600084815260200190815260200160002060010154815260200190815260200160002060010160009054906101000a900473ffffffffffffffffffffffffffffffffffffffff16836001836126469190613ec3565b8151811061265757612656613ef7565b5b602002602001019073ffffffffffffffffffffffffffffffffffffffff16908173ffffffffffffffffffffffffffffffffffffffff16815250506001600082815260200190815260200160002060020154826001836126b69190613ec3565b815181106126c7576126c6613ef7565b5b60200260200101818152505080806126de90613c97565b9150506125a1565b50828282955095509550505050909192565b6000806060806060806060806060806000600190505b6005548111612cf5578b73ffffffffffffffffffffffffffffffffffffffff166002600083815260200190815260200160002060010160009054906101000a900473ffffffffffffffffffffffffffffffffffffffff1673ffffffffffffffffffffffffffffffffffffffff1603612ce25760006002600083815260200190815260200160002060405180610140016040529081600082015481526020016001820160009054906101000a900473ffffffffffffffffffffffffffffffffffffffff1673ffffffffffffffffffffffffffffffffffffffff1673ffffffffffffffffffffffffffffffffffffffff16815260200160028201805461281190613f55565b80601f016020809104026020016040519081016040528092919081815260200182805461283d90613f55565b801561288a5780601f1061285f5761010080835404028352916020019161288a565b820191906000526020600020905b81548152906001019060200180831161286d57829003601f168201915b505050505081526020016003820180546128a390613f55565b80601f01602080910402602001604051908101604052809291908181526020018280546128cf90613f55565b801561291c5780601f106128f15761010080835404028352916020019161291c565b820191906000526020600020905b8154815290600101906020018083116128ff57829003601f168201915b5050505050815260200160048201805461293590613f55565b80601f016020809104026020016040519081016040528092919081815260200182805461296190613f55565b80156129ae5780601f10612983576101008083540402835291602001916129ae565b820191906000526020600020905b81548152906001019060200180831161299157829003601f168201915b505050505081526020016005820180546129c790613f55565b80601f01602080910402602001604051908101604052809291908181526020018280546129f390613f55565b8015612a405780601f10612a1557610100808354040283529160200191612a40565b820191906000526020600020905b815481529060010190602001808311612a2357829003601f168201915b50505050508152602001600682018054612a5990613f55565b80601f0160208091040260200160405190810160405280929190818152602001828054612a8590613f55565b8015612ad25780601f10612aa757610100808354040283529160200191612ad2565b820191906000526020600020905b815481529060010190602001808311612ab557829003601f168201915b50505050508152602001600782018054612aeb90613f55565b80601f0160208091040260200160405190810160405280929190818152602001828054612b1790613f55565b8015612b645780601f10612b3957610100808354040283529160200191612b64565b820191906000526020600020905b815481529060010190602001808311612b4757829003601f168201915b50505050508152602001600882018054612b7d90613f55565b80601f0160208091040260200160405190810160405280929190818152602001828054612ba990613f55565b8015612bf65780601f10612bcb57610100808354040283529160200191612bf6565b820191906000526020600020905b815481529060010190602001808311612bd957829003601f168201915b50505050508152602001600982018054612c0f90613f55565b80601f0160208091040260200160405190810160405280929190818152602001828054612c3b90613f55565b8015612c885780601f10612c5d57610100808354040283529160200191612c88565b820191906000526020600020905b815481529060010190602001808311612c6b57829003601f168201915b5050505050815250509050806000015181602001518260400151836060015184608001518560a001518660c001518760e001518861010001518961012001519b509b509b509b509b509b509b509b509b509b505050612cf7565b8080612ced90613c97565b91505061270e565b505b9193959799509193959799565b60001515612d118a6130a7565b151514612d53576040517f08c379a0000000000000000000000000000000000000000000000000000000008152600401612d4a906142bc565b60405180910390fd5b60056000815480929190612d6690613c97565b919050555060405180610140016040528060055481526020018a73ffffffffffffffffffffffffffffffffffffffff168152602001898152602001888152602001878152602001868152602001858152602001848152602001838152602001828152506002600060055481526020019081526020016000206000820151816000015560208201518160010160006101000a81548173ffffffffffffffffffffffffffffffffffffffff021916908373ffffffffffffffffffffffffffffffffffffffff1602179055506040820151816002019081612e44919061419e565b506060820151816003019081612e5a919061419e565b506080820151816004019081612e70919061419e565b5060a0820151816005019081612e86919061419e565b5060c0820151816006019081612e9c919061419e565b5060e0820151816007019081612eb2919061419e565b50610100820151816008019081612ec9919061419e565b50610120820151816009019081612ee0919061419e565b50905050505050505050505050565b600354811115612f34576040517f08c379a0000000000000000000000000000000000000000000000000000000008152600401612f2b90613c48565b60405180910390fd5b3373ffffffffffffffffffffffffffffffffffffffff1660008083815260200190815260200160002060010160009054906101000a900473ffffffffffffffffffffffffffffffffffffffff1673ffffffffffffffffffffffffffffffffffffffff1614612fd7576040517f08c379a0000000000000000000000000000000000000000000000000000000008152600401612fce9061434e565b60405180910390fd5b346000808381526020019081526020016000206002016000828254612ffc9190613cdf565b9250508190555050565b600080600190505b600354811161309c578273ffffffffffffffffffffffffffffffffffffffff1660008083815260200190815260200160002060010160009054906101000a900473ffffffffffffffffffffffffffffffffffffffff1673ffffffffffffffffffffffffffffffffffffffff16036130895760019150506130a2565b808061309490613c97565b91505061300e565b50600090505b919050565b600080600190505b600554811161313e578273ffffffffffffffffffffffffffffffffffffffff166002600083815260200190815260200160002060010160009054906101000a900473ffffffffffffffffffffffffffffffffffffffff1673ffffffffffffffffffffffffffffffffffffffff160361312b576001915050613144565b808061313690613c97565b9150506130af565b50600090505b919050565b6000604051905090565b600080fd5b600080fd5b600073ffffffffffffffffffffffffffffffffffffffff82169050919050565b60006131888261315d565b9050919050565b6131988161317d565b81146131a357600080fd5b50565b6000813590506131b58161318f565b92915050565b6000819050919050565b6131ce816131bb565b81146131d957600080fd5b50565b6000813590506131eb816131c5565b92915050565b6000806040838503121561320857613207613153565b5b6000613216858286016131a6565b9250506020613227858286016131dc565b9150509250929050565b6000806040838503121561324857613247613153565b5b6000613256858286016131dc565b9250506020613267858286016131dc565b9150509250929050565b600081519050919050565b600082825260208201905092915050565b6000819050602082019050919050565b6132a6816131bb565b82525050565b60006132b8838361329d565b60208301905092915050565b6000602082019050919050565b60006132dc82613271565b6132e6818561327c565b93506132f18361328d565b8060005b8381101561332257815161330988826132ac565b9750613314836132c4565b9250506001810190506132f5565b5085935050505092915050565b600081519050919050565b600082825260208201905092915050565b6000819050602082019050919050565b6133648161317d565b82525050565b6000613376838361335b565b60208301905092915050565b6000602082019050919050565b600061339a8261332f565b6133a4818561333a565b93506133af8361334b565b8060005b838110156133e05781516133c7888261336a565b97506133d283613382565b9250506001810190506133b3565b5085935050505092915050565b600081519050919050565b600082825260208201905092915050565b6000819050602082019050919050565b600081519050919050565b600082825260208201905092915050565b60005b83811015613453578082015181840152602081019050613438565b60008484015250505050565b6000601f19601f8301169050919050565b600061347b82613419565b6134858185613424565b9350613495818560208601613435565b61349e8161345f565b840191505092915050565b60006134b58383613470565b905092915050565b6000602082019050919050565b60006134d5826133ed565b6134df81856133f8565b9350836020820285016134f185613409565b8060005b8581101561352d578484038952815161350e85826134a9565b9450613519836134bd565b925060208a019950506001810190506134f5565b50829750879550505050505092915050565b600061014082019050818103600083015261355a818d6132d1565b9050818103602083015261356e818c61338f565b90508181036040830152613582818b6134ca565b90508181036060830152613596818a6134ca565b905081810360808301526135aa81896134ca565b905081810360a08301526135be81886134ca565b905081810360c08301526135d281876134ca565b905081810360e08301526135e681866134ca565b90508181036101008301526135fb81856134ca565b905081810361012083015261361081846134ca565b90509b9a5050505050505050505050565b60006020828403121561363757613636613153565b5b6000613645848285016131dc565b91505092915050565b613657816131bb565b82525050565b6136668161317d565b82525050565b6000606082019050613681600083018661364e565b61368e602083018561365d565b61369b604083018461364e565b949350505050565b600080fd5b600080fd5b7f4e487b7100000000000000000000000000000000000000000000000000000000600052604160045260246000fd5b6136e58261345f565b810181811067ffffffffffffffff82111715613704576137036136ad565b5b80604052505050565b6000613717613149565b905061372382826136dc565b919050565b600067ffffffffffffffff821115613743576137426136ad565b5b61374c8261345f565b9050602081019050919050565b82818337600083830152505050565b600061377b61377684613728565b61370d565b905082815260208101848484011115613797576137966136a8565b5b6137a2848285613759565b509392505050565b600082601f8301126137bf576137be6136a3565b5b81356137cf848260208601613768565b91505092915050565b60008060008060008060008060006101208a8c0312156137fb576137fa613153565b5b60006138098c828d016131a6565b99505060208a013567ffffffffffffffff81111561382a57613829613158565b5b6138368c828d016137aa565b98505060408a013567ffffffffffffffff81111561385757613856613158565b5b6138638c828d016137aa565b97505060608a013567ffffffffffffffff81111561388457613883613158565b5b6138908c828d016137aa565b96505060808a013567ffffffffffffffff8111156138b1576138b0613158565b5b6138bd8c828d016137aa565b95505060a08a013567ffffffffffffffff8111156138de576138dd613158565b5b6138ea8c828d016137aa565b94505060c08a013567ffffffffffffffff81111561390b5761390a613158565b5b6139178c828d016137aa565b93505060e08a013567ffffffffffffffff81111561393857613937613158565b5b6139448c828d016137aa565b9250506101008a013567ffffffffffffffff81111561396657613965613158565b5b6139728c828d016137aa565b9150509295985092959850929598565b60006020828403121561399857613997613153565b5b60006139a6848285016131a6565b91505092915050565b600082825260208201905092915050565b60006139cb82613419565b6139d581856139af565b93506139e5818560208601613435565b6139ee8161345f565b840191505092915050565b600061016082019050613a0f600083018e61364e565b613a1c602083018d61365d565b613a29604083018c61364e565b8181036060830152613a3b818b6139c0565b90508181036080830152613a4f818a6139c0565b905081810360a0830152613a6381896139c0565b905081810360c0830152613a7781886139c0565b905081810360e0830152613a8b81876139c0565b9050818103610100830152613aa081866139c0565b9050818103610120830152613ab581856139c0565b9050818103610140830152613aca81846139c0565b90509c9b505050505050505050505050565b60006060820190508181036000830152613af681866132d1565b90508181036020830152613b0a818561338f565b90508181036040830152613b1e81846132d1565b9050949350505050565b600061014082019050613b3e600083018d61364e565b613b4b602083018c61365d565b8181036040830152613b5d818b6139c0565b90508181036060830152613b71818a6139c0565b90508181036080830152613b8581896139c0565b905081810360a0830152613b9981886139c0565b905081810360c0830152613bad81876139c0565b905081810360e0830152613bc181866139c0565b9050818103610100830152613bd681856139c0565b9050818103610120830152613beb81846139c0565b90509b9a5050505050505050505050565b7f4164766572746973657220646f6573206e6f7420657869737400000000000000600082015250565b6000613c326019836139af565b9150613c3d82613bfc565b602082019050919050565b60006020820190508181036000830152613c6181613c25565b9050919050565b7f4e487b7100000000000000000000000000000000000000000000000000000000600052601160045260246000fd5b6000613ca2826131bb565b91507fffffffffffffffffffffffffffffffffffffffffffffffffffffffffffffffff8203613cd457613cd3613c68565b5b600182019050919050565b6000613cea826131bb565b9150613cf5836131bb565b9250828201905080821115613d0d57613d0c613c68565b5b92915050565b7f5075626c697368657220646f6573206e6f742065786973740000000000000000600082015250565b6000613d496018836139af565b9150613d5482613d13565b602082019050919050565b60006020820190508181036000830152613d7881613d3c565b9050919050565b7f43616d706169676e20646f6573206e6f74206578697374000000000000000000600082015250565b6000613db56017836139af565b9150613dc082613d7f565b602082019050919050565b60006020820190508181036000830152613de481613da8565b9050919050565b7f4f6e6c79207075626c69736865722063616e2077697468647261770000000000600082015250565b6000613e21601b836139af565b9150613e2c82613deb565b602082019050919050565b60006020820190508181036000830152613e5081613e14565b9050919050565b7f43616d706169676e2062616c616e6365206973207a65726f0000000000000000600082015250565b6000613e8d6018836139af565b9150613e9882613e57565b602082019050919050565b60006020820190508181036000830152613ebc81613e80565b9050919050565b6000613ece826131bb565b9150613ed9836131bb565b9250828203905081811115613ef157613ef0613c68565b5b92915050565b7f4e487b7100000000000000000000000000000000000000000000000000000000600052603260045260246000fd5b7f4e487b7100000000000000000000000000000000000000000000000000000000600052602260045260246000fd5b60006002820490506001821680613f6d57607f821691505b602082108103613f8057613f7f613f26565b5b50919050565b7f4164766572746973657220616c72656164792065786973747300000000000000600082015250565b6000613fbc6019836139af565b9150613fc782613f86565b602082019050919050565b60006020820190508181036000830152613feb81613faf565b9050919050565b60008190508160005260206000209050919050565b60006020601f8301049050919050565b600082821b905092915050565b6000600883026140547fffffffffffffffffffffffffffffffffffffffffffffffffffffffffffffffff82614017565b61405e8683614017565b95508019841693508086168417925050509392505050565b6000819050919050565b600061409b614096614091846131bb565b614076565b6131bb565b9050919050565b6000819050919050565b6140b583614080565b6140c96140c1826140a2565b848454614024565b825550505050565b600090565b6140de6140d1565b6140e98184846140ac565b505050565b5b8181101561410d576141026000826140d6565b6001810190506140ef565b5050565b601f8211156141525761412381613ff2565b61412c84614007565b8101602085101561413b578190505b61414f61414785614007565b8301826140ee565b50505b505050565b600082821c905092915050565b600061417560001984600802614157565b1980831691505092915050565b600061418e8383614164565b9150826002028217905092915050565b6141a782613419565b67ffffffffffffffff8111156141c0576141bf6136ad565b5b6141ca8254613f55565b6141d5828285614111565b600060209050601f83116001811461420857600084156141f6578287015190505b6142008582614182565b865550614268565b601f19841661421686613ff2565b60005b8281101561423e57848901518255600182019150602085019450602081019050614219565b8683101561425b5784890151614257601f891682614164565b8355505b6001600288020188555050505b505050505050565b7f5075626c697368657220616c7265616479206578697374730000000000000000600082015250565b60006142a66018836139af565b91506142b182614270565b602082019050919050565b600060208201905081810360008301526142d581614299565b9050919050565b7f4f6e6c7920616476657274697365722063616e206465706f7369742066756e6460008201527f7300000000000000000000000000000000000000000000000000000000000000602082015250565b60006143386021836139af565b9150614343826142dc565b604082019050919050565b600060208201905081810360008301526143678161432b565b905091905056fea264697066735822122008668864e14f6b311d2e35e77dd12735dc48aaa1ed4f42dcc453a12546b3ac2464736f6c63430008120033",
  "linkReferences": {},
  "deployedLinkReferences": {}
}